{
  "contractName": "ControllerRole",
  "abi": [
    {
      "inputs": [],
      "payable": false,
      "stateMutability": "nonpayable",
      "type": "constructor"
    },
    {
      "constant": true,
      "inputs": [
        {
          "internalType": "address",
          "name": "account",
          "type": "address"
        }
      ],
      "name": "isController",
      "outputs": [
        {
          "internalType": "bool",
          "name": "",
          "type": "bool"
        }
      ],
      "payable": false,
      "stateMutability": "view",
      "type": "function"
    },
    {
      "constant": false,
      "inputs": [
        {
          "internalType": "address",
          "name": "account",
          "type": "address"
        }
      ],
      "name": "addController",
      "outputs": [],
      "payable": false,
      "stateMutability": "nonpayable",
      "type": "function"
    },
    {
      "constant": false,
      "inputs": [],
      "name": "renounceController",
      "outputs": [],
      "payable": false,
      "stateMutability": "nonpayable",
      "type": "function"
    }
  ],
  "bytecode": "0x608060405234801561001057600080fd5b506100203361002560201b60201c565b6101ff565b61003d81600061004060201b6102ff1790919060201c565b50565b610050828261012160201b60201c565b156100c3576040517f08c379a000000000000000000000000000000000000000000000000000000000815260040180806020018281038252601f8152602001807f526f6c65733a206163636f756e7420616c72656164792068617320726f6c650081525060200191505060405180910390fd5b60018260000160008373ffffffffffffffffffffffffffffffffffffffff1673ffffffffffffffffffffffffffffffffffffffff16815260200190815260200160002060006101000a81548160ff0219169083151502179055505050565b60008073ffffffffffffffffffffffffffffffffffffffff168273ffffffffffffffffffffffffffffffffffffffff1614156101a8576040517f08c379a00000000000000000000000000000000000000000000000000000000081526004018080602001828103825260228152602001806106606022913960400191505060405180910390fd5b8260000160008373ffffffffffffffffffffffffffffffffffffffff1673ffffffffffffffffffffffffffffffffffffffff16815260200190815260200160002060009054906101000a900460ff16905092915050565b6104528061020e6000396000f3fe608060405234801561001057600080fd5b50600436106100415760003560e01c806366ac3b6814610046578063a7fc7a0714610050578063b429afeb14610094575b600080fd5b61004e6100f0565b005b6100926004803603602081101561006657600080fd5b81019080803573ffffffffffffffffffffffffffffffffffffffff1690602001909291905050506100fb565b005b6100d6600480360360208110156100aa57600080fd5b81019080803573ffffffffffffffffffffffffffffffffffffffff169060200190929190505050610119565b604051808215151515815260200191505060405180910390f35b6100f933610136565b565b61010433610119565b61010d57600080fd5b6101168161014d565b50565b600061012f82600061016490919063ffffffff16565b9050919050565b61014a81600061024290919063ffffffff16565b50565b6101618160006102ff90919063ffffffff16565b50565b60008073ffffffffffffffffffffffffffffffffffffffff168273ffffffffffffffffffffffffffffffffffffffff1614156101eb576040517f08c379a00000000000000000000000000000000000000000000000000000000081526004018080602001828103825260228152602001806103fc6022913960400191505060405180910390fd5b8260000160008373ffffffffffffffffffffffffffffffffffffffff1673ffffffffffffffffffffffffffffffffffffffff16815260200190815260200160002060009054906101000a900460ff16905092915050565b61024c8282610164565b6102a1576040517f08c379a00000000000000000000000000000000000000000000000000000000081526004018080602001828103825260218152602001806103db6021913960400191505060405180910390fd5b60008260000160008373ffffffffffffffffffffffffffffffffffffffff1673ffffffffffffffffffffffffffffffffffffffff16815260200190815260200160002060006101000a81548160ff0219169083151502179055505050565b6103098282610164565b1561037c576040517f08c379a000000000000000000000000000000000000000000000000000000000815260040180806020018281038252601f8152602001807f526f6c65733a206163636f756e7420616c72656164792068617320726f6c650081525060200191505060405180910390fd5b60018260000160008373ffffffffffffffffffffffffffffffffffffffff1673ffffffffffffffffffffffffffffffffffffffff16815260200190815260200160002060006101000a81548160ff021916908315150217905550505056fe526f6c65733a206163636f756e7420646f6573206e6f74206861766520726f6c65526f6c65733a206163636f756e7420697320746865207a65726f2061646472657373a265627a7a72315820c646ebec4bdf5aeecf95b3ae1b11ae2711042cf7061df26c7bf1f2531724c35e64736f6c634300050c0032526f6c65733a206163636f756e7420697320746865207a65726f2061646472657373",
  "source": "pragma solidity 0.5.12;\n\nimport \"@openzeppelin/contracts/access/Roles.sol\";\n\n// solium-disable error-reason\n\n/**\n * @title ControllerRole\n * @dev An Controller role defined using the Open Zeppelin Role system.\n */\ncontract ControllerRole {\n\n    using Roles for Roles.Role;\n\n    // NOTE: Commented out standard Role events to save gas.\n    // event ControllerAdded(address indexed account);\n    // event ControllerRemoved(address indexed account);\n\n    Roles.Role private _controllers;\n\n    constructor () public {\n        _addController(msg.sender);\n    }\n\n    modifier onlyController() {\n        require(isController(msg.sender));\n        _;\n    }\n\n    function isController(address account) public view returns (bool) {\n        return _controllers.has(account);\n    }\n\n    function addController(address account) public onlyController {\n        _addController(account);\n    }\n\n    function renounceController() public {\n        _removeController(msg.sender);\n    }\n\n    function _addController(address account) internal {\n        _controllers.add(account);\n        // emit ControllerAdded(account);\n    }\n\n    function _removeController(address account) internal {\n        _controllers.remove(account);\n        // emit ControllerRemoved(account);\n    }\n\n}\n",
  "sourcePath": "/Users/aquila/Documents/GitHub/dot-crypto/contracts/util/ControllerRole.sol",
  "compiler": {
    "name": "solc",
    "version": "0.5.12+commit.7709ece9.Emscripten.clang"
  },
  "schemaVersion": "3.2.5",
  "updatedAt": "2020-10-05T14:41:20.179Z",
  "devdoc": {
    "details": "An Controller role defined using the Open Zeppelin Role system.",
    "methods": {},
    "title": "ControllerRole"
  },
  "userdoc": {
    "methods": {}
  }
}