{
  "contractName": "FreeMinter",
  "abi": [
    {
      "inputs": [
        {
          "internalType": "contract MintingController",
          "name": "mintingController",
          "type": "address"
        },
        {
          "internalType": "contract IResolver",
          "name": "resolver",
          "type": "address"
        },
        {
          "internalType": "contract IRegistryReader",
          "name": "registry",
          "type": "address"
        }
      ],
      "payable": false,
      "stateMutability": "nonpayable",
      "type": "constructor"
    },
    {
      "constant": true,
      "inputs": [],
      "name": "NAME",
      "outputs": [
        {
          "internalType": "string",
          "name": "",
          "type": "string"
        }
      ],
      "payable": false,
      "stateMutability": "view",
      "type": "function"
    },
    {
      "constant": true,
      "inputs": [],
      "name": "VERSION",
      "outputs": [
        {
          "internalType": "string",
          "name": "",
          "type": "string"
        }
      ],
      "payable": false,
      "stateMutability": "view",
      "type": "function"
    },
    {
      "constant": false,
      "inputs": [
        {
          "internalType": "string",
          "name": "label",
          "type": "string"
        }
      ],
      "name": "claim",
      "outputs": [],
      "payable": false,
      "stateMutability": "nonpayable",
      "type": "function"
    },
    {
      "constant": false,
      "inputs": [
        {
          "internalType": "string",
          "name": "label",
          "type": "string"
        },
        {
          "internalType": "address",
          "name": "receiver",
          "type": "address"
        }
      ],
      "name": "claimTo",
      "outputs": [],
      "payable": false,
      "stateMutability": "nonpayable",
      "type": "function"
    },
    {
      "constant": false,
      "inputs": [
        {
          "internalType": "string",
          "name": "label",
          "type": "string"
        },
        {
          "internalType": "address",
          "name": "receiver",
          "type": "address"
        },
        {
          "internalType": "string[]",
          "name": "keys",
          "type": "string[]"
        },
        {
          "internalType": "string[]",
          "name": "values",
          "type": "string[]"
        }
      ],
      "name": "claimToWithRecords",
      "outputs": [],
      "payable": false,
      "stateMutability": "nonpayable",
      "type": "function"
    }
  ],
  "bytecode": "0x60806040523480156200001157600080fd5b5060405162000e8438038062000e84833981810160405262000037919081019062000147565b826000806101000a81548173ffffffffffffffffffffffffffffffffffffffff021916908373ffffffffffffffffffffffffffffffffffffffff16021790555081600160006101000a81548173ffffffffffffffffffffffffffffffffffffffff021916908373ffffffffffffffffffffffffffffffffffffffff16021790555080600260006101000a81548173ffffffffffffffffffffffffffffffffffffffff021916908373ffffffffffffffffffffffffffffffffffffffff1602179055505050506200025b565b60008151905062000113816200020d565b92915050565b6000815190506200012a8162000227565b92915050565b600081519050620001418162000241565b92915050565b6000806000606084860312156200015d57600080fd5b60006200016d8682870162000130565b9350506020620001808682870162000119565b9250506040620001938682870162000102565b9150509250925092565b6000620001aa82620001ed565b9050919050565b6000620001be826200019d565b9050919050565b6000620001d2826200019d565b9050919050565b6000620001e6826200019d565b9050919050565b600073ffffffffffffffffffffffffffffffffffffffff82169050919050565b6200021881620001b1565b81146200022457600080fd5b50565b6200023281620001c5565b81146200023e57600080fd5b50565b6200024c81620001d9565b81146200025857600080fd5b50565b610c19806200026b6000396000f3fe608060405234801561001057600080fd5b50600436106100575760003560e01c80639dcb816a1461005c578063a3f4df7e14610078578063bba652d914610096578063f3fe12c9146100b2578063ffa1ad74146100ce575b600080fd5b610076600480360361007191908101906106cd565b6100ec565b005b610080610341565b60405161008d9190610a05565b60405180910390f35b6100b060048036036100ab9190810190610675565b61037a565b005b6100cc60048036036100c79190810190610630565b6103ce565b005b6100d6610421565b6040516100e39190610a05565b60405180910390f35b606061013c88888080601f016020809104026020016040519081016040528093929190818152602001838380828437600081840152601f19601f820116905080830192505050505050508761045a565b905060008585905014156101505750610338565b6000600260009054906101000a900473ffffffffffffffffffffffffffffffffffffffff1673ffffffffffffffffffffffffffffffffffffffff166368b62d32600260009054906101000a900473ffffffffffffffffffffffffffffffffffffffff1673ffffffffffffffffffffffffffffffffffffffff1663ebf0c7176040518163ffffffff1660e01b815260040160206040518083038186803b1580156101f857600080fd5b505afa15801561020c573d6000803e3d6000fd5b505050506040513d601f19601f820116820180604052506102309190810190610786565b846040518363ffffffff1660e01b815260040161024e929190610a27565b60206040518083038186803b15801561026657600080fd5b505afa15801561027a573d6000803e3d6000fd5b505050506040513d601f19601f8201168201806040525061029e9190810190610786565b9050600160009054906101000a900473ffffffffffffffffffffffffffffffffffffffff1673ffffffffffffffffffffffffffffffffffffffff1663e837ae7487878787866040518663ffffffff1660e01b81526004016103039594939291906109bc565b600060405180830381600087803b15801561031d57600080fd5b505af1158015610331573d6000803e3d6000fd5b5050505050505b50505050505050565b6040518060400160405280601f81526020017f556e73746f707061626c65204672656520446f6d61696e73204d696e7465720081525081565b6103c883838080601f016020809104026020016040519081016040528093929190818152602001838380828437600081840152601f19601f820116905080830192505050505050508261045a565b50505050565b61041c82828080601f016020809104026020016040519081016040528093929190818152602001838380828437600081840152601f19601f820116905080830192505050505050503361045a565b505050565b6040518060400160405280600581526020017f302e312e3000000000000000000000000000000000000000000000000000000081525081565b6060806040518060400160405280600a81526020017f7564746573746465762d00000000000000000000000000000000000000000000815250846040516020016104a592919061095a565b60405160208183030381529060405290506000809054906101000a900473ffffffffffffffffffffffffffffffffffffffff1673ffffffffffffffffffffffffffffffffffffffff1663c36c21258483600160009054906101000a900473ffffffffffffffffffffffffffffffffffffffff166040518463ffffffff1660e01b81526004016105369392919061097e565b600060405180830381600087803b15801561055057600080fd5b505af1158015610564573d6000803e3d6000fd5b505050508091505092915050565b60008135905061058181610ba8565b92915050565b60008083601f84011261059957600080fd5b8235905067ffffffffffffffff8111156105b257600080fd5b6020830191508360208202830111156105ca57600080fd5b9250929050565b60008083601f8401126105e357600080fd5b8235905067ffffffffffffffff8111156105fc57600080fd5b60208301915083600182028301111561061457600080fd5b9250929050565b60008151905061062a81610bbf565b92915050565b6000806020838503121561064357600080fd5b600083013567ffffffffffffffff81111561065d57600080fd5b610669858286016105d1565b92509250509250929050565b60008060006040848603121561068a57600080fd5b600084013567ffffffffffffffff8111156106a457600080fd5b6106b0868287016105d1565b935093505060206106c386828701610572565b9150509250925092565b60008060008060008060006080888a0312156106e857600080fd5b600088013567ffffffffffffffff81111561070257600080fd5b61070e8a828b016105d1565b975097505060206107218a828b01610572565b955050604088013567ffffffffffffffff81111561073e57600080fd5b61074a8a828b01610587565b9450945050606088013567ffffffffffffffff81111561076957600080fd5b6107758a828b01610587565b925092505092959891949750929550565b60006020828403121561079857600080fd5b60006107a68482850161061b565b91505092915050565b60006107bc84848461084a565b90509392505050565b6107ce81610b19565b82525050565b60006107e08385610a84565b9350836020840285016107f284610a57565b8060005b8781101561083857848403895261080d8284610ac2565b6108188682846107af565b955061082384610a77565b935060208b019a5050506001810190506107f6565b50829750879450505050509392505050565b60006108568385610a95565b9350610863838584610b55565b61086c83610b97565b840190509392505050565b600061088282610a6c565b61088c8185610aa6565b935061089c818560208601610b64565b6108a581610b97565b840191505092915050565b60006108bb82610a6c565b6108c58185610ab7565b93506108d5818560208601610b64565b80840191505092915050565b60006108ec82610a61565b6108f68185610aa6565b9350610906818560208601610b64565b61090f81610b97565b840191505092915050565b600061092582610a61565b61092f8185610ab7565b935061093f818560208601610b64565b80840191505092915050565b61095481610b4b565b82525050565b6000610966828561091a565b915061097282846108b0565b91508190509392505050565b600060608201905061099360008301866107c5565b81810360208301526109a58185610877565b90506109b460408301846107c5565b949350505050565b600060608201905081810360008301526109d78187896107d4565b905081810360208301526109ec8185876107d4565b90506109fb604083018461094b565b9695505050505050565b60006020820190508181036000830152610a1f81846108e1565b905092915050565b6000604082019050610a3c600083018561094b565b8181036020830152610a4e8184610877565b90509392505050565b6000819050919050565b600081519050919050565b600081519050919050565b6000602082019050919050565b600082825260208201905092915050565b600082825260208201905092915050565b600082825260208201905092915050565b600081905092915050565b60008083356001602003843603038112610adb57600080fd5b83810192508235915060208301925067ffffffffffffffff821115610aff57600080fd5b600182023603841315610b1157600080fd5b509250929050565b6000610b2482610b2b565b9050919050565b600073ffffffffffffffffffffffffffffffffffffffff82169050919050565b6000819050919050565b82818337600083830152505050565b60005b83811015610b82578082015181840152602081019050610b67565b83811115610b91576000848401525b50505050565b6000601f19601f8301169050919050565b610bb181610b19565b8114610bbc57600080fd5b50565b610bc881610b4b565b8114610bd357600080fd5b5056fea365627a7a7231582080ef46cccfde3449bf5abab693245eee850878c36f72e29f06508198601a85726c6578706572696d656e74616cf564736f6c634300050c0040",
  "source": "pragma solidity 0.5.12;\npragma experimental ABIEncoderV2;\n\nimport \"../IResolver.sol\";\nimport \"../IRegistryReader.sol\";\nimport \"../controllers/MintingController.sol\";\n\ncontract FreeMinter {\n    string public constant NAME = 'Unstoppable Free Domains Minter';\n    string public constant VERSION = '0.1.0';\n    string private constant DOMAIN_NAME_PREFIX = 'udtestdev-';\n\n    MintingController private _mintingController;\n    IResolver private _resolver;\n    IRegistryReader private _registry;\n\n    constructor(MintingController mintingController, IResolver resolver, IRegistryReader registry) public {\n        _mintingController = mintingController;\n        _resolver = resolver;\n        _registry = registry;\n    }\n\n    function claim(string calldata label) external {\n        mintSLD(label, msg.sender);\n    }\n\n    function claimTo(string calldata label, address receiver) external {\n        mintSLD(label, receiver);\n    }\n\n    function claimToWithRecords(string calldata label, address receiver, string[] calldata keys, string[] calldata values) external {\n        string memory labelWithPrefix = mintSLD(label, receiver);\n        if (keys.length == 0) {\n            return;\n        }\n        uint256 tokenId = _registry.childIdOf(_registry.root(), labelWithPrefix);\n        _resolver.preconfigure(keys, values, tokenId);\n    }\n\n    function mintSLD(string memory label, address receiver) private returns (string memory) {\n        string memory labelWithPrefix = string(abi.encodePacked(DOMAIN_NAME_PREFIX, label));\n        _mintingController.mintSLDWithResolver(receiver, labelWithPrefix, address(_resolver));\n\n        return labelWithPrefix;\n    }\n}\n",
  "sourcePath": "/Users/aquila/Documents/GitHub/dot-crypto/contracts/util/FreeMinter.sol",
  "compiler": {
    "name": "solc",
    "version": "0.5.12+commit.7709ece9.Emscripten.clang"
  },
  "schemaVersion": "3.3.4",
  "updatedAt": "2021-07-13T17:26:15.824Z",
  "devdoc": {
    "methods": {}
  },
  "userdoc": {
    "methods": {}
  }
}