{
  "contractName": "FreeRegistrar",
  "abi": [
    {
      "inputs": [
        {
          "internalType": "contract IRegistry",
          "name": "registry",
          "type": "address"
        },
        {
          "internalType": "uint256",
          "name": "parentTokenId",
          "type": "uint256"
        }
      ],
      "payable": false,
      "stateMutability": "nonpayable",
      "type": "constructor"
    },
    {
      "anonymous": false,
      "inputs": [
        {
          "indexed": true,
          "internalType": "uint256",
          "name": "tokenId",
          "type": "uint256"
        },
        {
          "indexed": true,
          "internalType": "uint256",
          "name": "parentTokenId",
          "type": "uint256"
        },
        {
          "indexed": false,
          "internalType": "string",
          "name": "label",
          "type": "string"
        }
      ],
      "name": "MintChild",
      "type": "event"
    },
    {
      "constant": true,
      "inputs": [],
      "name": "registry",
      "outputs": [
        {
          "internalType": "address",
          "name": "",
          "type": "address"
        }
      ],
      "payable": false,
      "stateMutability": "view",
      "type": "function"
    },
    {
      "constant": true,
      "inputs": [],
      "name": "parentTokenId",
      "outputs": [
        {
          "internalType": "uint256",
          "name": "",
          "type": "uint256"
        }
      ],
      "payable": false,
      "stateMutability": "view",
      "type": "function"
    },
    {
      "constant": false,
      "inputs": [
        {
          "internalType": "address",
          "name": "to",
          "type": "address"
        },
        {
          "internalType": "string",
          "name": "label",
          "type": "string"
        }
      ],
      "name": "mintChild",
      "outputs": [],
      "payable": false,
      "stateMutability": "nonpayable",
      "type": "function"
    }
  ],
  "bytecode": "0x608060405234801561001057600080fd5b5060405161049f38038061049f8339818101604052604081101561003357600080fd5b810190808051906020019092919080519060200190929190505050816000806101000a81548173ffffffffffffffffffffffffffffffffffffffff021916908373ffffffffffffffffffffffffffffffffffffffff1602179055508060018190555050506103f9806100a66000396000f3fe608060405234801561001057600080fd5b50600436106100415760003560e01c806328d8c5b1146100465780637b103999146100df578063d7f083f314610129575b600080fd5b6100dd6004803603604081101561005c57600080fd5b81019080803573ffffffffffffffffffffffffffffffffffffffff1690602001909291908035906020019064010000000081111561009957600080fd5b8201836020820111156100ab57600080fd5b803590602001918460018302840111640100000000831117156100cd57600080fd5b9091929391929390505050610147565b005b6100e7610391565b604051808273ffffffffffffffffffffffffffffffffffffffff1673ffffffffffffffffffffffffffffffffffffffff16815260200191505060405180910390f35b6101316103ba565b6040518082815260200191505060405180910390f35b60008060009054906101000a900473ffffffffffffffffffffffffffffffffffffffff1673ffffffffffffffffffffffffffffffffffffffff166368b62d3260015485856040518463ffffffff1660e01b815260040180848152602001806020018281038252848482818152602001925080828437600081840152601f19601f82011690508083019250505094505050505060206040518083038186803b1580156101f157600080fd5b505afa158015610205573d6000803e3d6000fd5b505050506040513d602081101561021b57600080fd5b810190808051906020019092919050505090506000809054906101000a900473ffffffffffffffffffffffffffffffffffffffff1673ffffffffffffffffffffffffffffffffffffffff1663d8d3cc6e8560015486866040518563ffffffff1660e01b8152600401808573ffffffffffffffffffffffffffffffffffffffff1673ffffffffffffffffffffffffffffffffffffffff168152602001848152602001806020018281038252848482818152602001925080828437600081840152601f19601f82011690508083019250505095505050505050600060405180830381600087803b15801561030c57600080fd5b505af1158015610320573d6000803e3d6000fd5b50505050600154817f5653f60014b57c7e76e4b4be42e724badf242bc2918de8c398c2c3ab542dea38858560405180806020018281038252848482818152602001925080828437600081840152601f19601f820116905080830192505050935050505060405180910390a350505050565b60008060009054906101000a900473ffffffffffffffffffffffffffffffffffffffff16905090565b600060015490509056fea265627a7a723158204724bcf6522bfaec2cfc5a5e529e6805e32571b7498d7d66b02c0147f017dc9164736f6c634300050c0032",
  "source": "pragma solidity 0.5.12;\r\n\r\nimport \"../IRegistry.sol\";\r\n\r\ncontract FreeRegistrar {\r\n\r\n    event MintChild(uint256 indexed tokenId, uint256 indexed parentTokenId, string label);\r\n\r\n    IRegistry internal _registry;\r\n    uint256 internal _parentTokenId;\r\n\r\n    constructor (IRegistry registry, uint256 parentTokenId) public {\r\n        _registry = registry;\r\n        _parentTokenId = parentTokenId;\r\n    }\r\n\r\n    function registry() external view returns (address) {\r\n        return address(_registry);\r\n    }\r\n\r\n    function parentTokenId() external view returns (uint256) {\r\n        return _parentTokenId;\r\n    }\r\n\r\n    function mintChild(address to, string calldata label) external {\r\n        uint256 childTokenId = _registry.childIdOf(_parentTokenId, label);\r\n        _registry.mintChild(to, _parentTokenId, label);\r\n        emit MintChild(childTokenId, _parentTokenId, label);\r\n    }\r\n}\r\n",
  "sourcePath": "/Users/aquila/Documents/GitHub/dot-crypto/contracts/controllers/FreeRegistrar.sol",
  "compiler": {
    "name": "solc",
    "version": "0.5.12+commit.7709ece9.Emscripten.clang"
  },
  "schemaVersion": "3.2.5",
  "updatedAt": "2020-10-05T14:41:20.158Z",
  "devdoc": {
    "methods": {}
  },
  "userdoc": {
    "methods": {}
  }
}