{
  "contractName": "Resolver",
  "abi": [
    {
      "inputs": [
        {
          "internalType": "contract Registry",
          "name": "registry",
          "type": "address"
        },
        {
          "internalType": "contract MintingController",
          "name": "mintingController",
          "type": "address"
        }
      ],
      "payable": false,
      "stateMutability": "nonpayable",
      "type": "constructor"
    },
    {
      "anonymous": false,
      "inputs": [
        {
          "indexed": true,
          "internalType": "uint256",
          "name": "preset",
          "type": "uint256"
        },
        {
          "indexed": true,
          "internalType": "string",
          "name": "key",
          "type": "string"
        },
        {
          "indexed": false,
          "internalType": "string",
          "name": "value",
          "type": "string"
        },
        {
          "indexed": true,
          "internalType": "uint256",
          "name": "tokenId",
          "type": "uint256"
        }
      ],
      "name": "Set",
      "type": "event"
    },
    {
      "anonymous": false,
      "inputs": [
        {
          "indexed": true,
          "internalType": "uint256",
          "name": "preset",
          "type": "uint256"
        },
        {
          "indexed": true,
          "internalType": "uint256",
          "name": "tokenId",
          "type": "uint256"
        }
      ],
      "name": "SetPreset",
      "type": "event"
    },
    {
      "constant": true,
      "inputs": [
        {
          "internalType": "uint256",
          "name": "tokenId",
          "type": "uint256"
        }
      ],
      "name": "nonceOf",
      "outputs": [
        {
          "internalType": "uint256",
          "name": "",
          "type": "uint256"
        }
      ],
      "payable": false,
      "stateMutability": "view",
      "type": "function"
    },
    {
      "constant": true,
      "inputs": [],
      "name": "registry",
      "outputs": [
        {
          "internalType": "address",
          "name": "",
          "type": "address"
        }
      ],
      "payable": false,
      "stateMutability": "view",
      "type": "function"
    },
    {
      "constant": true,
      "inputs": [
        {
          "internalType": "uint256",
          "name": "tokenId",
          "type": "uint256"
        }
      ],
      "name": "presetOf",
      "outputs": [
        {
          "internalType": "uint256",
          "name": "",
          "type": "uint256"
        }
      ],
      "payable": false,
      "stateMutability": "view",
      "type": "function"
    },
    {
      "constant": false,
      "inputs": [
        {
          "internalType": "uint256",
          "name": "presetId",
          "type": "uint256"
        },
        {
          "internalType": "uint256",
          "name": "tokenId",
          "type": "uint256"
        }
      ],
      "name": "setPreset",
      "outputs": [],
      "payable": false,
      "stateMutability": "nonpayable",
      "type": "function"
    },
    {
      "constant": false,
      "inputs": [
        {
          "internalType": "uint256",
          "name": "presetId",
          "type": "uint256"
        },
        {
          "internalType": "uint256",
          "name": "tokenId",
          "type": "uint256"
        },
        {
          "internalType": "bytes",
          "name": "signature",
          "type": "bytes"
        }
      ],
      "name": "setPresetFor",
      "outputs": [],
      "payable": false,
      "stateMutability": "nonpayable",
      "type": "function"
    },
    {
      "constant": false,
      "inputs": [
        {
          "internalType": "uint256",
          "name": "tokenId",
          "type": "uint256"
        }
      ],
      "name": "reset",
      "outputs": [],
      "payable": false,
      "stateMutability": "nonpayable",
      "type": "function"
    },
    {
      "constant": false,
      "inputs": [
        {
          "internalType": "uint256",
          "name": "tokenId",
          "type": "uint256"
        },
        {
          "internalType": "bytes",
          "name": "signature",
          "type": "bytes"
        }
      ],
      "name": "resetFor",
      "outputs": [],
      "payable": false,
      "stateMutability": "nonpayable",
      "type": "function"
    },
    {
      "constant": true,
      "inputs": [
        {
          "internalType": "string",
          "name": "key",
          "type": "string"
        },
        {
          "internalType": "uint256",
          "name": "tokenId",
          "type": "uint256"
        }
      ],
      "name": "get",
      "outputs": [
        {
          "internalType": "string",
          "name": "",
          "type": "string"
        }
      ],
      "payable": false,
      "stateMutability": "view",
      "type": "function"
    },
    {
      "constant": false,
      "inputs": [
        {
          "internalType": "string[]",
          "name": "keys",
          "type": "string[]"
        },
        {
          "internalType": "string[]",
          "name": "values",
          "type": "string[]"
        },
        {
          "internalType": "uint256",
          "name": "tokenId",
          "type": "uint256"
        }
      ],
      "name": "preconfigure",
      "outputs": [],
      "payable": false,
      "stateMutability": "nonpayable",
      "type": "function"
    },
    {
      "constant": false,
      "inputs": [
        {
          "internalType": "string",
          "name": "key",
          "type": "string"
        },
        {
          "internalType": "string",
          "name": "value",
          "type": "string"
        },
        {
          "internalType": "uint256",
          "name": "tokenId",
          "type": "uint256"
        }
      ],
      "name": "set",
      "outputs": [],
      "payable": false,
      "stateMutability": "nonpayable",
      "type": "function"
    },
    {
      "constant": false,
      "inputs": [
        {
          "internalType": "string",
          "name": "key",
          "type": "string"
        },
        {
          "internalType": "string",
          "name": "value",
          "type": "string"
        },
        {
          "internalType": "uint256",
          "name": "tokenId",
          "type": "uint256"
        },
        {
          "internalType": "bytes",
          "name": "signature",
          "type": "bytes"
        }
      ],
      "name": "setFor",
      "outputs": [],
      "payable": false,
      "stateMutability": "nonpayable",
      "type": "function"
    },
    {
      "constant": true,
      "inputs": [
        {
          "internalType": "string[]",
          "name": "keys",
          "type": "string[]"
        },
        {
          "internalType": "uint256",
          "name": "tokenId",
          "type": "uint256"
        }
      ],
      "name": "getMany",
      "outputs": [
        {
          "internalType": "string[]",
          "name": "",
          "type": "string[]"
        }
      ],
      "payable": false,
      "stateMutability": "view",
      "type": "function"
    },
    {
      "constant": false,
      "inputs": [
        {
          "internalType": "string[]",
          "name": "keys",
          "type": "string[]"
        },
        {
          "internalType": "string[]",
          "name": "values",
          "type": "string[]"
        },
        {
          "internalType": "uint256",
          "name": "tokenId",
          "type": "uint256"
        }
      ],
      "name": "setMany",
      "outputs": [],
      "payable": false,
      "stateMutability": "nonpayable",
      "type": "function"
    },
    {
      "constant": false,
      "inputs": [
        {
          "internalType": "string[]",
          "name": "keys",
          "type": "string[]"
        },
        {
          "internalType": "string[]",
          "name": "values",
          "type": "string[]"
        },
        {
          "internalType": "uint256",
          "name": "tokenId",
          "type": "uint256"
        },
        {
          "internalType": "bytes",
          "name": "signature",
          "type": "bytes"
        }
      ],
      "name": "setManyFor",
      "outputs": [],
      "payable": false,
      "stateMutability": "nonpayable",
      "type": "function"
    }
  ],
  "bytecode": "0x60806040523480156200001157600080fd5b506040516200282e3803806200282e8339818101604052620000379190810190620001ee565b8180600160006101000a81548173ffffffffffffffffffffffffffffffffffffffff021916908373ffffffffffffffffffffffffffffffffffffffff160217905550508073ffffffffffffffffffffffffffffffffffffffff16637b1039996040518163ffffffff1660e01b815260040160206040518083038186803b158015620000c157600080fd5b505afa158015620000d6573d6000803e3d6000fd5b505050506040513d601f19601f82011682018060405250620000fc9190810190620001c2565b73ffffffffffffffffffffffffffffffffffffffff168273ffffffffffffffffffffffffffffffffffffffff16146200013457600080fd5b80600460006101000a81548173ffffffffffffffffffffffffffffffffffffffff021916908373ffffffffffffffffffffffffffffffffffffffff1602179055505050620002d9565b6000815190506200018e816200028b565b92915050565b600081519050620001a581620002a5565b92915050565b600081519050620001bc81620002bf565b92915050565b600060208284031215620001d557600080fd5b6000620001e5848285016200017d565b91505092915050565b600080604083850312156200020257600080fd5b60006200021285828601620001ab565b9250506020620002258582860162000194565b9150509250929050565b60006200023c826200026b565b9050919050565b600062000250826200022f565b9050919050565b600062000264826200022f565b9050919050565b600073ffffffffffffffffffffffffffffffffffffffff82169050919050565b62000296816200022f565b8114620002a257600080fd5b50565b620002b08162000243565b8114620002bc57600080fd5b50565b620002ca8162000257565b8114620002d657600080fd5b50565b61254580620002e96000396000f3fe608060405234801561001057600080fd5b50600436106100ea5760003560e01c80637a9eea461161008c578063b87abc1111610066578063b87abc1114610259578063c597407314610275578063ce92b33e14610291578063e837ae74146102ad576100ea565b80637a9eea46146101ef5780637b1039991461021f5780638f69c1881461023d576100ea565b806332184f2e116100c857806332184f2e1461016b57806339b9d1651461018757806347c81699146101a35780636ccbae5f146101bf576100ea565b80631bd8cc1a146100ef5780631be5e7ed1461011f578063310bd74b1461014f575b600080fd5b61010960048036036101049190810190611887565b6102c9565b60405161011691906120c0565b60405180910390f35b61013960048036036101349190810190611b74565b6105b7565b60405161014691906121b5565b60405180910390f35b61016960048036036101649190810190611bc8565b6107c7565b005b61018560048036036101809190810190611c49565b61088a565b005b6101a1600480360361019c9190810190611c85565b61094e565b005b6101bd60048036036101b89190810190611a32565b610a2b565b005b6101d960048036036101d49190810190611bc8565b610b8f565b6040516101e691906121f7565b60405180910390f35b61020960048036036102049190810190611bc8565b610bab565b60405161021691906121f7565b60405180910390f35b610227610bc8565b6040516102349190612038565b60405180910390f35b6102576004803603610252919081019061195e565b610bf2565b005b610273600480360361026e9190810190611bf1565b610ca2565b005b61028f600480360361028a9190810190611abb565b610d7c565b005b6102ab60048036036102a691908101906118df565b610eff565b005b6102c760048036036102c291908101906118df565b610fd9565b005b606081600160009054906101000a900473ffffffffffffffffffffffffffffffffffffffff1673ffffffffffffffffffffffffffffffffffffffff1663b3f9e4cb826040518263ffffffff1660e01b815260040161032791906121f7565b60206040518083038186803b15801561033f57600080fd5b505afa158015610353573d6000803e3d6000fd5b505050506040513d601f19601f82011682018060405250610377919081019061185e565b73ffffffffffffffffffffffffffffffffffffffff163073ffffffffffffffffffffffffffffffffffffffff16146103e4576040517f08c379a00000000000000000000000000000000000000000000000000000000081526004016103db906121d7565b60405180910390fd5b600085859050905060608160405190808252806020026020018201604052801561042257816020015b606081526020019060019003908161040d5790505b50905060006003600087815260200190815260200160002054905060008090505b838110156105a85760026000888152602001908152602001600020600083815260200190815260200160002089898381811061047b57fe5b905060200281018035600160200383360303811261049857600080fd5b8083019250508135905060208201915067ffffffffffffffff8111156104bd57600080fd5b6001810236038213156104cf57600080fd5b6040516104dd929190611fe2565b90815260200160405180910390208054600181600116156101000203166002900480601f01602080910402602001604051908101604052809291908181526020018280546001816001161561010002031660029004801561057f5780601f106105545761010080835404028352916020019161057f565b820191906000526020600020905b81548152906001019060200180831161056257829003601f168201915b505050505083828151811061059057fe5b60200260200101819052508080600101915050610443565b50819450505050509392505050565b606081600160009054906101000a900473ffffffffffffffffffffffffffffffffffffffff1673ffffffffffffffffffffffffffffffffffffffff1663b3f9e4cb826040518263ffffffff1660e01b815260040161061591906121f7565b60206040518083038186803b15801561062d57600080fd5b505afa158015610641573d6000803e3d6000fd5b505050506040513d601f19601f82011682018060405250610665919081019061185e565b73ffffffffffffffffffffffffffffffffffffffff163073ffffffffffffffffffffffffffffffffffffffff16146106d2576040517f08c379a00000000000000000000000000000000000000000000000000000000081526004016106c9906121d7565b60405180910390fd5b60026000848152602001908152602001600020600060036000868152602001908152602001600020548152602001908152602001600020846040516107179190611ffb565b90815260200160405180910390208054600181600116156101000203166002900480601f0160208091040260200160405190810160405280929190818152602001828054600181600116156101000203166002900480156107b95780601f1061078e576101008083540402835291602001916107b9565b820191906000526020600020905b81548152906001019060200180831161079c57829003601f168201915b505050505091505092915050565b600160009054906101000a900473ffffffffffffffffffffffffffffffffffffffff1673ffffffffffffffffffffffffffffffffffffffff1663430c208133836040518363ffffffff1660e01b815260040161082492919061206e565b60206040518083038186803b15801561083c57600080fd5b505afa158015610850573d6000803e3d6000fd5b505050506040513d601f19601f820116820180604052506108749190810190611a09565b61087d57600080fd5b61088742826110b1565b50565b600160009054906101000a900473ffffffffffffffffffffffffffffffffffffffff1673ffffffffffffffffffffffffffffffffffffffff1663430c208133836040518363ffffffff1660e01b81526004016108e792919061206e565b60206040518083038186803b1580156108ff57600080fd5b505afa158015610913573d6000803e3d6000fd5b505050506040513d601f19601f820116820180604052506109379190810190611a09565b61094057600080fd5b61094a82826110b1565b5050565b610a1b6332184f2e60e01b858560405160240161096c929190612212565b604051602081830303815290604052907bffffffffffffffffffffffffffffffffffffffffffffffffffffffff19166020820180517bffffffffffffffffffffffffffffffffffffffffffffffffffffffff8381831617835250505050805190602001208484848080601f016020809104026020016040519081016040528093929190818152602001838380828437600081840152601f19601f820116905080830192505050505050506110fb565b610a2584846110b1565b50505050565b600160009054906101000a900473ffffffffffffffffffffffffffffffffffffffff1673ffffffffffffffffffffffffffffffffffffffff1663430c208133836040518363ffffffff1660e01b8152600401610a8892919061206e565b60206040518083038186803b158015610aa057600080fd5b505afa158015610ab4573d6000803e3d6000fd5b505050506040513d601f19601f82011682018060405250610ad89190810190611a09565b610ae157600080fd5b610b88600360008381526020019081526020016000205486868080601f016020809104026020016040519081016040528093929190818152602001838380828437600081840152601f19601f8201169050808301925050505050505085858080601f016020809104026020016040519081016040528093929190818152602001838380828437600081840152601f19601f8201169050808301925050505050505084611272565b5050505050565b6000806000838152602001908152602001600020549050919050565b600060036000838152602001908152602001600020549050919050565b6000600160009054906101000a900473ffffffffffffffffffffffffffffffffffffffff16905090565b610c7d63ce92b33e60e01b858585604051602401610c12939291906120e2565b604051602081830303815290604052907bffffffffffffffffffffffffffffffffffffffffffffffffffffffff19166020820180517bffffffffffffffffffffffffffffffffffffffffffffffffffffffff83818316178352505050508051906020012083836110fb565b610c9c60036000848152602001908152602001600020548585856113b5565b50505050565b610d6d63310bd74b60e01b84604051602401610cbe91906121f7565b604051602081830303815290604052907bffffffffffffffffffffffffffffffffffffffffffffffffffffffff19166020820180517bffffffffffffffffffffffffffffffffffffffffffffffffffffffff8381831617835250505050805190602001208484848080601f016020809104026020016040519081016040528093929190818152602001838380828437600081840152601f19601f820116905080830192505050505050506110fb565b610d7742846110b1565b505050565b610e4f6347c8169960e01b8888888888604051602401610da095949392919061216c565b604051602081830303815290604052907bffffffffffffffffffffffffffffffffffffffffffffffffffffffff19166020820180517bffffffffffffffffffffffffffffffffffffffffffffffffffffffff8381831617835250505050805190602001208484848080601f016020809104026020016040519081016040528093929190818152602001838380828437600081840152601f19601f820116905080830192505050505050506110fb565b610ef6600360008581526020019081526020016000205488888080601f016020809104026020016040519081016040528093929190818152602001838380828437600081840152601f19601f8201169050808301925050505050505087878080601f016020809104026020016040519081016040528093929190818152602001838380828437600081840152601f19601f8201169050808301925050505050505086611272565b50505050505050565b600160009054906101000a900473ffffffffffffffffffffffffffffffffffffffff1673ffffffffffffffffffffffffffffffffffffffff1663430c208133836040518363ffffffff1660e01b8152600401610f5c92919061206e565b60206040518083038186803b158015610f7457600080fd5b505afa158015610f88573d6000803e3d6000fd5b505050506040513d601f19601f82011682018060405250610fac9190810190611a09565b610fb557600080fd5b610fd460036000838152602001908152602001600020548484846113b5565b505050565b600460009054906101000a900473ffffffffffffffffffffffffffffffffffffffff1673ffffffffffffffffffffffffffffffffffffffff1663aa271e1a336040518263ffffffff1660e01b81526004016110349190612053565b60206040518083038186803b15801561104c57600080fd5b505afa158015611060573d6000803e3d6000fd5b505050506040513d601f19601f820116820180604052506110849190810190611a09565b61108d57600080fd5b6110ac60036000838152602001908152602001600020548484846113b5565b505050565b81600360008381526020019081526020016000208190555080827fbfc300c1fa899f7ccfe35f4b00db10276968e3555c53921db20c8b82e97bc32060405160405180910390a35050565b600080600084815260200190815260200160002054905060006111598361114b87308660405160200161113093929190611fa5565b60405160208183030381529060405280519060200120611410565b61144090919063ffffffff16565b9050600073ffffffffffffffffffffffffffffffffffffffff168173ffffffffffffffffffffffffffffffffffffffff16141580156112415750600160009054906101000a900473ffffffffffffffffffffffffffffffffffffffff1673ffffffffffffffffffffffffffffffffffffffff1663430c208182866040518363ffffffff1660e01b81526004016111f0929190612097565b60206040518083038186803b15801561120857600080fd5b505afa15801561121c573d6000803e3d6000fd5b505050506040513d601f19601f820116820180604052506112409190810190611a09565b5b61124a57600080fd5b6001600080868152602001908152602001600020600082825401925050819055505050505050565b600160009054906101000a900473ffffffffffffffffffffffffffffffffffffffff1673ffffffffffffffffffffffffffffffffffffffff1663538361a782858051906020012060001c6040518363ffffffff1660e01b81526004016112d9929190612212565b600060405180830381600087803b1580156112f357600080fd5b505af1158015611307573d6000803e3d6000fd5b50505050816002600083815260200190815260200160002060008681526020019081526020016000208460405161133e9190611ffb565b9081526020016040518091039020908051906020019061135f92919061152c565b50808360405161136f9190611ffb565b6040518091039020857f531c34f1430b76d953b041b6ae19c2d0a9c4ed1c570242b24c147ace27ab6ef3856040516113a791906121b5565b60405180910390a450505050565b60008351905060008090505b81811015611408576113fb868683815181106113d957fe5b60200260200101518684815181106113ed57fe5b602002602001015186611272565b80806001019150506113c1565b505050505050565b6000816040516020016114239190612012565b604051602081830303815290604052805190602001209050919050565b600060418251146114545760009050611526565b60008060006020850151925060408501519150606085015160001a90507f7fffffffffffffffffffffffffffffff5d576e7357a4501ddfe92f46681b20a08260001c11156114a85760009350505050611526565b601b8160ff16141580156114c05750601c8160ff1614155b156114d15760009350505050611526565b600186828585604051600081526020016040526040516114f49493929190612127565b6020604051602081039080840390855afa158015611516573d6000803e3d6000fd5b5050506020604051035193505050505b92915050565b828054600181600116156101000203166002900490600052602060002090601f016020900481019282601f1061156d57805160ff191683800117855561159b565b8280016001018555821561159b579182015b8281111561159a57825182559160200191906001019061157f565b5b5090506115a891906115ac565b5090565b6115ce91905b808211156115ca5760008160009055506001016115b2565b5090565b90565b6000815190506115e0816124bd565b92915050565b60008083601f8401126115f857600080fd5b8235905067ffffffffffffffff81111561161157600080fd5b60208301915083602082028301111561162957600080fd5b9250929050565b600082601f83011261164157600080fd5b813561165461164f82612268565b61223b565b9150818183526020840193506020810190508360005b8381101561169a578135860161168088826117a1565b84526020840193506020830192505060018101905061166a565b5050505092915050565b6000815190506116b3816124d4565b92915050565b60008083601f8401126116cb57600080fd5b8235905067ffffffffffffffff8111156116e457600080fd5b6020830191508360018202830111156116fc57600080fd5b9250929050565b600082601f83011261171457600080fd5b813561172761172282612290565b61223b565b9150808252602083016020830185838301111561174357600080fd5b61174e838284612425565b50505092915050565b60008083601f84011261176957600080fd5b8235905067ffffffffffffffff81111561178257600080fd5b60208301915083600182028301111561179a57600080fd5b9250929050565b600082601f8301126117b257600080fd5b81356117c56117c0826122bc565b61223b565b915080825260208301602083018583830111156117e157600080fd5b6117ec838284612425565b50505092915050565b600082601f83011261180657600080fd5b8135611819611814826122e8565b61223b565b9150808252602083016020830185838301111561183557600080fd5b611840838284612425565b50505092915050565b600081359050611858816124eb565b92915050565b60006020828403121561187057600080fd5b600061187e848285016115d1565b91505092915050565b60008060006040848603121561189c57600080fd5b600084013567ffffffffffffffff8111156118b657600080fd5b6118c2868287016115e6565b935093505060206118d586828701611849565b9150509250925092565b6000806000606084860312156118f457600080fd5b600084013567ffffffffffffffff81111561190e57600080fd5b61191a86828701611630565b935050602084013567ffffffffffffffff81111561193757600080fd5b61194386828701611630565b925050604061195486828701611849565b9150509250925092565b6000806000806080858703121561197457600080fd5b600085013567ffffffffffffffff81111561198e57600080fd5b61199a87828801611630565b945050602085013567ffffffffffffffff8111156119b757600080fd5b6119c387828801611630565b93505060406119d487828801611849565b925050606085013567ffffffffffffffff8111156119f157600080fd5b6119fd87828801611703565b91505092959194509250565b600060208284031215611a1b57600080fd5b6000611a29848285016116a4565b91505092915050565b600080600080600060608688031215611a4a57600080fd5b600086013567ffffffffffffffff811115611a6457600080fd5b611a7088828901611757565b9550955050602086013567ffffffffffffffff811115611a8f57600080fd5b611a9b88828901611757565b93509350506040611aae88828901611849565b9150509295509295909350565b60008060008060008060006080888a031215611ad657600080fd5b600088013567ffffffffffffffff811115611af057600080fd5b611afc8a828b01611757565b9750975050602088013567ffffffffffffffff811115611b1b57600080fd5b611b278a828b01611757565b95509550506040611b3a8a828b01611849565b935050606088013567ffffffffffffffff811115611b5757600080fd5b611b638a828b016116b9565b925092505092959891949750929550565b60008060408385031215611b8757600080fd5b600083013567ffffffffffffffff811115611ba157600080fd5b611bad858286016117f5565b9250506020611bbe85828601611849565b9150509250929050565b600060208284031215611bda57600080fd5b6000611be884828501611849565b91505092915050565b600080600060408486031215611c0657600080fd5b6000611c1486828701611849565b935050602084013567ffffffffffffffff811115611c3157600080fd5b611c3d868287016116b9565b92509250509250925092565b60008060408385031215611c5c57600080fd5b6000611c6a85828601611849565b9250506020611c7b85828601611849565b9150509250929050565b60008060008060608587031215611c9b57600080fd5b6000611ca987828801611849565b9450506020611cba87828801611849565b935050604085013567ffffffffffffffff811115611cd757600080fd5b611ce3878288016116b9565b925092505092959194509250565b6000611cfd8383611e91565b905092915050565b611d0e816123ef565b82525050565b611d1d81612390565b82525050565b611d34611d2f82612390565b612467565b82525050565b6000611d4582612324565b611d4f8185612352565b935083602082028501611d6185612314565b8060005b85811015611d9d5784840389528151611d7e8582611cf1565b9450611d8983612345565b925060208a01995050600181019050611d65565b50829750879550505050505092915050565b611db8816123ae565b82525050565b611dcf611dca826123ae565b612479565b82525050565b6000611de18385612374565b9350611dee838584612425565b611df78361249f565b840190509392505050565b6000611e0e8385612385565b9350611e1b838584612425565b82840190509392505050565b6000611e328261233a565b611e3c8185612374565b9350611e4c818560208601612434565b611e558161249f565b840191505092915050565b6000611e6b8261233a565b611e758185612385565b9350611e85818560208601612434565b80840191505092915050565b6000611e9c8261232f565b611ea68185612363565b9350611eb6818560208601612434565b611ebf8161249f565b840191505092915050565b6000611ed7601c83612385565b91507f19457468657265756d205369676e6564204d6573736167653a0a3332000000006000830152601c82019050919050565b6000611f17602383612374565b91507f53696d706c655265736f6c7665723a206973206e6f7420746865207265736f6c60008301527f76657200000000000000000000000000000000000000000000000000000000006020830152604082019050919050565b611f79816123d8565b82525050565b611f90611f8b826123d8565b612495565b82525050565b611f9f816123e2565b82525050565b6000611fb18286611dbe565b602082019150611fc18285611d23565b601482019150611fd18284611f7f565b602082019150819050949350505050565b6000611fef828486611e02565b91508190509392505050565b60006120078284611e60565b915081905092915050565b600061201d82611eca565b91506120298284611dbe565b60208201915081905092915050565b600060208201905061204d6000830184611d14565b92915050565b60006020820190506120686000830184611d05565b92915050565b60006040820190506120836000830185611d05565b6120906020830184611f70565b9392505050565b60006040820190506120ac6000830185611d14565b6120b96020830184611f70565b9392505050565b600060208201905081810360008301526120da8184611d3a565b905092915050565b600060608201905081810360008301526120fc8186611d3a565b905081810360208301526121108185611d3a565b905061211f6040830184611f70565b949350505050565b600060808201905061213c6000830187611daf565b6121496020830186611f96565b6121566040830185611daf565b6121636060830184611daf565b95945050505050565b60006060820190508181036000830152612187818789611dd5565b9050818103602083015261219c818587611dd5565b90506121ab6040830184611f70565b9695505050505050565b600060208201905081810360008301526121cf8184611e27565b905092915050565b600060208201905081810360008301526121f081611f0a565b9050919050565b600060208201905061220c6000830184611f70565b92915050565b60006040820190506122276000830185611f70565b6122346020830184611f70565b9392505050565b6000604051905081810181811067ffffffffffffffff8211171561225e57600080fd5b8060405250919050565b600067ffffffffffffffff82111561227f57600080fd5b602082029050602081019050919050565b600067ffffffffffffffff8211156122a757600080fd5b601f19601f8301169050602081019050919050565b600067ffffffffffffffff8211156122d357600080fd5b601f19601f8301169050602081019050919050565b600067ffffffffffffffff8211156122ff57600080fd5b601f19601f8301169050602081019050919050565b6000819050602082019050919050565b600081519050919050565b600081519050919050565b600081519050919050565b6000602082019050919050565b600082825260208201905092915050565b600082825260208201905092915050565b600082825260208201905092915050565b600081905092915050565b600061239b826123b8565b9050919050565b60008115159050919050565b6000819050919050565b600073ffffffffffffffffffffffffffffffffffffffff82169050919050565b6000819050919050565b600060ff82169050919050565b60006123fa82612401565b9050919050565b600061240c82612413565b9050919050565b600061241e826123b8565b9050919050565b82818337600083830152505050565b60005b83811015612452578082015181840152602081019050612437565b83811115612461576000848401525b50505050565b600061247282612483565b9050919050565b6000819050919050565b600061248e826124b0565b9050919050565b6000819050919050565b6000601f19601f8301169050919050565b60008160601b9050919050565b6124c681612390565b81146124d157600080fd5b50565b6124dd816123a2565b81146124e857600080fd5b50565b6124f4816123d8565b81146124ff57600080fd5b5056fea365627a7a72315820e93268743627a6dfc979ea14713729b656e6a534bcff7ee84949d4669b03872f6c6578706572696d656e74616cf564736f6c634300050c0040",
  "source": "pragma solidity 0.5.12;\npragma experimental ABIEncoderV2;\n\nimport './Registry.sol';\nimport './util/SignatureUtil.sol';\nimport './controllers/MintingController.sol';\n// solium-disable error-reason\n\ncontract Resolver is SignatureUtil {\n\n    event Set(uint256 indexed preset, string indexed key, string value, uint256 indexed tokenId);\n    event SetPreset(uint256 indexed preset, uint256 indexed tokenId);\n\n    // Mapping from token ID to preset id to key to value\n    mapping (uint256 => mapping (uint256 =>  mapping (string => string))) internal _records;\n\n    // Mapping from token ID to current preset id\n    mapping (uint256 => uint256) _tokenPresets;\n\n    MintingController internal _mintingController;\n\n    constructor(Registry registry, MintingController mintingController) public SignatureUtil(registry) {\n        require(address(registry) == mintingController.registry());\n        _mintingController = mintingController;\n    }\n\n    /**\n     * @dev Throws if called when not the resolver.\n     */\n    modifier whenResolver(uint256 tokenId) {\n        require(address(this) == _registry.resolverOf(tokenId), \"SimpleResolver: is not the resolver\");\n        _;\n    }\n\n    function presetOf(uint256 tokenId) external view returns (uint256) {\n        return _tokenPresets[tokenId];\n    }\n\n    function setPreset(uint256 presetId, uint256 tokenId) external {\n        require(_registry.isApprovedOrOwner(msg.sender, tokenId));\n        _setPreset(presetId, tokenId);\n    }\n\n    function setPresetFor(uint256 presetId, uint256 tokenId, bytes calldata signature) external {\n        _validate(keccak256(abi.encodeWithSelector(this.setPreset.selector, presetId, tokenId)), tokenId, signature);\n        _setPreset(presetId, tokenId);\n    }\n\n    function reset(uint256 tokenId) external {\n        require(_registry.isApprovedOrOwner(msg.sender, tokenId));\n        _setPreset(now, tokenId);\n    }\n\n    function resetFor(uint256 tokenId, bytes calldata signature) external {\n        _validate(keccak256(abi.encodeWithSelector(this.reset.selector, tokenId)), tokenId, signature);\n        _setPreset(now, tokenId);\n    }\n\n    /**\n     * @dev Function to get record.\n     * @param key The key to query the value of.\n     * @param tokenId The token id to fetch.\n     * @return The value string.\n     */\n    function get(string memory key, uint256 tokenId) public view whenResolver(tokenId) returns (string memory) {\n        return _records[tokenId][_tokenPresets[tokenId]][key];\n    }\n\n    function preconfigure(\n        string[] memory keys,\n        string[] memory values,\n        uint256 tokenId\n    ) public {\n        require(_mintingController.isMinter(msg.sender));\n        _setMany(_tokenPresets[tokenId], keys, values, tokenId);\n    }\n\n    /**\n     * @dev Function to set record.\n     * @param key The key set the value of.\n     * @param value The value to set key to.\n     * @param tokenId The token id to set.\n     */\n    function set(string calldata key, string calldata value, uint256 tokenId) external {\n        require(_registry.isApprovedOrOwner(msg.sender, tokenId));\n        _set(_tokenPresets[tokenId], key, value, tokenId);\n    }\n\n    /**\n     * @dev Function to set record on behalf of an address.\n     * @param key The key set the value of.\n     * @param value The value to set key to.\n     * @param tokenId The token id to set.\n     * @param signature The signature to verify the transaction with.\n     */\n    function setFor(\n        string calldata key,\n        string calldata value,\n        uint256 tokenId,\n        bytes calldata signature\n    ) external {\n        _validate(keccak256(abi.encodeWithSelector(this.set.selector, key, value, tokenId)), tokenId, signature);\n        _set(_tokenPresets[tokenId], key, value, tokenId);\n    }\n\n    /**\n     * @dev Function to get multiple record.\n     * @param keys The keys to query the value of.\n     * @param tokenId The token id to fetch.\n     * @return The values.\n     */\n    function getMany(string[] calldata keys, uint256 tokenId) external view whenResolver(tokenId) returns (string[] memory) {\n        uint256 keyCount = keys.length;\n        string[] memory values = new string[](keyCount);\n        uint256 preset = _tokenPresets[tokenId];\n        for (uint256 i = 0; i < keyCount; i++) {\n            values[i] = _records[tokenId][preset][keys[i]];\n        }\n        return values;\n    }\n\n    function setMany(\n        string[] memory keys,\n        string[] memory values,\n        uint256 tokenId\n    ) public {\n        require(_registry.isApprovedOrOwner(msg.sender, tokenId));\n        _setMany(_tokenPresets[tokenId], keys, values, tokenId);\n    }\n\n    /**\n     * @dev Function to set record on behalf of an address.\n     * @param keys The keys set the values of.\n     * @param values The values to set keys to.\n     * @param tokenId The token id to set.\n     * @param signature The signature to verify the transaction with.\n     */\n    function setManyFor(\n        string[] memory keys,\n        string[] memory values,\n        uint256 tokenId,\n        bytes memory signature\n    ) public {\n        _validate(keccak256(abi.encodeWithSelector(this.setMany.selector, keys, values, tokenId)), tokenId, signature);\n        _setMany(_tokenPresets[tokenId], keys, values, tokenId);\n    }\n\n    function _setPreset(uint256 presetId, uint256 tokenId) internal {\n        _tokenPresets[tokenId] = presetId;\n        emit SetPreset(presetId, tokenId);\n    }\n\n    /**\n     * @dev Internal function to to set record. As opposed to set, this imposes\n     * no restrictions on msg.sender.\n     * @param preset preset to set key/values on\n     * @param key key of record to be set\n     * @param value value of record to be set\n     * @param tokenId uint256 ID of the token\n     */\n    function _set(uint256 preset, string memory key, string memory value, uint256 tokenId) internal {\n        _registry.sync(tokenId, uint256(keccak256(bytes(key))));\n        _records[tokenId][preset][key] = value;\n        emit Set(preset, key, value, tokenId);\n    }\n\n    /**\n     * @dev Internal function to to set multiple records. As opposed to setMany, this imposes\n     * no restrictions on msg.sender.\n     * @param preset preset to set key/values on\n     * @param keys keys of record to be set\n     * @param values values of record to be set\n     * @param tokenId uint256 ID of the token\n     */\n    function _setMany(uint256 preset, string[] memory keys, string[] memory values, uint256 tokenId) internal {\n        uint256 keyCount = keys.length;\n        for (uint256 i = 0; i < keyCount; i++) {\n            _set(preset, keys[i], values[i], tokenId);\n        }\n    }\n\n}\n",
  "sourcePath": "/Users/derain/Projects/un-dot-crypto/contracts/Resolver.sol",
  "compiler": {
    "name": "solc",
    "version": "0.5.12+commit.7709ece9.Emscripten.clang"
  },
  "schemaVersion": "3.0.16",
  "updatedAt": "2020-05-22T12:30:02.964Z",
  "devdoc": {
    "methods": {
      "get(string,uint256)": {
        "details": "Function to get record.",
        "params": {
          "key": "The key to query the value of.",
          "tokenId": "The token id to fetch."
        },
        "return": "The value string."
      },
      "getMany(string[],uint256)": {
        "details": "Function to get multiple record.",
        "params": {
          "keys": "The keys to query the value of.",
          "tokenId": "The token id to fetch."
        },
        "return": "The values."
      },
      "nonceOf(uint256)": {
        "details": "Gets the nonce of the specified address.",
        "params": {
          "tokenId": "token ID for nonce query"
        },
        "return": "nonce of the given address"
      },
      "set(string,string,uint256)": {
        "details": "Function to set record.",
        "params": {
          "key": "The key set the value of.",
          "tokenId": "The token id to set.",
          "value": "The value to set key to."
        }
      },
      "setFor(string,string,uint256,bytes)": {
        "details": "Function to set record on behalf of an address.",
        "params": {
          "key": "The key set the value of.",
          "signature": "The signature to verify the transaction with.",
          "tokenId": "The token id to set.",
          "value": "The value to set key to."
        }
      },
      "setManyFor(string[],string[],uint256,bytes)": {
        "details": "Function to set record on behalf of an address.",
        "params": {
          "keys": "The keys set the values of.",
          "signature": "The signature to verify the transaction with.",
          "tokenId": "The token id to set.",
          "values": "The values to set keys to."
        }
      }
    }
  },
  "userdoc": {
    "methods": {}
  }
}