{
  "contractName": "ProxyReader",
  "abi": [
    {
      "inputs": [
        {
          "internalType": "contract Registry",
          "name": "registry",
          "type": "address"
        }
      ],
      "payable": false,
      "stateMutability": "nonpayable",
      "type": "constructor"
    },
    {
      "constant": true,
      "inputs": [],
      "name": "NAME",
      "outputs": [
        {
          "internalType": "string",
          "name": "",
          "type": "string"
        }
      ],
      "payable": false,
      "stateMutability": "view",
      "type": "function"
    },
    {
      "constant": true,
      "inputs": [],
      "name": "VERSION",
      "outputs": [
        {
          "internalType": "string",
          "name": "",
          "type": "string"
        }
      ],
      "payable": false,
      "stateMutability": "view",
      "type": "function"
    },
    {
      "constant": true,
      "inputs": [
        {
          "internalType": "bytes4",
          "name": "interfaceId",
          "type": "bytes4"
        }
      ],
      "name": "supportsInterface",
      "outputs": [
        {
          "internalType": "bool",
          "name": "",
          "type": "bool"
        }
      ],
      "payable": false,
      "stateMutability": "view",
      "type": "function"
    },
    {
      "constant": true,
      "inputs": [],
      "name": "name",
      "outputs": [
        {
          "internalType": "string",
          "name": "",
          "type": "string"
        }
      ],
      "payable": false,
      "stateMutability": "view",
      "type": "function"
    },
    {
      "constant": true,
      "inputs": [],
      "name": "symbol",
      "outputs": [
        {
          "internalType": "string",
          "name": "",
          "type": "string"
        }
      ],
      "payable": false,
      "stateMutability": "view",
      "type": "function"
    },
    {
      "constant": true,
      "inputs": [
        {
          "internalType": "uint256",
          "name": "tokenId",
          "type": "uint256"
        }
      ],
      "name": "tokenURI",
      "outputs": [
        {
          "internalType": "string",
          "name": "",
          "type": "string"
        }
      ],
      "payable": false,
      "stateMutability": "view",
      "type": "function"
    },
    {
      "constant": true,
      "inputs": [
        {
          "internalType": "address",
          "name": "spender",
          "type": "address"
        },
        {
          "internalType": "uint256",
          "name": "tokenId",
          "type": "uint256"
        }
      ],
      "name": "isApprovedOrOwner",
      "outputs": [
        {
          "internalType": "bool",
          "name": "",
          "type": "bool"
        }
      ],
      "payable": false,
      "stateMutability": "view",
      "type": "function"
    },
    {
      "constant": true,
      "inputs": [
        {
          "internalType": "uint256",
          "name": "tokenId",
          "type": "uint256"
        }
      ],
      "name": "resolverOf",
      "outputs": [
        {
          "internalType": "address",
          "name": "",
          "type": "address"
        }
      ],
      "payable": false,
      "stateMutability": "view",
      "type": "function"
    },
    {
      "constant": true,
      "inputs": [
        {
          "internalType": "uint256",
          "name": "tokenId",
          "type": "uint256"
        },
        {
          "internalType": "string",
          "name": "label",
          "type": "string"
        }
      ],
      "name": "childIdOf",
      "outputs": [
        {
          "internalType": "uint256",
          "name": "",
          "type": "uint256"
        }
      ],
      "payable": false,
      "stateMutability": "view",
      "type": "function"
    },
    {
      "constant": true,
      "inputs": [
        {
          "internalType": "address",
          "name": "account",
          "type": "address"
        }
      ],
      "name": "isController",
      "outputs": [
        {
          "internalType": "bool",
          "name": "",
          "type": "bool"
        }
      ],
      "payable": false,
      "stateMutability": "view",
      "type": "function"
    },
    {
      "constant": true,
      "inputs": [
        {
          "internalType": "address",
          "name": "owner",
          "type": "address"
        }
      ],
      "name": "balanceOf",
      "outputs": [
        {
          "internalType": "uint256",
          "name": "",
          "type": "uint256"
        }
      ],
      "payable": false,
      "stateMutability": "view",
      "type": "function"
    },
    {
      "constant": true,
      "inputs": [
        {
          "internalType": "uint256",
          "name": "tokenId",
          "type": "uint256"
        }
      ],
      "name": "getApproved",
      "outputs": [
        {
          "internalType": "address",
          "name": "",
          "type": "address"
        }
      ],
      "payable": false,
      "stateMutability": "view",
      "type": "function"
    },
    {
      "constant": true,
      "inputs": [
        {
          "internalType": "address",
          "name": "owner",
          "type": "address"
        },
        {
          "internalType": "address",
          "name": "operator",
          "type": "address"
        }
      ],
      "name": "isApprovedForAll",
      "outputs": [
        {
          "internalType": "bool",
          "name": "",
          "type": "bool"
        }
      ],
      "payable": false,
      "stateMutability": "view",
      "type": "function"
    },
    {
      "constant": true,
      "inputs": [],
      "name": "root",
      "outputs": [
        {
          "internalType": "uint256",
          "name": "",
          "type": "uint256"
        }
      ],
      "payable": false,
      "stateMutability": "view",
      "type": "function"
    },
    {
      "constant": true,
      "inputs": [
        {
          "internalType": "uint256",
          "name": "tokenId",
          "type": "uint256"
        }
      ],
      "name": "nonceOf",
      "outputs": [
        {
          "internalType": "uint256",
          "name": "",
          "type": "uint256"
        }
      ],
      "payable": false,
      "stateMutability": "view",
      "type": "function"
    },
    {
      "constant": true,
      "inputs": [],
      "name": "registry",
      "outputs": [
        {
          "internalType": "address",
          "name": "",
          "type": "address"
        }
      ],
      "payable": false,
      "stateMutability": "view",
      "type": "function"
    },
    {
      "constant": true,
      "inputs": [
        {
          "internalType": "string",
          "name": "key",
          "type": "string"
        },
        {
          "internalType": "uint256",
          "name": "tokenId",
          "type": "uint256"
        }
      ],
      "name": "get",
      "outputs": [
        {
          "internalType": "string",
          "name": "",
          "type": "string"
        }
      ],
      "payable": false,
      "stateMutability": "view",
      "type": "function"
    },
    {
      "constant": true,
      "inputs": [
        {
          "internalType": "string[]",
          "name": "keys",
          "type": "string[]"
        },
        {
          "internalType": "uint256",
          "name": "tokenId",
          "type": "uint256"
        }
      ],
      "name": "getMany",
      "outputs": [
        {
          "internalType": "string[]",
          "name": "",
          "type": "string[]"
        }
      ],
      "payable": false,
      "stateMutability": "view",
      "type": "function"
    },
    {
      "constant": true,
      "inputs": [
        {
          "internalType": "uint256",
          "name": "keyHash",
          "type": "uint256"
        },
        {
          "internalType": "uint256",
          "name": "tokenId",
          "type": "uint256"
        }
      ],
      "name": "getByHash",
      "outputs": [
        {
          "internalType": "string",
          "name": "key",
          "type": "string"
        },
        {
          "internalType": "string",
          "name": "value",
          "type": "string"
        }
      ],
      "payable": false,
      "stateMutability": "view",
      "type": "function"
    },
    {
      "constant": true,
      "inputs": [
        {
          "internalType": "uint256[]",
          "name": "keyHashes",
          "type": "uint256[]"
        },
        {
          "internalType": "uint256",
          "name": "tokenId",
          "type": "uint256"
        }
      ],
      "name": "getManyByHash",
      "outputs": [
        {
          "internalType": "string[]",
          "name": "keys",
          "type": "string[]"
        },
        {
          "internalType": "string[]",
          "name": "values",
          "type": "string[]"
        }
      ],
      "payable": false,
      "stateMutability": "view",
      "type": "function"
    },
    {
      "constant": false,
      "inputs": [
        {
          "internalType": "string[]",
          "name": "keys",
          "type": "string[]"
        },
        {
          "internalType": "uint256",
          "name": "tokenId",
          "type": "uint256"
        }
      ],
      "name": "getData",
      "outputs": [
        {
          "internalType": "address",
          "name": "resolver",
          "type": "address"
        },
        {
          "internalType": "address",
          "name": "owner",
          "type": "address"
        },
        {
          "internalType": "string[]",
          "name": "values",
          "type": "string[]"
        }
      ],
      "payable": false,
      "stateMutability": "nonpayable",
      "type": "function"
    },
    {
      "constant": false,
      "inputs": [
        {
          "internalType": "uint256[]",
          "name": "keyHashes",
          "type": "uint256[]"
        },
        {
          "internalType": "uint256",
          "name": "tokenId",
          "type": "uint256"
        }
      ],
      "name": "getDataByHash",
      "outputs": [
        {
          "internalType": "address",
          "name": "resolver",
          "type": "address"
        },
        {
          "internalType": "address",
          "name": "owner",
          "type": "address"
        },
        {
          "internalType": "string[]",
          "name": "keys",
          "type": "string[]"
        },
        {
          "internalType": "string[]",
          "name": "values",
          "type": "string[]"
        }
      ],
      "payable": false,
      "stateMutability": "nonpayable",
      "type": "function"
    },
    {
      "constant": false,
      "inputs": [
        {
          "internalType": "uint256[]",
          "name": "tokenIds",
          "type": "uint256[]"
        }
      ],
      "name": "ownerOf",
      "outputs": [
        {
          "internalType": "address[]",
          "name": "owners",
          "type": "address[]"
        }
      ],
      "payable": false,
      "stateMutability": "nonpayable",
      "type": "function"
    },
    {
      "constant": true,
      "inputs": [
        {
          "internalType": "uint256",
          "name": "tokenId",
          "type": "uint256"
        }
      ],
      "name": "ownerOf",
      "outputs": [
        {
          "internalType": "address",
          "name": "",
          "type": "address"
        }
      ],
      "payable": false,
      "stateMutability": "view",
      "type": "function"
    }
  ],
  "bytecode": "0x60806040523480156200001157600080fd5b5060405162002fdd38038062002fdd833981810160405262000037919081019062000259565b6200004f6301ffc9a760e01b6200016a60201b60201c565b600073ffffffffffffffffffffffffffffffffffffffff168173ffffffffffffffffffffffffffffffffffffffff161415620000c2576040517f08c379a0000000000000000000000000000000000000000000000000000000008152600401620000b9906200032b565b60405180910390fd5b80600160006101000a81548173ffffffffffffffffffffffffffffffffffffffff021916908373ffffffffffffffffffffffffffffffffffffffff1602179055506200011b6301ffc9a760e01b6200016a60201b60201c565b62000133636eabca0d60e01b6200016a60201b60201c565b6200014b63c897de9860e01b6200016a60201b60201c565b62000163639229583e60e01b6200016a60201b60201c565b50620003c0565b63ffffffff60e01b817bffffffffffffffffffffffffffffffffffffffffffffffffffffffff19161415620001d6576040517f08c379a0000000000000000000000000000000000000000000000000000000008152600401620001cd9062000309565b60405180910390fd5b6001600080837bffffffffffffffffffffffffffffffffffffffffffffffffffffffff19167bffffffffffffffffffffffffffffffffffffffffffffffffffffffff1916815260200190815260200160002060006101000a81548160ff02191690831515021790555050565b6000815190506200025381620003a6565b92915050565b6000602082840312156200026c57600080fd5b60006200027c8482850162000242565b91505092915050565b600062000294601c836200034d565b91507f4552433136353a20696e76616c696420696e74657266616365206964000000006000830152602082019050919050565b6000620002d66011836200034d565b91507f526567697374727920697320656d7074790000000000000000000000000000006000830152602082019050919050565b60006020820190508181036000830152620003248162000285565b9050919050565b600060208201905081810360008301526200034681620002c7565b9050919050565b600082825260208201905092915050565b60006200036b8262000386565b9050919050565b60006200037f826200035e565b9050919050565b600073ffffffffffffffffffffffffffffffffffffffff82169050919050565b620003b18162000372565b8114620003bd57600080fd5b50565b612c0d80620003d06000396000f3fe608060405234801561001057600080fd5b50600436106101585760003560e01c806370a08231116100c3578063b429afeb1161007c578063b429afeb1461047b578063b85afd28146104ab578063c87b56dd146104dc578063e985e9c51461050c578063ebf0c7171461053c578063ffa1ad741461055a57610158565b806370a082311461038f5780637b103999146103bf57806391015f6b146103dd57806395d89b411461040f578063a3f4df7e1461042d578063b3f9e4cb1461044b57610158565b8063430c208111610115578063430c20811461026e578063475911351461029e5780636352211e146102ce578063672b9f81146102fe57806368b62d321461032f5780636ccbae5f1461035f57610158565b806301ffc9a71461015d578063032807551461018d57806306fdde03146101c0578063081812fc146101de5780631bd8cc1a1461020e5780631be5e7ed1461023e575b600080fd5b61017760048036036101729190810190611fcf565b610578565b604051610184919061272c565b60405180910390f35b6101a760048036036101a29190810190611f0d565b6105df565b6040516101b794939291906125d1565b60405180910390f35b6101c86106d9565b6040516101d5919061279b565b60405180910390f35b6101f860048036036101f391908101906120fd565b610785565b604051610205919061254f565b60405180910390f35b61022860048036036102239190810190611e08565b610839565b60405161023591906126a1565b60405180910390f35b61025860048036036102539190810190611ff8565b610986565b604051610265919061279b565b60405180910390f35b61028860048036036102839190810190611dcc565b610ad3565b604051610295919061272c565b60405180910390f35b6102b860048036036102b39190810190611f65565b610b8a565b6040516102c5919061264d565b60405180910390f35b6102e860048036036102e391908101906120fd565b610c43565b6040516102f5919061254f565b60405180910390f35b610318600480360361031391908101906121a7565b610cf7565b6040516103269291906127bd565b60405180910390f35b6103496004803603610344919081019061214f565b610e45565b60405161035691906127f4565b60405180910390f35b610379600480360361037491908101906120fd565b610eff565b60405161038691906127f4565b60405180910390f35b6103a960048036036103a49190810190611d15565b611040565b6040516103b691906127f4565b60405180910390f35b6103c76110f4565b6040516103d4919061254f565b60405180910390f35b6103f760048036036103f29190810190611e08565b61111e565b60405161040693929190612593565b60405180910390f35b610417611211565b604051610424919061279b565b60405180910390f35b6104356112bd565b6040516104429190612779565b60405180910390f35b610465600480360361046091908101906120fd565b6112f6565b604051610472919061254f565b60405180910390f35b61049560048036036104909190810190611d15565b6113aa565b6040516104a2919061272c565b60405180910390f35b6104c560048036036104c09190810190611f0d565b61145e565b6040516104d39291906126c3565b60405180910390f35b6104f660048036036104f191908101906120fd565b6115af565b604051610503919061279b565b60405180910390f35b61052660048036036105219190810190611d90565b611668565b604051610533919061272c565b60405180910390f35b61054461171f565b60405161055191906127f4565b60405180910390f35b6105626117c6565b60405161056f9190612779565b60405180910390f35b6000806000837bffffffffffffffffffffffffffffffffffffffffffffffffffffffff19167bffffffffffffffffffffffffffffffffffffffffffffffffffffffff1916815260200190815260200160002060009054906101000a900460ff169050919050565b6000806060806105ee856117ff565b93506105f985611902565b9250600073ffffffffffffffffffffffffffffffffffffffff168473ffffffffffffffffffffffffffffffffffffffff16146106d05760008490508073ffffffffffffffffffffffffffffffffffffffff1663b85afd288989896040518463ffffffff1660e01b8152600401610671939291906126fa565b60006040518083038186803b15801561068957600080fd5b505afa15801561069d573d6000803e3d6000fd5b505050506040513d6000823e3d601f19601f820116820180604052506106c69190810190611ea1565b8093508194505050505b93509350935093565b6060600160009054906101000a900473ffffffffffffffffffffffffffffffffffffffff1673ffffffffffffffffffffffffffffffffffffffff166306fdde036040518163ffffffff1660e01b815260040160006040518083038186803b15801561074357600080fd5b505afa158015610757573d6000803e3d6000fd5b505050506040513d6000823e3d601f19601f820116820180604052506107809190810190612050565b905090565b6000600160009054906101000a900473ffffffffffffffffffffffffffffffffffffffff1673ffffffffffffffffffffffffffffffffffffffff1663081812fc836040518263ffffffff1660e01b81526004016107e291906127f4565b60206040518083038186803b1580156107fa57600080fd5b505afa15801561080e573d6000803e3d6000fd5b505050506040513d601f19601f820116820180604052506108329190810190611d3e565b9050919050565b60606000600160009054906101000a900473ffffffffffffffffffffffffffffffffffffffff1673ffffffffffffffffffffffffffffffffffffffff1663b3f9e4cb846040518263ffffffff1660e01b815260040161089891906127f4565b60206040518083038186803b1580156108b057600080fd5b505afa1580156108c4573d6000803e3d6000fd5b505050506040513d601f19601f820116820180604052506108e89190810190611d3e565b90508073ffffffffffffffffffffffffffffffffffffffff16631bd8cc1a8686866040518463ffffffff1660e01b81526004016109279392919061266f565b60006040518083038186803b15801561093f57600080fd5b505afa158015610953573d6000803e3d6000fd5b505050506040513d6000823e3d601f19601f8201168201806040525061097c9190810190611e60565b9150509392505050565b60606000600160009054906101000a900473ffffffffffffffffffffffffffffffffffffffff1673ffffffffffffffffffffffffffffffffffffffff1663b3f9e4cb846040518263ffffffff1660e01b81526004016109e591906127f4565b60206040518083038186803b1580156109fd57600080fd5b505afa158015610a11573d6000803e3d6000fd5b505050506040513d601f19601f82011682018060405250610a359190810190611d3e565b90508073ffffffffffffffffffffffffffffffffffffffff16631be5e7ed8686866040518463ffffffff1660e01b8152600401610a7493929190612747565b60006040518083038186803b158015610a8c57600080fd5b505afa158015610aa0573d6000803e3d6000fd5b505050506040513d6000823e3d601f19601f82011682018060405250610ac99190810190612050565b9150509392505050565b6000600160009054906101000a900473ffffffffffffffffffffffffffffffffffffffff1673ffffffffffffffffffffffffffffffffffffffff1663430c208184846040518363ffffffff1660e01b8152600401610b32929190612624565b60206040518083038186803b158015610b4a57600080fd5b505afa158015610b5e573d6000803e3d6000fd5b505050506040513d601f19601f82011682018060405250610b829190810190611fa6565b905092915050565b60608151604051908082528060200260200182016040528015610bbc5781602001602082028038833980820191505090505b50905060008090505b8251811015610c3d57610bea838281518110610bdd57fe5b6020026020010151611902565b828281518110610bf657fe5b602002602001019073ffffffffffffffffffffffffffffffffffffffff16908173ffffffffffffffffffffffffffffffffffffffff16815250508080600101915050610bc5565b50919050565b6000600160009054906101000a900473ffffffffffffffffffffffffffffffffffffffff1673ffffffffffffffffffffffffffffffffffffffff16636352211e836040518263ffffffff1660e01b8152600401610ca091906127f4565b60206040518083038186803b158015610cb857600080fd5b505afa158015610ccc573d6000803e3d6000fd5b505050506040513d601f19601f82011682018060405250610cf09190810190611d3e565b9050919050565b6060806000600160009054906101000a900473ffffffffffffffffffffffffffffffffffffffff1673ffffffffffffffffffffffffffffffffffffffff1663b3f9e4cb856040518263ffffffff1660e01b8152600401610d5791906127f4565b60206040518083038186803b158015610d6f57600080fd5b505afa158015610d83573d6000803e3d6000fd5b505050506040513d601f19601f82011682018060405250610da79190810190611d3e565b90508073ffffffffffffffffffffffffffffffffffffffff1663672b9f8186866040518363ffffffff1660e01b8152600401610de4929190612841565b60006040518083038186803b158015610dfc57600080fd5b505afa158015610e10573d6000803e3d6000fd5b505050506040513d6000823e3d601f19601f82011682018060405250610e399190810190612091565b92509250509250929050565b6000600160009054906101000a900473ffffffffffffffffffffffffffffffffffffffff1673ffffffffffffffffffffffffffffffffffffffff166368b62d328585856040518463ffffffff1660e01b8152600401610ea69392919061280f565b60206040518083038186803b158015610ebe57600080fd5b505afa158015610ed2573d6000803e3d6000fd5b505050506040513d601f19601f82011682018060405250610ef69190810190612126565b90509392505050565b600080600160009054906101000a900473ffffffffffffffffffffffffffffffffffffffff1673ffffffffffffffffffffffffffffffffffffffff1663b3f9e4cb846040518263ffffffff1660e01b8152600401610f5d91906127f4565b60206040518083038186803b158015610f7557600080fd5b505afa158015610f89573d6000803e3d6000fd5b505050506040513d601f19601f82011682018060405250610fad9190810190611d3e565b90508073ffffffffffffffffffffffffffffffffffffffff16636ccbae5f846040518263ffffffff1660e01b8152600401610fe891906127f4565b60206040518083038186803b15801561100057600080fd5b505afa158015611014573d6000803e3d6000fd5b505050506040513d601f19601f820116820180604052506110389190810190612126565b915050919050565b6000600160009054906101000a900473ffffffffffffffffffffffffffffffffffffffff1673ffffffffffffffffffffffffffffffffffffffff166370a08231836040518263ffffffff1660e01b815260040161109d919061254f565b60206040518083038186803b1580156110b557600080fd5b505afa1580156110c9573d6000803e3d6000fd5b505050506040513d601f19601f820116820180604052506110ed9190810190612126565b9050919050565b6000600160009054906101000a900473ffffffffffffffffffffffffffffffffffffffff16905090565b600080606061112c846117ff565b925061113784611902565b9150600073ffffffffffffffffffffffffffffffffffffffff168373ffffffffffffffffffffffffffffffffffffffff16146112085760008390508073ffffffffffffffffffffffffffffffffffffffff16631bd8cc1a8888886040518463ffffffff1660e01b81526004016111af9392919061266f565b60006040518083038186803b1580156111c757600080fd5b505afa1580156111db573d6000803e3d6000fd5b505050506040513d6000823e3d601f19601f820116820180604052506112049190810190611e60565b9150505b93509350939050565b6060600160009054906101000a900473ffffffffffffffffffffffffffffffffffffffff1673ffffffffffffffffffffffffffffffffffffffff166395d89b416040518163ffffffff1660e01b815260040160006040518083038186803b15801561127b57600080fd5b505afa15801561128f573d6000803e3d6000fd5b505050506040513d6000823e3d601f19601f820116820180604052506112b89190810190612050565b905090565b6040518060400160405280601881526020017f556e73746f707061626c652050726f787920526561646572000000000000000081525081565b6000600160009054906101000a900473ffffffffffffffffffffffffffffffffffffffff1673ffffffffffffffffffffffffffffffffffffffff1663b3f9e4cb836040518263ffffffff1660e01b815260040161135391906127f4565b60206040518083038186803b15801561136b57600080fd5b505afa15801561137f573d6000803e3d6000fd5b505050506040513d601f19601f820116820180604052506113a39190810190611d3e565b9050919050565b6000600160009054906101000a900473ffffffffffffffffffffffffffffffffffffffff1673ffffffffffffffffffffffffffffffffffffffff1663b429afeb836040518263ffffffff1660e01b8152600401611407919061254f565b60206040518083038186803b15801561141f57600080fd5b505afa158015611433573d6000803e3d6000fd5b505050506040513d601f19601f820116820180604052506114579190810190611fa6565b9050919050565b6060806000600160009054906101000a900473ffffffffffffffffffffffffffffffffffffffff1673ffffffffffffffffffffffffffffffffffffffff1663b3f9e4cb856040518263ffffffff1660e01b81526004016114be91906127f4565b60206040518083038186803b1580156114d657600080fd5b505afa1580156114ea573d6000803e3d6000fd5b505050506040513d601f19601f8201168201806040525061150e9190810190611d3e565b90508073ffffffffffffffffffffffffffffffffffffffff1663b85afd288787876040518463ffffffff1660e01b815260040161154d939291906126fa565b60006040518083038186803b15801561156557600080fd5b505afa158015611579573d6000803e3d6000fd5b505050506040513d6000823e3d601f19601f820116820180604052506115a29190810190611ea1565b9250925050935093915050565b6060600160009054906101000a900473ffffffffffffffffffffffffffffffffffffffff1673ffffffffffffffffffffffffffffffffffffffff1663c87b56dd836040518263ffffffff1660e01b815260040161160c91906127f4565b60006040518083038186803b15801561162457600080fd5b505afa158015611638573d6000803e3d6000fd5b505050506040513d6000823e3d601f19601f820116820180604052506116619190810190612050565b9050919050565b6000600160009054906101000a900473ffffffffffffffffffffffffffffffffffffffff1673ffffffffffffffffffffffffffffffffffffffff1663e985e9c584846040518363ffffffff1660e01b81526004016116c792919061256a565b60206040518083038186803b1580156116df57600080fd5b505afa1580156116f3573d6000803e3d6000fd5b505050506040513d601f19601f820116820180604052506117179190810190611fa6565b905092915050565b6000600160009054906101000a900473ffffffffffffffffffffffffffffffffffffffff1673ffffffffffffffffffffffffffffffffffffffff1663ebf0c7176040518163ffffffff1660e01b815260040160206040518083038186803b15801561178957600080fd5b505afa15801561179d573d6000803e3d6000fd5b505050506040513d601f19601f820116820180604052506117c19190810190612126565b905090565b6040518060400160405280600581526020017f302e312e3000000000000000000000000000000000000000000000000000000081525081565b60008060603073ffffffffffffffffffffffffffffffffffffffff1663b3f9e4cb8560405160240161183191906127f4565b6040516020818303038152906040529060e01b6020820180517bffffffffffffffffffffffffffffffffffffffffffffffffffffffff838183161783525050505060405161187f9190612538565b6000604051808303816000865af19150503d80600081146118bc576040519150601f19603f3d011682016040523d82523d6000602084013e6118c1565b606091505b50915091506001151582151514156118f6576000818060200190516118e99190810190611d67565b90508093505050506118fd565b6000925050505b919050565b60008060603073ffffffffffffffffffffffffffffffffffffffff16636352211e8560405160240161193491906127f4565b6040516020818303038152906040529060e01b6020820180517bffffffffffffffffffffffffffffffffffffffffffffffffffffffff83818316178352505050506040516119829190612538565b6000604051808303816000865af19150503d80600081146119bf576040519150601f19603f3d011682016040523d82523d6000602084013e6119c4565b606091505b50915091506001151582151514156119f9576000818060200190516119ec9190810190611d67565b9050809350505050611a00565b6000925050505b919050565b600081359050611a1481612b57565b92915050565b600081519050611a2981612b57565b92915050565b600081519050611a3e81612b6e565b92915050565b60008083601f840112611a5657600080fd5b8235905067ffffffffffffffff811115611a6f57600080fd5b602083019150836020820283011115611a8757600080fd5b9250929050565b600082601f830112611a9f57600080fd5b8151611ab2611aad82612897565b61286a565b9150818183526020840193506020810190508360005b83811015611af85781518601611ade8882611c43565b845260208401935060208301925050600181019050611ac8565b5050505092915050565b60008083601f840112611b1457600080fd5b8235905067ffffffffffffffff811115611b2d57600080fd5b602083019150836020820283011115611b4557600080fd5b9250929050565b600082601f830112611b5d57600080fd5b8135611b70611b6b826128bf565b61286a565b91508181835260208401935060208101905083856020840282011115611b9557600080fd5b60005b83811015611bc55781611bab8882611ceb565b845260208401935060208301925050600181019050611b98565b5050505092915050565b600081519050611bde81612b85565b92915050565b600081359050611bf381612b9c565b92915050565b60008083601f840112611c0b57600080fd5b8235905067ffffffffffffffff811115611c2457600080fd5b602083019150836001820283011115611c3c57600080fd5b9250929050565b600082601f830112611c5457600080fd5b8151611c67611c62826128e7565b61286a565b91508082526020830160208301858383011115611c8357600080fd5b611c8e838284612b13565b50505092915050565b600082601f830112611ca857600080fd5b8151611cbb611cb682612913565b61286a565b91508082526020830160208301858383011115611cd757600080fd5b611ce2838284612b13565b50505092915050565b600081359050611cfa81612bb3565b92915050565b600081519050611d0f81612bb3565b92915050565b600060208284031215611d2757600080fd5b6000611d3584828501611a05565b91505092915050565b600060208284031215611d5057600080fd5b6000611d5e84828501611a1a565b91505092915050565b600060208284031215611d7957600080fd5b6000611d8784828501611a2f565b91505092915050565b60008060408385031215611da357600080fd5b6000611db185828601611a05565b9250506020611dc285828601611a05565b9150509250929050565b60008060408385031215611ddf57600080fd5b6000611ded85828601611a05565b9250506020611dfe85828601611ceb565b9150509250929050565b600080600060408486031215611e1d57600080fd5b600084013567ffffffffffffffff811115611e3757600080fd5b611e4386828701611a44565b93509350506020611e5686828701611ceb565b9150509250925092565b600060208284031215611e7257600080fd5b600082015167ffffffffffffffff811115611e8c57600080fd5b611e9884828501611a8e565b91505092915050565b60008060408385031215611eb457600080fd5b600083015167ffffffffffffffff811115611ece57600080fd5b611eda85828601611a8e565b925050602083015167ffffffffffffffff811115611ef757600080fd5b611f0385828601611a8e565b9150509250929050565b600080600060408486031215611f2257600080fd5b600084013567ffffffffffffffff811115611f3c57600080fd5b611f4886828701611b02565b93509350506020611f5b86828701611ceb565b9150509250925092565b600060208284031215611f7757600080fd5b600082013567ffffffffffffffff811115611f9157600080fd5b611f9d84828501611b4c565b91505092915050565b600060208284031215611fb857600080fd5b6000611fc684828501611bcf565b91505092915050565b600060208284031215611fe157600080fd5b6000611fef84828501611be4565b91505092915050565b60008060006040848603121561200d57600080fd5b600084013567ffffffffffffffff81111561202757600080fd5b61203386828701611bf9565b9350935050602061204686828701611ceb565b9150509250925092565b60006020828403121561206257600080fd5b600082015167ffffffffffffffff81111561207c57600080fd5b61208884828501611c97565b91505092915050565b600080604083850312156120a457600080fd5b600083015167ffffffffffffffff8111156120be57600080fd5b6120ca85828601611c97565b925050602083015167ffffffffffffffff8111156120e757600080fd5b6120f385828601611c97565b9150509250929050565b60006020828403121561210f57600080fd5b600061211d84828501611ceb565b91505092915050565b60006020828403121561213857600080fd5b600061214684828501611d00565b91505092915050565b60008060006040848603121561216457600080fd5b600061217286828701611ceb565b935050602084013567ffffffffffffffff81111561218f57600080fd5b61219b86828701611bf9565b92509250509250925092565b600080604083850312156121ba57600080fd5b60006121c885828601611ceb565b92505060206121d985828601611ceb565b9150509250929050565b60006121ef8383612225565b60208301905092915050565b6000612208848484612451565b90509392505050565b600061221d83836124b7565b905092915050565b61222e81612a7e565b82525050565b61223d81612a7e565b82525050565b600061224e82612969565b61225881856129c7565b93506122638361293f565b8060005b8381101561229457815161227b88826121e3565b9750612286836129a0565b925050600181019050612267565b5085935050505092915050565b60006122ad83856129d8565b9350836020840285016122bf8461294f565b8060005b878110156123055784840389526122da8284612a27565b6122e58682846121fb565b95506122f0846129ad565b935060208b019a5050506001810190506122c3565b50829750879450505050509392505050565b600061232282612974565b61232c81856129d8565b93508360208202850161233e85612959565b8060005b8581101561237a578484038952815161235b8582612211565b9450612366836129ba565b925060208a01995050600181019050612342565b50829750879550505050505092915050565b600061239883856129e9565b93507f07ffffffffffffffffffffffffffffffffffffffffffffffffffffffffffffff8311156123c757600080fd5b6020830292506123d8838584612b04565b82840190509392505050565b6123ed81612aa2565b82525050565b60006123fe8261297f565b61240881856129fa565b9350612418818560208601612b13565b80840191505092915050565b60006124308385612a16565b935061243d838584612b04565b61244683612b46565b840190509392505050565b600061245d8385612a05565b935061246a838584612b04565b61247383612b46565b840190509392505050565b600061248982612995565b6124938185612a16565b93506124a3818560208601612b13565b6124ac81612b46565b840191505092915050565b60006124c28261298a565b6124cc8185612a05565b93506124dc818560208601612b13565b6124e581612b46565b840191505092915050565b60006124fb8261298a565b6125058185612a16565b9350612515818560208601612b13565b61251e81612b46565b840191505092915050565b61253281612afa565b82525050565b600061254482846123f3565b915081905092915050565b60006020820190506125646000830184612234565b92915050565b600060408201905061257f6000830185612234565b61258c6020830184612234565b9392505050565b60006060820190506125a86000830186612234565b6125b56020830185612234565b81810360408301526125c78184612317565b9050949350505050565b60006080820190506125e66000830187612234565b6125f36020830186612234565b81810360408301526126058185612317565b905081810360608301526126198184612317565b905095945050505050565b60006040820190506126396000830185612234565b6126466020830184612529565b9392505050565b600060208201905081810360008301526126678184612243565b905092915050565b6000604082019050818103600083015261268a8185876122a1565b90506126996020830184612529565b949350505050565b600060208201905081810360008301526126bb8184612317565b905092915050565b600060408201905081810360008301526126dd8185612317565b905081810360208301526126f18184612317565b90509392505050565b6000604082019050818103600083015261271581858761238c565b90506127246020830184612529565b949350505050565b600060208201905061274160008301846123e4565b92915050565b60006040820190508181036000830152612762818587612424565b90506127716020830184612529565b949350505050565b6000602082019050818103600083015261279381846124f0565b905092915050565b600060208201905081810360008301526127b5818461247e565b905092915050565b600060408201905081810360008301526127d7818561247e565b905081810360208301526127eb818461247e565b90509392505050565b60006020820190506128096000830184612529565b92915050565b60006040820190506128246000830186612529565b8181036020830152612837818486612424565b9050949350505050565b60006040820190506128566000830185612529565b6128636020830184612529565b9392505050565b6000604051905081810181811067ffffffffffffffff8211171561288d57600080fd5b8060405250919050565b600067ffffffffffffffff8211156128ae57600080fd5b602082029050602081019050919050565b600067ffffffffffffffff8211156128d657600080fd5b602082029050602081019050919050565b600067ffffffffffffffff8211156128fe57600080fd5b601f19601f8301169050602081019050919050565b600067ffffffffffffffff82111561292a57600080fd5b601f19601f8301169050602081019050919050565b6000819050602082019050919050565b6000819050919050565b6000819050602082019050919050565b600081519050919050565b600081519050919050565b600081519050919050565b600081519050919050565b600081519050919050565b6000602082019050919050565b6000602082019050919050565b6000602082019050919050565b600082825260208201905092915050565b600082825260208201905092915050565b600082825260208201905092915050565b600081905092915050565b600082825260208201905092915050565b600082825260208201905092915050565b60008083356001602003843603038112612a4057600080fd5b83810192508235915060208301925067ffffffffffffffff821115612a6457600080fd5b600182023603841315612a7657600080fd5b509250929050565b6000612a8982612ada565b9050919050565b6000612a9b82612ada565b9050919050565b60008115159050919050565b60007fffffffff0000000000000000000000000000000000000000000000000000000082169050919050565b600073ffffffffffffffffffffffffffffffffffffffff82169050919050565b6000819050919050565b82818337600083830152505050565b60005b83811015612b31578082015181840152602081019050612b16565b83811115612b40576000848401525b50505050565b6000601f19601f8301169050919050565b612b6081612a7e565b8114612b6b57600080fd5b50565b612b7781612a90565b8114612b8257600080fd5b50565b612b8e81612aa2565b8114612b9957600080fd5b50565b612ba581612aae565b8114612bb057600080fd5b50565b612bbc81612afa565b8114612bc757600080fd5b5056fea365627a7a723158202f08f33f3f44983c05911d6bfb8fd982d62290f0ac21157929508911051440a96c6578706572696d656e74616cf564736f6c634300050c0040",
  "source": "pragma solidity 0.5.12;\npragma experimental ABIEncoderV2;\n\nimport '@openzeppelin/contracts/introspection/ERC165.sol';\n\nimport './IRegistryReader.sol';\nimport './IResolverReader.sol';\nimport './IDataReader.sol';\nimport './Registry.sol';\nimport './Resolver.sol';\n\ncontract ProxyReader is ERC165, IRegistryReader, IResolverReader, IDataReader {\n    string public constant NAME = 'Unstoppable Proxy Reader';\n    string public constant VERSION = '0.1.0';\n\n    Registry private _registry;\n\n    /*\n     * bytes4(keccak256(abi.encodePacked('supportsInterface(bytes4)'))) == 0x01ffc9a7\n     */\n    bytes4 private constant _INTERFACE_ID_ERC165 = 0x01ffc9a7;\n\n    /*\n     * bytes4(keccak256(abi.encodePacked('name()'))) == 0x06fdde03\n     * bytes4(keccak256(abi.encodePacked('symbol()'))) == 0x95d89b41\n     * bytes4(keccak256(abi.encodePacked('tokenURI(uint256)'))) == 0xc87b56dd\n     * bytes4(keccak256(abi.encodePacked('isApprovedOrOwner(address,uint256)'))) == 0x430c2081\n     * bytes4(keccak256(abi.encodePacked('resolverOf(uint256)'))) == 0xb3f9e4cb\n     * bytes4(keccak256(abi.encodePacked('childIdOf(uint256,string)'))) == 0x68b62d32\n     * bytes4(keccak256(abi.encodePacked('isController(address)'))) == 0xb429afeb\n     * bytes4(keccak256(abi.encodePacked('balanceOf(address)'))) == 0x70a08231\n     * bytes4(keccak256(abi.encodePacked('ownerOf(uint256)'))) == 0x6352211e\n     * bytes4(keccak256(abi.encodePacked('getApproved(uint256)'))) == 0x081812fc\n     * bytes4(keccak256(abi.encodePacked('isApprovedForAll(address,address)'))) == 0xe985e9c5\n     * bytes4(keccak256(abi.encodePacked('root()'))) == 0xebf0c717\n     *\n     * => 0x06fdde03 ^ 0x95d89b41 ^ 0xc87b56dd ^ 0x430c2081 ^\n     *    0xb3f9e4cb ^ 0x68b62d32 ^ 0xb429afeb ^ 0x70a08231 ^\n     *    0x6352211e ^ 0x081812fc ^ 0xe985e9c5 ^ 0xebf0c717 == 0x6eabca0d\n     */\n    bytes4 private constant _INTERFACE_ID_REGISTRY_READER = 0x6eabca0d;\n\n    /*\n     * bytes4(keccak256(abi.encodePacked('nonceOf(uint256)'))) == 0x6ccbae5f\n     * bytes4(keccak256(abi.encodePacked('registry()'))) == 0x7b103999\n     * bytes4(keccak256(abi.encodePacked('get(string,uint256)'))) == 0x1be5e7ed\n     * bytes4(keccak256(abi.encodePacked('getByHash(uint256,uint256)'))) == 0x672b9f81\n     * bytes4(keccak256(abi.encodePacked('getMany(string[],uint256)'))) == 0x1bd8cc1a\n     * bytes4(keccak256(abi.encodePacked('getManyByHash(uint256[],uint256)'))) == 0xb85afd28\n     *\n     * => 0x6ccbae5f ^ 0x7b103999 ^ 0x1be5e7ed ^\n     *    0x672b9f81 ^ 0x1bd8cc1a ^ 0xb85afd28 == 0xc897de98\n     */\n    bytes4 private constant _INTERFACE_ID_RESOLVER_READER = 0xc897de98;\n\n    /*\n     * bytes4(keccak256(abi.encodePacked('getData(string[],uint256)'))) == 0x91015f6b\n     * bytes4(keccak256(abi.encodePacked('getDataByHash(uint256[],uint256)'))) == 0x03280755\n     *\n     * => 0x91015f6b ^ 0x03280755 == 0x9229583e\n     */\n    bytes4 private constant _INTERFACE_ID_DATA_READER = 0x9229583e;\n\n    constructor(Registry registry) public {\n        require(address(registry) != address(0), 'Registry is empty');\n        _registry = registry;\n\n        _registerInterface(_INTERFACE_ID_ERC165);\n        _registerInterface(_INTERFACE_ID_REGISTRY_READER);\n        _registerInterface(_INTERFACE_ID_RESOLVER_READER);\n        _registerInterface(_INTERFACE_ID_DATA_READER);\n    }\n\n    function name() external view returns (string memory) {\n        return _registry.name();\n    }\n\n    function symbol() external view returns (string memory) {\n        return _registry.symbol();\n    }\n\n    function tokenURI(uint256 tokenId) external view returns (string memory) {\n        return _registry.tokenURI(tokenId);\n    }\n\n    function isApprovedOrOwner(address spender, uint256 tokenId)\n        external\n        view\n        returns (bool)\n    {\n        return _registry.isApprovedOrOwner(spender, tokenId);\n    }\n\n    function resolverOf(uint256 tokenId) external view returns (address) {\n        return _registry.resolverOf(tokenId);\n    }\n\n    function childIdOf(uint256 tokenId, string calldata label)\n        external\n        view\n        returns (uint256)\n    {\n        return _registry.childIdOf(tokenId, label);\n    }\n\n    function isController(address account) external view returns (bool) {\n        return _registry.isController(account);\n    }\n\n    function balanceOf(address owner) external view returns (uint256) {\n        return _registry.balanceOf(owner);\n    }\n\n    function ownerOf(uint256 tokenId) external view returns (address) {\n        return _registry.ownerOf(tokenId);\n    }\n\n    function getApproved(uint256 tokenId) external view returns (address) {\n        return _registry.getApproved(tokenId);\n    }\n\n    function isApprovedForAll(address owner, address operator)\n        external\n        view\n        returns (bool)\n    {\n        return _registry.isApprovedForAll(owner, operator);\n    }\n\n    function root() external view returns (uint256) {\n        return _registry.root();\n    }\n\n    function nonceOf(uint256 tokenId) external view returns (uint256) {\n        Resolver resolver = Resolver(_registry.resolverOf(tokenId));\n        return resolver.nonceOf(tokenId);\n    }\n\n    function registry() external view returns (address) {\n        return address(_registry);\n    }\n\n    function get(string calldata key, uint256 tokenId)\n        external\n        view\n        returns (string memory)\n    {\n        Resolver resolver = Resolver(_registry.resolverOf(tokenId));\n        return resolver.get(key, tokenId);\n    }\n\n    function getMany(string[] calldata keys, uint256 tokenId)\n        external\n        view\n        returns (string[] memory)\n    {\n        Resolver resolver = Resolver(_registry.resolverOf(tokenId));\n        return resolver.getMany(keys, tokenId);\n    }\n\n    function getByHash(uint256 keyHash, uint256 tokenId)\n        external\n        view\n        returns (string memory key, string memory value)\n    {\n        Resolver resolver = Resolver(_registry.resolverOf(tokenId));\n        return resolver.getByHash(keyHash, tokenId);\n    }\n\n    function getManyByHash(uint256[] calldata keyHashes, uint256 tokenId)\n        external\n        view\n        returns (string[] memory keys, string[] memory values)\n    {\n        Resolver resolver = Resolver(_registry.resolverOf(tokenId));\n        return resolver.getManyByHash(keyHashes, tokenId);\n    }\n\n    function getData(string[] calldata keys, uint256 tokenId)\n        external\n        returns (\n            address resolver,\n            address owner,\n            string[] memory values\n        )\n    {\n        resolver = _resolverOf(tokenId);\n        owner = _ownerOf(tokenId);\n\n        if(resolver != address(0x0)) {\n            Resolver resolverContract = Resolver(resolver);\n            values = resolverContract.getMany(keys, tokenId);\n        }\n    }\n\n    function getDataByHash(uint256[] calldata keyHashes, uint256 tokenId)\n        external\n        returns (\n            address resolver,\n            address owner,\n            string[] memory keys,\n            string[] memory values\n        )\n    {\n        resolver = _resolverOf(tokenId);\n        owner = _ownerOf(tokenId);\n\n        if(resolver != address(0x0)) {\n            Resolver resolverContract = Resolver(resolver);\n            (keys, values) = resolverContract.getManyByHash(keyHashes, tokenId);\n        }\n    }\n\n    function ownerOf(uint256[] memory tokenIds) public returns (address[] memory owners) {\n        owners = new address[](tokenIds.length);\n        for (uint256 i = 0; i < tokenIds.length; i++) {\n            owners[i] = _ownerOf(tokenIds[i]);\n        }\n    }\n\n    // bytes4(keccak256(abi.encodePacked('ownerOf(uint256)'))) == 0x6352211e\n    function _ownerOf(uint256 tokenId) private returns (address) {\n        (bool success, bytes memory result) = address(this).call(abi.encodeWithSelector(0x6352211e, tokenId));\n        if (success == true) {\n            (address _owner) = abi.decode(result, (address));\n            return _owner;\n        }\n        return address(0x0);\n    }\n\n    // bytes4(keccak256(abi.encodePacked('resolverOf(uint256)'))) == 0xb3f9e4cb\n    function _resolverOf(uint256 tokenId) private returns (address) {\n        (bool success, bytes memory result) = address(this).call(abi.encodeWithSelector(0xb3f9e4cb, tokenId));\n        if (success == true) {\n            (address _resolver) = abi.decode(result, (address));\n            return _resolver;\n        }\n        return address(0x0);\n    }\n}\n",
  "sourcePath": "/Users/aquila/Documents/GitHub/dot-crypto/contracts/ProxyReader.sol",
  "compiler": {
    "name": "solc",
    "version": "0.5.12+commit.7709ece9.Emscripten.clang"
  },
  "schemaVersion": "3.2.5",
  "updatedAt": "2020-10-26T14:38:50.951Z",
  "devdoc": {
    "methods": {
      "supportsInterface(bytes4)": {
        "details": "See `IERC165.supportsInterface`.     * Time complexity O(1), guaranteed to always use less than 30 000 gas."
      }
    }
  },
  "userdoc": {
    "methods": {}
  }
}