{
  "contractName": "ProxyReader",
  "abi": [
    {
      "inputs": [
        {
          "internalType": "contract Registry",
          "name": "registry",
          "type": "address"
        }
      ],
      "payable": false,
      "stateMutability": "nonpayable",
      "type": "constructor"
    },
    {
      "constant": true,
      "inputs": [],
      "name": "NAME",
      "outputs": [
        {
          "internalType": "string",
          "name": "",
          "type": "string"
        }
      ],
      "payable": false,
      "stateMutability": "view",
      "type": "function"
    },
    {
      "constant": true,
      "inputs": [],
      "name": "VERSION",
      "outputs": [
        {
          "internalType": "string",
          "name": "",
          "type": "string"
        }
      ],
      "payable": false,
      "stateMutability": "view",
      "type": "function"
    },
    {
      "constant": true,
      "inputs": [
        {
          "internalType": "bytes4",
          "name": "interfaceId",
          "type": "bytes4"
        }
      ],
      "name": "supportsInterface",
      "outputs": [
        {
          "internalType": "bool",
          "name": "",
          "type": "bool"
        }
      ],
      "payable": false,
      "stateMutability": "view",
      "type": "function"
    },
    {
      "constant": true,
      "inputs": [],
      "name": "name",
      "outputs": [
        {
          "internalType": "string",
          "name": "",
          "type": "string"
        }
      ],
      "payable": false,
      "stateMutability": "view",
      "type": "function"
    },
    {
      "constant": true,
      "inputs": [],
      "name": "symbol",
      "outputs": [
        {
          "internalType": "string",
          "name": "",
          "type": "string"
        }
      ],
      "payable": false,
      "stateMutability": "view",
      "type": "function"
    },
    {
      "constant": true,
      "inputs": [
        {
          "internalType": "uint256",
          "name": "tokenId",
          "type": "uint256"
        }
      ],
      "name": "tokenURI",
      "outputs": [
        {
          "internalType": "string",
          "name": "",
          "type": "string"
        }
      ],
      "payable": false,
      "stateMutability": "view",
      "type": "function"
    },
    {
      "constant": true,
      "inputs": [
        {
          "internalType": "address",
          "name": "spender",
          "type": "address"
        },
        {
          "internalType": "uint256",
          "name": "tokenId",
          "type": "uint256"
        }
      ],
      "name": "isApprovedOrOwner",
      "outputs": [
        {
          "internalType": "bool",
          "name": "",
          "type": "bool"
        }
      ],
      "payable": false,
      "stateMutability": "view",
      "type": "function"
    },
    {
      "constant": true,
      "inputs": [
        {
          "internalType": "uint256",
          "name": "tokenId",
          "type": "uint256"
        }
      ],
      "name": "resolverOf",
      "outputs": [
        {
          "internalType": "address",
          "name": "",
          "type": "address"
        }
      ],
      "payable": false,
      "stateMutability": "view",
      "type": "function"
    },
    {
      "constant": true,
      "inputs": [
        {
          "internalType": "uint256",
          "name": "tokenId",
          "type": "uint256"
        },
        {
          "internalType": "string",
          "name": "label",
          "type": "string"
        }
      ],
      "name": "childIdOf",
      "outputs": [
        {
          "internalType": "uint256",
          "name": "",
          "type": "uint256"
        }
      ],
      "payable": false,
      "stateMutability": "view",
      "type": "function"
    },
    {
      "constant": true,
      "inputs": [
        {
          "internalType": "address",
          "name": "account",
          "type": "address"
        }
      ],
      "name": "isController",
      "outputs": [
        {
          "internalType": "bool",
          "name": "",
          "type": "bool"
        }
      ],
      "payable": false,
      "stateMutability": "view",
      "type": "function"
    },
    {
      "constant": true,
      "inputs": [
        {
          "internalType": "address",
          "name": "owner",
          "type": "address"
        }
      ],
      "name": "balanceOf",
      "outputs": [
        {
          "internalType": "uint256",
          "name": "",
          "type": "uint256"
        }
      ],
      "payable": false,
      "stateMutability": "view",
      "type": "function"
    },
    {
      "constant": true,
      "inputs": [
        {
          "internalType": "uint256",
          "name": "tokenId",
          "type": "uint256"
        }
      ],
      "name": "ownerOf",
      "outputs": [
        {
          "internalType": "address",
          "name": "",
          "type": "address"
        }
      ],
      "payable": false,
      "stateMutability": "view",
      "type": "function"
    },
    {
      "constant": true,
      "inputs": [
        {
          "internalType": "uint256",
          "name": "tokenId",
          "type": "uint256"
        }
      ],
      "name": "getApproved",
      "outputs": [
        {
          "internalType": "address",
          "name": "",
          "type": "address"
        }
      ],
      "payable": false,
      "stateMutability": "view",
      "type": "function"
    },
    {
      "constant": true,
      "inputs": [
        {
          "internalType": "address",
          "name": "owner",
          "type": "address"
        },
        {
          "internalType": "address",
          "name": "operator",
          "type": "address"
        }
      ],
      "name": "isApprovedForAll",
      "outputs": [
        {
          "internalType": "bool",
          "name": "",
          "type": "bool"
        }
      ],
      "payable": false,
      "stateMutability": "view",
      "type": "function"
    },
    {
      "constant": true,
      "inputs": [],
      "name": "root",
      "outputs": [
        {
          "internalType": "uint256",
          "name": "",
          "type": "uint256"
        }
      ],
      "payable": false,
      "stateMutability": "view",
      "type": "function"
    },
    {
      "constant": true,
      "inputs": [
        {
          "internalType": "uint256",
          "name": "tokenId",
          "type": "uint256"
        }
      ],
      "name": "nonceOf",
      "outputs": [
        {
          "internalType": "uint256",
          "name": "",
          "type": "uint256"
        }
      ],
      "payable": false,
      "stateMutability": "view",
      "type": "function"
    },
    {
      "constant": true,
      "inputs": [],
      "name": "registry",
      "outputs": [
        {
          "internalType": "address",
          "name": "",
          "type": "address"
        }
      ],
      "payable": false,
      "stateMutability": "view",
      "type": "function"
    },
    {
      "constant": true,
      "inputs": [
        {
          "internalType": "string",
          "name": "key",
          "type": "string"
        },
        {
          "internalType": "uint256",
          "name": "tokenId",
          "type": "uint256"
        }
      ],
      "name": "get",
      "outputs": [
        {
          "internalType": "string",
          "name": "",
          "type": "string"
        }
      ],
      "payable": false,
      "stateMutability": "view",
      "type": "function"
    },
    {
      "constant": true,
      "inputs": [
        {
          "internalType": "string[]",
          "name": "keys",
          "type": "string[]"
        },
        {
          "internalType": "uint256",
          "name": "tokenId",
          "type": "uint256"
        }
      ],
      "name": "getMany",
      "outputs": [
        {
          "internalType": "string[]",
          "name": "",
          "type": "string[]"
        }
      ],
      "payable": false,
      "stateMutability": "view",
      "type": "function"
    },
    {
      "constant": true,
      "inputs": [
        {
          "internalType": "uint256",
          "name": "keyHash",
          "type": "uint256"
        },
        {
          "internalType": "uint256",
          "name": "tokenId",
          "type": "uint256"
        }
      ],
      "name": "getByHash",
      "outputs": [
        {
          "internalType": "string",
          "name": "key",
          "type": "string"
        },
        {
          "internalType": "string",
          "name": "value",
          "type": "string"
        }
      ],
      "payable": false,
      "stateMutability": "view",
      "type": "function"
    },
    {
      "constant": true,
      "inputs": [
        {
          "internalType": "uint256[]",
          "name": "keyHashes",
          "type": "uint256[]"
        },
        {
          "internalType": "uint256",
          "name": "tokenId",
          "type": "uint256"
        }
      ],
      "name": "getManyByHash",
      "outputs": [
        {
          "internalType": "string[]",
          "name": "keys",
          "type": "string[]"
        },
        {
          "internalType": "string[]",
          "name": "values",
          "type": "string[]"
        }
      ],
      "payable": false,
      "stateMutability": "view",
      "type": "function"
    },
    {
      "constant": true,
      "inputs": [
        {
          "internalType": "string[]",
          "name": "keys",
          "type": "string[]"
        },
        {
          "internalType": "uint256",
          "name": "tokenId",
          "type": "uint256"
        }
      ],
      "name": "getData",
      "outputs": [
        {
          "internalType": "address",
          "name": "resolver",
          "type": "address"
        },
        {
          "internalType": "address",
          "name": "owner",
          "type": "address"
        },
        {
          "internalType": "string[]",
          "name": "values",
          "type": "string[]"
        }
      ],
      "payable": false,
      "stateMutability": "view",
      "type": "function"
    },
    {
      "constant": true,
      "inputs": [
        {
          "internalType": "uint256[]",
          "name": "keyHashes",
          "type": "uint256[]"
        },
        {
          "internalType": "uint256",
          "name": "tokenId",
          "type": "uint256"
        }
      ],
      "name": "getDataByHash",
      "outputs": [
        {
          "internalType": "address",
          "name": "resolver",
          "type": "address"
        },
        {
          "internalType": "address",
          "name": "owner",
          "type": "address"
        },
        {
          "internalType": "string[]",
          "name": "keys",
          "type": "string[]"
        },
        {
          "internalType": "string[]",
          "name": "values",
          "type": "string[]"
        }
      ],
      "payable": false,
      "stateMutability": "view",
      "type": "function"
    }
  ],
  "bytecode": "0x60806040523480156200001157600080fd5b5060405162002c7038038062002c70833981810160405262000037919081019062000259565b6200004f6301ffc9a760e01b6200016a60201b60201c565b600073ffffffffffffffffffffffffffffffffffffffff168173ffffffffffffffffffffffffffffffffffffffff161415620000c2576040517f08c379a0000000000000000000000000000000000000000000000000000000008152600401620000b9906200032b565b60405180910390fd5b80600160006101000a81548173ffffffffffffffffffffffffffffffffffffffff021916908373ffffffffffffffffffffffffffffffffffffffff1602179055506200011b6301ffc9a760e01b6200016a60201b60201c565b62000133636eabca0d60e01b6200016a60201b60201c565b6200014b63c897de9860e01b6200016a60201b60201c565b62000163639229583e60e01b6200016a60201b60201c565b50620003c0565b63ffffffff60e01b817bffffffffffffffffffffffffffffffffffffffffffffffffffffffff19161415620001d6576040517f08c379a0000000000000000000000000000000000000000000000000000000008152600401620001cd9062000309565b60405180910390fd5b6001600080837bffffffffffffffffffffffffffffffffffffffffffffffffffffffff19167bffffffffffffffffffffffffffffffffffffffffffffffffffffffff1916815260200190815260200160002060006101000a81548160ff02191690831515021790555050565b6000815190506200025381620003a6565b92915050565b6000602082840312156200026c57600080fd5b60006200027c8482850162000242565b91505092915050565b600062000294601c836200034d565b91507f4552433136353a20696e76616c696420696e74657266616365206964000000006000830152602082019050919050565b6000620002d66011836200034d565b91507f526567697374727920697320656d7074790000000000000000000000000000006000830152602082019050919050565b60006020820190508181036000830152620003248162000285565b9050919050565b600060208201905081810360008301526200034681620002c7565b9050919050565b600082825260208201905092915050565b60006200036b8262000386565b9050919050565b60006200037f826200035e565b9050919050565b600073ffffffffffffffffffffffffffffffffffffffff82169050919050565b620003b18162000372565b8114620003bd57600080fd5b50565b6128a080620003d06000396000f3fe608060405234801561001057600080fd5b506004361061014d5760003560e01c806370a08231116100c3578063b429afeb1161007c578063b429afeb14610440578063b85afd2814610470578063c87b56dd146104a1578063e985e9c5146104d1578063ebf0c71714610501578063ffa1ad741461051f5761014d565b806370a08231146103545780637b1039991461038457806391015f6b146103a257806395d89b41146103d4578063a3f4df7e146103f2578063b3f9e4cb146104105761014d565b80631be5e7ed116101155780631be5e7ed14610233578063430c2081146102635780636352211e14610293578063672b9f81146102c357806368b62d32146102f45780636ccbae5f146103245761014d565b806301ffc9a714610152578063032807551461018257806306fdde03146101b5578063081812fc146101d35780631bd8cc1a14610203575b600080fd5b61016c60048036036101679190810190611df1565b61053d565b604051610179919061245f565b60405180910390f35b61019c60048036036101979190810190611d70565b6105a4565b6040516101ac9493929190612326565b60405180910390f35b6101bd6107ad565b6040516101ca91906124ce565b60405180910390f35b6101ed60048036036101e89190810190611f1f565b610859565b6040516101fa91906122a4565b60405180910390f35b61021d60048036036102189190810190611c6b565b61090d565b60405161022a91906123d4565b60405180910390f35b61024d60048036036102489190810190611e1a565b610a5a565b60405161025a91906124ce565b60405180910390f35b61027d60048036036102789190810190611c2f565b610ba7565b60405161028a919061245f565b60405180910390f35b6102ad60048036036102a89190810190611f1f565b610c5e565b6040516102ba91906122a4565b60405180910390f35b6102dd60048036036102d89190810190611fc9565b610d12565b6040516102eb9291906124f0565b60405180910390f35b61030e60048036036103099190810190611f71565b610e60565b60405161031b9190612527565b60405180910390f35b61033e60048036036103399190810190611f1f565b610f1a565b60405161034b9190612527565b60405180910390f35b61036e60048036036103699190810190611ba1565b61105b565b60405161037b9190612527565b60405180910390f35b61038c61110f565b60405161039991906122a4565b60405180910390f35b6103bc60048036036103b79190810190611c6b565b611139565b6040516103cb939291906122e8565b60405180910390f35b6103dc61133b565b6040516103e991906124ce565b60405180910390f35b6103fa6113e7565b60405161040791906124ac565b60405180910390f35b61042a60048036036104259190810190611f1f565b611420565b60405161043791906122a4565b60405180910390f35b61045a60048036036104559190810190611ba1565b6114d4565b604051610467919061245f565b60405180910390f35b61048a60048036036104859190810190611d70565b611588565b6040516104989291906123f6565b60405180910390f35b6104bb60048036036104b69190810190611f1f565b6116d9565b6040516104c891906124ce565b60405180910390f35b6104eb60048036036104e69190810190611bf3565b611792565b6040516104f8919061245f565b60405180910390f35b610509611849565b6040516105169190612527565b60405180910390f35b6105276118f0565b60405161053491906124ac565b60405180910390f35b6000806000837bffffffffffffffffffffffffffffffffffffffffffffffffffffffff19167bffffffffffffffffffffffffffffffffffffffffffffffffffffffff1916815260200190815260200160002060009054906101000a900460ff169050919050565b600080606080600160009054906101000a900473ffffffffffffffffffffffffffffffffffffffff1673ffffffffffffffffffffffffffffffffffffffff1663b3f9e4cb866040518263ffffffff1660e01b81526004016106059190612527565b60206040518083038186803b15801561061d57600080fd5b505afa158015610631573d6000803e3d6000fd5b505050506040513d601f19601f820116820180604052506106559190810190611bca565b9350600160009054906101000a900473ffffffffffffffffffffffffffffffffffffffff1673ffffffffffffffffffffffffffffffffffffffff16636352211e866040518263ffffffff1660e01b81526004016106b29190612527565b60206040518083038186803b1580156106ca57600080fd5b505afa1580156106de573d6000803e3d6000fd5b505050506040513d601f19601f820116820180604052506107029190810190611bca565b925060008490508073ffffffffffffffffffffffffffffffffffffffff1663b85afd288989896040518463ffffffff1660e01b81526004016107469392919061242d565b60006040518083038186803b15801561075e57600080fd5b505afa158015610772573d6000803e3d6000fd5b505050506040513d6000823e3d601f19601f8201168201806040525061079b9190810190611d04565b80935081945050505093509350935093565b6060600160009054906101000a900473ffffffffffffffffffffffffffffffffffffffff1673ffffffffffffffffffffffffffffffffffffffff166306fdde036040518163ffffffff1660e01b815260040160006040518083038186803b15801561081757600080fd5b505afa15801561082b573d6000803e3d6000fd5b505050506040513d6000823e3d601f19601f820116820180604052506108549190810190611e72565b905090565b6000600160009054906101000a900473ffffffffffffffffffffffffffffffffffffffff1673ffffffffffffffffffffffffffffffffffffffff1663081812fc836040518263ffffffff1660e01b81526004016108b69190612527565b60206040518083038186803b1580156108ce57600080fd5b505afa1580156108e2573d6000803e3d6000fd5b505050506040513d601f19601f820116820180604052506109069190810190611bca565b9050919050565b60606000600160009054906101000a900473ffffffffffffffffffffffffffffffffffffffff1673ffffffffffffffffffffffffffffffffffffffff1663b3f9e4cb846040518263ffffffff1660e01b815260040161096c9190612527565b60206040518083038186803b15801561098457600080fd5b505afa158015610998573d6000803e3d6000fd5b505050506040513d601f19601f820116820180604052506109bc9190810190611bca565b90508073ffffffffffffffffffffffffffffffffffffffff16631bd8cc1a8686866040518463ffffffff1660e01b81526004016109fb939291906123a2565b60006040518083038186803b158015610a1357600080fd5b505afa158015610a27573d6000803e3d6000fd5b505050506040513d6000823e3d601f19601f82011682018060405250610a509190810190611cc3565b9150509392505050565b60606000600160009054906101000a900473ffffffffffffffffffffffffffffffffffffffff1673ffffffffffffffffffffffffffffffffffffffff1663b3f9e4cb846040518263ffffffff1660e01b8152600401610ab99190612527565b60206040518083038186803b158015610ad157600080fd5b505afa158015610ae5573d6000803e3d6000fd5b505050506040513d601f19601f82011682018060405250610b099190810190611bca565b90508073ffffffffffffffffffffffffffffffffffffffff16631be5e7ed8686866040518463ffffffff1660e01b8152600401610b489392919061247a565b60006040518083038186803b158015610b6057600080fd5b505afa158015610b74573d6000803e3d6000fd5b505050506040513d6000823e3d601f19601f82011682018060405250610b9d9190810190611e72565b9150509392505050565b6000600160009054906101000a900473ffffffffffffffffffffffffffffffffffffffff1673ffffffffffffffffffffffffffffffffffffffff1663430c208184846040518363ffffffff1660e01b8152600401610c06929190612379565b60206040518083038186803b158015610c1e57600080fd5b505afa158015610c32573d6000803e3d6000fd5b505050506040513d601f19601f82011682018060405250610c569190810190611dc8565b905092915050565b6000600160009054906101000a900473ffffffffffffffffffffffffffffffffffffffff1673ffffffffffffffffffffffffffffffffffffffff16636352211e836040518263ffffffff1660e01b8152600401610cbb9190612527565b60206040518083038186803b158015610cd357600080fd5b505afa158015610ce7573d6000803e3d6000fd5b505050506040513d601f19601f82011682018060405250610d0b9190810190611bca565b9050919050565b6060806000600160009054906101000a900473ffffffffffffffffffffffffffffffffffffffff1673ffffffffffffffffffffffffffffffffffffffff1663b3f9e4cb856040518263ffffffff1660e01b8152600401610d729190612527565b60206040518083038186803b158015610d8a57600080fd5b505afa158015610d9e573d6000803e3d6000fd5b505050506040513d601f19601f82011682018060405250610dc29190810190611bca565b90508073ffffffffffffffffffffffffffffffffffffffff1663672b9f8186866040518363ffffffff1660e01b8152600401610dff929190612574565b60006040518083038186803b158015610e1757600080fd5b505afa158015610e2b573d6000803e3d6000fd5b505050506040513d6000823e3d601f19601f82011682018060405250610e549190810190611eb3565b92509250509250929050565b6000600160009054906101000a900473ffffffffffffffffffffffffffffffffffffffff1673ffffffffffffffffffffffffffffffffffffffff166368b62d328585856040518463ffffffff1660e01b8152600401610ec193929190612542565b60206040518083038186803b158015610ed957600080fd5b505afa158015610eed573d6000803e3d6000fd5b505050506040513d601f19601f82011682018060405250610f119190810190611f48565b90509392505050565b600080600160009054906101000a900473ffffffffffffffffffffffffffffffffffffffff1673ffffffffffffffffffffffffffffffffffffffff1663b3f9e4cb846040518263ffffffff1660e01b8152600401610f789190612527565b60206040518083038186803b158015610f9057600080fd5b505afa158015610fa4573d6000803e3d6000fd5b505050506040513d601f19601f82011682018060405250610fc89190810190611bca565b90508073ffffffffffffffffffffffffffffffffffffffff16636ccbae5f846040518263ffffffff1660e01b81526004016110039190612527565b60206040518083038186803b15801561101b57600080fd5b505afa15801561102f573d6000803e3d6000fd5b505050506040513d601f19601f820116820180604052506110539190810190611f48565b915050919050565b6000600160009054906101000a900473ffffffffffffffffffffffffffffffffffffffff1673ffffffffffffffffffffffffffffffffffffffff166370a08231836040518263ffffffff1660e01b81526004016110b891906122a4565b60206040518083038186803b1580156110d057600080fd5b505afa1580156110e4573d6000803e3d6000fd5b505050506040513d601f19601f820116820180604052506111089190810190611f48565b9050919050565b6000600160009054906101000a900473ffffffffffffffffffffffffffffffffffffffff16905090565b6000806060600160009054906101000a900473ffffffffffffffffffffffffffffffffffffffff1673ffffffffffffffffffffffffffffffffffffffff1663b3f9e4cb856040518263ffffffff1660e01b81526004016111999190612527565b60206040518083038186803b1580156111b157600080fd5b505afa1580156111c5573d6000803e3d6000fd5b505050506040513d601f19601f820116820180604052506111e99190810190611bca565b9250600160009054906101000a900473ffffffffffffffffffffffffffffffffffffffff1673ffffffffffffffffffffffffffffffffffffffff16636352211e856040518263ffffffff1660e01b81526004016112469190612527565b60206040518083038186803b15801561125e57600080fd5b505afa158015611272573d6000803e3d6000fd5b505050506040513d601f19601f820116820180604052506112969190810190611bca565b915060008390508073ffffffffffffffffffffffffffffffffffffffff16631bd8cc1a8888886040518463ffffffff1660e01b81526004016112da939291906123a2565b60006040518083038186803b1580156112f257600080fd5b505afa158015611306573d6000803e3d6000fd5b505050506040513d6000823e3d601f19601f8201168201806040525061132f9190810190611cc3565b91505093509350939050565b6060600160009054906101000a900473ffffffffffffffffffffffffffffffffffffffff1673ffffffffffffffffffffffffffffffffffffffff166395d89b416040518163ffffffff1660e01b815260040160006040518083038186803b1580156113a557600080fd5b505afa1580156113b9573d6000803e3d6000fd5b505050506040513d6000823e3d601f19601f820116820180604052506113e29190810190611e72565b905090565b6040518060400160405280601881526020017f556e73746f707061626c652050726f787920526561646572000000000000000081525081565b6000600160009054906101000a900473ffffffffffffffffffffffffffffffffffffffff1673ffffffffffffffffffffffffffffffffffffffff1663b3f9e4cb836040518263ffffffff1660e01b815260040161147d9190612527565b60206040518083038186803b15801561149557600080fd5b505afa1580156114a9573d6000803e3d6000fd5b505050506040513d601f19601f820116820180604052506114cd9190810190611bca565b9050919050565b6000600160009054906101000a900473ffffffffffffffffffffffffffffffffffffffff1673ffffffffffffffffffffffffffffffffffffffff1663b429afeb836040518263ffffffff1660e01b815260040161153191906122a4565b60206040518083038186803b15801561154957600080fd5b505afa15801561155d573d6000803e3d6000fd5b505050506040513d601f19601f820116820180604052506115819190810190611dc8565b9050919050565b6060806000600160009054906101000a900473ffffffffffffffffffffffffffffffffffffffff1673ffffffffffffffffffffffffffffffffffffffff1663b3f9e4cb856040518263ffffffff1660e01b81526004016115e89190612527565b60206040518083038186803b15801561160057600080fd5b505afa158015611614573d6000803e3d6000fd5b505050506040513d601f19601f820116820180604052506116389190810190611bca565b90508073ffffffffffffffffffffffffffffffffffffffff1663b85afd288787876040518463ffffffff1660e01b81526004016116779392919061242d565b60006040518083038186803b15801561168f57600080fd5b505afa1580156116a3573d6000803e3d6000fd5b505050506040513d6000823e3d601f19601f820116820180604052506116cc9190810190611d04565b9250925050935093915050565b6060600160009054906101000a900473ffffffffffffffffffffffffffffffffffffffff1673ffffffffffffffffffffffffffffffffffffffff1663c87b56dd836040518263ffffffff1660e01b81526004016117369190612527565b60006040518083038186803b15801561174e57600080fd5b505afa158015611762573d6000803e3d6000fd5b505050506040513d6000823e3d601f19601f8201168201806040525061178b9190810190611e72565b9050919050565b6000600160009054906101000a900473ffffffffffffffffffffffffffffffffffffffff1673ffffffffffffffffffffffffffffffffffffffff1663e985e9c584846040518363ffffffff1660e01b81526004016117f19291906122bf565b60206040518083038186803b15801561180957600080fd5b505afa15801561181d573d6000803e3d6000fd5b505050506040513d601f19601f820116820180604052506118419190810190611dc8565b905092915050565b6000600160009054906101000a900473ffffffffffffffffffffffffffffffffffffffff1673ffffffffffffffffffffffffffffffffffffffff1663ebf0c7176040518163ffffffff1660e01b815260040160206040518083038186803b1580156118b357600080fd5b505afa1580156118c7573d6000803e3d6000fd5b505050506040513d601f19601f820116820180604052506118eb9190810190611f48565b905090565b6040518060400160405280600581526020017f302e312e3000000000000000000000000000000000000000000000000000000081525081565b60008135905061193881612801565b92915050565b60008151905061194d81612801565b92915050565b60008083601f84011261196557600080fd5b8235905067ffffffffffffffff81111561197e57600080fd5b60208301915083602082028301111561199657600080fd5b9250929050565b600082601f8301126119ae57600080fd5b81516119c16119bc826125ca565b61259d565b9150818183526020840193506020810190508360005b83811015611a0757815186016119ed8882611acf565b8452602084019350602083019250506001810190506119d7565b5050505092915050565b60008083601f840112611a2357600080fd5b8235905067ffffffffffffffff811115611a3c57600080fd5b602083019150836020820283011115611a5457600080fd5b9250929050565b600081519050611a6a81612818565b92915050565b600081359050611a7f8161282f565b92915050565b60008083601f840112611a9757600080fd5b8235905067ffffffffffffffff811115611ab057600080fd5b602083019150836001820283011115611ac857600080fd5b9250929050565b600082601f830112611ae057600080fd5b8151611af3611aee826125f2565b61259d565b91508082526020830160208301858383011115611b0f57600080fd5b611b1a8382846127bd565b50505092915050565b600082601f830112611b3457600080fd5b8151611b47611b428261261e565b61259d565b91508082526020830160208301858383011115611b6357600080fd5b611b6e8382846127bd565b50505092915050565b600081359050611b8681612846565b92915050565b600081519050611b9b81612846565b92915050565b600060208284031215611bb357600080fd5b6000611bc184828501611929565b91505092915050565b600060208284031215611bdc57600080fd5b6000611bea8482850161193e565b91505092915050565b60008060408385031215611c0657600080fd5b6000611c1485828601611929565b9250506020611c2585828601611929565b9150509250929050565b60008060408385031215611c4257600080fd5b6000611c5085828601611929565b9250506020611c6185828601611b77565b9150509250929050565b600080600060408486031215611c8057600080fd5b600084013567ffffffffffffffff811115611c9a57600080fd5b611ca686828701611953565b93509350506020611cb986828701611b77565b9150509250925092565b600060208284031215611cd557600080fd5b600082015167ffffffffffffffff811115611cef57600080fd5b611cfb8482850161199d565b91505092915050565b60008060408385031215611d1757600080fd5b600083015167ffffffffffffffff811115611d3157600080fd5b611d3d8582860161199d565b925050602083015167ffffffffffffffff811115611d5a57600080fd5b611d668582860161199d565b9150509250929050565b600080600060408486031215611d8557600080fd5b600084013567ffffffffffffffff811115611d9f57600080fd5b611dab86828701611a11565b93509350506020611dbe86828701611b77565b9150509250925092565b600060208284031215611dda57600080fd5b6000611de884828501611a5b565b91505092915050565b600060208284031215611e0357600080fd5b6000611e1184828501611a70565b91505092915050565b600080600060408486031215611e2f57600080fd5b600084013567ffffffffffffffff811115611e4957600080fd5b611e5586828701611a85565b93509350506020611e6886828701611b77565b9150509250925092565b600060208284031215611e8457600080fd5b600082015167ffffffffffffffff811115611e9e57600080fd5b611eaa84828501611b23565b91505092915050565b60008060408385031215611ec657600080fd5b600083015167ffffffffffffffff811115611ee057600080fd5b611eec85828601611b23565b925050602083015167ffffffffffffffff811115611f0957600080fd5b611f1585828601611b23565b9150509250929050565b600060208284031215611f3157600080fd5b6000611f3f84828501611b77565b91505092915050565b600060208284031215611f5a57600080fd5b6000611f6884828501611b8c565b91505092915050565b600080600060408486031215611f8657600080fd5b6000611f9486828701611b77565b935050602084013567ffffffffffffffff811115611fb157600080fd5b611fbd86828701611a85565b92509250509250925092565b60008060408385031215611fdc57600080fd5b6000611fea85828601611b77565b9250506020611ffb85828601611b77565b9150509250929050565b60006120128484846121bd565b90509392505050565b60006120278383612223565b905092915050565b6120388161273a565b82525050565b600061204a838561269f565b93508360208402850161205c8461264a565b8060005b878110156120a257848403895261207782846126e3565b612082868284612005565b955061208d84612685565b935060208b019a505050600181019050612060565b50829750879450505050509392505050565b60006120bf82612664565b6120c9818561269f565b9350836020820285016120db85612654565b8060005b8581101561211757848403895281516120f8858261201b565b945061210383612692565b925060208a019950506001810190506120df565b50829750879550505050505092915050565b600061213583856126b0565b93507f07ffffffffffffffffffffffffffffffffffffffffffffffffffffffffffffff83111561216457600080fd5b6020830292506121758385846127ae565b82840190509392505050565b61218a8161274c565b82525050565b600061219c83856126d2565b93506121a98385846127ae565b6121b2836127f0565b840190509392505050565b60006121c983856126c1565b93506121d68385846127ae565b6121df836127f0565b840190509392505050565b60006121f58261267a565b6121ff81856126d2565b935061220f8185602086016127bd565b612218816127f0565b840191505092915050565b600061222e8261266f565b61223881856126c1565b93506122488185602086016127bd565b612251816127f0565b840191505092915050565b60006122678261266f565b61227181856126d2565b93506122818185602086016127bd565b61228a816127f0565b840191505092915050565b61229e816127a4565b82525050565b60006020820190506122b9600083018461202f565b92915050565b60006040820190506122d4600083018561202f565b6122e1602083018461202f565b9392505050565b60006060820190506122fd600083018661202f565b61230a602083018561202f565b818103604083015261231c81846120b4565b9050949350505050565b600060808201905061233b600083018761202f565b612348602083018661202f565b818103604083015261235a81856120b4565b9050818103606083015261236e81846120b4565b905095945050505050565b600060408201905061238e600083018561202f565b61239b6020830184612295565b9392505050565b600060408201905081810360008301526123bd81858761203e565b90506123cc6020830184612295565b949350505050565b600060208201905081810360008301526123ee81846120b4565b905092915050565b6000604082019050818103600083015261241081856120b4565b9050818103602083015261242481846120b4565b90509392505050565b60006040820190508181036000830152612448818587612129565b90506124576020830184612295565b949350505050565b60006020820190506124746000830184612181565b92915050565b60006040820190508181036000830152612495818587612190565b90506124a46020830184612295565b949350505050565b600060208201905081810360008301526124c6818461225c565b905092915050565b600060208201905081810360008301526124e881846121ea565b905092915050565b6000604082019050818103600083015261250a81856121ea565b9050818103602083015261251e81846121ea565b90509392505050565b600060208201905061253c6000830184612295565b92915050565b60006040820190506125576000830186612295565b818103602083015261256a818486612190565b9050949350505050565b60006040820190506125896000830185612295565b6125966020830184612295565b9392505050565b6000604051905081810181811067ffffffffffffffff821117156125c057600080fd5b8060405250919050565b600067ffffffffffffffff8211156125e157600080fd5b602082029050602081019050919050565b600067ffffffffffffffff82111561260957600080fd5b601f19601f8301169050602081019050919050565b600067ffffffffffffffff82111561263557600080fd5b601f19601f8301169050602081019050919050565b6000819050919050565b6000819050602082019050919050565b600081519050919050565b600081519050919050565b600081519050919050565b6000602082019050919050565b6000602082019050919050565b600082825260208201905092915050565b600082825260208201905092915050565b600082825260208201905092915050565b600082825260208201905092915050565b600080833560016020038436030381126126fc57600080fd5b83810192508235915060208301925067ffffffffffffffff82111561272057600080fd5b60018202360384131561273257600080fd5b509250929050565b600061274582612784565b9050919050565b60008115159050919050565b60007fffffffff0000000000000000000000000000000000000000000000000000000082169050919050565b600073ffffffffffffffffffffffffffffffffffffffff82169050919050565b6000819050919050565b82818337600083830152505050565b60005b838110156127db5780820151818401526020810190506127c0565b838111156127ea576000848401525b50505050565b6000601f19601f8301169050919050565b61280a8161273a565b811461281557600080fd5b50565b6128218161274c565b811461282c57600080fd5b50565b61283881612758565b811461284357600080fd5b50565b61284f816127a4565b811461285a57600080fd5b5056fea365627a7a7231582031e2d56513b6377053a0656e58761e9fecc66d4603232fa5bab1b19ef31e3f256c6578706572696d656e74616cf564736f6c634300050c0040",
  "source": "pragma solidity 0.5.12;\npragma experimental ABIEncoderV2;\n\nimport '@openzeppelin/contracts/introspection/ERC165.sol';\n\nimport './IRegistryReader.sol';\nimport './IResolverReader.sol';\nimport './IDataReader.sol';\nimport './Registry.sol';\nimport './Resolver.sol';\n\ncontract ProxyReader is ERC165, IRegistryReader, IResolverReader, IDataReader {\n    string public constant NAME = 'Unstoppable Proxy Reader';\n    string public constant VERSION = '0.1.0';\n\n    Registry private _registry;\n\n    /*\n     * bytes4(keccak256(abi.encodePacked('supportsInterface(bytes4)'))) == 0x01ffc9a7\n     */\n    bytes4 private constant _INTERFACE_ID_ERC165 = 0x01ffc9a7;\n\n    /*\n     * bytes4(keccak256(abi.encodePacked('name()'))) == 0x06fdde03\n     * bytes4(keccak256(abi.encodePacked('symbol()'))) == 0x95d89b41\n     * bytes4(keccak256(abi.encodePacked('tokenURI(uint256)'))) == 0xc87b56dd\n     * bytes4(keccak256(abi.encodePacked('isApprovedOrOwner(address,uint256)'))) == 0x430c2081\n     * bytes4(keccak256(abi.encodePacked('resolverOf(uint256)'))) == 0xb3f9e4cb\n     * bytes4(keccak256(abi.encodePacked('childIdOf(uint256,string)'))) == 0x68b62d32\n     * bytes4(keccak256(abi.encodePacked('isController(address)'))) == 0xb429afeb\n     * bytes4(keccak256(abi.encodePacked('balanceOf(address)'))) == 0x70a08231\n     * bytes4(keccak256(abi.encodePacked('ownerOf(uint256)'))) == 0x6352211e\n     * bytes4(keccak256(abi.encodePacked('getApproved(uint256)'))) == 0x081812fc\n     * bytes4(keccak256(abi.encodePacked('isApprovedForAll(address,address)'))) == 0xe985e9c5\n     * bytes4(keccak256(abi.encodePacked('root()'))) == 0xebf0c717\n     *\n     * => 0x06fdde03 ^ 0x95d89b41 ^ 0xc87b56dd ^ 0x430c2081 ^\n     *    0xb3f9e4cb ^ 0x68b62d32 ^ 0xb429afeb ^ 0x70a08231 ^\n     *    0x6352211e ^ 0x081812fc ^ 0xe985e9c5 ^ 0xebf0c717 == 0x6eabca0d\n     */\n    bytes4 private constant _INTERFACE_ID_REGISTRY_READER = 0x6eabca0d;\n\n    /*\n     * bytes4(keccak256(abi.encodePacked('nonceOf(uint256)'))) == 0x6ccbae5f\n     * bytes4(keccak256(abi.encodePacked('registry()'))) == 0x7b103999\n     * bytes4(keccak256(abi.encodePacked('get(string,uint256)'))) == 0x1be5e7ed\n     * bytes4(keccak256(abi.encodePacked('getByHash(uint256,uint256)'))) == 0x672b9f81\n     * bytes4(keccak256(abi.encodePacked('getMany(string[],uint256)'))) == 0x1bd8cc1a\n     * bytes4(keccak256(abi.encodePacked('getManyByHash(uint256[],uint256)'))) == 0xb85afd28\n     *\n     * => 0x6ccbae5f ^ 0x7b103999 ^ 0x1be5e7ed ^\n     *    0x672b9f81 ^ 0x1bd8cc1a ^ 0xb85afd28 == 0xc897de98\n     */\n    bytes4 private constant _INTERFACE_ID_RESOLVER_READER = 0xc897de98;\n\n    /*\n     * bytes4(keccak256(abi.encodePacked('getData(string[],uint256)'))) == 0x91015f6b\n     * bytes4(keccak256(abi.encodePacked('getDataByHash(uint256[],uint256)'))) == 0x03280755\n     *\n     * => 0x91015f6b ^ 0x03280755 == 0x9229583e\n     */\n    bytes4 private constant _INTERFACE_ID_DATA_READER = 0x9229583e;\n\n    constructor(Registry registry) public {\n        require(address(registry) != address(0), 'Registry is empty');\n        _registry = registry;\n\n        _registerInterface(_INTERFACE_ID_ERC165);\n        _registerInterface(_INTERFACE_ID_REGISTRY_READER);\n        _registerInterface(_INTERFACE_ID_RESOLVER_READER);\n        _registerInterface(_INTERFACE_ID_DATA_READER);\n    }\n\n    function name() external view returns (string memory) {\n        return _registry.name();\n    }\n\n    function symbol() external view returns (string memory) {\n        return _registry.symbol();\n    }\n\n    function tokenURI(uint256 tokenId) external view returns (string memory) {\n        return _registry.tokenURI(tokenId);\n    }\n\n    function isApprovedOrOwner(address spender, uint256 tokenId)\n        external\n        view\n        returns (bool)\n    {\n        return _registry.isApprovedOrOwner(spender, tokenId);\n    }\n\n    function resolverOf(uint256 tokenId) external view returns (address) {\n        return _registry.resolverOf(tokenId);\n    }\n\n    function childIdOf(uint256 tokenId, string calldata label)\n        external\n        view\n        returns (uint256)\n    {\n        return _registry.childIdOf(tokenId, label);\n    }\n\n    function isController(address account) external view returns (bool) {\n        return _registry.isController(account);\n    }\n\n    function balanceOf(address owner) external view returns (uint256) {\n        return _registry.balanceOf(owner);\n    }\n\n    function ownerOf(uint256 tokenId) external view returns (address) {\n        return _registry.ownerOf(tokenId);\n    }\n\n    function getApproved(uint256 tokenId) external view returns (address) {\n        return _registry.getApproved(tokenId);\n    }\n\n    function isApprovedForAll(address owner, address operator)\n        external\n        view\n        returns (bool)\n    {\n        return _registry.isApprovedForAll(owner, operator);\n    }\n\n    function root() external view returns (uint256) {\n        return _registry.root();\n    }\n\n    function nonceOf(uint256 tokenId) external view returns (uint256) {\n        Resolver resolver = Resolver(_registry.resolverOf(tokenId));\n        return resolver.nonceOf(tokenId);\n    }\n\n    function registry() external view returns (address) {\n        return address(_registry);\n    }\n\n    function get(string calldata key, uint256 tokenId)\n        external\n        view\n        returns (string memory)\n    {\n        Resolver resolver = Resolver(_registry.resolverOf(tokenId));\n        return resolver.get(key, tokenId);\n    }\n\n    function getMany(string[] calldata keys, uint256 tokenId)\n        external\n        view\n        returns (string[] memory)\n    {\n        Resolver resolver = Resolver(_registry.resolverOf(tokenId));\n        return resolver.getMany(keys, tokenId);\n    }\n\n    function getByHash(uint256 keyHash, uint256 tokenId)\n        external\n        view\n        returns (string memory key, string memory value)\n    {\n        Resolver resolver = Resolver(_registry.resolverOf(tokenId));\n        return resolver.getByHash(keyHash, tokenId);\n    }\n\n    function getManyByHash(uint256[] calldata keyHashes, uint256 tokenId)\n        external\n        view\n        returns (string[] memory keys, string[] memory values)\n    {\n        Resolver resolver = Resolver(_registry.resolverOf(tokenId));\n        return resolver.getManyByHash(keyHashes, tokenId);\n    }\n\n    function getData(string[] calldata keys, uint256 tokenId)\n        external\n        view\n        returns (\n            address resolver,\n            address owner,\n            string[] memory values\n        )\n    {\n        resolver = _registry.resolverOf(tokenId);\n        owner = _registry.ownerOf(tokenId);\n\n        Resolver resolverContract = Resolver(resolver);\n        values = resolverContract.getMany(keys, tokenId);\n    }\n\n    function getDataByHash(uint256[] calldata keyHashes, uint256 tokenId)\n        external\n        view\n        returns (\n            address resolver,\n            address owner,\n            string[] memory keys,\n            string[] memory values\n        )\n    {\n        resolver = _registry.resolverOf(tokenId);\n        owner = _registry.ownerOf(tokenId);\n\n        Resolver resolverContract = Resolver(resolver);\n        (keys, values) = resolverContract.getManyByHash(keyHashes, tokenId);\n    }\n}\n",
  "sourcePath": "/Users/aquila/Documents/GitHub/dot-crypto/contracts/ProxyReader.sol",
  "compiler": {
    "name": "solc",
    "version": "0.5.12+commit.7709ece9.Emscripten.clang"
  },
  "schemaVersion": "3.2.5",
  "updatedAt": "2020-10-05T14:41:20.134Z",
  "devdoc": {
    "methods": {
      "supportsInterface(bytes4)": {
        "details": "See `IERC165.supportsInterface`.     * Time complexity O(1), guaranteed to always use less than 30 000 gas."
      }
    }
  },
  "userdoc": {
    "methods": {}
  }
}