{
  "contractName": "ProxyReader",
  "abi": [
    {
      "inputs": [
        {
          "internalType": "contract CNSRegistry",
          "name": "registry",
          "type": "address"
        }
      ],
      "payable": false,
      "stateMutability": "nonpayable",
      "type": "constructor"
    },
    {
      "constant": true,
      "inputs": [],
      "name": "NAME",
      "outputs": [
        {
          "internalType": "string",
          "name": "",
          "type": "string"
        }
      ],
      "payable": false,
      "stateMutability": "view",
      "type": "function"
    },
    {
      "constant": true,
      "inputs": [],
      "name": "VERSION",
      "outputs": [
        {
          "internalType": "string",
          "name": "",
          "type": "string"
        }
      ],
      "payable": false,
      "stateMutability": "view",
      "type": "function"
    },
    {
      "constant": true,
      "inputs": [
        {
          "internalType": "bytes4",
          "name": "interfaceId",
          "type": "bytes4"
        }
      ],
      "name": "supportsInterface",
      "outputs": [
        {
          "internalType": "bool",
          "name": "",
          "type": "bool"
        }
      ],
      "payable": false,
      "stateMutability": "view",
      "type": "function"
    },
    {
      "constant": true,
      "inputs": [],
      "name": "name",
      "outputs": [
        {
          "internalType": "string",
          "name": "",
          "type": "string"
        }
      ],
      "payable": false,
      "stateMutability": "view",
      "type": "function"
    },
    {
      "constant": true,
      "inputs": [],
      "name": "symbol",
      "outputs": [
        {
          "internalType": "string",
          "name": "",
          "type": "string"
        }
      ],
      "payable": false,
      "stateMutability": "view",
      "type": "function"
    },
    {
      "constant": true,
      "inputs": [
        {
          "internalType": "uint256",
          "name": "tokenId",
          "type": "uint256"
        }
      ],
      "name": "tokenURI",
      "outputs": [
        {
          "internalType": "string",
          "name": "",
          "type": "string"
        }
      ],
      "payable": false,
      "stateMutability": "view",
      "type": "function"
    },
    {
      "constant": true,
      "inputs": [
        {
          "internalType": "address",
          "name": "spender",
          "type": "address"
        },
        {
          "internalType": "uint256",
          "name": "tokenId",
          "type": "uint256"
        }
      ],
      "name": "isApprovedOrOwner",
      "outputs": [
        {
          "internalType": "bool",
          "name": "",
          "type": "bool"
        }
      ],
      "payable": false,
      "stateMutability": "view",
      "type": "function"
    },
    {
      "constant": true,
      "inputs": [
        {
          "internalType": "uint256",
          "name": "tokenId",
          "type": "uint256"
        }
      ],
      "name": "resolverOf",
      "outputs": [
        {
          "internalType": "address",
          "name": "",
          "type": "address"
        }
      ],
      "payable": false,
      "stateMutability": "view",
      "type": "function"
    },
    {
      "constant": true,
      "inputs": [
        {
          "internalType": "uint256",
          "name": "tokenId",
          "type": "uint256"
        },
        {
          "internalType": "string",
          "name": "label",
          "type": "string"
        }
      ],
      "name": "childIdOf",
      "outputs": [
        {
          "internalType": "uint256",
          "name": "",
          "type": "uint256"
        }
      ],
      "payable": false,
      "stateMutability": "view",
      "type": "function"
    },
    {
      "constant": true,
      "inputs": [
        {
          "internalType": "address",
          "name": "account",
          "type": "address"
        }
      ],
      "name": "isController",
      "outputs": [
        {
          "internalType": "bool",
          "name": "",
          "type": "bool"
        }
      ],
      "payable": false,
      "stateMutability": "view",
      "type": "function"
    },
    {
      "constant": true,
      "inputs": [
        {
          "internalType": "address",
          "name": "owner",
          "type": "address"
        }
      ],
      "name": "balanceOf",
      "outputs": [
        {
          "internalType": "uint256",
          "name": "",
          "type": "uint256"
        }
      ],
      "payable": false,
      "stateMutability": "view",
      "type": "function"
    },
    {
      "constant": true,
      "inputs": [
        {
          "internalType": "uint256",
          "name": "tokenId",
          "type": "uint256"
        }
      ],
      "name": "ownerOf",
      "outputs": [
        {
          "internalType": "address",
          "name": "",
          "type": "address"
        }
      ],
      "payable": false,
      "stateMutability": "view",
      "type": "function"
    },
    {
      "constant": true,
      "inputs": [
        {
          "internalType": "uint256",
          "name": "tokenId",
          "type": "uint256"
        }
      ],
      "name": "getApproved",
      "outputs": [
        {
          "internalType": "address",
          "name": "",
          "type": "address"
        }
      ],
      "payable": false,
      "stateMutability": "view",
      "type": "function"
    },
    {
      "constant": true,
      "inputs": [
        {
          "internalType": "address",
          "name": "owner",
          "type": "address"
        },
        {
          "internalType": "address",
          "name": "operator",
          "type": "address"
        }
      ],
      "name": "isApprovedForAll",
      "outputs": [
        {
          "internalType": "bool",
          "name": "",
          "type": "bool"
        }
      ],
      "payable": false,
      "stateMutability": "view",
      "type": "function"
    },
    {
      "constant": true,
      "inputs": [],
      "name": "root",
      "outputs": [
        {
          "internalType": "uint256",
          "name": "",
          "type": "uint256"
        }
      ],
      "payable": false,
      "stateMutability": "view",
      "type": "function"
    },
    {
      "constant": true,
      "inputs": [
        {
          "internalType": "uint256",
          "name": "tokenId",
          "type": "uint256"
        }
      ],
      "name": "nonceOf",
      "outputs": [
        {
          "internalType": "uint256",
          "name": "",
          "type": "uint256"
        }
      ],
      "payable": false,
      "stateMutability": "view",
      "type": "function"
    },
    {
      "constant": true,
      "inputs": [],
      "name": "registry",
      "outputs": [
        {
          "internalType": "address",
          "name": "",
          "type": "address"
        }
      ],
      "payable": false,
      "stateMutability": "view",
      "type": "function"
    },
    {
      "constant": true,
      "inputs": [
        {
          "internalType": "string",
          "name": "key",
          "type": "string"
        },
        {
          "internalType": "uint256",
          "name": "tokenId",
          "type": "uint256"
        }
      ],
      "name": "get",
      "outputs": [
        {
          "internalType": "string",
          "name": "",
          "type": "string"
        }
      ],
      "payable": false,
      "stateMutability": "view",
      "type": "function"
    },
    {
      "constant": true,
      "inputs": [
        {
          "internalType": "string[]",
          "name": "keys",
          "type": "string[]"
        },
        {
          "internalType": "uint256",
          "name": "tokenId",
          "type": "uint256"
        }
      ],
      "name": "getMany",
      "outputs": [
        {
          "internalType": "string[]",
          "name": "",
          "type": "string[]"
        }
      ],
      "payable": false,
      "stateMutability": "view",
      "type": "function"
    },
    {
      "constant": true,
      "inputs": [
        {
          "internalType": "uint256",
          "name": "keyHash",
          "type": "uint256"
        },
        {
          "internalType": "uint256",
          "name": "tokenId",
          "type": "uint256"
        }
      ],
      "name": "getByHash",
      "outputs": [
        {
          "internalType": "string",
          "name": "key",
          "type": "string"
        },
        {
          "internalType": "string",
          "name": "value",
          "type": "string"
        }
      ],
      "payable": false,
      "stateMutability": "view",
      "type": "function"
    },
    {
      "constant": true,
      "inputs": [
        {
          "internalType": "uint256[]",
          "name": "keyHashes",
          "type": "uint256[]"
        },
        {
          "internalType": "uint256",
          "name": "tokenId",
          "type": "uint256"
        }
      ],
      "name": "getManyByHash",
      "outputs": [
        {
          "internalType": "string[]",
          "name": "keys",
          "type": "string[]"
        },
        {
          "internalType": "string[]",
          "name": "values",
          "type": "string[]"
        }
      ],
      "payable": false,
      "stateMutability": "view",
      "type": "function"
    },
    {
      "constant": false,
      "inputs": [
        {
          "internalType": "string[]",
          "name": "keys",
          "type": "string[]"
        },
        {
          "internalType": "uint256",
          "name": "tokenId",
          "type": "uint256"
        }
      ],
      "name": "getData",
      "outputs": [
        {
          "internalType": "address",
          "name": "resolver",
          "type": "address"
        },
        {
          "internalType": "address",
          "name": "owner",
          "type": "address"
        },
        {
          "internalType": "string[]",
          "name": "values",
          "type": "string[]"
        }
      ],
      "payable": false,
      "stateMutability": "nonpayable",
      "type": "function"
    },
    {
      "constant": false,
      "inputs": [
        {
          "internalType": "string[]",
          "name": "keys",
          "type": "string[]"
        },
        {
          "internalType": "uint256[]",
          "name": "tokenIds",
          "type": "uint256[]"
        }
      ],
      "name": "getDataForMany",
      "outputs": [
        {
          "internalType": "address[]",
          "name": "resolvers",
          "type": "address[]"
        },
        {
          "internalType": "address[]",
          "name": "owners",
          "type": "address[]"
        },
        {
          "internalType": "string[][]",
          "name": "values",
          "type": "string[][]"
        }
      ],
      "payable": false,
      "stateMutability": "nonpayable",
      "type": "function"
    },
    {
      "constant": false,
      "inputs": [
        {
          "internalType": "uint256[]",
          "name": "keyHashes",
          "type": "uint256[]"
        },
        {
          "internalType": "uint256",
          "name": "tokenId",
          "type": "uint256"
        }
      ],
      "name": "getDataByHash",
      "outputs": [
        {
          "internalType": "address",
          "name": "resolver",
          "type": "address"
        },
        {
          "internalType": "address",
          "name": "owner",
          "type": "address"
        },
        {
          "internalType": "string[]",
          "name": "keys",
          "type": "string[]"
        },
        {
          "internalType": "string[]",
          "name": "values",
          "type": "string[]"
        }
      ],
      "payable": false,
      "stateMutability": "nonpayable",
      "type": "function"
    },
    {
      "constant": false,
      "inputs": [
        {
          "internalType": "uint256[]",
          "name": "keyHashes",
          "type": "uint256[]"
        },
        {
          "internalType": "uint256[]",
          "name": "tokenIds",
          "type": "uint256[]"
        }
      ],
      "name": "getDataByHashForMany",
      "outputs": [
        {
          "internalType": "address[]",
          "name": "resolvers",
          "type": "address[]"
        },
        {
          "internalType": "address[]",
          "name": "owners",
          "type": "address[]"
        },
        {
          "internalType": "string[][]",
          "name": "keys",
          "type": "string[][]"
        },
        {
          "internalType": "string[][]",
          "name": "values",
          "type": "string[][]"
        }
      ],
      "payable": false,
      "stateMutability": "nonpayable",
      "type": "function"
    },
    {
      "constant": false,
      "inputs": [
        {
          "internalType": "uint256[]",
          "name": "tokenIds",
          "type": "uint256[]"
        }
      ],
      "name": "ownerOfForMany",
      "outputs": [
        {
          "internalType": "address[]",
          "name": "owners",
          "type": "address[]"
        }
      ],
      "payable": false,
      "stateMutability": "nonpayable",
      "type": "function"
    }
  ],
  "bytecode": "0x60806040523480156200001157600080fd5b506040516200386038038062003860833981810160405262000037919081019062000259565b6200004f6301ffc9a760e01b6200016a60201b60201c565b600073ffffffffffffffffffffffffffffffffffffffff168173ffffffffffffffffffffffffffffffffffffffff161415620000c2576040517f08c379a0000000000000000000000000000000000000000000000000000000008152600401620000b9906200032b565b60405180910390fd5b80600160006101000a81548173ffffffffffffffffffffffffffffffffffffffff021916908373ffffffffffffffffffffffffffffffffffffffff1602179055506200011b6301ffc9a760e01b6200016a60201b60201c565b62000133636eabca0d60e01b6200016a60201b60201c565b6200014b63c897de9860e01b6200016a60201b60201c565b620001636346d4326860e01b6200016a60201b60201c565b50620003c0565b63ffffffff60e01b817bffffffffffffffffffffffffffffffffffffffffffffffffffffffff19161415620001d6576040517f08c379a0000000000000000000000000000000000000000000000000000000008152600401620001cd9062000309565b60405180910390fd5b6001600080837bffffffffffffffffffffffffffffffffffffffffffffffffffffffff19167bffffffffffffffffffffffffffffffffffffffffffffffffffffffff1916815260200190815260200160002060006101000a81548160ff02191690831515021790555050565b6000815190506200025381620003a6565b92915050565b6000602082840312156200026c57600080fd5b60006200027c8482850162000242565b91505092915050565b600062000294601c836200034d565b91507f4552433136353a20696e76616c696420696e74657266616365206964000000006000830152602082019050919050565b6000620002d66011836200034d565b91507f526567697374727920697320656d7074790000000000000000000000000000006000830152602082019050919050565b60006020820190508181036000830152620003248162000285565b9050919050565b600060208201905081810360008301526200034681620002c7565b9050919050565b600082825260208201905092915050565b60006200036b8262000386565b9050919050565b60006200037f826200035e565b9050919050565b600073ffffffffffffffffffffffffffffffffffffffff82169050919050565b620003b18162000372565b8114620003bd57600080fd5b50565b61349080620003d06000396000f3fe608060405234801561001057600080fd5b506004361061018e5760003560e01c8063869b8884116100de578063b429afeb11610097578063c87b56dd11610071578063c87b56dd14610577578063e985e9c5146105a7578063ebf0c717146105d7578063ffa1ad74146105f55761018e565b8063b429afeb146104e6578063b85afd2814610516578063c15ae7cf146105475761018e565b8063869b8884146103e357806391015f6b14610416578063933c051d1461044857806395d89b411461047a578063a3f4df7e14610498578063b3f9e4cb146104b65761018e565b8063430c20811161014b57806368b62d321161012557806368b62d32146103355780636ccbae5f1461036557806370a08231146103955780637b103999146103c55761018e565b8063430c2081146102a45780636352211e146102d4578063672b9f81146103045761018e565b806301ffc9a71461019357806303280755146101c357806306fdde03146101f6578063081812fc146102145780631bd8cc1a146102445780631be5e7ed14610274575b600080fd5b6101ad60048036036101a8919081019061265d565b610613565b6040516101ba9190612f65565b60405180910390f35b6101dd60048036036101d891908101906125dc565b61067a565b6040516101ed9493929190612d5d565b60405180910390f35b6101fe610774565b60405161020b9190612fd4565b60405180910390f35b61022e6004803603610229919081019061278b565b610820565b60405161023b9190612cdb565b60405180910390f35b61025e6004803603610259919081019061241d565b6108d4565b60405161026b9190612eda565b60405180910390f35b61028e60048036036102899190810190612686565b610a21565b60405161029b9190612fd4565b60405180910390f35b6102be60048036036102b9919081019061236c565b610b6e565b6040516102cb9190612f65565b60405180910390f35b6102ee60048036036102e9919081019061278b565b610c25565b6040516102fb9190612cdb565b60405180910390f35b61031e60048036036103199190810190612835565b610cd9565b60405161032c929190612ff6565b60405180910390f35b61034f600480360361034a91908101906127dd565b610e27565b60405161035c919061302d565b60405180910390f35b61037f600480360361037a919081019061278b565b610ee1565b60405161038c919061302d565b60405180910390f35b6103af60048036036103aa91908101906121bb565b611022565b6040516103bc919061302d565b60405180910390f35b6103cd6110d6565b6040516103da9190612cdb565b60405180910390f35b6103fd60048036036103f89190810190612567565b611100565b60405161040d9493929190612e47565b60405180910390f35b610430600480360361042b919081019061241d565b611370565b60405161043f93929190612d1f565b60405180910390f35b610462600480360361045d91908101906123a8565b611463565b60405161047193929190612dfb565b60405180910390f35b61048261167d565b60405161048f9190612fd4565b60405180910390f35b6104a0611729565b6040516104ad9190612fb2565b60405180910390f35b6104d060048036036104cb919081019061278b565b611762565b6040516104dd9190612cdb565b60405180910390f35b61050060048036036104fb91908101906121bb565b611816565b60405161050d9190612f65565b60405180910390f35b610530600480360361052b91908101906125dc565b6118ca565b60405161053e929190612efc565b60405180910390f35b610561600480360361055c9190810190612522565b611a1b565b60405161056e9190612dd9565b60405180910390f35b610591600480360361058c919081019061278b565b611ad8565b60405161059e9190612fd4565b60405180910390f35b6105c160048036036105bc9190810190612236565b611b91565b6040516105ce9190612f65565b60405180910390f35b6105df611c48565b6040516105ec919061302d565b60405180910390f35b6105fd611cef565b60405161060a9190612fb2565b60405180910390f35b6000806000837bffffffffffffffffffffffffffffffffffffffffffffffffffffffff19167bffffffffffffffffffffffffffffffffffffffffffffffffffffffff1916815260200190815260200160002060009054906101000a900460ff169050919050565b60008060608061068985611d28565b935061069485611e2b565b9250600073ffffffffffffffffffffffffffffffffffffffff168473ffffffffffffffffffffffffffffffffffffffff161461076b5760008490508073ffffffffffffffffffffffffffffffffffffffff1663b85afd288989896040518463ffffffff1660e01b815260040161070c93929190612f33565b60006040518083038186803b15801561072457600080fd5b505afa158015610738573d6000803e3d6000fd5b505050506040513d6000823e3d601f19601f8201168201806040525061076191908101906124b6565b8093508194505050505b93509350935093565b6060600160009054906101000a900473ffffffffffffffffffffffffffffffffffffffff1673ffffffffffffffffffffffffffffffffffffffff166306fdde036040518163ffffffff1660e01b815260040160006040518083038186803b1580156107de57600080fd5b505afa1580156107f2573d6000803e3d6000fd5b505050506040513d6000823e3d601f19601f8201168201806040525061081b91908101906126de565b905090565b6000600160009054906101000a900473ffffffffffffffffffffffffffffffffffffffff1673ffffffffffffffffffffffffffffffffffffffff1663081812fc836040518263ffffffff1660e01b815260040161087d919061302d565b60206040518083038186803b15801561089557600080fd5b505afa1580156108a9573d6000803e3d6000fd5b505050506040513d601f19601f820116820180604052506108cd91908101906121e4565b9050919050565b60606000600160009054906101000a900473ffffffffffffffffffffffffffffffffffffffff1673ffffffffffffffffffffffffffffffffffffffff1663b3f9e4cb846040518263ffffffff1660e01b8152600401610933919061302d565b60206040518083038186803b15801561094b57600080fd5b505afa15801561095f573d6000803e3d6000fd5b505050506040513d601f19601f8201168201806040525061098391908101906121e4565b90508073ffffffffffffffffffffffffffffffffffffffff16631bd8cc1a8686866040518463ffffffff1660e01b81526004016109c293929190612ea8565b60006040518083038186803b1580156109da57600080fd5b505afa1580156109ee573d6000803e3d6000fd5b505050506040513d6000823e3d601f19601f82011682018060405250610a179190810190612475565b9150509392505050565b60606000600160009054906101000a900473ffffffffffffffffffffffffffffffffffffffff1673ffffffffffffffffffffffffffffffffffffffff1663b3f9e4cb846040518263ffffffff1660e01b8152600401610a80919061302d565b60206040518083038186803b158015610a9857600080fd5b505afa158015610aac573d6000803e3d6000fd5b505050506040513d601f19601f82011682018060405250610ad091908101906121e4565b90508073ffffffffffffffffffffffffffffffffffffffff16631be5e7ed8686866040518463ffffffff1660e01b8152600401610b0f93929190612f80565b60006040518083038186803b158015610b2757600080fd5b505afa158015610b3b573d6000803e3d6000fd5b505050506040513d6000823e3d601f19601f82011682018060405250610b6491908101906126de565b9150509392505050565b6000600160009054906101000a900473ffffffffffffffffffffffffffffffffffffffff1673ffffffffffffffffffffffffffffffffffffffff1663430c208184846040518363ffffffff1660e01b8152600401610bcd929190612db0565b60206040518083038186803b158015610be557600080fd5b505afa158015610bf9573d6000803e3d6000fd5b505050506040513d601f19601f82011682018060405250610c1d9190810190612634565b905092915050565b6000600160009054906101000a900473ffffffffffffffffffffffffffffffffffffffff1673ffffffffffffffffffffffffffffffffffffffff16636352211e836040518263ffffffff1660e01b8152600401610c82919061302d565b60206040518083038186803b158015610c9a57600080fd5b505afa158015610cae573d6000803e3d6000fd5b505050506040513d601f19601f82011682018060405250610cd291908101906121e4565b9050919050565b6060806000600160009054906101000a900473ffffffffffffffffffffffffffffffffffffffff1673ffffffffffffffffffffffffffffffffffffffff1663b3f9e4cb856040518263ffffffff1660e01b8152600401610d39919061302d565b60206040518083038186803b158015610d5157600080fd5b505afa158015610d65573d6000803e3d6000fd5b505050506040513d601f19601f82011682018060405250610d8991908101906121e4565b90508073ffffffffffffffffffffffffffffffffffffffff1663672b9f8186866040518363ffffffff1660e01b8152600401610dc692919061307a565b60006040518083038186803b158015610dde57600080fd5b505afa158015610df2573d6000803e3d6000fd5b505050506040513d6000823e3d601f19601f82011682018060405250610e1b919081019061271f565b92509250509250929050565b6000600160009054906101000a900473ffffffffffffffffffffffffffffffffffffffff1673ffffffffffffffffffffffffffffffffffffffff166368b62d328585856040518463ffffffff1660e01b8152600401610e8893929190613048565b60206040518083038186803b158015610ea057600080fd5b505afa158015610eb4573d6000803e3d6000fd5b505050506040513d601f19601f82011682018060405250610ed891908101906127b4565b90509392505050565b600080600160009054906101000a900473ffffffffffffffffffffffffffffffffffffffff1673ffffffffffffffffffffffffffffffffffffffff1663b3f9e4cb846040518263ffffffff1660e01b8152600401610f3f919061302d565b60206040518083038186803b158015610f5757600080fd5b505afa158015610f6b573d6000803e3d6000fd5b505050506040513d601f19601f82011682018060405250610f8f91908101906121e4565b90508073ffffffffffffffffffffffffffffffffffffffff16636ccbae5f846040518263ffffffff1660e01b8152600401610fca919061302d565b60206040518083038186803b158015610fe257600080fd5b505afa158015610ff6573d6000803e3d6000fd5b505050506040513d601f19601f8201168201806040525061101a91908101906127b4565b915050919050565b6000600160009054906101000a900473ffffffffffffffffffffffffffffffffffffffff1673ffffffffffffffffffffffffffffffffffffffff166370a08231836040518263ffffffff1660e01b815260040161107f9190612cdb565b60206040518083038186803b15801561109757600080fd5b505afa1580156110ab573d6000803e3d6000fd5b505050506040513d601f19601f820116820180604052506110cf91908101906127b4565b9050919050565b6000600160009054906101000a900473ffffffffffffffffffffffffffffffffffffffff16905090565b606080606080858590506040519080825280602002602001820160405280156111385781602001602082028038833980820191505090505b5093508585905060405190808252806020026020018201604052801561116d5781602001602082028038833980820191505090505b509250858590506040519080825280602002602001820160405280156111a757816020015b60608152602001906001900390816111925790505b509150858590506040519080825280602002602001820160405280156111e157816020015b60608152602001906001900390816111cc5790505b50905060008090505b86869050811015611364573073ffffffffffffffffffffffffffffffffffffffff1663032807558a8a8a8a8681811061121f57fe5b905060200201356040518463ffffffff1660e01b815260040161124493929190612f33565b600060405180830381600087803b15801561125e57600080fd5b505af1158015611272573d6000803e3d6000fd5b505050506040513d6000823e3d601f19601f8201168201806040525061129b91908101906122d9565b8191508090508885815181106112ad57fe5b602002602001018886815181106112c057fe5b602002602001018887815181106112d357fe5b602002602001018888815181106112e657fe5b602002602001018490528490528473ffffffffffffffffffffffffffffffffffffffff1673ffffffffffffffffffffffffffffffffffffffff168152508473ffffffffffffffffffffffffffffffffffffffff1673ffffffffffffffffffffffffffffffffffffffff168152505050505080806001019150506111ea565b50945094509450949050565b600080606061137e84611d28565b925061138984611e2b565b9150600073ffffffffffffffffffffffffffffffffffffffff168373ffffffffffffffffffffffffffffffffffffffff161461145a5760008390508073ffffffffffffffffffffffffffffffffffffffff16631bd8cc1a8888886040518463ffffffff1660e01b815260040161140193929190612ea8565b60006040518083038186803b15801561141957600080fd5b505afa15801561142d573d6000803e3d6000fd5b505050506040513d6000823e3d601f19601f820116820180604052506114569190810190612475565b9150505b93509350939050565b60608060608484905060405190808252806020026020018201604052801561149a5781602001602082028038833980820191505090505b509250848490506040519080825280602002602001820160405280156114cf5781602001602082028038833980820191505090505b5091508484905060405190808252806020026020018201604052801561150957816020015b60608152602001906001900390816114f45790505b50905060008090505b85859050811015611672573073ffffffffffffffffffffffffffffffffffffffff166391015f6b898989898681811061154757fe5b905060200201356040518463ffffffff1660e01b815260040161156c93929190612ea8565b600060405180830381600087803b15801561158657600080fd5b505af115801561159a573d6000803e3d6000fd5b505050506040513d6000823e3d601f19601f820116820180604052506115c39190810190612272565b8090508684815181106115d257fe5b602002602001018685815181106115e557fe5b602002602001018686815181106115f857fe5b602002602001018390528373ffffffffffffffffffffffffffffffffffffffff1673ffffffffffffffffffffffffffffffffffffffff168152508373ffffffffffffffffffffffffffffffffffffffff1673ffffffffffffffffffffffffffffffffffffffff168152505050508080600101915050611512565b509450945094915050565b6060600160009054906101000a900473ffffffffffffffffffffffffffffffffffffffff1673ffffffffffffffffffffffffffffffffffffffff166395d89b416040518163ffffffff1660e01b815260040160006040518083038186803b1580156116e757600080fd5b505afa1580156116fb573d6000803e3d6000fd5b505050506040513d6000823e3d601f19601f8201168201806040525061172491908101906126de565b905090565b6040518060400160405280601881526020017f556e73746f707061626c652050726f787920526561646572000000000000000081525081565b6000600160009054906101000a900473ffffffffffffffffffffffffffffffffffffffff1673ffffffffffffffffffffffffffffffffffffffff1663b3f9e4cb836040518263ffffffff1660e01b81526004016117bf919061302d565b60206040518083038186803b1580156117d757600080fd5b505afa1580156117eb573d6000803e3d6000fd5b505050506040513d601f19601f8201168201806040525061180f91908101906121e4565b9050919050565b6000600160009054906101000a900473ffffffffffffffffffffffffffffffffffffffff1673ffffffffffffffffffffffffffffffffffffffff1663b429afeb836040518263ffffffff1660e01b81526004016118739190612cdb565b60206040518083038186803b15801561188b57600080fd5b505afa15801561189f573d6000803e3d6000fd5b505050506040513d601f19601f820116820180604052506118c39190810190612634565b9050919050565b6060806000600160009054906101000a900473ffffffffffffffffffffffffffffffffffffffff1673ffffffffffffffffffffffffffffffffffffffff1663b3f9e4cb856040518263ffffffff1660e01b815260040161192a919061302d565b60206040518083038186803b15801561194257600080fd5b505afa158015611956573d6000803e3d6000fd5b505050506040513d601f19601f8201168201806040525061197a91908101906121e4565b90508073ffffffffffffffffffffffffffffffffffffffff1663b85afd288787876040518463ffffffff1660e01b81526004016119b993929190612f33565b60006040518083038186803b1580156119d157600080fd5b505afa1580156119e5573d6000803e3d6000fd5b505050506040513d6000823e3d601f19601f82011682018060405250611a0e91908101906124b6565b9250925050935093915050565b606082829050604051908082528060200260200182016040528015611a4f5781602001602082028038833980820191505090505b50905060008090505b83839050811015611ad157611a7e848483818110611a7257fe5b90506020020135611e2b565b828281518110611a8a57fe5b602002602001019073ffffffffffffffffffffffffffffffffffffffff16908173ffffffffffffffffffffffffffffffffffffffff16815250508080600101915050611a58565b5092915050565b6060600160009054906101000a900473ffffffffffffffffffffffffffffffffffffffff1673ffffffffffffffffffffffffffffffffffffffff1663c87b56dd836040518263ffffffff1660e01b8152600401611b35919061302d565b60006040518083038186803b158015611b4d57600080fd5b505afa158015611b61573d6000803e3d6000fd5b505050506040513d6000823e3d601f19601f82011682018060405250611b8a91908101906126de565b9050919050565b6000600160009054906101000a900473ffffffffffffffffffffffffffffffffffffffff1673ffffffffffffffffffffffffffffffffffffffff1663e985e9c584846040518363ffffffff1660e01b8152600401611bf0929190612cf6565b60206040518083038186803b158015611c0857600080fd5b505afa158015611c1c573d6000803e3d6000fd5b505050506040513d601f19601f82011682018060405250611c409190810190612634565b905092915050565b6000600160009054906101000a900473ffffffffffffffffffffffffffffffffffffffff1673ffffffffffffffffffffffffffffffffffffffff1663ebf0c7176040518163ffffffff1660e01b815260040160206040518083038186803b158015611cb257600080fd5b505afa158015611cc6573d6000803e3d6000fd5b505050506040513d601f19601f82011682018060405250611cea91908101906127b4565b905090565b6040518060400160405280600581526020017f302e322e3000000000000000000000000000000000000000000000000000000081525081565b60008060603073ffffffffffffffffffffffffffffffffffffffff1663b3f9e4cb85604051602401611d5a919061302d565b6040516020818303038152906040529060e01b6020820180517bffffffffffffffffffffffffffffffffffffffffffffffffffffffff8381831617835250505050604051611da89190612cc4565b6000604051808303816000865af19150503d8060008114611de5576040519150601f19603f3d011682016040523d82523d6000602084013e611dea565b606091505b5091509150600115158215151415611e1f57600081806020019051611e12919081019061220d565b9050809350505050611e26565b6000925050505b919050565b60008060603073ffffffffffffffffffffffffffffffffffffffff16636352211e85604051602401611e5d919061302d565b6040516020818303038152906040529060e01b6020820180517bffffffffffffffffffffffffffffffffffffffffffffffffffffffff8381831617835250505050604051611eab9190612cc4565b6000604051808303816000865af19150503d8060008114611ee8576040519150601f19603f3d011682016040523d82523d6000602084013e611eed565b606091505b5091509150600115158215151415611f2257600081806020019051611f15919081019061220d565b9050809350505050611f29565b6000925050505b919050565b600081359050611f3d816133da565b92915050565b600081519050611f52816133da565b92915050565b600081519050611f67816133f1565b92915050565b60008083601f840112611f7f57600080fd5b8235905067ffffffffffffffff811115611f9857600080fd5b602083019150836020820283011115611fb057600080fd5b9250929050565b600082601f830112611fc857600080fd5b8151611fdb611fd6826130d0565b6130a3565b9150818183526020840193506020810190508360005b83811015612021578151860161200788826120e9565b845260208401935060208301925050600181019050611ff1565b5050505092915050565b60008083601f84011261203d57600080fd5b8235905067ffffffffffffffff81111561205657600080fd5b60208301915083602082028301111561206e57600080fd5b9250929050565b60008151905061208481613408565b92915050565b6000813590506120998161341f565b92915050565b60008083601f8401126120b157600080fd5b8235905067ffffffffffffffff8111156120ca57600080fd5b6020830191508360018202830111156120e257600080fd5b9250929050565b600082601f8301126120fa57600080fd5b815161210d612108826130f8565b6130a3565b9150808252602083016020830185838301111561212957600080fd5b612134838284613396565b50505092915050565b600082601f83011261214e57600080fd5b815161216161215c82613124565b6130a3565b9150808252602083016020830185838301111561217d57600080fd5b612188838284613396565b50505092915050565b6000813590506121a081613436565b92915050565b6000815190506121b581613436565b92915050565b6000602082840312156121cd57600080fd5b60006121db84828501611f2e565b91505092915050565b6000602082840312156121f657600080fd5b600061220484828501611f43565b91505092915050565b60006020828403121561221f57600080fd5b600061222d84828501611f58565b91505092915050565b6000806040838503121561224957600080fd5b600061225785828601611f2e565b925050602061226885828601611f2e565b9150509250929050565b60008060006060848603121561228757600080fd5b600061229586828701611f43565b93505060206122a686828701611f43565b925050604084015167ffffffffffffffff8111156122c357600080fd5b6122cf86828701611fb7565b9150509250925092565b600080600080608085870312156122ef57600080fd5b60006122fd87828801611f43565b945050602061230e87828801611f43565b935050604085015167ffffffffffffffff81111561232b57600080fd5b61233787828801611fb7565b925050606085015167ffffffffffffffff81111561235457600080fd5b61236087828801611fb7565b91505092959194509250565b6000806040838503121561237f57600080fd5b600061238d85828601611f2e565b925050602061239e85828601612191565b9150509250929050565b600080600080604085870312156123be57600080fd5b600085013567ffffffffffffffff8111156123d857600080fd5b6123e487828801611f6d565b9450945050602085013567ffffffffffffffff81111561240357600080fd5b61240f8782880161202b565b925092505092959194509250565b60008060006040848603121561243257600080fd5b600084013567ffffffffffffffff81111561244c57600080fd5b61245886828701611f6d565b9350935050602061246b86828701612191565b9150509250925092565b60006020828403121561248757600080fd5b600082015167ffffffffffffffff8111156124a157600080fd5b6124ad84828501611fb7565b91505092915050565b600080604083850312156124c957600080fd5b600083015167ffffffffffffffff8111156124e357600080fd5b6124ef85828601611fb7565b925050602083015167ffffffffffffffff81111561250c57600080fd5b61251885828601611fb7565b9150509250929050565b6000806020838503121561253557600080fd5b600083013567ffffffffffffffff81111561254f57600080fd5b61255b8582860161202b565b92509250509250929050565b6000806000806040858703121561257d57600080fd5b600085013567ffffffffffffffff81111561259757600080fd5b6125a38782880161202b565b9450945050602085013567ffffffffffffffff8111156125c257600080fd5b6125ce8782880161202b565b925092505092959194509250565b6000806000604084860312156125f157600080fd5b600084013567ffffffffffffffff81111561260b57600080fd5b6126178682870161202b565b9350935050602061262a86828701612191565b9150509250925092565b60006020828403121561264657600080fd5b600061265484828501612075565b91505092915050565b60006020828403121561266f57600080fd5b600061267d8482850161208a565b91505092915050565b60008060006040848603121561269b57600080fd5b600084013567ffffffffffffffff8111156126b557600080fd5b6126c18682870161209f565b935093505060206126d486828701612191565b9150509250925092565b6000602082840312156126f057600080fd5b600082015167ffffffffffffffff81111561270a57600080fd5b6127168482850161213d565b91505092915050565b6000806040838503121561273257600080fd5b600083015167ffffffffffffffff81111561274c57600080fd5b6127588582860161213d565b925050602083015167ffffffffffffffff81111561277557600080fd5b6127818582860161213d565b9150509250929050565b60006020828403121561279d57600080fd5b60006127ab84828501612191565b91505092915050565b6000602082840312156127c657600080fd5b60006127d4848285016121a6565b91505092915050565b6000806000604084860312156127f257600080fd5b600061280086828701612191565b935050602084013567ffffffffffffffff81111561281d57600080fd5b6128298682870161209f565b92509250509250925092565b6000806040838503121561284857600080fd5b600061285685828601612191565b925050602061286785828601612191565b9150509250929050565b600061287d83836128c7565b60208301905092915050565b60006128958383612aa3565b905092915050565b60006128aa848484612bdd565b90509392505050565b60006128bf8383612c43565b905092915050565b6128d081613301565b82525050565b6128df81613301565b82525050565b60006128f08261319a565b6128fa8185613228565b935061290583613150565b8060005b8381101561293657815161291d8882612871565b9750612928836131e7565b925050600181019050612909565b5085935050505092915050565b600061294e826131a5565b6129588185613239565b93508360208202850161296a85613160565b8060005b858110156129a657848403895281516129878582612889565b9450612992836131f4565b925060208a0199505060018101905061296e565b50829750879550505050505092915050565b60006129c4838561325b565b9350836020840285016129d684613170565b8060005b87811015612a1c5784840389526129f182846132aa565b6129fc86828461289d565b9550612a0784613201565b935060208b019a5050506001810190506129da565b50829750879450505050509392505050565b6000612a39826131bb565b612a43818561325b565b935083602082028501612a558561318a565b8060005b85811015612a915784840389528151612a7285826128b3565b9450612a7d8361321b565b925060208a01995050600181019050612a59565b50829750879550505050505092915050565b6000612aae826131b0565b612ab8818561324a565b935083602082028501612aca8561317a565b8060005b85811015612b065784840389528151612ae785826128b3565b9450612af28361320e565b925060208a01995050600181019050612ace565b50829750879550505050505092915050565b6000612b24838561326c565b93507f07ffffffffffffffffffffffffffffffffffffffffffffffffffffffffffffff831115612b5357600080fd5b602083029250612b64838584613387565b82840190509392505050565b612b7981613325565b82525050565b6000612b8a826131c6565b612b94818561327d565b9350612ba4818560208601613396565b80840191505092915050565b6000612bbc8385613299565b9350612bc9838584613387565b612bd2836133c9565b840190509392505050565b6000612be98385613288565b9350612bf6838584613387565b612bff836133c9565b840190509392505050565b6000612c15826131dc565b612c1f8185613299565b9350612c2f818560208601613396565b612c38816133c9565b840191505092915050565b6000612c4e826131d1565b612c588185613288565b9350612c68818560208601613396565b612c71816133c9565b840191505092915050565b6000612c87826131d1565b612c918185613299565b9350612ca1818560208601613396565b612caa816133c9565b840191505092915050565b612cbe8161337d565b82525050565b6000612cd08284612b7f565b915081905092915050565b6000602082019050612cf060008301846128d6565b92915050565b6000604082019050612d0b60008301856128d6565b612d1860208301846128d6565b9392505050565b6000606082019050612d3460008301866128d6565b612d4160208301856128d6565b8181036040830152612d538184612a2e565b9050949350505050565b6000608082019050612d7260008301876128d6565b612d7f60208301866128d6565b8181036040830152612d918185612a2e565b90508181036060830152612da58184612a2e565b905095945050505050565b6000604082019050612dc560008301856128d6565b612dd26020830184612cb5565b9392505050565b60006020820190508181036000830152612df381846128e5565b905092915050565b60006060820190508181036000830152612e1581866128e5565b90508181036020830152612e2981856128e5565b90508181036040830152612e3d8184612943565b9050949350505050565b60006080820190508181036000830152612e6181876128e5565b90508181036020830152612e7581866128e5565b90508181036040830152612e898185612943565b90508181036060830152612e9d8184612943565b905095945050505050565b60006040820190508181036000830152612ec38185876129b8565b9050612ed26020830184612cb5565b949350505050565b60006020820190508181036000830152612ef48184612a2e565b905092915050565b60006040820190508181036000830152612f168185612a2e565b90508181036020830152612f2a8184612a2e565b90509392505050565b60006040820190508181036000830152612f4e818587612b18565b9050612f5d6020830184612cb5565b949350505050565b6000602082019050612f7a6000830184612b70565b92915050565b60006040820190508181036000830152612f9b818587612bb0565b9050612faa6020830184612cb5565b949350505050565b60006020820190508181036000830152612fcc8184612c7c565b905092915050565b60006020820190508181036000830152612fee8184612c0a565b905092915050565b600060408201905081810360008301526130108185612c0a565b905081810360208301526130248184612c0a565b90509392505050565b60006020820190506130426000830184612cb5565b92915050565b600060408201905061305d6000830186612cb5565b8181036020830152613070818486612bb0565b9050949350505050565b600060408201905061308f6000830185612cb5565b61309c6020830184612cb5565b9392505050565b6000604051905081810181811067ffffffffffffffff821117156130c657600080fd5b8060405250919050565b600067ffffffffffffffff8211156130e757600080fd5b602082029050602081019050919050565b600067ffffffffffffffff82111561310f57600080fd5b601f19601f8301169050602081019050919050565b600067ffffffffffffffff82111561313b57600080fd5b601f19601f8301169050602081019050919050565b6000819050602082019050919050565b6000819050602082019050919050565b6000819050919050565b6000819050602082019050919050565b6000819050602082019050919050565b600081519050919050565b600081519050919050565b600081519050919050565b600081519050919050565b600081519050919050565b600081519050919050565b600081519050919050565b6000602082019050919050565b6000602082019050919050565b6000602082019050919050565b6000602082019050919050565b6000602082019050919050565b600082825260208201905092915050565b600082825260208201905092915050565b600082825260208201905092915050565b600082825260208201905092915050565b600082825260208201905092915050565b600081905092915050565b600082825260208201905092915050565b600082825260208201905092915050565b600080833560016020038436030381126132c357600080fd5b83810192508235915060208301925067ffffffffffffffff8211156132e757600080fd5b6001820236038413156132f957600080fd5b509250929050565b600061330c8261335d565b9050919050565b600061331e8261335d565b9050919050565b60008115159050919050565b60007fffffffff0000000000000000000000000000000000000000000000000000000082169050919050565b600073ffffffffffffffffffffffffffffffffffffffff82169050919050565b6000819050919050565b82818337600083830152505050565b60005b838110156133b4578082015181840152602081019050613399565b838111156133c3576000848401525b50505050565b6000601f19601f8301169050919050565b6133e381613301565b81146133ee57600080fd5b50565b6133fa81613313565b811461340557600080fd5b50565b61341181613325565b811461341c57600080fd5b50565b61342881613331565b811461343357600080fd5b50565b61343f8161337d565b811461344a57600080fd5b5056fea365627a7a7231582019f024c4785c436f974431040182e6965784ef5983c43b74076d3bb0137bd87a6c6578706572696d656e74616cf564736f6c634300050c0040",
  "source": "pragma solidity 0.5.12;\npragma experimental ABIEncoderV2;\n\nimport '@openzeppelin/contracts/introspection/ERC165.sol';\n\nimport './IRegistryReader.sol';\nimport './IResolverReader.sol';\nimport './IDataReader.sol';\nimport './CNSRegistry.sol';\nimport './Resolver.sol';\n\ncontract ProxyReader is ERC165, IRegistryReader, IResolverReader, IDataReader {\n    string public constant NAME = 'Unstoppable Proxy Reader';\n    string public constant VERSION = '0.2.0';\n\n    CNSRegistry private _registry;\n\n    /*\n     * bytes4(keccak256(abi.encodePacked('supportsInterface(bytes4)'))) == 0x01ffc9a7\n     */\n    bytes4 private constant _INTERFACE_ID_ERC165 = 0x01ffc9a7;\n\n    /*\n     * bytes4(keccak256(abi.encodePacked('name()'))) == 0x06fdde03\n     * bytes4(keccak256(abi.encodePacked('symbol()'))) == 0x95d89b41\n     * bytes4(keccak256(abi.encodePacked('tokenURI(uint256)'))) == 0xc87b56dd\n     * bytes4(keccak256(abi.encodePacked('isApprovedOrOwner(address,uint256)'))) == 0x430c2081\n     * bytes4(keccak256(abi.encodePacked('resolverOf(uint256)'))) == 0xb3f9e4cb\n     * bytes4(keccak256(abi.encodePacked('childIdOf(uint256,string)'))) == 0x68b62d32\n     * bytes4(keccak256(abi.encodePacked('isController(address)'))) == 0xb429afeb\n     * bytes4(keccak256(abi.encodePacked('balanceOf(address)'))) == 0x70a08231\n     * bytes4(keccak256(abi.encodePacked('ownerOf(uint256)'))) == 0x6352211e\n     * bytes4(keccak256(abi.encodePacked('getApproved(uint256)'))) == 0x081812fc\n     * bytes4(keccak256(abi.encodePacked('isApprovedForAll(address,address)'))) == 0xe985e9c5\n     * bytes4(keccak256(abi.encodePacked('root()'))) == 0xebf0c717\n     *\n     * => 0x06fdde03 ^ 0x95d89b41 ^ 0xc87b56dd ^ 0x430c2081 ^\n     *    0xb3f9e4cb ^ 0x68b62d32 ^ 0xb429afeb ^ 0x70a08231 ^\n     *    0x6352211e ^ 0x081812fc ^ 0xe985e9c5 ^ 0xebf0c717 == 0x6eabca0d\n     */\n    bytes4 private constant _INTERFACE_ID_REGISTRY_READER = 0x6eabca0d;\n\n    /*\n     * bytes4(keccak256(abi.encodePacked('nonceOf(uint256)'))) == 0x6ccbae5f\n     * bytes4(keccak256(abi.encodePacked('registry()'))) == 0x7b103999\n     * bytes4(keccak256(abi.encodePacked('get(string,uint256)'))) == 0x1be5e7ed\n     * bytes4(keccak256(abi.encodePacked('getByHash(uint256,uint256)'))) == 0x672b9f81\n     * bytes4(keccak256(abi.encodePacked('getMany(string[],uint256)'))) == 0x1bd8cc1a\n     * bytes4(keccak256(abi.encodePacked('getManyByHash(uint256[],uint256)'))) == 0xb85afd28\n     *\n     * => 0x6ccbae5f ^ 0x7b103999 ^ 0x1be5e7ed ^\n     *    0x672b9f81 ^ 0x1bd8cc1a ^ 0xb85afd28 == 0xc897de98\n     */\n    bytes4 private constant _INTERFACE_ID_RESOLVER_READER = 0xc897de98;\n\n    /*\n     * bytes4(keccak256(abi.encodePacked('getData(string[],uint256)'))) == 0x91015f6b\n     * bytes4(keccak256(abi.encodePacked('getDataForMany(string[],uint256[])'))) == 0x933c051d\n     * bytes4(keccak256(abi.encodePacked('getDataByHash(uint256[],uint256)'))) == 0x03280755\n     * bytes4(keccak256(abi.encodePacked('getDataByHashForMany(uint256[],uint256[])'))) == 0x869b8884\n     * bytes4(keccak256(abi.encodePacked('ownerOfForMany(uint256[])'))) == 0xc15ae7cf\n     *\n     * => 0x91015f6b ^ 0x933c051d ^ 0x03280755 ^\n     *    0x869b8884 ^ 0xc15ae7cf == 0x46d43268\n     */\n    bytes4 private constant _INTERFACE_ID_DATA_READER = 0x46d43268;\n\n    constructor(CNSRegistry registry) public {\n        require(address(registry) != address(0), 'Registry is empty');\n        _registry = registry;\n\n        _registerInterface(_INTERFACE_ID_ERC165);\n        _registerInterface(_INTERFACE_ID_REGISTRY_READER);\n        _registerInterface(_INTERFACE_ID_RESOLVER_READER);\n        _registerInterface(_INTERFACE_ID_DATA_READER);\n    }\n\n    function name() external view returns (string memory) {\n        return _registry.name();\n    }\n\n    function symbol() external view returns (string memory) {\n        return _registry.symbol();\n    }\n\n    function tokenURI(uint256 tokenId) external view returns (string memory) {\n        return _registry.tokenURI(tokenId);\n    }\n\n    function isApprovedOrOwner(address spender, uint256 tokenId)\n        external\n        view\n        returns (bool)\n    {\n        return _registry.isApprovedOrOwner(spender, tokenId);\n    }\n\n    function resolverOf(uint256 tokenId) external view returns (address) {\n        return _registry.resolverOf(tokenId);\n    }\n\n    function childIdOf(uint256 tokenId, string calldata label)\n        external\n        view\n        returns (uint256)\n    {\n        return _registry.childIdOf(tokenId, label);\n    }\n\n    function isController(address account) external view returns (bool) {\n        return _registry.isController(account);\n    }\n\n    function balanceOf(address owner) external view returns (uint256) {\n        return _registry.balanceOf(owner);\n    }\n\n    function ownerOf(uint256 tokenId) external view returns (address) {\n        return _registry.ownerOf(tokenId);\n    }\n\n    function getApproved(uint256 tokenId) external view returns (address) {\n        return _registry.getApproved(tokenId);\n    }\n\n    function isApprovedForAll(address owner, address operator)\n        external\n        view\n        returns (bool)\n    {\n        return _registry.isApprovedForAll(owner, operator);\n    }\n\n    function root() external view returns (uint256) {\n        return _registry.root();\n    }\n\n    function nonceOf(uint256 tokenId) external view returns (uint256) {\n        Resolver resolver = Resolver(_registry.resolverOf(tokenId));\n        return resolver.nonceOf(tokenId);\n    }\n\n    function registry() external view returns (address) {\n        return address(_registry);\n    }\n\n    function get(string calldata key, uint256 tokenId)\n        external\n        view\n        returns (string memory)\n    {\n        Resolver resolver = Resolver(_registry.resolverOf(tokenId));\n        return resolver.get(key, tokenId);\n    }\n\n    function getMany(string[] calldata keys, uint256 tokenId)\n        external\n        view\n        returns (string[] memory)\n    {\n        Resolver resolver = Resolver(_registry.resolverOf(tokenId));\n        return resolver.getMany(keys, tokenId);\n    }\n\n    function getByHash(uint256 keyHash, uint256 tokenId)\n        external\n        view\n        returns (string memory key, string memory value)\n    {\n        Resolver resolver = Resolver(_registry.resolverOf(tokenId));\n        return resolver.getByHash(keyHash, tokenId);\n    }\n\n    function getManyByHash(uint256[] calldata keyHashes, uint256 tokenId)\n        external\n        view\n        returns (string[] memory keys, string[] memory values)\n    {\n        Resolver resolver = Resolver(_registry.resolverOf(tokenId));\n        return resolver.getManyByHash(keyHashes, tokenId);\n    }\n\n    function getData(string[] calldata keys, uint256 tokenId)\n        external\n        returns (\n            address resolver,\n            address owner,\n            string[] memory values\n        )\n    {\n        resolver = _resolverOf(tokenId);\n        owner = _ownerOf(tokenId);\n\n        if(resolver != address(0x0)) {\n            Resolver resolverContract = Resolver(resolver);\n            values = resolverContract.getMany(keys, tokenId);\n        }\n    }\n\n    function getDataForMany(string[] calldata keys, uint256[] calldata tokenIds)\n        external\n        returns (\n            address[] memory resolvers,\n            address[] memory owners,\n            string[][] memory values\n        )\n    {\n        resolvers = new address[](tokenIds.length);\n        owners = new address[](tokenIds.length);\n        values = new string[][](tokenIds.length);\n\n        for (uint256 i = 0; i < tokenIds.length; i++) {\n            (resolvers[i], owners[i], values[i]) = this.getData(keys, tokenIds[i]);\n        }\n    }\n\n    function getDataByHash(uint256[] calldata keyHashes, uint256 tokenId)\n        external\n        returns (\n            address resolver,\n            address owner,\n            string[] memory keys,\n            string[] memory values\n        )\n    {\n        resolver = _resolverOf(tokenId);\n        owner = _ownerOf(tokenId);\n\n        if(resolver != address(0x0)) {\n            Resolver resolverContract = Resolver(resolver);\n            (keys, values) = resolverContract.getManyByHash(keyHashes, tokenId);\n        }\n    }\n\n    function getDataByHashForMany(uint256[] calldata keyHashes, uint256[] calldata tokenIds)\n        external\n        returns (\n            address[] memory resolvers,\n            address[] memory owners,\n            string[][] memory keys,\n            string[][] memory values\n        )\n    {\n        resolvers = new address[](tokenIds.length);\n        owners = new address[](tokenIds.length);\n        keys = new string[][](tokenIds.length);\n        values = new string[][](tokenIds.length);\n\n        for (uint256 i = 0; i < tokenIds.length; i++) {\n            (resolvers[i], owners[i], keys[i], values[i]) = this.getDataByHash(keyHashes, tokenIds[i]);\n        }\n    }\n\n    function ownerOfForMany(uint256[] calldata tokenIds)\n        external\n        returns (address[] memory owners)\n    {\n        owners = new address[](tokenIds.length);\n        for (uint256 i = 0; i < tokenIds.length; i++) {\n            owners[i] = _ownerOf(tokenIds[i]);\n        }\n    }\n\n    // bytes4(keccak256(abi.encodePacked('ownerOf(uint256)'))) == 0x6352211e\n    function _ownerOf(uint256 tokenId) private returns (address) {\n        (bool success, bytes memory result) = address(this).call(abi.encodeWithSelector(0x6352211e, tokenId));\n        if (success == true) {\n            (address _owner) = abi.decode(result, (address));\n            return _owner;\n        }\n        return address(0x0);\n    }\n\n    // bytes4(keccak256(abi.encodePacked('resolverOf(uint256)'))) == 0xb3f9e4cb\n    function _resolverOf(uint256 tokenId) private returns (address) {\n        (bool success, bytes memory result) = address(this).call(abi.encodeWithSelector(0xb3f9e4cb, tokenId));\n        if (success == true) {\n            (address _resolver) = abi.decode(result, (address));\n            return _resolver;\n        }\n        return address(0x0);\n    }\n}\n",
  "sourcePath": "/Users/aquila/Documents/GitHub/dot-crypto/contracts/ProxyReader.sol",
  "compiler": {
    "name": "solc",
    "version": "0.5.12+commit.7709ece9.Emscripten.clang"
  },
  "schemaVersion": "3.3.4",
  "updatedAt": "2021-07-13T17:26:15.786Z",
  "devdoc": {
    "methods": {
      "supportsInterface(bytes4)": {
        "details": "See `IERC165.supportsInterface`.     * Time complexity O(1), guaranteed to always use less than 30 000 gas."
      }
    }
  },
  "userdoc": {
    "methods": {}
  }
}