{
  "contractName": "RelayTest",
  "abi": [
    {
      "constant": false,
      "inputs": [
        {
          "internalType": "uint256",
          "name": "key",
          "type": "uint256"
        },
        {
          "internalType": "string",
          "name": "value",
          "type": "string"
        }
      ],
      "name": "setString",
      "outputs": [],
      "payable": false,
      "stateMutability": "nonpayable",
      "type": "function"
    },
    {
      "constant": true,
      "inputs": [
        {
          "internalType": "uint256",
          "name": "key",
          "type": "uint256"
        }
      ],
      "name": "getString",
      "outputs": [
        {
          "internalType": "string",
          "name": "",
          "type": "string"
        }
      ],
      "payable": false,
      "stateMutability": "view",
      "type": "function"
    },
    {
      "constant": false,
      "inputs": [
        {
          "internalType": "uint256",
          "name": "key",
          "type": "uint256"
        },
        {
          "internalType": "uint256",
          "name": "value",
          "type": "uint256"
        }
      ],
      "name": "setUint",
      "outputs": [],
      "payable": false,
      "stateMutability": "nonpayable",
      "type": "function"
    },
    {
      "constant": true,
      "inputs": [
        {
          "internalType": "uint256",
          "name": "key",
          "type": "uint256"
        }
      ],
      "name": "getUint",
      "outputs": [
        {
          "internalType": "uint256",
          "name": "",
          "type": "uint256"
        }
      ],
      "payable": false,
      "stateMutability": "view",
      "type": "function"
    },
    {
      "constant": false,
      "inputs": [
        {
          "internalType": "uint256",
          "name": "value",
          "type": "uint256"
        }
      ],
      "name": "set",
      "outputs": [],
      "payable": false,
      "stateMutability": "nonpayable",
      "type": "function"
    },
    {
      "constant": true,
      "inputs": [],
      "name": "get",
      "outputs": [
        {
          "internalType": "uint256",
          "name": "",
          "type": "uint256"
        }
      ],
      "payable": false,
      "stateMutability": "view",
      "type": "function"
    },
    {
      "constant": false,
      "inputs": [
        {
          "internalType": "bytes",
          "name": "data",
          "type": "bytes"
        },
        {
          "internalType": "bytes",
          "name": "signature",
          "type": "bytes"
        }
      ],
      "name": "relay",
      "outputs": [
        {
          "internalType": "bytes",
          "name": "",
          "type": "bytes"
        }
      ],
      "payable": false,
      "stateMutability": "nonpayable",
      "type": "function"
    }
  ],
  "bytecode": "0x608060405234801561001057600080fd5b50610c04806100206000396000f3fe608060405234801561001057600080fd5b506004361061007d5760003560e01c806361e3c9441161005b57806361e3c9441461027a5780636d4ce63c146102b2578063a9c70eaa146102d0578063b7c763b5146103125761007d565b80634717fd9214610082578063564a51581461010557806360fe47b11461024c575b600080fd5b6101036004803603604081101561009857600080fd5b8101908080359060200190929190803590602001906401000000008111156100bf57600080fd5b8201836020820111156100d157600080fd5b803590602001918460018302840111640100000000831117156100f357600080fd5b90919293919293905050506103b9565b005b6101d16004803603604081101561011b57600080fd5b810190808035906020019064010000000081111561013857600080fd5b82018360208201111561014a57600080fd5b8035906020019184600183028401116401000000008311171561016c57600080fd5b90919293919293908035906020019064010000000081111561018d57600080fd5b82018360208201111561019f57600080fd5b803590602001918460018302840111640100000000831117156101c157600080fd5b9091929391929390505050610468565b6040518080602001828103825283818151815260200191508051906020019080838360005b838110156102115780820151818401526020810190506101f6565b50505050905090810190601f16801561023e5780820380516001836020036101000a031916815260200191505b509250505060405180910390f35b6102786004803603602081101561026257600080fd5b81019080803590602001909291905050506105c9565b005b6102b06004803603604081101561029057600080fd5b8101908080359060200190929190803590602001909291905050506105d3565b005b6102ba610674565b6040518082815260200191505060405180910390f35b6102fc600480360360208110156102e657600080fd5b810190808035906020019092919050505061067e565b6040518082815260200191505060405180910390f35b61033e6004803603602081101561032857600080fd5b81019080803590602001909291905050506106a8565b6040518080602001828103825283818151815260200191508051906020019080838360005b8381101561037e578082015181840152602081019050610363565b50505050905090810190601f1680156103ab5780820380516001836020036101000a031916815260200191505b509250505060405180910390f35b60008314156103c757600080fd5b6000828290501415610441576040517f08c379a00000000000000000000000000000000000000000000000000000000081526004018080602001828103825260168152602001807f52656c6179546573743a2056414c55455f454d5054590000000000000000000081525060200191505060405180910390fd5b81816000808681526020019081526020016000209190610462929190610b2a565b50505050565b60606104d68585604051808383808284378083019250505092505050604051809103902084848080601f016020809104026020016040519081016040528093929190818152602001838380828437600081840152601f19601f8201169050808301925050505050505061076a565b606085858080601f016020809104026020016040519081016040528093929190818152602001838380828437600081840152601f19601f8201169050808301925050505050505090506105288161088e565b600060603073ffffffffffffffffffffffffffffffffffffffff1688886040518083838082843780830192505050925050506000604051808303816000865af19150503d8060008114610597576040519150601f19603f3d011682016040523d82523d6000602084013e61059c565b606091505b50915091506000151582151514156105bb576040513d806000833e8082fd5b809350505050949350505050565b8060028190555050565b60008214156105e157600080fd5b6000811415610658576040517f08c379a00000000000000000000000000000000000000000000000000000000081526004018080602001828103825260168152602001807f52656c6179546573743a2056414c55455f454d5054590000000000000000000081525060200191505060405180910390fd5b8060016000848152602001908152602001600020819055505050565b6000600254905090565b60008082141561068d57600080fd5b60016000838152602001908152602001600020549050919050565b606060008214156106b857600080fd5b6000808381526020019081526020016000208054600181600116156101000203166002900480601f01602080910402602001604051908101604052809291908181526020018280546001816001161561010002031660029004801561075e5780601f106107335761010080835404028352916020019161075e565b820191906000526020600020905b81548152906001019060200180831161074157829003601f168201915b50505050509050919050565b60006107e4826107d68530604051602001808381526020018273ffffffffffffffffffffffffffffffffffffffff1673ffffffffffffffffffffffffffffffffffffffff1660601b815260140192505050604051602081830303815290604052805190602001206109ce565b610a2690919063ffffffff16565b9050600073ffffffffffffffffffffffffffffffffffffffff168173ffffffffffffffffffffffffffffffffffffffff161415610889576040517f08c379a000000000000000000000000000000000000000000000000000000000815260040180806020018281038252601f8152602001807f52656c6179546573743a205349474e41545552455f49535f494e56414c49440081525060200191505060405180910390fd5b505050565b6000806020018201519050600063b7c763b560e01b827bffffffffffffffffffffffffffffffffffffffffffffffffffffffff191614806108f45750634717fd9260e01b827bffffffffffffffffffffffffffffffffffffffffffffffffffffffff1916145b80610924575063a9c70eaa60e01b827bffffffffffffffffffffffffffffffffffffffffffffffffffffffff1916145b8061095457506361e3c94460e01b827bffffffffffffffffffffffffffffffffffffffffffffffffffffffff1916145b9050806109c9576040517f08c379a000000000000000000000000000000000000000000000000000000000815260040180806020018281038252601b8152602001807f52656c6179546573743a20554e535550504f525445445f43414c4c000000000081525060200191505060405180910390fd5b505050565b60008160405160200180807f19457468657265756d205369676e6564204d6573736167653a0a333200000000815250601c01828152602001915050604051602081830303815290604052805190602001209050919050565b60006041825114610a3a5760009050610b24565b60008060006020850151925060408501519150606085015160001a90507f7fffffffffffffffffffffffffffffff5d576e7357a4501ddfe92f46681b20a08260001c1115610a8e5760009350505050610b24565b601b8160ff1614158015610aa65750601c8160ff1614155b15610ab75760009350505050610b24565b60018682858560405160008152602001604052604051808581526020018460ff1660ff1681526020018381526020018281526020019450505050506020604051602081039080840390855afa158015610b14573d6000803e3d6000fd5b5050506020604051035193505050505b92915050565b828054600181600116156101000203166002900490600052602060002090601f016020900481019282601f10610b6b57803560ff1916838001178555610b99565b82800160010185558215610b99579182015b82811115610b98578235825591602001919060010190610b7d565b5b509050610ba69190610baa565b5090565b610bcc91905b80821115610bc8576000816000905550600101610bb0565b5090565b9056fea265627a7a72315820aa482ff39331e0f0cb5e4cf8d3d8a8dfbf1492e05ca6505a2856c4f7e7f4a3e864736f6c634300050c0032",
  "source": "pragma solidity 0.5.12;\n\nimport '@openzeppelin/contracts/cryptography/ECDSA.sol';\n\n// {\n// \t\"6d4ce63c\": \"get()\",\n// \t\"b7c763b5\": \"getString(uint256)\",\n// \t\"a9c70eaa\": \"getUint(uint256)\",\n// \t\"60fe47b1\": \"set(uint256)\",\n// \t\"4717fd92\": \"setString(uint256,string)\",\n// \t\"61e3c944\": \"setUint(uint256,uint256)\"\n// }\n\n/**\n * NOTE: The contract was built only for testing purposes\n */\ncontract RelayTest {\n    using ECDSA for bytes32;\n\n    mapping(uint => string) private _stringStore;\n    mapping(uint => uint) private _uintStore;\n    uint private _value;\n\n    function setString(uint key, string calldata value) external {\n        /* solium-disable-next-line error-reason */\n        require(key != 0);\n        require(bytes(value).length != 0, 'RelayTest: VALUE_EMPTY');\n\n        _stringStore[key] = value;\n    }\n\n    function getString(uint key) external view returns (string memory) {\n        /* solium-disable-next-line error-reason */\n        require(key != 0);\n\n        return _stringStore[key];\n    }\n\n    function setUint(uint key, uint value) external {\n        /* solium-disable-next-line error-reason */\n        require(key != 0);\n        require(value != 0, 'RelayTest: VALUE_EMPTY');\n\n        _uintStore[key] = value;\n    }\n\n    function getUint(uint key) external view returns (uint) {\n        /* solium-disable-next-line error-reason */\n        require(key != 0);\n\n        return _uintStore[key];\n    }\n\n    function set(uint value) external {\n        _value = value;\n    }\n\n    function get() external view returns(uint) {\n        return _value;\n    }\n\n    function relay(bytes calldata data, bytes calldata signature) external returns(bytes memory) {\n        verifySigner(keccak256(data), signature);\n        bytes memory _data = data;\n        verifyCall(_data);\n\n        /* solium-disable-next-line security/no-low-level-calls */\n        (bool success, bytes memory result) = address(this).call(data);\n        if (success == false) {\n            /* solium-disable-next-line security/no-inline-assembly */\n            assembly {\n                let ptr := mload(0x40)\n                let size := returndatasize\n                returndatacopy(ptr, 0, size)\n                revert(ptr, size)\n            }\n        }\n        return result;\n    }\n\n    function verifySigner(bytes32 data, bytes memory signature) private view {\n        address signer = keccak256(abi.encodePacked(data, address(this)))\n            .toEthSignedMessageHash()\n            .recover(signature);\n        require(signer != address(0), 'RelayTest: SIGNATURE_IS_INVALID');\n    }\n\n    function verifyCall(bytes memory data) private pure {\n        bytes4 sig;\n        /* solium-disable-next-line security/no-inline-assembly */\n        assembly {\n            sig := mload(add(data, add(0x20, 0)))\n        }\n\n        bool isSupported = sig == 0xb7c763b5 ||\n            sig == 0x4717fd92 ||\n            sig == 0xa9c70eaa ||\n            sig == 0x61e3c944;\n        require(isSupported, 'RelayTest: UNSUPPORTED_CALL');\n    }\n}",
  "sourcePath": "/Users/aquila/Documents/GitHub/dot-crypto/contracts/test-helpers/RelayTest.sol",
  "compiler": {
    "name": "solc",
    "version": "0.5.12+commit.7709ece9.Emscripten.clang"
  },
  "schemaVersion": "3.2.5",
  "updatedAt": "2020-10-26T12:45:31.520Z",
  "devdoc": {
    "methods": {}
  },
  "userdoc": {
    "methods": {},
    "notice": "NOTE: The contract was built only for testing purposes"
  }
}