{
  "contractName": "Resolver",
  "abi": [
    {
      "inputs": [
        {
          "internalType": "contract Registry",
          "name": "registry",
          "type": "address"
        },
        {
          "internalType": "contract MintingController",
          "name": "mintingController",
          "type": "address"
        }
      ],
      "payable": false,
      "stateMutability": "nonpayable",
      "type": "constructor"
    },
    {
      "anonymous": false,
      "inputs": [
        {
          "indexed": true,
          "internalType": "uint256",
          "name": "tokenId",
          "type": "uint256"
        },
        {
          "indexed": true,
          "internalType": "string",
          "name": "keyIndex",
          "type": "string"
        },
        {
          "indexed": false,
          "internalType": "string",
          "name": "key",
          "type": "string"
        }
      ],
      "name": "NewKey",
      "type": "event"
    },
    {
      "anonymous": false,
      "inputs": [
        {
          "indexed": true,
          "internalType": "uint256",
          "name": "tokenId",
          "type": "uint256"
        }
      ],
      "name": "ResetRecords",
      "type": "event"
    },
    {
      "anonymous": false,
      "inputs": [
        {
          "indexed": true,
          "internalType": "uint256",
          "name": "tokenId",
          "type": "uint256"
        },
        {
          "indexed": true,
          "internalType": "string",
          "name": "keyIndex",
          "type": "string"
        },
        {
          "indexed": true,
          "internalType": "string",
          "name": "valueIndex",
          "type": "string"
        },
        {
          "indexed": false,
          "internalType": "string",
          "name": "key",
          "type": "string"
        },
        {
          "indexed": false,
          "internalType": "string",
          "name": "value",
          "type": "string"
        }
      ],
      "name": "Set",
      "type": "event"
    },
    {
      "constant": true,
      "inputs": [
        {
          "internalType": "uint256",
          "name": "tokenId",
          "type": "uint256"
        }
      ],
      "name": "nonceOf",
      "outputs": [
        {
          "internalType": "uint256",
          "name": "",
          "type": "uint256"
        }
      ],
      "payable": false,
      "stateMutability": "view",
      "type": "function"
    },
    {
      "constant": true,
      "inputs": [],
      "name": "registry",
      "outputs": [
        {
          "internalType": "address",
          "name": "",
          "type": "address"
        }
      ],
      "payable": false,
      "stateMutability": "view",
      "type": "function"
    },
    {
      "constant": false,
      "inputs": [
        {
          "internalType": "uint256",
          "name": "tokenId",
          "type": "uint256"
        }
      ],
      "name": "reset",
      "outputs": [],
      "payable": false,
      "stateMutability": "nonpayable",
      "type": "function"
    },
    {
      "constant": false,
      "inputs": [
        {
          "internalType": "uint256",
          "name": "tokenId",
          "type": "uint256"
        },
        {
          "internalType": "bytes",
          "name": "signature",
          "type": "bytes"
        }
      ],
      "name": "resetFor",
      "outputs": [],
      "payable": false,
      "stateMutability": "nonpayable",
      "type": "function"
    },
    {
      "constant": true,
      "inputs": [
        {
          "internalType": "string",
          "name": "key",
          "type": "string"
        },
        {
          "internalType": "uint256",
          "name": "tokenId",
          "type": "uint256"
        }
      ],
      "name": "get",
      "outputs": [
        {
          "internalType": "string",
          "name": "",
          "type": "string"
        }
      ],
      "payable": false,
      "stateMutability": "view",
      "type": "function"
    },
    {
      "constant": true,
      "inputs": [
        {
          "internalType": "uint256",
          "name": "keyHash",
          "type": "uint256"
        }
      ],
      "name": "hashToKey",
      "outputs": [
        {
          "internalType": "string",
          "name": "",
          "type": "string"
        }
      ],
      "payable": false,
      "stateMutability": "view",
      "type": "function"
    },
    {
      "constant": true,
      "inputs": [
        {
          "internalType": "uint256[]",
          "name": "hashes",
          "type": "uint256[]"
        }
      ],
      "name": "hashesToKeys",
      "outputs": [
        {
          "internalType": "string[]",
          "name": "",
          "type": "string[]"
        }
      ],
      "payable": false,
      "stateMutability": "view",
      "type": "function"
    },
    {
      "constant": true,
      "inputs": [
        {
          "internalType": "uint256",
          "name": "keyHash",
          "type": "uint256"
        },
        {
          "internalType": "uint256",
          "name": "tokenId",
          "type": "uint256"
        }
      ],
      "name": "getByHash",
      "outputs": [
        {
          "internalType": "string",
          "name": "key",
          "type": "string"
        },
        {
          "internalType": "string",
          "name": "value",
          "type": "string"
        }
      ],
      "payable": false,
      "stateMutability": "view",
      "type": "function"
    },
    {
      "constant": true,
      "inputs": [
        {
          "internalType": "uint256[]",
          "name": "keyHashes",
          "type": "uint256[]"
        },
        {
          "internalType": "uint256",
          "name": "tokenId",
          "type": "uint256"
        }
      ],
      "name": "getManyByHash",
      "outputs": [
        {
          "internalType": "string[]",
          "name": "keys",
          "type": "string[]"
        },
        {
          "internalType": "string[]",
          "name": "values",
          "type": "string[]"
        }
      ],
      "payable": false,
      "stateMutability": "view",
      "type": "function"
    },
    {
      "constant": false,
      "inputs": [
        {
          "internalType": "string[]",
          "name": "keys",
          "type": "string[]"
        },
        {
          "internalType": "string[]",
          "name": "values",
          "type": "string[]"
        },
        {
          "internalType": "uint256",
          "name": "tokenId",
          "type": "uint256"
        }
      ],
      "name": "preconfigure",
      "outputs": [],
      "payable": false,
      "stateMutability": "nonpayable",
      "type": "function"
    },
    {
      "constant": false,
      "inputs": [
        {
          "internalType": "string",
          "name": "key",
          "type": "string"
        },
        {
          "internalType": "string",
          "name": "value",
          "type": "string"
        },
        {
          "internalType": "uint256",
          "name": "tokenId",
          "type": "uint256"
        }
      ],
      "name": "set",
      "outputs": [],
      "payable": false,
      "stateMutability": "nonpayable",
      "type": "function"
    },
    {
      "constant": false,
      "inputs": [
        {
          "internalType": "string",
          "name": "key",
          "type": "string"
        },
        {
          "internalType": "string",
          "name": "value",
          "type": "string"
        },
        {
          "internalType": "uint256",
          "name": "tokenId",
          "type": "uint256"
        },
        {
          "internalType": "bytes",
          "name": "signature",
          "type": "bytes"
        }
      ],
      "name": "setFor",
      "outputs": [],
      "payable": false,
      "stateMutability": "nonpayable",
      "type": "function"
    },
    {
      "constant": true,
      "inputs": [
        {
          "internalType": "string[]",
          "name": "keys",
          "type": "string[]"
        },
        {
          "internalType": "uint256",
          "name": "tokenId",
          "type": "uint256"
        }
      ],
      "name": "getMany",
      "outputs": [
        {
          "internalType": "string[]",
          "name": "",
          "type": "string[]"
        }
      ],
      "payable": false,
      "stateMutability": "view",
      "type": "function"
    },
    {
      "constant": false,
      "inputs": [
        {
          "internalType": "string[]",
          "name": "keys",
          "type": "string[]"
        },
        {
          "internalType": "string[]",
          "name": "values",
          "type": "string[]"
        },
        {
          "internalType": "uint256",
          "name": "tokenId",
          "type": "uint256"
        }
      ],
      "name": "setMany",
      "outputs": [],
      "payable": false,
      "stateMutability": "nonpayable",
      "type": "function"
    },
    {
      "constant": false,
      "inputs": [
        {
          "internalType": "string[]",
          "name": "keys",
          "type": "string[]"
        },
        {
          "internalType": "string[]",
          "name": "values",
          "type": "string[]"
        },
        {
          "internalType": "uint256",
          "name": "tokenId",
          "type": "uint256"
        },
        {
          "internalType": "bytes",
          "name": "signature",
          "type": "bytes"
        }
      ],
      "name": "setManyFor",
      "outputs": [],
      "payable": false,
      "stateMutability": "nonpayable",
      "type": "function"
    },
    {
      "constant": false,
      "inputs": [
        {
          "internalType": "string[]",
          "name": "keys",
          "type": "string[]"
        },
        {
          "internalType": "string[]",
          "name": "values",
          "type": "string[]"
        },
        {
          "internalType": "uint256",
          "name": "tokenId",
          "type": "uint256"
        }
      ],
      "name": "reconfigure",
      "outputs": [],
      "payable": false,
      "stateMutability": "nonpayable",
      "type": "function"
    },
    {
      "constant": false,
      "inputs": [
        {
          "internalType": "string[]",
          "name": "keys",
          "type": "string[]"
        },
        {
          "internalType": "string[]",
          "name": "values",
          "type": "string[]"
        },
        {
          "internalType": "uint256",
          "name": "tokenId",
          "type": "uint256"
        },
        {
          "internalType": "bytes",
          "name": "signature",
          "type": "bytes"
        }
      ],
      "name": "reconfigureFor",
      "outputs": [],
      "payable": false,
      "stateMutability": "nonpayable",
      "type": "function"
    }
  ],
  "bytecode": "0x60806040523480156200001157600080fd5b50604051620032cb380380620032cb8339818101604052620000379190810190620001ee565b8180600160006101000a81548173ffffffffffffffffffffffffffffffffffffffff021916908373ffffffffffffffffffffffffffffffffffffffff160217905550508073ffffffffffffffffffffffffffffffffffffffff16637b1039996040518163ffffffff1660e01b815260040160206040518083038186803b158015620000c157600080fd5b505afa158015620000d6573d6000803e3d6000fd5b505050506040513d601f19601f82011682018060405250620000fc9190810190620001c2565b73ffffffffffffffffffffffffffffffffffffffff168273ffffffffffffffffffffffffffffffffffffffff16146200013457600080fd5b80600560006101000a81548173ffffffffffffffffffffffffffffffffffffffff021916908373ffffffffffffffffffffffffffffffffffffffff1602179055505050620002d9565b6000815190506200018e816200028b565b92915050565b600081519050620001a581620002a5565b92915050565b600081519050620001bc81620002bf565b92915050565b600060208284031215620001d557600080fd5b6000620001e5848285016200017d565b91505092915050565b600080604083850312156200020257600080fd5b60006200021285828601620001ab565b9250506020620002258582860162000194565b9150509250929050565b60006200023c826200026b565b9050919050565b600062000250826200022f565b9050919050565b600062000264826200022f565b9050919050565b600073ffffffffffffffffffffffffffffffffffffffff82169050919050565b62000296816200022f565b8114620002a257600080fd5b50565b620002b08162000243565b8114620002bc57600080fd5b50565b620002ca8162000257565b8114620002d657600080fd5b50565b612fe280620002e96000396000f3fe608060405234801561001057600080fd5b506004361061010b5760003560e01c80638c87a4ea116100a2578063b87abc1111610071578063b87abc11146102f0578063c59740731461030c578063ce92b33e14610328578063e837ae7414610344578063ec129eea146103605761010b565b80638c87a4ea146102575780638f69c18814610287578063a3557e6c146102a3578063b85afd28146102bf5761010b565b806347c81699116100de57806347c81699146101bc578063672b9f81146101d85780636ccbae5f146102095780637b103999146102395761010b565b80631bd8cc1a146101105780631be5e7ed146101405780632c3d376d14610170578063310bd74b146101a0575b600080fd5b61012a60048036036101259190810190612121565b61037c565b6040516101379190612a2c565b60405180910390f35b61015a600480360361015591908101906124a3565b61066a565b6040516101679190612b58565b60405180910390f35b61018a600480360361018591908101906124f7565b61087a565b6040516101979190612b58565b60405180910390f35b6101ba60048036036101b591908101906124f7565b61092f565b005b6101d660048036036101d19190810190612361565b610a2a565b005b6101f260048036036101ed9190810190612578565b610bc6565b604051610200929190612b7a565b60405180910390f35b610223600480360361021e91908101906124f7565b610d01565b6040516102309190612c31565b60405180910390f35b610241610d1d565b60405161024e91906129a4565b60405180910390f35b610271600480360361026c91908101906122a3565b610d47565b60405161027e9190612a2c565b60405180910390f35b6102a1600480360361029c91908101906121f8565b610de1565b005b6102bd60048036036102b891908101906121f8565b610e91565b005b6102d960048036036102d491908101906122e4565b610f2d565b6040516102e7929190612a4e565b60405180910390f35b61030a60048036036103059190810190612520565b611133565b005b610326600480360361032191908101906123ea565b61120d565b005b610342600480360361033d9190810190612179565b611390565b005b61035e60048036036103599190810190612179565b6114a2565b005b61037a60048036036103759190810190612179565b6115b0565b005b606081600160009054906101000a900473ffffffffffffffffffffffffffffffffffffffff1673ffffffffffffffffffffffffffffffffffffffff1663b3f9e4cb826040518263ffffffff1660e01b81526004016103da9190612c31565b60206040518083038186803b1580156103f257600080fd5b505afa158015610406573d6000803e3d6000fd5b505050506040513d601f19601f8201168201806040525061042a91908101906120f8565b73ffffffffffffffffffffffffffffffffffffffff163073ffffffffffffffffffffffffffffffffffffffff1614610497576040517f08c379a000000000000000000000000000000000000000000000000000000000815260040161048e90612bd1565b60405180910390fd5b60008585905090506060816040519080825280602002602001820160405280156104d557816020015b60608152602001906001900390816104c05790505b50905060006003600087815260200190815260200160002054905060008090505b8381101561065b5760026000888152602001908152602001600020600083815260200190815260200160002089898381811061052e57fe5b905060200281018035600160200383360303811261054b57600080fd5b8083019250508135905060208201915067ffffffffffffffff81111561057057600080fd5b60018102360382131561058257600080fd5b60405161059092919061294e565b90815260200160405180910390208054600181600116156101000203166002900480601f0160208091040260200160405190810160405280929190818152602001828054600181600116156101000203166002900480156106325780601f1061060757610100808354040283529160200191610632565b820191906000526020600020905b81548152906001019060200180831161061557829003601f168201915b505050505083828151811061064357fe5b602002602001018190525080806001019150506104f6565b50819450505050509392505050565b606081600160009054906101000a900473ffffffffffffffffffffffffffffffffffffffff1673ffffffffffffffffffffffffffffffffffffffff1663b3f9e4cb826040518263ffffffff1660e01b81526004016106c89190612c31565b60206040518083038186803b1580156106e057600080fd5b505afa1580156106f4573d6000803e3d6000fd5b505050506040513d601f19601f8201168201806040525061071891908101906120f8565b73ffffffffffffffffffffffffffffffffffffffff163073ffffffffffffffffffffffffffffffffffffffff1614610785576040517f08c379a000000000000000000000000000000000000000000000000000000000815260040161077c90612bd1565b60405180910390fd5b60026000848152602001908152602001600020600060036000868152602001908152602001600020548152602001908152602001600020846040516107ca9190612967565b90815260200160405180910390208054600181600116156101000203166002900480601f01602080910402602001604051908101604052809291908181526020018280546001816001161561010002031660029004801561086c5780601f106108415761010080835404028352916020019161086c565b820191906000526020600020905b81548152906001019060200180831161084f57829003601f168201915b505050505091505092915050565b6060600460008381526020019081526020016000208054600181600116156101000203166002900480601f0160208091040260200160405190810160405280929190818152602001828054600181600116156101000203166002900480156109235780601f106108f857610100808354040283529160200191610923565b820191906000526020600020905b81548152906001019060200180831161090657829003601f168201915b50505050509050919050565b80600160009054906101000a900473ffffffffffffffffffffffffffffffffffffffff1673ffffffffffffffffffffffffffffffffffffffff1663430c208133836040518363ffffffff1660e01b815260040161098d9291906129da565b60206040518083038186803b1580156109a557600080fd5b505afa1580156109b9573d6000803e3d6000fd5b505050506040513d601f19601f820116820180604052506109dd9190810190612338565b610a1c576040517f08c379a0000000000000000000000000000000000000000000000000000000008152600401610a1390612bf1565b60405180910390fd5b610a2642836116ae565b5050565b80600160009054906101000a900473ffffffffffffffffffffffffffffffffffffffff1673ffffffffffffffffffffffffffffffffffffffff1663430c208133836040518363ffffffff1660e01b8152600401610a889291906129da565b60206040518083038186803b158015610aa057600080fd5b505afa158015610ab4573d6000803e3d6000fd5b505050506040513d601f19601f82011682018060405250610ad89190810190612338565b610b17576040517f08c379a0000000000000000000000000000000000000000000000000000000008152600401610b0e90612bf1565b60405180910390fd5b610bbe600360008481526020019081526020016000205487878080601f016020809104026020016040519081016040528093929190818152602001838380828437600081840152601f19601f8201169050808301925050505050505086868080601f016020809104026020016040519081016040528093929190818152602001838380828437600081840152601f19601f8201169050808301925050505050505085611787565b505050505050565b60608082600160009054906101000a900473ffffffffffffffffffffffffffffffffffffffff1673ffffffffffffffffffffffffffffffffffffffff1663b3f9e4cb826040518263ffffffff1660e01b8152600401610c259190612c31565b60206040518083038186803b158015610c3d57600080fd5b505afa158015610c51573d6000803e3d6000fd5b505050506040513d601f19601f82011682018060405250610c7591908101906120f8565b73ffffffffffffffffffffffffffffffffffffffff163073ffffffffffffffffffffffffffffffffffffffff1614610ce2576040517f08c379a0000000000000000000000000000000000000000000000000000000008152600401610cd990612bd1565b60405180910390fd5b610ceb8561087a565b9250610cf7838561066a565b9150509250929050565b6000806000838152602001908152602001600020549050919050565b6000600160009054906101000a900473ffffffffffffffffffffffffffffffffffffffff16905090565b6060600082519050606081604051908082528060200260200182016040528015610d8557816020015b6060815260200190600190039081610d705790505b50905060008090505b82811015610dd657610db2858281518110610da557fe5b602002602001015161087a565b828281518110610dbe57fe5b60200260200101819052508080600101915050610d8e565b508092505050919050565b610e6c63ce92b33e60e01b858585604051602401610e0193929190612a85565b604051602081830303815290604052907bffffffffffffffffffffffffffffffffffffffffffffffffffffffff19166020820180517bffffffffffffffffffffffffffffffffffffffffffffffffffffffff83818316178352505050508051906020012083836119f1565b610e8b6003600084815260200190815260200160002054858585611b9e565b50505050565b610f1c63ec129eea60e01b858585604051602401610eb193929190612a85565b604051602081830303815290604052907bffffffffffffffffffffffffffffffffffffffffffffffffffffffff19166020820180517bffffffffffffffffffffffffffffffffffffffffffffffffffffffff83818316178352505050508051906020012083836119f1565b610f27848484611bf9565b50505050565b60608082600160009054906101000a900473ffffffffffffffffffffffffffffffffffffffff1673ffffffffffffffffffffffffffffffffffffffff1663b3f9e4cb826040518263ffffffff1660e01b8152600401610f8c9190612c31565b60206040518083038186803b158015610fa457600080fd5b505afa158015610fb8573d6000803e3d6000fd5b505050506040513d601f19601f82011682018060405250610fdc91908101906120f8565b73ffffffffffffffffffffffffffffffffffffffff163073ffffffffffffffffffffffffffffffffffffffff1614611049576040517f08c379a000000000000000000000000000000000000000000000000000000000815260040161104090612bd1565b60405180910390fd5b6000855190508060405190808252806020026020018201604052801561108357816020015b606081526020019060019003908161106e5790505b509350806040519080825280602002602001820160405280156110ba57816020015b60608152602001906001900390816110a55790505b50925060008090505b81811015611129576110e88782815181106110da57fe5b602002602001015187610bc6565b8191508090508683815181106110fa57fe5b6020026020010186848151811061110d57fe5b60200260200101829052829052505080806001019150506110c3565b5050509250929050565b6111fe63310bd74b60e01b8460405160240161114f9190612c31565b604051602081830303815290604052907bffffffffffffffffffffffffffffffffffffffffffffffffffffffff19166020820180517bffffffffffffffffffffffffffffffffffffffffffffffffffffffff8381831617835250505050805190602001208484848080601f016020809104026020016040519081016040528093929190818152602001838380828437600081840152601f19601f820116905080830192505050505050506119f1565b61120842846116ae565b505050565b6112e06347c8169960e01b8888888888604051602401611231959493929190612b0f565b604051602081830303815290604052907bffffffffffffffffffffffffffffffffffffffffffffffffffffffff19166020820180517bffffffffffffffffffffffffffffffffffffffffffffffffffffffff8381831617835250505050805190602001208484848080601f016020809104026020016040519081016040528093929190818152602001838380828437600081840152601f19601f820116905080830192505050505050506119f1565b611387600360008581526020019081526020016000205488888080601f016020809104026020016040519081016040528093929190818152602001838380828437600081840152601f19601f8201169050808301925050505050505087878080601f016020809104026020016040519081016040528093929190818152602001838380828437600081840152601f19601f8201169050808301925050505050505086611787565b50505050505050565b80600160009054906101000a900473ffffffffffffffffffffffffffffffffffffffff1673ffffffffffffffffffffffffffffffffffffffff1663430c208133836040518363ffffffff1660e01b81526004016113ee9291906129da565b60206040518083038186803b15801561140657600080fd5b505afa15801561141a573d6000803e3d6000fd5b505050506040513d601f19601f8201168201806040525061143e9190810190612338565b61147d576040517f08c379a000000000000000000000000000000000000000000000000000000000815260040161147490612bf1565b60405180910390fd5b61149c6003600084815260200190815260200160002054858585611b9e565b50505050565b600560009054906101000a900473ffffffffffffffffffffffffffffffffffffffff1673ffffffffffffffffffffffffffffffffffffffff1663aa271e1a336040518263ffffffff1660e01b81526004016114fd91906129bf565b60206040518083038186803b15801561151557600080fd5b505afa158015611529573d6000803e3d6000fd5b505050506040513d601f19601f8201168201806040525061154d9190810190612338565b61158c576040517f08c379a000000000000000000000000000000000000000000000000000000000815260040161158390612c11565b60405180910390fd5b6115ab6003600083815260200190815260200160002054848484611b9e565b505050565b80600160009054906101000a900473ffffffffffffffffffffffffffffffffffffffff1673ffffffffffffffffffffffffffffffffffffffff1663430c208133836040518363ffffffff1660e01b815260040161160e9291906129da565b60206040518083038186803b15801561162657600080fd5b505afa15801561163a573d6000803e3d6000fd5b505050506040513d601f19601f8201168201806040525061165e9190810190612338565b61169d576040517f08c379a000000000000000000000000000000000000000000000000000000000815260040161169490612bf1565b60405180910390fd5b6116a8848484611bf9565b50505050565b816003600083815260200190815260200160002081905550600160009054906101000a900473ffffffffffffffffffffffffffffffffffffffff1673ffffffffffffffffffffffffffffffffffffffff1663538361a78260006040518363ffffffff1660e01b8152600401611724929190612c4c565b600060405180830381600087803b15801561173e57600080fd5b505af1158015611752573d6000803e3d6000fd5b50505050807f185c30856dadb58bf097c1f665a52ada7029752dbcad008ea3fefc73bee8c9fe60405160405180910390a25050565b6000838051906020012060001c9050600080600260008581526020019081526020016000206000888152602001908152602001600020866040516117cb9190612967565b9081526020016040518091039020805460018160011615610100020316600290049050149050600160009054906101000a900473ffffffffffffffffffffffffffffffffffffffff1673ffffffffffffffffffffffffffffffffffffffff1663538361a784846040518363ffffffff1660e01b815260040161184e929190612c75565b600060405180830381600087803b15801561186857600080fd5b505af115801561187c573d6000803e3d6000fd5b5050505083600260008581526020019081526020016000206000888152602001908152602001600020866040516118b39190612967565b908152602001604051809103902090805190602001906118d4929190611d43565b50600060046000848152602001908152602001600020805460018160011615610100020316600290049050141561192e578460046000848152602001908152602001600020908051906020019061192c929190611d43565b505b801561198357846040516119429190612967565b6040518091039020837f7ae4f661958fbecc2f77be6b0eb280d2a6f604b29e1e7221c82b9da0c4af7f868760405161197a9190612b58565b60405180910390a35b836040516119919190612967565b6040518091039020856040516119a79190612967565b6040518091039020847f851ffe8e74d5015261dba0a1f9e1b0e5d42c5af5d2ad1908fee897c7d80a0d9288886040516119e1929190612b7a565b60405180910390a4505050505050565b60008060008481526020019081526020016000205490506000611a4f83611a41873086604051602001611a2693929190612911565b60405160208183030381529060405280519060200120611c27565b611c5790919063ffffffff16565b9050600073ffffffffffffffffffffffffffffffffffffffff168173ffffffffffffffffffffffffffffffffffffffff1614158015611b375750600160009054906101000a900473ffffffffffffffffffffffffffffffffffffffff1673ffffffffffffffffffffffffffffffffffffffff1663430c208182866040518363ffffffff1660e01b8152600401611ae6929190612a03565b60206040518083038186803b158015611afe57600080fd5b505afa158015611b12573d6000803e3d6000fd5b505050506040513d601f19601f82011682018060405250611b369190810190612338565b5b611b76576040517f08c379a0000000000000000000000000000000000000000000000000000000008152600401611b6d90612bb1565b60405180910390fd5b6001600080868152602001908152602001600020600082825401925050819055505050505050565b60008351905060008090505b81811015611bf157611be486868381518110611bc257fe5b6020026020010151868481518110611bd657fe5b602002602001015186611787565b8080600101915050611baa565b505050505050565b611c0342826116ae565b611c226003600083815260200190815260200160002054848484611b9e565b505050565b600081604051602001611c3a919061297e565b604051602081830303815290604052805190602001209050919050565b60006041825114611c6b5760009050611d3d565b60008060006020850151925060408501519150606085015160001a90507f7fffffffffffffffffffffffffffffff5d576e7357a4501ddfe92f46681b20a08260001c1115611cbf5760009350505050611d3d565b601b8160ff1614158015611cd75750601c8160ff1614155b15611ce85760009350505050611d3d565b60018682858560405160008152602001604052604051611d0b9493929190612aca565b6020604051602081039080840390855afa158015611d2d573d6000803e3d6000fd5b5050506020604051035193505050505b92915050565b828054600181600116156101000203166002900490600052602060002090601f016020900481019282601f10611d8457805160ff1916838001178555611db2565b82800160010185558215611db2579182015b82811115611db1578251825591602001919060010190611d96565b5b509050611dbf9190611dc3565b5090565b611de591905b80821115611de1576000816000905550600101611dc9565b5090565b90565b600081519050611df781612f5a565b92915050565b60008083601f840112611e0f57600080fd5b8235905067ffffffffffffffff811115611e2857600080fd5b602083019150836020820283011115611e4057600080fd5b9250929050565b600082601f830112611e5857600080fd5b8135611e6b611e6682612ccb565b612c9e565b9150818183526020840193506020810190508360005b83811015611eb15781358601611e97888261203b565b845260208401935060208301925050600181019050611e81565b5050505092915050565b600082601f830112611ecc57600080fd5b8135611edf611eda82612cf3565b612c9e565b91508181835260208401935060208101905083856020840282011115611f0457600080fd5b60005b83811015611f345781611f1a88826120e3565b845260208401935060208301925050600181019050611f07565b5050505092915050565b600081519050611f4d81612f71565b92915050565b60008083601f840112611f6557600080fd5b8235905067ffffffffffffffff811115611f7e57600080fd5b602083019150836001820283011115611f9657600080fd5b9250929050565b600082601f830112611fae57600080fd5b8135611fc1611fbc82612d1b565b612c9e565b91508082526020830160208301858383011115611fdd57600080fd5b611fe8838284612ec2565b50505092915050565b60008083601f84011261200357600080fd5b8235905067ffffffffffffffff81111561201c57600080fd5b60208301915083600182028301111561203457600080fd5b9250929050565b600082601f83011261204c57600080fd5b813561205f61205a82612d47565b612c9e565b9150808252602083016020830185838301111561207b57600080fd5b612086838284612ec2565b50505092915050565b600082601f8301126120a057600080fd5b81356120b36120ae82612d73565b612c9e565b915080825260208301602083018583830111156120cf57600080fd5b6120da838284612ec2565b50505092915050565b6000813590506120f281612f88565b92915050565b60006020828403121561210a57600080fd5b600061211884828501611de8565b91505092915050565b60008060006040848603121561213657600080fd5b600084013567ffffffffffffffff81111561215057600080fd5b61215c86828701611dfd565b9350935050602061216f868287016120e3565b9150509250925092565b60008060006060848603121561218e57600080fd5b600084013567ffffffffffffffff8111156121a857600080fd5b6121b486828701611e47565b935050602084013567ffffffffffffffff8111156121d157600080fd5b6121dd86828701611e47565b92505060406121ee868287016120e3565b9150509250925092565b6000806000806080858703121561220e57600080fd5b600085013567ffffffffffffffff81111561222857600080fd5b61223487828801611e47565b945050602085013567ffffffffffffffff81111561225157600080fd5b61225d87828801611e47565b935050604061226e878288016120e3565b925050606085013567ffffffffffffffff81111561228b57600080fd5b61229787828801611f9d565b91505092959194509250565b6000602082840312156122b557600080fd5b600082013567ffffffffffffffff8111156122cf57600080fd5b6122db84828501611ebb565b91505092915050565b600080604083850312156122f757600080fd5b600083013567ffffffffffffffff81111561231157600080fd5b61231d85828601611ebb565b925050602061232e858286016120e3565b9150509250929050565b60006020828403121561234a57600080fd5b600061235884828501611f3e565b91505092915050565b60008060008060006060868803121561237957600080fd5b600086013567ffffffffffffffff81111561239357600080fd5b61239f88828901611ff1565b9550955050602086013567ffffffffffffffff8111156123be57600080fd5b6123ca88828901611ff1565b935093505060406123dd888289016120e3565b9150509295509295909350565b60008060008060008060006080888a03121561240557600080fd5b600088013567ffffffffffffffff81111561241f57600080fd5b61242b8a828b01611ff1565b9750975050602088013567ffffffffffffffff81111561244a57600080fd5b6124568a828b01611ff1565b955095505060406124698a828b016120e3565b935050606088013567ffffffffffffffff81111561248657600080fd5b6124928a828b01611f53565b925092505092959891949750929550565b600080604083850312156124b657600080fd5b600083013567ffffffffffffffff8111156124d057600080fd5b6124dc8582860161208f565b92505060206124ed858286016120e3565b9150509250929050565b60006020828403121561250957600080fd5b6000612517848285016120e3565b91505092915050565b60008060006040848603121561253557600080fd5b6000612543868287016120e3565b935050602084013567ffffffffffffffff81111561256057600080fd5b61256c86828701611f53565b92509250509250925092565b6000806040838503121561258b57600080fd5b6000612599858286016120e3565b92505060206125aa858286016120e3565b9150509250929050565b60006125c08383612763565b905092915050565b6125d181612e7a565b82525050565b6125e081612e1b565b82525050565b6125f76125f282612e1b565b612f04565b82525050565b600061260882612daf565b6126128185612ddd565b93508360208202850161262485612d9f565b8060005b85811015612660578484038952815161264185826125b4565b945061264c83612dd0565b925060208a01995050600181019050612628565b50829750879550505050505092915050565b61267b81612e39565b82525050565b61269261268d82612e39565b612f16565b82525050565b6126a181612e8c565b82525050565b60006126b38385612dff565b93506126c0838584612ec2565b6126c983612f3c565b840190509392505050565b60006126e08385612e10565b93506126ed838584612ec2565b82840190509392505050565b600061270482612dc5565b61270e8185612dff565b935061271e818560208601612ed1565b61272781612f3c565b840191505092915050565b600061273d82612dc5565b6127478185612e10565b9350612757818560208601612ed1565b80840191505092915050565b600061276e82612dba565b6127788185612dee565b9350612788818560208601612ed1565b61279181612f3c565b840191505092915050565b60006127a9601c83612e10565b91507f19457468657265756d205369676e6564204d6573736167653a0a3332000000006000830152601c82019050919050565b60006127e9601183612dff565b91507f494e56414c49445f5349474e41545552450000000000000000000000000000006000830152602082019050919050565b6000612829601d83612dff565b91507f5245534f4c5645525f44455441434845445f46524f4d5f444f4d41494e0000006000830152602082019050919050565b6000612869601f83612dff565b91507f53454e4445525f49535f4e4f545f415050524f5645445f4f525f4f574e4552006000830152602082019050919050565b60006128a9601483612dff565b91507f53454e4445525f49535f4e4f545f4d494e5445520000000000000000000000006000830152602082019050919050565b6128e581612e63565b82525050565b6128fc6128f782612e63565b612f32565b82525050565b61290b81612e6d565b82525050565b600061291d8286612681565b60208201915061292d82856125e6565b60148201915061293d82846128eb565b602082019150819050949350505050565b600061295b8284866126d4565b91508190509392505050565b60006129738284612732565b915081905092915050565b60006129898261279c565b91506129958284612681565b60208201915081905092915050565b60006020820190506129b960008301846125d7565b92915050565b60006020820190506129d460008301846125c8565b92915050565b60006040820190506129ef60008301856125c8565b6129fc60208301846128dc565b9392505050565b6000604082019050612a1860008301856125d7565b612a2560208301846128dc565b9392505050565b60006020820190508181036000830152612a4681846125fd565b905092915050565b60006040820190508181036000830152612a6881856125fd565b90508181036020830152612a7c81846125fd565b90509392505050565b60006060820190508181036000830152612a9f81866125fd565b90508181036020830152612ab381856125fd565b9050612ac260408301846128dc565b949350505050565b6000608082019050612adf6000830187612672565b612aec6020830186612902565b612af96040830185612672565b612b066060830184612672565b95945050505050565b60006060820190508181036000830152612b2a8187896126a7565b90508181036020830152612b3f8185876126a7565b9050612b4e60408301846128dc565b9695505050505050565b60006020820190508181036000830152612b7281846126f9565b905092915050565b60006040820190508181036000830152612b9481856126f9565b90508181036020830152612ba881846126f9565b90509392505050565b60006020820190508181036000830152612bca816127dc565b9050919050565b60006020820190508181036000830152612bea8161281c565b9050919050565b60006020820190508181036000830152612c0a8161285c565b9050919050565b60006020820190508181036000830152612c2a8161289c565b9050919050565b6000602082019050612c4660008301846128dc565b92915050565b6000604082019050612c6160008301856128dc565b612c6e6020830184612698565b9392505050565b6000604082019050612c8a60008301856128dc565b612c9760208301846128dc565b9392505050565b6000604051905081810181811067ffffffffffffffff82111715612cc157600080fd5b8060405250919050565b600067ffffffffffffffff821115612ce257600080fd5b602082029050602081019050919050565b600067ffffffffffffffff821115612d0a57600080fd5b602082029050602081019050919050565b600067ffffffffffffffff821115612d3257600080fd5b601f19601f8301169050602081019050919050565b600067ffffffffffffffff821115612d5e57600080fd5b601f19601f8301169050602081019050919050565b600067ffffffffffffffff821115612d8a57600080fd5b601f19601f8301169050602081019050919050565b6000819050602082019050919050565b600081519050919050565b600081519050919050565b600081519050919050565b6000602082019050919050565b600082825260208201905092915050565b600082825260208201905092915050565b600082825260208201905092915050565b600081905092915050565b6000612e2682612e43565b9050919050565b60008115159050919050565b6000819050919050565b600073ffffffffffffffffffffffffffffffffffffffff82169050919050565b6000819050919050565b600060ff82169050919050565b6000612e8582612e9e565b9050919050565b6000612e9782612e63565b9050919050565b6000612ea982612eb0565b9050919050565b6000612ebb82612e43565b9050919050565b82818337600083830152505050565b60005b83811015612eef578082015181840152602081019050612ed4565b83811115612efe576000848401525b50505050565b6000612f0f82612f20565b9050919050565b6000819050919050565b6000612f2b82612f4d565b9050919050565b6000819050919050565b6000601f19601f8301169050919050565b60008160601b9050919050565b612f6381612e1b565b8114612f6e57600080fd5b50565b612f7a81612e2d565b8114612f8557600080fd5b50565b612f9181612e63565b8114612f9c57600080fd5b5056fea365627a7a723158206ff3fb4bd7f353da264ae130b9e105542cac40162f8b09b02e60c837199e87c76c6578706572696d656e74616cf564736f6c634300050c0040",
  "source": "pragma solidity 0.5.12;\npragma experimental ABIEncoderV2;\n\nimport './Registry.sol';\nimport './util/SignatureUtil.sol';\nimport './controllers/MintingController.sol';\nimport './IResolver.sol';\nimport './IResolverReader.sol';\n// solium-disable error-reason\n\ncontract Resolver is IResolverReader, SignatureUtil, IResolver {\n\n    event Set(uint256 indexed tokenId, string indexed keyIndex, string indexed valueIndex, string key, string value);\n    event NewKey(uint256 indexed tokenId, string indexed keyIndex, string key);\n    event ResetRecords(uint256 indexed tokenId);\n\n    // Mapping from token ID to preset id to key to value\n    mapping (uint256 => mapping (uint256 =>  mapping (string => string))) internal _records;\n\n    // Mapping from token ID to current preset id\n    mapping (uint256 => uint256) _tokenPresets;\n\n    // All keys that were set\n    mapping (uint256 => string) _hashedKeys;\n\n    MintingController internal _mintingController;\n\n    constructor(Registry registry, MintingController mintingController) public SignatureUtil(registry) {\n        require(address(registry) == mintingController.registry());\n        _mintingController = mintingController;\n    }\n\n    /**\n     * @dev Throws if called when not the resolver.\n     */\n    modifier whenResolver(uint256 tokenId) {\n        require(address(this) == _registry.resolverOf(tokenId), \"RESOLVER_DETACHED_FROM_DOMAIN\");\n        _;\n    }\n\n    modifier whenApprovedOrOwner(uint256 tokenId) {\n        require(_registry.isApprovedOrOwner(msg.sender, tokenId), \"SENDER_IS_NOT_APPROVED_OR_OWNER\");\n        _;\n    }\n\n    function reset(uint256 tokenId) external whenApprovedOrOwner(tokenId) {\n        _setPreset(now, tokenId);\n    }\n\n    function resetFor(uint256 tokenId, bytes calldata signature) external {\n        _validate(keccak256(abi.encodeWithSelector(this.reset.selector, tokenId)), tokenId, signature);\n        _setPreset(now, tokenId);\n    }\n\n    /**\n     * @dev Function to get record.\n     * @param key The key to query the value of.\n     * @param tokenId The token id to fetch.\n     * @return The value string.\n     */\n    function get(string memory key, uint256 tokenId) public view whenResolver(tokenId) returns (string memory) {\n        return _records[tokenId][_tokenPresets[tokenId]][key];\n    }\n\n    /**\n     * @dev Function to get key by provided hash. Keys hashes can be found in Sync event emitted by Registry.sol contract.\n     * @param keyHash The key to query the value of.\n     * @return The key string.\n     */\n    function hashToKey(uint256 keyHash) public view returns (string memory) {\n        return _hashedKeys[keyHash];\n    }\n\n    /**\n     * @dev Function to get keys by provided key hashes. Keys hashes can be found in Sync event emitted by Registry.sol contract.\n     * @param hashes The key to query the value of.\n     * @return Keys\n     */\n    function hashesToKeys(uint256[] memory hashes) public view returns (string[] memory) {\n        uint256 keyCount = hashes.length;\n        string[] memory values = new string[](keyCount);\n        for (uint256 i = 0; i < keyCount; i++) {\n            values[i] = hashToKey(hashes[i]);\n        }\n\n        return values;\n    }\n\n    /**\n     * @dev Function get value by provied key hash. Keys hashes can be found in Sync event emitted by Registry.sol contract.\n     * @param keyHash The key to query the value of.\n     * @param tokenId The token id to set.\n     * @return Key and value.\n     */\n    function getByHash(uint256 keyHash, uint256 tokenId) public view whenResolver(tokenId) returns (string memory key, string memory value) {\n        key = hashToKey(keyHash);\n        value = get(key, tokenId);\n    }\n\n    /**\n     * @dev Function get values by provied key hashes. Keys hashes can be found in Sync event emitted by Registry.sol contract.\n     * @param keyHashes The key to query the value of.\n     * @param tokenId The token id to set.\n     * @return Keys and values.\n     */\n    function getManyByHash(\n        uint256[] memory keyHashes,\n        uint256 tokenId\n    ) public view whenResolver(tokenId) returns (string[] memory keys, string[] memory values) {\n        uint256 keyCount = keyHashes.length;\n        keys = new string[](keyCount);\n        values = new string[](keyCount);\n        for (uint256 i = 0; i < keyCount; i++) {\n            (keys[i], values[i]) = getByHash(keyHashes[i], tokenId);\n        }\n    }\n\n    function preconfigure(\n        string[] memory keys,\n        string[] memory values,\n        uint256 tokenId\n    ) public {\n        require(_mintingController.isMinter(msg.sender), \"SENDER_IS_NOT_MINTER\");\n        _setMany(_tokenPresets[tokenId], keys, values, tokenId);\n    }\n\n    /**\n     * @dev Function to set record.\n     * @param key The key set the value of.\n     * @param value The value to set key to.\n     * @param tokenId The token id to set.\n     */\n    function set(string calldata key, string calldata value, uint256 tokenId) external whenApprovedOrOwner(tokenId) {\n        _set(_tokenPresets[tokenId], key, value, tokenId);\n    }\n\n    /**\n     * @dev Function to set record on behalf of an address.\n     * @param key The key set the value of.\n     * @param value The value to set key to.\n     * @param tokenId The token id to set.\n     * @param signature The signature to verify the transaction with.\n     */\n    function setFor(\n        string calldata key,\n        string calldata value,\n        uint256 tokenId,\n        bytes calldata signature\n    ) external {\n        _validate(keccak256(abi.encodeWithSelector(this.set.selector, key, value, tokenId)), tokenId, signature);\n        _set(_tokenPresets[tokenId], key, value, tokenId);\n    }\n\n    /**\n     * @dev Function to get multiple record.\n     * @param keys The keys to query the value of.\n     * @param tokenId The token id to fetch.\n     * @return The values.\n     */\n    function getMany(string[] calldata keys, uint256 tokenId) external view whenResolver(tokenId) returns (string[] memory) {\n        uint256 keyCount = keys.length;\n        string[] memory values = new string[](keyCount);\n        uint256 preset = _tokenPresets[tokenId];\n        for (uint256 i = 0; i < keyCount; i++) {\n            values[i] = _records[tokenId][preset][keys[i]];\n        }\n        return values;\n    }\n\n    function setMany(\n        string[] memory keys,\n        string[] memory values,\n        uint256 tokenId\n    ) public whenApprovedOrOwner(tokenId) {\n        _setMany(_tokenPresets[tokenId], keys, values, tokenId);\n    }\n\n    /**\n     * @dev Function to set record on behalf of an address.\n     * @param keys The keys set the values of.\n     * @param values The values to set keys to.\n     * @param tokenId The token id to set.\n     * @param signature The signature to verify the transaction with.\n     */\n    function setManyFor(\n        string[] memory keys,\n        string[] memory values,\n        uint256 tokenId,\n        bytes memory signature\n    ) public {\n        _validate(keccak256(abi.encodeWithSelector(this.setMany.selector, keys, values, tokenId)), tokenId, signature);\n        _setMany(_tokenPresets[tokenId], keys, values, tokenId);\n    }\n\n     /**\n     * @dev Function to reset all domain records and set new ones.\n     * @param keys records keys.\n     * @param values records values.\n     * @param tokenId domain token id.\n     */\n    function reconfigure(string[] memory keys, string[] memory values, uint256 tokenId) public whenApprovedOrOwner(tokenId) {\n        _reconfigure(keys, values, tokenId);\n    }\n\n    /**\n     * @dev Delegated version of reconfigure() function.\n     * @param keys records keys.\n     * @param values records values.\n     * @param tokenId domain token id.\n     * @param signature user signature.\n     */\n    function reconfigureFor(\n        string[] memory keys,\n        string[] memory values,\n        uint256 tokenId,\n        bytes memory signature\n    ) public {\n        _validate(keccak256(abi.encodeWithSelector(this.reconfigure.selector, keys, values, tokenId)), tokenId, signature);\n        _reconfigure(keys, values, tokenId);\n    }\n\n    // reset records\n    function _setPreset(uint256 presetId, uint256 tokenId) internal {\n        _tokenPresets[tokenId] = presetId;\n        _registry.sync(tokenId, 0); // notify registry that domain records were reset\n        emit ResetRecords(tokenId);\n    }\n\n    /**\n     * @dev Internal function to to set record. As opposed to set, this imposes no restrictions on msg.sender.\n     * @param preset preset to set key/values on\n     * @param key key of record to be set\n     * @param value value of record to be set\n     * @param tokenId uint256 ID of the token\n     */\n    function _set(uint256 preset, string memory key, string memory value, uint256 tokenId) internal {\n        uint256 keyHash = uint256(keccak256(bytes(key)));\n        bool isNewKey = bytes(_records[tokenId][preset][key]).length == 0;\n        _registry.sync(tokenId, keyHash);\n        _records[tokenId][preset][key] = value;\n\n        if (bytes(_hashedKeys[keyHash]).length == 0) {\n            _hashedKeys[keyHash] = key;\n        }\n\n        if (isNewKey) {\n            emit NewKey(tokenId, key, key);\n        }\n        emit Set(tokenId, key, value, key, value);\n    }\n\n    /**\n     * @dev Internal function to to set multiple records. As opposed to setMany, this imposes\n     * no restrictions on msg.sender.\n     * @param preset preset to set key/values on\n     * @param keys keys of record to be set\n     * @param values values of record to be set\n     * @param tokenId uint256 ID of the token\n     */\n    function _setMany(uint256 preset, string[] memory keys, string[] memory values, uint256 tokenId) internal {\n        uint256 keyCount = keys.length;\n        for (uint256 i = 0; i < keyCount; i++) {\n            _set(preset, keys[i], values[i], tokenId);\n        }\n    }\n\n    /**\n     * @dev Internal function to reset all domain records and set new ones.\n     * @param keys records keys.\n     * @param values records values.\n     * @param tokenId domain token id.\n     */\n    function _reconfigure(string[] memory keys, string[] memory values, uint256 tokenId) internal {\n        _setPreset(now, tokenId);\n        _setMany(_tokenPresets[tokenId], keys, values, tokenId);\n    }\n\n}\n",
  "sourcePath": "/Users/aquila/Documents/GitHub/dot-crypto/contracts/Resolver.sol",
  "compiler": {
    "name": "solc",
    "version": "0.5.12+commit.7709ece9.Emscripten.clang"
  },
  "schemaVersion": "3.2.5",
  "updatedAt": "2020-10-05T14:41:20.150Z",
  "devdoc": {
    "methods": {
      "get(string,uint256)": {
        "details": "Function to get record.",
        "params": {
          "key": "The key to query the value of.",
          "tokenId": "The token id to fetch."
        },
        "return": "The value string."
      },
      "getByHash(uint256,uint256)": {
        "details": "Function get value by provied key hash. Keys hashes can be found in Sync event emitted by Registry.sol contract.",
        "params": {
          "keyHash": "The key to query the value of.",
          "tokenId": "The token id to set."
        },
        "return": "Key and value."
      },
      "getMany(string[],uint256)": {
        "details": "Function to get multiple record.",
        "params": {
          "keys": "The keys to query the value of.",
          "tokenId": "The token id to fetch."
        },
        "return": "The values."
      },
      "getManyByHash(uint256[],uint256)": {
        "details": "Function get values by provied key hashes. Keys hashes can be found in Sync event emitted by Registry.sol contract.",
        "params": {
          "keyHashes": "The key to query the value of.",
          "tokenId": "The token id to set."
        },
        "return": "Keys and values."
      },
      "hashToKey(uint256)": {
        "details": "Function to get key by provided hash. Keys hashes can be found in Sync event emitted by Registry.sol contract.",
        "params": {
          "keyHash": "The key to query the value of."
        },
        "return": "The key string."
      },
      "hashesToKeys(uint256[])": {
        "details": "Function to get keys by provided key hashes. Keys hashes can be found in Sync event emitted by Registry.sol contract.",
        "params": {
          "hashes": "The key to query the value of."
        },
        "return": "Keys"
      },
      "nonceOf(uint256)": {
        "details": "Gets the nonce of the specified address.",
        "params": {
          "tokenId": "token ID for nonce query"
        },
        "return": "nonce of the given address"
      },
      "reconfigure(string[],string[],uint256)": {
        "details": "Function to reset all domain records and set new ones.",
        "params": {
          "keys": "records keys.",
          "tokenId": "domain token id.",
          "values": "records values."
        }
      },
      "reconfigureFor(string[],string[],uint256,bytes)": {
        "details": "Delegated version of reconfigure() function.",
        "params": {
          "keys": "records keys.",
          "signature": "user signature.",
          "tokenId": "domain token id.",
          "values": "records values."
        }
      },
      "set(string,string,uint256)": {
        "details": "Function to set record.",
        "params": {
          "key": "The key set the value of.",
          "tokenId": "The token id to set.",
          "value": "The value to set key to."
        }
      },
      "setFor(string,string,uint256,bytes)": {
        "details": "Function to set record on behalf of an address.",
        "params": {
          "key": "The key set the value of.",
          "signature": "The signature to verify the transaction with.",
          "tokenId": "The token id to set.",
          "value": "The value to set key to."
        }
      },
      "setManyFor(string[],string[],uint256,bytes)": {
        "details": "Function to set record on behalf of an address.",
        "params": {
          "keys": "The keys set the values of.",
          "signature": "The signature to verify the transaction with.",
          "tokenId": "The token id to set.",
          "values": "The values to set keys to."
        }
      }
    }
  },
  "userdoc": {
    "methods": {}
  }
}