{
  "contractName": "SignatureUtil",
  "abi": [
    {
      "inputs": [
        {
          "internalType": "contract Registry",
          "name": "registry",
          "type": "address"
        }
      ],
      "payable": false,
      "stateMutability": "nonpayable",
      "type": "constructor"
    },
    {
      "constant": true,
      "inputs": [],
      "name": "registry",
      "outputs": [
        {
          "internalType": "address",
          "name": "",
          "type": "address"
        }
      ],
      "payable": false,
      "stateMutability": "view",
      "type": "function"
    },
    {
      "constant": true,
      "inputs": [
        {
          "internalType": "uint256",
          "name": "tokenId",
          "type": "uint256"
        }
      ],
      "name": "nonceOf",
      "outputs": [
        {
          "internalType": "uint256",
          "name": "",
          "type": "uint256"
        }
      ],
      "payable": false,
      "stateMutability": "view",
      "type": "function"
    }
  ],
  "bytecode": "0x608060405234801561001057600080fd5b506040516101d73803806101d78339818101604052602081101561003357600080fd5b810190808051906020019092919050505080600160006101000a81548173ffffffffffffffffffffffffffffffffffffffff021916908373ffffffffffffffffffffffffffffffffffffffff16021790555050610142806100956000396000f3fe608060405234801561001057600080fd5b50600436106100365760003560e01c80636ccbae5f1461003b5780637b1039991461007d575b600080fd5b6100676004803603602081101561005157600080fd5b81019080803590602001909291905050506100c7565b6040518082815260200191505060405180910390f35b6100856100e3565b604051808273ffffffffffffffffffffffffffffffffffffffff1673ffffffffffffffffffffffffffffffffffffffff16815260200191505060405180910390f35b6000806000838152602001908152602001600020549050919050565b6000600160009054906101000a900473ffffffffffffffffffffffffffffffffffffffff1690509056fea265627a7a723158204c7ae604378055f57fe9b0ce01d32c35da26a78683c1459121296bc831dc47a964736f6c634300050c0032",
  "source": "pragma solidity 0.5.12;\n\nimport '../Registry.sol';\nimport '@openzeppelin/contracts/cryptography/ECDSA.sol';\n\n// solium-disable error-reason\n\ncontract SignatureUtil {\n    using ECDSA for bytes32;\n\n    // Mapping from owner to a nonce\n    mapping (uint256 => uint256) internal _nonces;\n\n    Registry internal _registry;\n\n    constructor(Registry registry) public {\n        _registry = registry;\n    }\n\n    function registry() external view returns (address) {\n        return address(_registry);\n    }\n\n    /**\n     * @dev Gets the nonce of the specified address.\n     * @param tokenId token ID for nonce query\n     * @return nonce of the given address\n     */\n    function nonceOf(uint256 tokenId) external view returns (uint256) {\n        return _nonces[tokenId];\n    }\n\n    function _validate(bytes32 hash, uint256 tokenId, bytes memory signature) internal {\n        uint256 nonce = _nonces[tokenId];\n\n        address signer = keccak256(abi.encodePacked(hash, address(this), nonce)).toEthSignedMessageHash().recover(signature);\n        require(\n            signer != address(0) &&\n            _registry.isApprovedOrOwner(\n                signer,\n                tokenId\n            ),\n            \"INVALID_SIGNATURE\"\n        );\n\n        _nonces[tokenId] += 1;\n    }\n\n}\n",
  "sourcePath": "/Users/aquila/Documents/GitHub/dot-crypto/contracts/util/SignatureUtil.sol",
  "compiler": {
    "name": "solc",
    "version": "0.5.12+commit.7709ece9.Emscripten.clang"
  },
  "schemaVersion": "3.2.5",
  "updatedAt": "2020-10-05T14:41:20.183Z",
  "devdoc": {
    "methods": {
      "nonceOf(uint256)": {
        "details": "Gets the nonce of the specified address.",
        "params": {
          "tokenId": "token ID for nonce query"
        },
        "return": "nonce of the given address"
      }
    }
  },
  "userdoc": {
    "methods": {}
  }
}