{
  "contractName": "Simple",
  "abi": [
    {
      "constant": false,
      "inputs": [
        {
          "internalType": "uint256",
          "name": "nbr",
          "type": "uint256"
        }
      ],
      "name": "set",
      "outputs": [],
      "payable": false,
      "stateMutability": "nonpayable",
      "type": "function"
    },
    {
      "constant": true,
      "inputs": [],
      "name": "get",
      "outputs": [
        {
          "internalType": "uint256",
          "name": "nbr",
          "type": "uint256"
        },
        {
          "internalType": "address",
          "name": "sender",
          "type": "address"
        }
      ],
      "payable": false,
      "stateMutability": "view",
      "type": "function"
    },
    {
      "constant": true,
      "inputs": [
        {
          "internalType": "address",
          "name": "",
          "type": "address"
        },
        {
          "internalType": "address",
          "name": "",
          "type": "address"
        },
        {
          "internalType": "uint256",
          "name": "",
          "type": "uint256"
        },
        {
          "internalType": "bytes",
          "name": "",
          "type": "bytes"
        }
      ],
      "name": "onERC721Received",
      "outputs": [
        {
          "internalType": "bytes4",
          "name": "",
          "type": "bytes4"
        }
      ],
      "payable": false,
      "stateMutability": "pure",
      "type": "function"
    }
  ],
  "bytecode": "0x60806040526000805534801561001457600080fd5b506102a0806100246000396000f3fe608060405234801561001057600080fd5b50600436106100415760003560e01c8063150b7a021461004657806360fe47b11461015b5780636d4ce63c14610189575b600080fd5b6101076004803603608081101561005c57600080fd5b81019080803573ffffffffffffffffffffffffffffffffffffffff169060200190929190803573ffffffffffffffffffffffffffffffffffffffff16906020019092919080359060200190929190803590602001906401000000008111156100c357600080fd5b8201836020820111156100d557600080fd5b803590602001918460018302840111640100000000831117156100f757600080fd5b90919293919293905050506101da565b60405180827bffffffffffffffffffffffffffffffffffffffffffffffffffffffff19167bffffffffffffffffffffffffffffffffffffffffffffffffffffffff1916815260200191505060405180910390f35b6101876004803603602081101561017157600080fd5b81019080803590602001909291905050506101ef565b005b61019161023a565b604051808381526020018273ffffffffffffffffffffffffffffffffffffffff1673ffffffffffffffffffffffffffffffffffffffff1681526020019250505060405180910390f35b600063150b7a0260e01b905095945050505050565b8060008190555033600160006101000a81548173ffffffffffffffffffffffffffffffffffffffff021916908373ffffffffffffffffffffffffffffffffffffffff16021790555050565b6000806000549150600160009054906101000a900473ffffffffffffffffffffffffffffffffffffffff169050909156fea265627a7a72315820effdc3a86963f173847aed363f065822d4a4dd64a422f89c9130d062ee235a5c64736f6c634300050c0032",
  "source": "pragma solidity 0.5.12;\n\ncontract Simple {\n  uint256 internal _nbr = 0;\n  address internal _sender;\n\n  function set(uint256 nbr) external {\n    _nbr = nbr;\n    _sender = msg.sender;\n  }\n\n  function get() external view returns (uint256 nbr, address sender) {\n    nbr = _nbr;\n    sender = _sender;\n  }\n\n  function onERC721Received(address, address, uint256, bytes calldata) external pure returns (bytes4) {\n    return 0x150b7a02;\n  }\n}\n",
  "sourcePath": "/Users/derain/Projects/un-dot-crypto/contracts/util/Simple.sol",
  "compiler": {
    "name": "solc",
    "version": "0.5.12+commit.7709ece9.Emscripten.clang"
  },
  "schemaVersion": "3.0.16",
  "updatedAt": "2020-05-21T10:43:06.682Z",
  "devdoc": {
    "methods": {}
  },
  "userdoc": {
    "methods": {}
  }
}