{
  "contractName": "TwitterValidationOperator",
  "abi": [
    {
      "inputs": [
        {
          "internalType": "contract IRegistry",
          "name": "_registry",
          "type": "address"
        },
        {
          "internalType": "contract LinkTokenInterface",
          "name": "_linkToken",
          "type": "address"
        },
        {
          "internalType": "address[]",
          "name": "_paymentCappers",
          "type": "address[]"
        }
      ],
      "payable": false,
      "stateMutability": "nonpayable",
      "type": "constructor"
    },
    {
      "anonymous": false,
      "inputs": [
        {
          "indexed": true,
          "internalType": "address",
          "name": "account",
          "type": "address"
        }
      ],
      "name": "CapperAdded",
      "type": "event"
    },
    {
      "anonymous": false,
      "inputs": [
        {
          "indexed": true,
          "internalType": "address",
          "name": "account",
          "type": "address"
        }
      ],
      "name": "CapperRemoved",
      "type": "event"
    },
    {
      "anonymous": false,
      "inputs": [
        {
          "indexed": false,
          "internalType": "uint256",
          "name": "operatorPaymentPerValidation",
          "type": "uint256"
        },
        {
          "indexed": false,
          "internalType": "uint256",
          "name": "userPaymentPerValidation",
          "type": "uint256"
        }
      ],
      "name": "PaymentSet",
      "type": "event"
    },
    {
      "anonymous": false,
      "inputs": [
        {
          "indexed": true,
          "internalType": "uint256",
          "name": "tokenId",
          "type": "uint256"
        },
        {
          "indexed": false,
          "internalType": "uint256",
          "name": "requestId",
          "type": "uint256"
        },
        {
          "indexed": false,
          "internalType": "uint256",
          "name": "paymentAmount",
          "type": "uint256"
        }
      ],
      "name": "Validation",
      "type": "event"
    },
    {
      "anonymous": false,
      "inputs": [
        {
          "indexed": true,
          "internalType": "uint256",
          "name": "tokenId",
          "type": "uint256"
        },
        {
          "indexed": true,
          "internalType": "address",
          "name": "owner",
          "type": "address"
        },
        {
          "indexed": false,
          "internalType": "uint256",
          "name": "requestId",
          "type": "uint256"
        },
        {
          "indexed": false,
          "internalType": "string",
          "name": "code",
          "type": "string"
        }
      ],
      "name": "ValidationRequest",
      "type": "event"
    },
    {
      "anonymous": false,
      "inputs": [
        {
          "indexed": true,
          "internalType": "address",
          "name": "account",
          "type": "address"
        }
      ],
      "name": "WhitelistAdminAdded",
      "type": "event"
    },
    {
      "anonymous": false,
      "inputs": [
        {
          "indexed": true,
          "internalType": "address",
          "name": "account",
          "type": "address"
        }
      ],
      "name": "WhitelistAdminRemoved",
      "type": "event"
    },
    {
      "anonymous": false,
      "inputs": [
        {
          "indexed": true,
          "internalType": "address",
          "name": "account",
          "type": "address"
        }
      ],
      "name": "WhitelistedAdded",
      "type": "event"
    },
    {
      "anonymous": false,
      "inputs": [
        {
          "indexed": true,
          "internalType": "address",
          "name": "account",
          "type": "address"
        }
      ],
      "name": "WhitelistedRemoved",
      "type": "event"
    },
    {
      "constant": true,
      "inputs": [],
      "name": "NAME",
      "outputs": [
        {
          "internalType": "string",
          "name": "",
          "type": "string"
        }
      ],
      "payable": false,
      "stateMutability": "view",
      "type": "function"
    },
    {
      "constant": true,
      "inputs": [],
      "name": "VERSION",
      "outputs": [
        {
          "internalType": "string",
          "name": "",
          "type": "string"
        }
      ],
      "payable": false,
      "stateMutability": "view",
      "type": "function"
    },
    {
      "constant": false,
      "inputs": [
        {
          "internalType": "address",
          "name": "account",
          "type": "address"
        }
      ],
      "name": "addCapper",
      "outputs": [],
      "payable": false,
      "stateMutability": "nonpayable",
      "type": "function"
    },
    {
      "constant": false,
      "inputs": [
        {
          "internalType": "address",
          "name": "account",
          "type": "address"
        }
      ],
      "name": "addWhitelistAdmin",
      "outputs": [],
      "payable": false,
      "stateMutability": "nonpayable",
      "type": "function"
    },
    {
      "constant": false,
      "inputs": [
        {
          "internalType": "address",
          "name": "account",
          "type": "address"
        }
      ],
      "name": "addWhitelisted",
      "outputs": [],
      "payable": false,
      "stateMutability": "nonpayable",
      "type": "function"
    },
    {
      "constant": true,
      "inputs": [
        {
          "internalType": "address",
          "name": "account",
          "type": "address"
        }
      ],
      "name": "isCapper",
      "outputs": [
        {
          "internalType": "bool",
          "name": "",
          "type": "bool"
        }
      ],
      "payable": false,
      "stateMutability": "view",
      "type": "function"
    },
    {
      "constant": true,
      "inputs": [
        {
          "internalType": "address",
          "name": "account",
          "type": "address"
        }
      ],
      "name": "isWhitelistAdmin",
      "outputs": [
        {
          "internalType": "bool",
          "name": "",
          "type": "bool"
        }
      ],
      "payable": false,
      "stateMutability": "view",
      "type": "function"
    },
    {
      "constant": true,
      "inputs": [
        {
          "internalType": "address",
          "name": "account",
          "type": "address"
        }
      ],
      "name": "isWhitelisted",
      "outputs": [
        {
          "internalType": "bool",
          "name": "",
          "type": "bool"
        }
      ],
      "payable": false,
      "stateMutability": "view",
      "type": "function"
    },
    {
      "constant": true,
      "inputs": [],
      "name": "operatorPaymentPerValidation",
      "outputs": [
        {
          "internalType": "uint256",
          "name": "",
          "type": "uint256"
        }
      ],
      "payable": false,
      "stateMutability": "view",
      "type": "function"
    },
    {
      "constant": false,
      "inputs": [
        {
          "internalType": "address",
          "name": "account",
          "type": "address"
        }
      ],
      "name": "removeWhitelisted",
      "outputs": [],
      "payable": false,
      "stateMutability": "nonpayable",
      "type": "function"
    },
    {
      "constant": false,
      "inputs": [],
      "name": "renounceCapper",
      "outputs": [],
      "payable": false,
      "stateMutability": "nonpayable",
      "type": "function"
    },
    {
      "constant": false,
      "inputs": [],
      "name": "renounceWhitelistAdmin",
      "outputs": [],
      "payable": false,
      "stateMutability": "nonpayable",
      "type": "function"
    },
    {
      "constant": false,
      "inputs": [],
      "name": "renounceWhitelisted",
      "outputs": [],
      "payable": false,
      "stateMutability": "nonpayable",
      "type": "function"
    },
    {
      "constant": true,
      "inputs": [],
      "name": "userPaymentPerValidation",
      "outputs": [
        {
          "internalType": "uint256",
          "name": "",
          "type": "uint256"
        }
      ],
      "payable": false,
      "stateMutability": "view",
      "type": "function"
    },
    {
      "constant": true,
      "inputs": [],
      "name": "withdrawableTokens",
      "outputs": [
        {
          "internalType": "uint256",
          "name": "",
          "type": "uint256"
        }
      ],
      "payable": false,
      "stateMutability": "view",
      "type": "function"
    },
    {
      "constant": false,
      "inputs": [
        {
          "internalType": "string",
          "name": "_username",
          "type": "string"
        },
        {
          "internalType": "string",
          "name": "_signature",
          "type": "string"
        },
        {
          "internalType": "uint256",
          "name": "_tokenId",
          "type": "uint256"
        },
        {
          "internalType": "uint256",
          "name": "_requestId",
          "type": "uint256"
        }
      ],
      "name": "setValidation",
      "outputs": [],
      "payable": false,
      "stateMutability": "nonpayable",
      "type": "function"
    },
    {
      "constant": true,
      "inputs": [],
      "name": "canSetValidation",
      "outputs": [
        {
          "internalType": "bool",
          "name": "",
          "type": "bool"
        }
      ],
      "payable": false,
      "stateMutability": "view",
      "type": "function"
    },
    {
      "constant": false,
      "inputs": [
        {
          "internalType": "uint256",
          "name": "_operatorPaymentPerValidation",
          "type": "uint256"
        },
        {
          "internalType": "uint256",
          "name": "_userPaymentPerValidation",
          "type": "uint256"
        }
      ],
      "name": "setPaymentPerValidation",
      "outputs": [],
      "payable": false,
      "stateMutability": "nonpayable",
      "type": "function"
    },
    {
      "constant": false,
      "inputs": [
        {
          "internalType": "address",
          "name": "_recipient",
          "type": "address"
        },
        {
          "internalType": "uint256",
          "name": "_amount",
          "type": "uint256"
        }
      ],
      "name": "withdraw",
      "outputs": [],
      "payable": false,
      "stateMutability": "nonpayable",
      "type": "function"
    },
    {
      "constant": false,
      "inputs": [
        {
          "internalType": "address",
          "name": "_sender",
          "type": "address"
        },
        {
          "internalType": "uint256",
          "name": "_value",
          "type": "uint256"
        },
        {
          "internalType": "bytes",
          "name": "_data",
          "type": "bytes"
        }
      ],
      "name": "onTokenTransfer",
      "outputs": [],
      "payable": false,
      "stateMutability": "nonpayable",
      "type": "function"
    },
    {
      "constant": true,
      "inputs": [],
      "name": "availableBalance",
      "outputs": [
        {
          "internalType": "uint256",
          "name": "",
          "type": "uint256"
        }
      ],
      "payable": false,
      "stateMutability": "view",
      "type": "function"
    }
  ],
  "bytecode": "0x608060405260016007553480156200001657600080fd5b50604051620031c9380380620031c983398181016040526200003c919081019062000733565b6200004d336200027060201b60201c565b6200005e33620002d160201b60201c565b600073ffffffffffffffffffffffffffffffffffffffff168373ffffffffffffffffffffffffffffffffffffffff161415620000d1576040517f08c379a0000000000000000000000000000000000000000000000000000000008152600401620000c89062000afe565b60405180910390fd5b600073ffffffffffffffffffffffffffffffffffffffff168273ffffffffffffffffffffffffffffffffffffffff16141562000144576040517f08c379a00000000000000000000000000000000000000000000000000000000081526004016200013b9062000a76565b60405180910390fd5b60008151116200018b576040517f08c379a0000000000000000000000000000000000000000000000000000000008152600401620001829062000aba565b60405180910390fd5b82600960006101000a81548173ffffffffffffffffffffffffffffffffffffffff021916908373ffffffffffffffffffffffffffffffffffffffff16021790555081600a60006101000a81548173ffffffffffffffffffffffffffffffffffffffff021916908373ffffffffffffffffffffffffffffffffffffffff16021790555060008151905060008090505b818110156200025557620002478382815181106200023357fe5b60200260200101516200033260201b60201c565b808060010191505062000219565b50620002666200039960201b60201c565b5050505062000c54565b6200028b816000620003ac60201b6200142d1790919060201c565b8073ffffffffffffffffffffffffffffffffffffffff167f22380c05984257a1cb900161c713dd71d39e74820f1aea43bd3f1bdd2096129960405160405180910390a250565b620002ec816002620003ac60201b6200142d1790919060201c565b8073ffffffffffffffffffffffffffffffffffffffff167fa7555c95b69d4f5cc847881feb4ab2883a1921319e34fa2043747b793d65b36e60405160405180910390a250565b62000343336200045f60201b60201c565b62000385576040517f08c379a00000000000000000000000000000000000000000000000000000000081526004016200037c9062000b20565b60405180910390fd5b6200039681620002d160201b60201c565b50565b620003aa336200048360201b60201c565b565b620003be8282620004e460201b60201c565b1562000401576040517f08c379a0000000000000000000000000000000000000000000000000000000008152600401620003f89062000a54565b60405180910390fd5b60018260000160008373ffffffffffffffffffffffffffffffffffffffff1673ffffffffffffffffffffffffffffffffffffffff16815260200190815260200160002060006101000a81548160ff0219169083151502179055505050565b60006200047c826002620004e460201b620011451790919060201c565b9050919050565b6200049e816002620005af60201b620014d51790919060201c565b8073ffffffffffffffffffffffffffffffffffffffff167f427400d279c506df610224b22ecce89b693fc1865864113f21c8d19c1f0c2a3b60405160405180910390a250565b60008073ffffffffffffffffffffffffffffffffffffffff168273ffffffffffffffffffffffffffffffffffffffff16141562000558576040517f08c379a00000000000000000000000000000000000000000000000000000000081526004016200054f9062000adc565b60405180910390fd5b8260000160008373ffffffffffffffffffffffffffffffffffffffff1673ffffffffffffffffffffffffffffffffffffffff16815260200190815260200160002060009054906101000a900460ff16905092915050565b620005c18282620004e460201b60201c565b62000603576040517f08c379a0000000000000000000000000000000000000000000000000000000008152600401620005fa9062000a98565b60405180910390fd5b60008260000160008373ffffffffffffffffffffffffffffffffffffffff1673ffffffffffffffffffffffffffffffffffffffff16815260200190815260200160002060006101000a81548160ff0219169083151502179055505050565b600081519050620006728162000c06565b92915050565b600082601f8301126200068a57600080fd5b8151620006a16200069b8262000b70565b62000b42565b91508181835260208401935060208101905083856020840282011115620006c757600080fd5b60005b83811015620006fb5781620006e0888262000661565b845260208401935060208301925050600181019050620006ca565b5050505092915050565b600081519050620007168162000c20565b92915050565b6000815190506200072d8162000c3a565b92915050565b6000806000606084860312156200074957600080fd5b6000620007598682870162000705565b93505060206200076c868287016200071c565b925050604084015167ffffffffffffffff8111156200078a57600080fd5b620007988682870162000678565b9150509250925092565b6000620007b1601f8362000b99565b91507f526f6c65733a206163636f756e7420616c72656164792068617320726f6c65006000830152602082019050919050565b6000620007f360358362000b99565b91507f5477697474657256616c69646174696f6e4f70657261746f723a20494e56414c60008301527f49445f4c494e4b5f544f4b454e5f4144445245535300000000000000000000006020830152604082019050919050565b60006200085b60218362000b99565b91507f526f6c65733a206163636f756e7420646f6573206e6f74206861766520726f6c60008301527f65000000000000000000000000000000000000000000000000000000000000006020830152604082019050919050565b6000620008c3602e8362000b99565b91507f5477697474657256616c69646174696f6e4f70657261746f723a204e4f5f434160008301527f50504552535f50524f56494445440000000000000000000000000000000000006020830152604082019050919050565b60006200092b60228362000b99565b91507f526f6c65733a206163636f756e7420697320746865207a65726f20616464726560008301527f73730000000000000000000000000000000000000000000000000000000000006020830152604082019050919050565b60006200099360338362000b99565b91507f5477697474657256616c69646174696f6e4f70657261746f723a20494e56414c60008301527f49445f52454749535452595f41444452455353000000000000000000000000006020830152604082019050919050565b6000620009fb60308362000b99565b91507f436170706572526f6c653a2063616c6c657220646f6573206e6f74206861766560008301527f207468652043617070657220726f6c65000000000000000000000000000000006020830152604082019050919050565b6000602082019050818103600083015262000a6f81620007a2565b9050919050565b6000602082019050818103600083015262000a9181620007e4565b9050919050565b6000602082019050818103600083015262000ab3816200084c565b9050919050565b6000602082019050818103600083015262000ad581620008b4565b9050919050565b6000602082019050818103600083015262000af7816200091c565b9050919050565b6000602082019050818103600083015262000b198162000984565b9050919050565b6000602082019050818103600083015262000b3b81620009ec565b9050919050565b6000604051905081810181811067ffffffffffffffff8211171562000b6657600080fd5b8060405250919050565b600067ffffffffffffffff82111562000b8857600080fd5b602082029050602081019050919050565b600082825260208201905092915050565b600062000bb78262000be6565b9050919050565b600062000bcb8262000baa565b9050919050565b600062000bdf8262000baa565b9050919050565b600073ffffffffffffffffffffffffffffffffffffffff82169050919050565b62000c118162000baa565b811462000c1d57600080fd5b50565b62000c2b8162000bbe565b811462000c3757600080fd5b50565b62000c458162000bd2565b811462000c5157600080fd5b50565b6125658062000c646000396000f3fe608060405234801561001057600080fd5b50600436106101375760003560e01c80638dfbcf36116100b8578063c22739381161007c578063c227393814610300578063cb793ca21461031e578063d6cd94731461033c578063f3fef3a314610346578063f615dcd814610362578063ffa1ad741461037e57610137565b80638dfbcf361461025c578063a3f4df7e14610278578063a4c0ed3614610296578063ab2f0e51146102b2578063bb5f747b146102d057610137565b80634c5a628c116100ff5780634c5a628c146101f25780635d5576f8146101fc57806367a63119146102065780637362d9c8146102225780637fe0a6341461023e57610137565b806310154bad1461013c578063291d95491461015857806337cedfe51461017457806339564561146101925780633af32abf146101c2575b600080fd5b610156600480360361015191908101906116cd565b61039c565b005b610172600480360361016d91908101906116cd565b6103f0565b005b61017c610444565b6040516101899190612082565b60405180910390f35b6101ac60048036036101a791908101906116cd565b6104f5565b6040516101b99190612082565b60405180910390f35b6101dc60048036036101d791908101906116cd565b610512565b6040516101e99190612082565b60405180910390f35b6101fa61052f565b005b61020461053a565b005b610220600480360361021b9190810190611908565b610545565b005b61023c600480360361023791908101906116cd565b6105dc565b005b610246610630565b6040516102539190612329565b60405180910390f35b610276600480360361027191908101906116cd565b610636565b005b61028061068a565b60405161028d919061209d565b60405180910390f35b6102b060048036036102ab919081019061175b565b6106a6565b005b6102ba610b05565b6040516102c79190612329565b60405180910390f35b6102ea60048036036102e591908101906116cd565b610bcb565b6040516102f79190612082565b60405180910390f35b610308610be8565b6040516103159190612329565b60405180910390f35b610326610bee565b6040516103339190612329565b60405180910390f35b610344610bf4565b005b610360600480360361035b919081019061171f565b610bff565b005b61037c600480360361037791908101906117f0565b610d62565b005b610386611003565b604051610393919061209d565b60405180910390f35b6103a533610bcb565b6103e4576040517f08c379a00000000000000000000000000000000000000000000000000000000081526004016103db90612269565b60405180910390fd5b6103ed8161103c565b50565b6103f933610bcb565b610438576040517f08c379a000000000000000000000000000000000000000000000000000000000815260040161042f90612269565b60405180910390fd5b61044181611096565b50565b600061044f33610512565b61048e576040517f08c379a0000000000000000000000000000000000000000000000000000000008152600401610485906122a9565b60405180910390fd5b6104a56003546005546110f090919063ffffffff16565b6104ad610b05565b10156104ee576040517f08c379a00000000000000000000000000000000000000000000000000000000081526004016104e590612229565b60405180910390fd5b6001905090565b600061050b82600261114590919063ffffffff16565b9050919050565b600061052882600161114590919063ffffffff16565b9050919050565b6105383361120d565b565b61054333611267565b565b61054e336104f5565b61058d576040517f08c379a0000000000000000000000000000000000000000000000000000000008152600401610584906122e9565b60405180910390fd5b81600381905550806004819055507f769ee4ccac1531bdb9405bbbafe6505e85c1a11f7d1e758cfcb9768651bcf9b56003546004546040516105d0929190612374565b60405180910390a15050565b6105e533610bcb565b610624576040517f08c379a000000000000000000000000000000000000000000000000000000000815260040161061b90612269565b60405180910390fd5b61062d816112c1565b50565b60055481565b61063f336104f5565b61067e576040517f08c379a0000000000000000000000000000000000000000000000000000000008152600401610675906122e9565b60405180910390fd5b6106878161131b565b50565b6040518060600160405280602581526020016124fe6025913981565b600a60009054906101000a900473ffffffffffffffffffffffffffffffffffffffff1673ffffffffffffffffffffffffffffffffffffffff163373ffffffffffffffffffffffffffffffffffffffff1614610736576040517f08c379a000000000000000000000000000000000000000000000000000000000815260040161072d90612289565b60405180910390fd5b82600454811461077b576040517f08c379a000000000000000000000000000000000000000000000000000000000815260040161077290612164565b60405180910390fd5b60006060848461078e91908101906118b4565b91509150600960009054906101000a900473ffffffffffffffffffffffffffffffffffffffff1673ffffffffffffffffffffffffffffffffffffffff1663430c208188846040518363ffffffff1660e01b81526004016107ef929190612059565b60206040518083038186803b15801561080757600080fd5b505afa15801561081b573d6000803e3d6000fd5b505050506040513d601f19601f8201168201806040525061083f91908101906117c7565b61087e576040517f08c379a000000000000000000000000000000000000000000000000000000000815260040161087590612309565b60405180910390fd5b60008151116108c2576040517f08c379a00000000000000000000000000000000000000000000000000000000081526004016108b9906121a4565b60405180910390fd5b600960009054906101000a900473ffffffffffffffffffffffffffffffffffffffff1673ffffffffffffffffffffffffffffffffffffffff1663430c208130846040518363ffffffff1660e01b815260040161091f929190612059565b60206040518083038186803b15801561093757600080fd5b505afa15801561094b573d6000803e3d6000fd5b505050506040513d601f19601f8201168201806040525061096f91908101906117c7565b6109ae576040517f08c379a00000000000000000000000000000000000000000000000000000000081526004016109a5906122c9565b60405180910390fd5b6109c3866006546110f090919063ffffffff16565b6006819055508560086000600754815260200190815260200160002081905550600960009054906101000a900473ffffffffffffffffffffffffffffffffffffffff1673ffffffffffffffffffffffffffffffffffffffff16636352211e836040518263ffffffff1660e01b8152600401610a3e9190612329565b60206040518083038186803b158015610a5657600080fd5b505afa158015610a6a573d6000803e3d6000fd5b505050506040513d601f19601f82011682018060405250610a8e91908101906116f6565b73ffffffffffffffffffffffffffffffffffffffff16827fc3394c5f6e735c734448afa55eefbce7fa2c55449859aa3f9ab1f6cc6f1922eb60075484604051610ad8929190612344565b60405180910390a3610af660016007546110f090919063ffffffff16565b60078190555050505050505050565b6000610bc6600654600a60009054906101000a900473ffffffffffffffffffffffffffffffffffffffff1673ffffffffffffffffffffffffffffffffffffffff166370a08231306040518263ffffffff1660e01b8152600401610b68919061203e565b60206040518083038186803b158015610b8057600080fd5b505afa158015610b94573d6000803e3d6000fd5b505050506040513d601f19601f82011682018060405250610bb8919081019061188b565b61137590919063ffffffff16565b905090565b6000610be182600061114590919063ffffffff16565b9050919050565b60035481565b60045481565b610bfd33611096565b565b610c0833610bcb565b610c47576040517f08c379a0000000000000000000000000000000000000000000000000000000008152600401610c3e90612269565b60405180910390fd5b80806005541015610c8d576040517f08c379a0000000000000000000000000000000000000000000000000000000008152600401610c8490612144565b60405180910390fd5b610ca28260055461137590919063ffffffff16565b600581905550600a60009054906101000a900473ffffffffffffffffffffffffffffffffffffffff1673ffffffffffffffffffffffffffffffffffffffff1663a9059cbb84846040518363ffffffff1660e01b8152600401610d05929190612059565b602060405180830381600087803b158015610d1f57600080fd5b505af1158015610d33573d6000803e3d6000fd5b505050506040513d601f19601f82011682018060405250610d5791908101906117c7565b610d5d57fe5b505050565b610d6b33610512565b610daa576040517f08c379a0000000000000000000000000000000000000000000000000000000008152600401610da1906122a9565b60405180910390fd5b610dc16003546005546110f090919063ffffffff16565b610dc9610b05565b1015610e0a576040517f08c379a0000000000000000000000000000000000000000000000000000000008152600401610e0190612229565b60405180910390fd5b6000610e15826113cb565b9050610e2c816005546110f090919063ffffffff16565b6005819055506000600960009054906101000a900473ffffffffffffffffffffffffffffffffffffffff1673ffffffffffffffffffffffffffffffffffffffff1663b3f9e4cb856040518263ffffffff1660e01b8152600401610e8f9190612329565b60206040518083038186803b158015610ea757600080fd5b505afa158015610ebb573d6000803e3d6000fd5b505050506040513d601f19601f82011682018060405250610edf91908101906116f6565b90508073ffffffffffffffffffffffffffffffffffffffff166347c816998989876040518463ffffffff1660e01b8152600401610f1e939291906120df565b600060405180830381600087803b158015610f3857600080fd5b505af1158015610f4c573d6000803e3d6000fd5b505050508073ffffffffffffffffffffffffffffffffffffffff166347c816998787876040518463ffffffff1660e01b8152600401610f8d939291906121e4565b600060405180830381600087803b158015610fa757600080fd5b505af1158015610fbb573d6000803e3d6000fd5b50505050837f64308d1f172ca5d2a008c997998c974d7bc7143d883024b4611ad01d01f424608484604051610ff1929190612374565b60405180910390a25050505050505050565b6040518060400160405280600581526020017f302e322e3000000000000000000000000000000000000000000000000000000081525081565b61105081600161142d90919063ffffffff16565b8073ffffffffffffffffffffffffffffffffffffffff167fee1504a83b6d4a361f4c1dc78ab59bfa30d6a3b6612c403e86bb01ef2984295f60405160405180910390a250565b6110aa8160016114d590919063ffffffff16565b8073ffffffffffffffffffffffffffffffffffffffff167f270d9b30cf5b0793bbfd54c9d5b94aeb49462b8148399000265144a8722da6b660405160405180910390a250565b60008082840190508381101561113b576040517f08c379a000000000000000000000000000000000000000000000000000000000815260040161113290612124565b60405180910390fd5b8091505092915050565b60008073ffffffffffffffffffffffffffffffffffffffff168273ffffffffffffffffffffffffffffffffffffffff1614156111b6576040517f08c379a00000000000000000000000000000000000000000000000000000000081526004016111ad90612249565b60405180910390fd5b8260000160008373ffffffffffffffffffffffffffffffffffffffff1673ffffffffffffffffffffffffffffffffffffffff16815260200190815260200160002060009054906101000a900460ff16905092915050565b6112218160006114d590919063ffffffff16565b8073ffffffffffffffffffffffffffffffffffffffff167f0a8eb35e5ca14b3d6f28e4abf2f128dbab231a58b56e89beb5d636115001e16560405160405180910390a250565b61127b8160026114d590919063ffffffff16565b8073ffffffffffffffffffffffffffffffffffffffff167f427400d279c506df610224b22ecce89b693fc1865864113f21c8d19c1f0c2a3b60405160405180910390a250565b6112d581600061142d90919063ffffffff16565b8073ffffffffffffffffffffffffffffffffffffffff167f22380c05984257a1cb900161c713dd71d39e74820f1aea43bd3f1bdd2096129960405160405180910390a250565b61132f81600261142d90919063ffffffff16565b8073ffffffffffffffffffffffffffffffffffffffff167fa7555c95b69d4f5cc847881feb4ab2883a1921319e34fa2043747b793d65b36e60405160405180910390a250565b6000828211156113ba576040517f08c379a00000000000000000000000000000000000000000000000000000000081526004016113b190612184565b60405180910390fd5b600082840390508091505092915050565b60008082111561142257600860008381526020019081526020016000205490506114008160065461137590919063ffffffff16565b6006819055506008600083815260200190815260200160002060009055611428565b60035490505b919050565b6114378282611145565b15611477576040517f08c379a000000000000000000000000000000000000000000000000000000000815260040161146e906120bf565b60405180910390fd5b60018260000160008373ffffffffffffffffffffffffffffffffffffffff1673ffffffffffffffffffffffffffffffffffffffff16815260200190815260200160002060006101000a81548160ff0219169083151502179055505050565b6114df8282611145565b61151e576040517f08c379a0000000000000000000000000000000000000000000000000000000008152600401611515906121c4565b60405180910390fd5b60008260000160008373ffffffffffffffffffffffffffffffffffffffff1673ffffffffffffffffffffffffffffffffffffffff16815260200190815260200160002060006101000a81548160ff0219169083151502179055505050565b60008135905061158b816124b8565b92915050565b6000815190506115a0816124b8565b92915050565b6000815190506115b5816124cf565b92915050565b60008083601f8401126115cd57600080fd5b8235905067ffffffffffffffff8111156115e657600080fd5b6020830191508360018202830111156115fe57600080fd5b9250929050565b60008083601f84011261161757600080fd5b8235905067ffffffffffffffff81111561163057600080fd5b60208301915083600182028301111561164857600080fd5b9250929050565b600082601f83011261166057600080fd5b813561167361166e826123ca565b61239d565b9150808252602083016020830185838301111561168f57600080fd5b61169a838284612465565b50505092915050565b6000813590506116b2816124e6565b92915050565b6000815190506116c7816124e6565b92915050565b6000602082840312156116df57600080fd5b60006116ed8482850161157c565b91505092915050565b60006020828403121561170857600080fd5b600061171684828501611591565b91505092915050565b6000806040838503121561173257600080fd5b60006117408582860161157c565b9250506020611751858286016116a3565b9150509250929050565b6000806000806060858703121561177157600080fd5b600061177f8782880161157c565b9450506020611790878288016116a3565b935050604085013567ffffffffffffffff8111156117ad57600080fd5b6117b9878288016115bb565b925092505092959194509250565b6000602082840312156117d957600080fd5b60006117e7848285016115a6565b91505092915050565b6000806000806000806080878903121561180957600080fd5b600087013567ffffffffffffffff81111561182357600080fd5b61182f89828a01611605565b9650965050602087013567ffffffffffffffff81111561184e57600080fd5b61185a89828a01611605565b9450945050604061186d89828a016116a3565b925050606061187e89828a016116a3565b9150509295509295509295565b60006020828403121561189d57600080fd5b60006118ab848285016116b8565b91505092915050565b600080604083850312156118c757600080fd5b60006118d5858286016116a3565b925050602083013567ffffffffffffffff8111156118f257600080fd5b6118fe8582860161164f565b9150509250929050565b6000806040838503121561191b57600080fd5b6000611929858286016116a3565b925050602061193a858286016116a3565b9150509250929050565b61194d8161241d565b82525050565b61195c8161242f565b82525050565b600061196e838561240c565b935061197b838584612465565b611984836124a7565b840190509392505050565b600061199a82612401565b6119a4818561240c565b93506119b4818560208601612474565b6119bd816124a7565b840191505092915050565b60006119d3826123f6565b6119dd818561240c565b93506119ed818560208601612474565b6119f6816124a7565b840191505092915050565b6000611a0e601f8361240c565b91507f526f6c65733a206163636f756e7420616c72656164792068617320726f6c65006000830152602082019050919050565b6000611a4e60178361240c565b91507f736f6369616c2e747769747465722e757365726e616d650000000000000000006000830152602082019050919050565b6000611a8e601b8361240c565b91507f536166654d6174683a206164646974696f6e206f766572666c6f7700000000006000830152602082019050919050565b6000611ace60348361240c565b91507f5477697474657256616c69646174696f6e4f70657261746f723a20544f4f5f4d60008301527f414e595f544f4b454e535f5245515545535445440000000000000000000000006020830152604082019050919050565b6000611b3460328361240c565b91507f5477697474657256616c69646174696f6e4f70657261746f723a20494e434f5260008301527f524543545f544f4b454e535f414d4f554e5400000000000000000000000000006020830152604082019050919050565b6000611b9a601e8361240c565b91507f536166654d6174683a207375627472616374696f6e206f766572666c6f7700006000830152602082019050919050565b6000611bda60288361240c565b91507f5477697474657256616c69646174696f6e4f70657261746f723a20434f44455f60008301527f49535f454d5054590000000000000000000000000000000000000000000000006020830152604082019050919050565b6000611c4060218361240c565b91507f526f6c65733a206163636f756e7420646f6573206e6f74206861766520726f6c60008301527f65000000000000000000000000000000000000000000000000000000000000006020830152604082019050919050565b6000611ca660228361240c565b91507f76616c69646174696f6e2e736f6369616c2e747769747465722e757365726e6160008301527f6d650000000000000000000000000000000000000000000000000000000000006020830152604082019050919050565b6000611d0c60408361240c565b91507f5477697474657256616c69646174696f6e4f70657261746f723a204e4f545f4560008301527f4e4f5547485f544f4b454e535f4f4e5f434f4e54524143545f42414c414e43456020830152604082019050919050565b6000611d7260228361240c565b91507f526f6c65733a206163636f756e7420697320746865207a65726f20616464726560008301527f73730000000000000000000000000000000000000000000000000000000000006020830152604082019050919050565b6000611dd860408361240c565b91507f57686974656c69737441646d696e526f6c653a2063616c6c657220646f65732060008301527f6e6f742068617665207468652057686974656c69737441646d696e20726f6c656020830152604082019050919050565b6000611e3e60388361240c565b91507f5477697474657256616c69646174696f6e4f70657261746f723a2043414e5f4360008301527f414c4c5f46524f4d5f4c494e4b5f544f4b454e5f4f4e4c5900000000000000006020830152604082019050919050565b6000611ea4603a8361240c565b91507f57686974656c6973746564526f6c653a2063616c6c657220646f6573206e6f7460008301527f2068617665207468652057686974656c697374656420726f6c650000000000006020830152604082019050919050565b6000611f0a60368361240c565b91507f5477697474657256616c69646174696f6e4f70657261746f723a204f5045524160008301527f544f525f53484f554c445f42455f415050524f564544000000000000000000006020830152604082019050919050565b6000611f7060308361240c565b91507f436170706572526f6c653a2063616c6c657220646f6573206e6f74206861766560008301527f207468652043617070657220726f6c65000000000000000000000000000000006020830152604082019050919050565b6000611fd660408361240c565b91507f5477697474657256616c69646174696f6e4f70657261746f723a2053454e444560008301527f525f444f45535f4e4f545f484156455f4143434553535f544f5f444f4d41494e6020830152604082019050919050565b6120388161245b565b82525050565b60006020820190506120536000830184611944565b92915050565b600060408201905061206e6000830185611944565b61207b602083018461202f565b9392505050565b60006020820190506120976000830184611953565b92915050565b600060208201905081810360008301526120b781846119c8565b905092915050565b600060208201905081810360008301526120d881611a01565b9050919050565b600060608201905081810360008301526120f881611a41565b9050818103602083015261210d818587611962565b905061211c604083018461202f565b949350505050565b6000602082019050818103600083015261213d81611a81565b9050919050565b6000602082019050818103600083015261215d81611ac1565b9050919050565b6000602082019050818103600083015261217d81611b27565b9050919050565b6000602082019050818103600083015261219d81611b8d565b9050919050565b600060208201905081810360008301526121bd81611bcd565b9050919050565b600060208201905081810360008301526121dd81611c33565b9050919050565b600060608201905081810360008301526121fd81611c99565b90508181036020830152612212818587611962565b9050612221604083018461202f565b949350505050565b6000602082019050818103600083015261224281611cff565b9050919050565b6000602082019050818103600083015261226281611d65565b9050919050565b6000602082019050818103600083015261228281611dcb565b9050919050565b600060208201905081810360008301526122a281611e31565b9050919050565b600060208201905081810360008301526122c281611e97565b9050919050565b600060208201905081810360008301526122e281611efd565b9050919050565b6000602082019050818103600083015261230281611f63565b9050919050565b6000602082019050818103600083015261232281611fc9565b9050919050565b600060208201905061233e600083018461202f565b92915050565b6000604082019050612359600083018561202f565b818103602083015261236b818461198f565b90509392505050565b6000604082019050612389600083018561202f565b612396602083018461202f565b9392505050565b6000604051905081810181811067ffffffffffffffff821117156123c057600080fd5b8060405250919050565b600067ffffffffffffffff8211156123e157600080fd5b601f19601f8301169050602081019050919050565b600081519050919050565b600081519050919050565b600082825260208201905092915050565b60006124288261243b565b9050919050565b60008115159050919050565b600073ffffffffffffffffffffffffffffffffffffffff82169050919050565b6000819050919050565b82818337600083830152505050565b60005b83811015612492578082015181840152602081019050612477565b838111156124a1576000848401525b50505050565b6000601f19601f8301169050919050565b6124c18161241d565b81146124cc57600080fd5b50565b6124d88161242f565b81146124e357600080fd5b50565b6124ef8161245b565b81146124fa57600080fd5b5056fe436861696e6c696e6b20547769747465722056616c69646174696f6e204f70657261746f72a365627a7a723158204805b6f42db2c88c727a04b32de19fcec97b3cae79fbc744d1670b5bf68f684b6c6578706572696d656e74616cf564736f6c634300050c0040",
  "source": "pragma solidity 0.5.12;\npragma experimental ABIEncoderV2;\n\nimport \"@openzeppelin/contracts/access/roles/WhitelistedRole.sol\";\nimport \"@openzeppelin/contracts/access/roles/CapperRole.sol\";\nimport \"@openzeppelin/contracts/math/SafeMath.sol\";\nimport \"@chainlink/contracts/src/v0.5/interfaces/LinkTokenInterface.sol\";\nimport \"../util/ERC677Receiver.sol\";\nimport \"../IRegistry.sol\";\nimport \"../IResolver.sol\";\n\ncontract TwitterValidationOperator is WhitelistedRole, CapperRole, ERC677Receiver {\n    string public constant NAME = 'Chainlink Twitter Validation Operator';\n    string public constant VERSION = '0.2.0';\n\n    using SafeMath for uint256;\n\n    event Validation(uint256 indexed tokenId, uint256 requestId, uint256 paymentAmount);\n    event ValidationRequest(uint256 indexed tokenId, address indexed owner, uint256 requestId, string code);\n    event PaymentSet(uint256 operatorPaymentPerValidation, uint256 userPaymentPerValidation);\n\n    uint256 public operatorPaymentPerValidation;\n    uint256 public userPaymentPerValidation;\n    uint256 public withdrawableTokens;\n\n    uint256 private frozenTokens;\n    uint256 private lastRequestId = 1;\n    mapping(uint256 => uint256) private userRequests;\n    IRegistry private registry;\n    LinkTokenInterface private linkToken;\n\n    /**\n    * @notice Deploy with the address of the LINK token, domains registry and payment amount in LINK for one valiation\n    * @dev Sets the LinkToken address, Registry address and payment in LINK tokens for one validation\n    * @param _registry The address of the .crypto Registry\n    * @param _linkToken The address of the LINK token\n    * @param _paymentCappers Addresses allowed to update payment amount per validation\n    */\n    constructor (IRegistry _registry, LinkTokenInterface _linkToken, address[] memory _paymentCappers) public {\n        require(address(_registry) != address(0), \"TwitterValidationOperator: INVALID_REGISTRY_ADDRESS\");\n        require(address(_linkToken) != address(0), \"TwitterValidationOperator: INVALID_LINK_TOKEN_ADDRESS\");\n        require(_paymentCappers.length > 0, \"TwitterValidationOperator: NO_CAPPERS_PROVIDED\");\n        registry = _registry;\n        linkToken = _linkToken;\n        uint256 cappersCount = _paymentCappers.length;\n        for (uint256 i = 0; i < cappersCount; i++) {\n            addCapper(_paymentCappers[i]);\n        }\n        renounceCapper();\n    }\n\n    /**\n    * @dev Reverts if amount requested is greater than withdrawable balance\n    * @param _amount The given amount to compare to `withdrawableTokens`\n    */\n    modifier hasAvailableFunds(uint256 _amount) {\n        require(withdrawableTokens >= _amount, \"TwitterValidationOperator: TOO_MANY_TOKENS_REQUESTED\");\n        _;\n    }\n\n    /**\n     * @dev Reverts if contract doesn not have enough LINK tokens to fulfil validation\n     */\n    modifier hasAvailableBalance() {\n        require(\n            availableBalance() >= withdrawableTokens.add(operatorPaymentPerValidation),\n            \"TwitterValidationOperator: NOT_ENOUGH_TOKENS_ON_CONTRACT_BALANCE\"\n        );\n        _;\n    }\n\n    /**\n     * @dev Reverts if method called not from LINK token contract\n     */\n    modifier linkTokenOnly() {\n        require(msg.sender == address(linkToken), \"TwitterValidationOperator: CAN_CALL_FROM_LINK_TOKEN_ONLY\");\n        _;\n    }\n\n    /**\n     * @dev Reverts if user sent incorrect amount of LINK tokens\n     */\n    modifier correctTokensAmount(uint256 _value) {\n        require(_value == userPaymentPerValidation, \"TwitterValidationOperator: INCORRECT_TOKENS_AMOUNT\");\n        _;\n    }\n\n    /**\n     * @notice Method will be called by Chainlink node in the end of the job. Provides user twitter name and validation signature\n     * @dev Sets twitter username and signature to .crypto domain records\n     * @param _username Twitter username\n     * @param _signature Signed twitter username. Ensures the validity of twitter username\n     * @param _tokenId Domain token ID\n     * @param _requestId Request id for validations were requested from Smart Contract. If validation was requested from operator `_requestId` should be equals to zero.\n     */\n    function setValidation(string calldata _username, string calldata _signature, uint256 _tokenId, uint256 _requestId)\n    external\n    onlyWhitelisted\n    hasAvailableBalance {\n        uint256 _payment = calculatePaymentForValidation(_requestId);\n        withdrawableTokens = withdrawableTokens.add(_payment);\n        IResolver Resolver = IResolver(registry.resolverOf(_tokenId));\n        Resolver.set(\"social.twitter.username\", _username, _tokenId);\n        Resolver.set(\"validation.social.twitter.username\", _signature, _tokenId);\n        emit Validation(_tokenId, _requestId, _payment);\n    }\n\n    /**\n    * @notice Method returns true if Node Operator able to set validation\n    * @dev Returns true or error\n    */\n    function canSetValidation() external view onlyWhitelisted hasAvailableBalance returns (bool) {\n        return true;\n    }\n\n    /**\n     * @notice Method allows to update payments per one validation in LINK tokens\n     * @dev Sets operatorPaymentPerValidation and userPaymentPerValidation variables\n     * @param _operatorPaymentPerValidation Payment amount in LINK tokens when verification initiated via Operator\n     * @param _userPaymentPerValidation Payment amount in LINK tokens when verification initiated directly by user via Smart Contract call\n     */\n    function setPaymentPerValidation(uint256 _operatorPaymentPerValidation, uint256 _userPaymentPerValidation) external onlyCapper {\n        operatorPaymentPerValidation = _operatorPaymentPerValidation;\n        userPaymentPerValidation = _userPaymentPerValidation;\n        emit PaymentSet(operatorPaymentPerValidation, userPaymentPerValidation);\n    }\n\n    /**\n    * @notice Allows the node operator to withdraw earned LINK to a given address\n    * @dev The owner of the contract can be another wallet and does not have to be a Chainlink node\n    * @param _recipient The address to send the LINK token to\n    * @param _amount The amount to send (specified in wei)\n    */\n    function withdraw(address _recipient, uint256 _amount) external onlyWhitelistAdmin hasAvailableFunds(_amount) {\n        withdrawableTokens = withdrawableTokens.sub(_amount);\n        assert(linkToken.transfer(_recipient, _amount));\n    }\n\n    /**\n    * @notice Initiate Twitter validation\n    * @dev Method invoked when LINK tokens transferred via transferAndCall method. Requires additional encoded data\n    * @param _sender Original token sender\n    * @param _value Tokens amount\n    * @param _data Encoded additional data needed to initiate domain verification: `abi.encode(uint256 tokenId, string code)`\n    */\n    function onTokenTransfer(address _sender, uint256 _value, bytes calldata _data) external linkTokenOnly correctTokensAmount(_value) {\n        (uint256 _tokenId, string memory _code) = abi.decode(_data, (uint256, string));\n        require(registry.isApprovedOrOwner(_sender, _tokenId), \"TwitterValidationOperator: SENDER_DOES_NOT_HAVE_ACCESS_TO_DOMAIN\");\n        require(bytes(_code).length > 0, \"TwitterValidationOperator: CODE_IS_EMPTY\");\n        require(registry.isApprovedOrOwner(address(this), _tokenId), \"TwitterValidationOperator: OPERATOR_SHOULD_BE_APPROVED\");\n        frozenTokens = frozenTokens.add(_value);\n        userRequests[lastRequestId] = _value;\n\n        emit ValidationRequest(_tokenId, registry.ownerOf(_tokenId), lastRequestId, _code);\n        lastRequestId = lastRequestId.add(1);\n    }\n\n    /**\n    * @notice Method returns available LINK tokens balance minus held tokens\n    * @dev Returns tokens amount\n    */\n    function availableBalance() public view returns (uint256) {\n        return linkToken.balanceOf(address(this)).sub(frozenTokens);\n    }\n\n    function calculatePaymentForValidation(uint256 _requestId) private returns (uint256 _paymentPerValidation) {\n        if (_requestId > 0) {// Validation was requested from Smart Contract. We need to search for price in mapping\n            _paymentPerValidation = userRequests[_requestId];\n            frozenTokens = frozenTokens.sub(_paymentPerValidation);\n            delete userRequests[_requestId];\n        } else {\n            _paymentPerValidation = operatorPaymentPerValidation;\n        }\n    }\n}\n",
  "sourcePath": "/Users/aquila/Documents/GitHub/dot-crypto/contracts/operators/TwitterValidationOperator.sol",
  "compiler": {
    "name": "solc",
    "version": "0.5.12+commit.7709ece9.Emscripten.clang"
  },
  "schemaVersion": "3.2.5",
  "updatedAt": "2020-11-24T18:51:57.386Z",
  "devdoc": {
    "methods": {
      "availableBalance()": {
        "details": "Returns tokens amount"
      },
      "canSetValidation()": {
        "details": "Returns true or error"
      },
      "constructor": {
        "details": "Sets the LinkToken address, Registry address and payment in LINK tokens for one validation",
        "params": {
          "_linkToken": "The address of the LINK token",
          "_paymentCappers": "Addresses allowed to update payment amount per validation",
          "_registry": "The address of the .crypto Registry"
        }
      },
      "onTokenTransfer(address,uint256,bytes)": {
        "details": "Method invoked when LINK tokens transferred via transferAndCall method. Requires additional encoded data",
        "params": {
          "_data": "Encoded additional data needed to initiate domain verification: `abi.encode(uint256 tokenId, string code)`",
          "_sender": "Original token sender",
          "_value": "Tokens amount"
        }
      },
      "setPaymentPerValidation(uint256,uint256)": {
        "details": "Sets operatorPaymentPerValidation and userPaymentPerValidation variables",
        "params": {
          "_operatorPaymentPerValidation": "Payment amount in LINK tokens when verification initiated via Operator",
          "_userPaymentPerValidation": "Payment amount in LINK tokens when verification initiated directly by user via Smart Contract call"
        }
      },
      "setValidation(string,string,uint256,uint256)": {
        "details": "Sets twitter username and signature to .crypto domain records",
        "params": {
          "_requestId": "Request id for validations were requested from Smart Contract. If validation was requested from operator `_requestId` should be equals to zero.",
          "_signature": "Signed twitter username. Ensures the validity of twitter username",
          "_tokenId": "Domain token ID",
          "_username": "Twitter username"
        }
      },
      "withdraw(address,uint256)": {
        "details": "The owner of the contract can be another wallet and does not have to be a Chainlink node",
        "params": {
          "_amount": "The amount to send (specified in wei)",
          "_recipient": "The address to send the LINK token to"
        }
      }
    }
  },
  "userdoc": {
    "methods": {
      "availableBalance()": {
        "notice": "Method returns available LINK tokens balance minus held tokens"
      },
      "canSetValidation()": {
        "notice": "Method returns true if Node Operator able to set validation"
      },
      "constructor": "Deploy with the address of the LINK token, domains registry and payment amount in LINK for one valiation",
      "onTokenTransfer(address,uint256,bytes)": {
        "notice": "Initiate Twitter validation"
      },
      "setPaymentPerValidation(uint256,uint256)": {
        "notice": "Method allows to update payments per one validation in LINK tokens"
      },
      "setValidation(string,string,uint256,uint256)": {
        "notice": "Method will be called by Chainlink node in the end of the job. Provides user twitter name and validation signature"
      },
      "withdraw(address,uint256)": {
        "notice": "Allows the node operator to withdraw earned LINK to a given address"
      }
    }
  }
}