{
  "contractName": "WhitelistedMinter",
  "abi": [
    {
      "inputs": [
        {
          "internalType": "contract MintingController",
          "name": "mintingController",
          "type": "address"
        }
      ],
      "payable": false,
      "stateMutability": "nonpayable",
      "type": "constructor"
    },
    {
      "anonymous": false,
      "inputs": [
        {
          "indexed": true,
          "internalType": "address",
          "name": "sender",
          "type": "address"
        },
        {
          "indexed": true,
          "internalType": "address",
          "name": "signer",
          "type": "address"
        },
        {
          "indexed": true,
          "internalType": "bytes4",
          "name": "funcSig",
          "type": "bytes4"
        },
        {
          "indexed": false,
          "internalType": "bytes32",
          "name": "dataHash",
          "type": "bytes32"
        }
      ],
      "name": "Relayed",
      "type": "event"
    },
    {
      "anonymous": false,
      "inputs": [
        {
          "indexed": true,
          "internalType": "address",
          "name": "account",
          "type": "address"
        }
      ],
      "name": "WhitelistAdminAdded",
      "type": "event"
    },
    {
      "anonymous": false,
      "inputs": [
        {
          "indexed": true,
          "internalType": "address",
          "name": "account",
          "type": "address"
        }
      ],
      "name": "WhitelistAdminRemoved",
      "type": "event"
    },
    {
      "anonymous": false,
      "inputs": [
        {
          "indexed": true,
          "internalType": "address",
          "name": "account",
          "type": "address"
        }
      ],
      "name": "WhitelistedAdded",
      "type": "event"
    },
    {
      "anonymous": false,
      "inputs": [
        {
          "indexed": true,
          "internalType": "address",
          "name": "account",
          "type": "address"
        }
      ],
      "name": "WhitelistedRemoved",
      "type": "event"
    },
    {
      "constant": true,
      "inputs": [],
      "name": "NAME",
      "outputs": [
        {
          "internalType": "string",
          "name": "",
          "type": "string"
        }
      ],
      "payable": false,
      "stateMutability": "view",
      "type": "function"
    },
    {
      "constant": true,
      "inputs": [],
      "name": "VERSION",
      "outputs": [
        {
          "internalType": "string",
          "name": "",
          "type": "string"
        }
      ],
      "payable": false,
      "stateMutability": "view",
      "type": "function"
    },
    {
      "constant": false,
      "inputs": [
        {
          "internalType": "address",
          "name": "account",
          "type": "address"
        }
      ],
      "name": "addWhitelistAdmin",
      "outputs": [],
      "payable": false,
      "stateMutability": "nonpayable",
      "type": "function"
    },
    {
      "constant": false,
      "inputs": [
        {
          "internalType": "address",
          "name": "account",
          "type": "address"
        }
      ],
      "name": "addWhitelisted",
      "outputs": [],
      "payable": false,
      "stateMutability": "nonpayable",
      "type": "function"
    },
    {
      "constant": false,
      "inputs": [
        {
          "internalType": "address[]",
          "name": "accounts",
          "type": "address[]"
        }
      ],
      "name": "bulkAddWhitelisted",
      "outputs": [],
      "payable": false,
      "stateMutability": "nonpayable",
      "type": "function"
    },
    {
      "constant": false,
      "inputs": [
        {
          "internalType": "address[]",
          "name": "accounts",
          "type": "address[]"
        }
      ],
      "name": "bulkRemoveWhitelisted",
      "outputs": [],
      "payable": false,
      "stateMutability": "nonpayable",
      "type": "function"
    },
    {
      "constant": true,
      "inputs": [
        {
          "internalType": "address",
          "name": "account",
          "type": "address"
        }
      ],
      "name": "isWhitelistAdmin",
      "outputs": [
        {
          "internalType": "bool",
          "name": "",
          "type": "bool"
        }
      ],
      "payable": false,
      "stateMutability": "view",
      "type": "function"
    },
    {
      "constant": true,
      "inputs": [
        {
          "internalType": "address",
          "name": "account",
          "type": "address"
        }
      ],
      "name": "isWhitelisted",
      "outputs": [
        {
          "internalType": "bool",
          "name": "",
          "type": "bool"
        }
      ],
      "payable": false,
      "stateMutability": "view",
      "type": "function"
    },
    {
      "constant": false,
      "inputs": [
        {
          "internalType": "address",
          "name": "account",
          "type": "address"
        }
      ],
      "name": "removeWhitelisted",
      "outputs": [],
      "payable": false,
      "stateMutability": "nonpayable",
      "type": "function"
    },
    {
      "constant": false,
      "inputs": [],
      "name": "renounceWhitelistAdmin",
      "outputs": [],
      "payable": false,
      "stateMutability": "nonpayable",
      "type": "function"
    },
    {
      "constant": false,
      "inputs": [],
      "name": "renounceWhitelisted",
      "outputs": [],
      "payable": false,
      "stateMutability": "nonpayable",
      "type": "function"
    },
    {
      "constant": false,
      "inputs": [],
      "name": "renounceMinter",
      "outputs": [],
      "payable": false,
      "stateMutability": "nonpayable",
      "type": "function"
    },
    {
      "constant": false,
      "inputs": [
        {
          "internalType": "address payable",
          "name": "receiver",
          "type": "address"
        }
      ],
      "name": "closeWhitelisted",
      "outputs": [],
      "payable": true,
      "stateMutability": "payable",
      "type": "function"
    },
    {
      "constant": false,
      "inputs": [
        {
          "internalType": "address payable",
          "name": "receiver",
          "type": "address"
        }
      ],
      "name": "rotateWhitelisted",
      "outputs": [],
      "payable": true,
      "stateMutability": "payable",
      "type": "function"
    },
    {
      "constant": false,
      "inputs": [
        {
          "internalType": "address",
          "name": "to",
          "type": "address"
        },
        {
          "internalType": "string",
          "name": "label",
          "type": "string"
        }
      ],
      "name": "mintSLD",
      "outputs": [],
      "payable": false,
      "stateMutability": "nonpayable",
      "type": "function"
    },
    {
      "constant": false,
      "inputs": [
        {
          "internalType": "address",
          "name": "to",
          "type": "address"
        },
        {
          "internalType": "string",
          "name": "label",
          "type": "string"
        }
      ],
      "name": "safeMintSLD",
      "outputs": [],
      "payable": false,
      "stateMutability": "nonpayable",
      "type": "function"
    },
    {
      "constant": false,
      "inputs": [
        {
          "internalType": "address",
          "name": "to",
          "type": "address"
        },
        {
          "internalType": "string",
          "name": "label",
          "type": "string"
        },
        {
          "internalType": "bytes",
          "name": "_data",
          "type": "bytes"
        }
      ],
      "name": "safeMintSLD",
      "outputs": [],
      "payable": false,
      "stateMutability": "nonpayable",
      "type": "function"
    },
    {
      "constant": false,
      "inputs": [
        {
          "internalType": "address",
          "name": "to",
          "type": "address"
        },
        {
          "internalType": "string",
          "name": "label",
          "type": "string"
        },
        {
          "internalType": "string[]",
          "name": "keys",
          "type": "string[]"
        },
        {
          "internalType": "string[]",
          "name": "values",
          "type": "string[]"
        }
      ],
      "name": "mintSLDToDefaultResolver",
      "outputs": [],
      "payable": false,
      "stateMutability": "nonpayable",
      "type": "function"
    },
    {
      "constant": false,
      "inputs": [
        {
          "internalType": "address",
          "name": "to",
          "type": "address"
        },
        {
          "internalType": "string",
          "name": "label",
          "type": "string"
        },
        {
          "internalType": "string[]",
          "name": "keys",
          "type": "string[]"
        },
        {
          "internalType": "string[]",
          "name": "values",
          "type": "string[]"
        },
        {
          "internalType": "address",
          "name": "resolver",
          "type": "address"
        }
      ],
      "name": "mintSLDToResolver",
      "outputs": [],
      "payable": false,
      "stateMutability": "nonpayable",
      "type": "function"
    },
    {
      "constant": false,
      "inputs": [
        {
          "internalType": "address",
          "name": "to",
          "type": "address"
        },
        {
          "internalType": "string",
          "name": "label",
          "type": "string"
        },
        {
          "internalType": "string[]",
          "name": "keys",
          "type": "string[]"
        },
        {
          "internalType": "string[]",
          "name": "values",
          "type": "string[]"
        },
        {
          "internalType": "bytes",
          "name": "_data",
          "type": "bytes"
        }
      ],
      "name": "safeMintSLDToDefaultResolver",
      "outputs": [],
      "payable": false,
      "stateMutability": "nonpayable",
      "type": "function"
    },
    {
      "constant": false,
      "inputs": [
        {
          "internalType": "address",
          "name": "to",
          "type": "address"
        },
        {
          "internalType": "string",
          "name": "label",
          "type": "string"
        },
        {
          "internalType": "string[]",
          "name": "keys",
          "type": "string[]"
        },
        {
          "internalType": "string[]",
          "name": "values",
          "type": "string[]"
        }
      ],
      "name": "safeMintSLDToDefaultResolver",
      "outputs": [],
      "payable": false,
      "stateMutability": "nonpayable",
      "type": "function"
    },
    {
      "constant": false,
      "inputs": [
        {
          "internalType": "address",
          "name": "to",
          "type": "address"
        },
        {
          "internalType": "string",
          "name": "label",
          "type": "string"
        },
        {
          "internalType": "string[]",
          "name": "keys",
          "type": "string[]"
        },
        {
          "internalType": "string[]",
          "name": "values",
          "type": "string[]"
        },
        {
          "internalType": "address",
          "name": "resolver",
          "type": "address"
        }
      ],
      "name": "safeMintSLDToResolver",
      "outputs": [],
      "payable": false,
      "stateMutability": "nonpayable",
      "type": "function"
    },
    {
      "constant": false,
      "inputs": [
        {
          "internalType": "address",
          "name": "to",
          "type": "address"
        },
        {
          "internalType": "string",
          "name": "label",
          "type": "string"
        },
        {
          "internalType": "string[]",
          "name": "keys",
          "type": "string[]"
        },
        {
          "internalType": "string[]",
          "name": "values",
          "type": "string[]"
        },
        {
          "internalType": "bytes",
          "name": "_data",
          "type": "bytes"
        },
        {
          "internalType": "address",
          "name": "resolver",
          "type": "address"
        }
      ],
      "name": "safeMintSLDToResolver",
      "outputs": [],
      "payable": false,
      "stateMutability": "nonpayable",
      "type": "function"
    },
    {
      "constant": false,
      "inputs": [
        {
          "internalType": "address",
          "name": "resolver",
          "type": "address"
        }
      ],
      "name": "setDefaultResolver",
      "outputs": [],
      "payable": false,
      "stateMutability": "nonpayable",
      "type": "function"
    },
    {
      "constant": true,
      "inputs": [],
      "name": "getDefaultResolver",
      "outputs": [
        {
          "internalType": "address",
          "name": "",
          "type": "address"
        }
      ],
      "payable": false,
      "stateMutability": "view",
      "type": "function"
    },
    {
      "constant": false,
      "inputs": [
        {
          "internalType": "bytes",
          "name": "data",
          "type": "bytes"
        },
        {
          "internalType": "bytes",
          "name": "signature",
          "type": "bytes"
        }
      ],
      "name": "relay",
      "outputs": [
        {
          "internalType": "bytes",
          "name": "",
          "type": "bytes"
        }
      ],
      "payable": false,
      "stateMutability": "nonpayable",
      "type": "function"
    }
  ],
  "bytecode": "0x60806040523480156200001157600080fd5b5060405162003a3038038062003a308339818101604052620000379190810190620003fd565b62000048336200016360201b60201c565b80600260006101000a81548173ffffffffffffffffffffffffffffffffffffffff021916908373ffffffffffffffffffffffffffffffffffffffff1602179055508073ffffffffffffffffffffffffffffffffffffffff16637b1039996040518163ffffffff1660e01b815260040160206040518083038186803b158015620000d057600080fd5b505afa158015620000e5573d6000803e3d6000fd5b505050506040513d601f19601f820116820180604052506200010b9190810190620003d1565b600460006101000a81548173ffffffffffffffffffffffffffffffffffffffff021916908373ffffffffffffffffffffffffffffffffffffffff1602179055506200015c30620001c460201b60201c565b50620005a4565b6200017e8160006200022560201b62001ce91790919060201c565b8073ffffffffffffffffffffffffffffffffffffffff167f22380c05984257a1cb900161c713dd71d39e74820f1aea43bd3f1bdd2096129960405160405180910390a250565b620001df8160016200022560201b62001ce91790919060201c565b8073ffffffffffffffffffffffffffffffffffffffff167fee1504a83b6d4a361f4c1dc78ab59bfa30d6a3b6612c403e86bb01ef2984295f60405160405180910390a250565b620002378282620002d860201b60201c565b156200027a576040517f08c379a00000000000000000000000000000000000000000000000000000000081526004016200027190620004d3565b60405180910390fd5b60018260000160008373ffffffffffffffffffffffffffffffffffffffff1673ffffffffffffffffffffffffffffffffffffffff16815260200190815260200160002060006101000a81548160ff0219169083151502179055505050565b60008073ffffffffffffffffffffffffffffffffffffffff168273ffffffffffffffffffffffffffffffffffffffff1614156200034c576040517f08c379a00000000000000000000000000000000000000000000000000000000081526004016200034390620004f5565b60405180910390fd5b8260000160008373ffffffffffffffffffffffffffffffffffffffff1673ffffffffffffffffffffffffffffffffffffffff16815260200190815260200160002060009054906101000a900460ff16905092915050565b600081519050620003b48162000570565b92915050565b600081519050620003cb816200058a565b92915050565b600060208284031215620003e457600080fd5b6000620003f484828501620003a3565b91505092915050565b6000602082840312156200041057600080fd5b60006200042084828501620003ba565b91505092915050565b600062000438601f8362000517565b91507f526f6c65733a206163636f756e7420616c72656164792068617320726f6c65006000830152602082019050919050565b60006200047a60228362000517565b91507f526f6c65733a206163636f756e7420697320746865207a65726f20616464726560008301527f73730000000000000000000000000000000000000000000000000000000000006020830152604082019050919050565b60006020820190508181036000830152620004ee8162000429565b9050919050565b6000602082019050818103600083015262000510816200046b565b9050919050565b600082825260208201905092915050565b6000620005358262000550565b9050919050565b6000620005498262000528565b9050919050565b600073ffffffffffffffffffffffffffffffffffffffff82169050919050565b6200057b8162000528565b81146200058757600080fd5b50565b62000595816200053c565b8114620005a157600080fd5b50565b61347c80620005b46000396000f3fe6080604052600436106101815760003560e01c8063898851f8116100d1578063be362e2e1161008a578063f6e491aa11610064578063f6e491aa14610509578063f8a6c3d614610532578063f8a8d0c91461055b578063ffa1ad741461057757610181565b8063be362e2e146104a0578063c66485b2146104c9578063d6cd9473146104f257610181565b8063898851f8146103a657806398650275146103cf578063a3f4df7e146103e6578063aceb476414610411578063b2da29791461043a578063bb5f747b1461046357610181565b80634b18abea1161013e5780634c5a628c116101185780634c5a628c14610300578063564a51581461031757806361050ffd146103545780637362d9c81461037d57610181565b80634b18abea146102855780634b44c01a146102ae5780634c0b0ed2146102d757610181565b806310154bad14610186578063291d9549146101af578063350959be146101d85780633af32abf146101f45780633d7989fe146102315780633efa047f1461025a575b600080fd5b34801561019257600080fd5b506101ad60048036036101a8919081019061221a565b6105a2565b005b3480156101bb57600080fd5b506101d660048036036101d1919081019061221a565b6105f6565b005b6101f260048036036101ed9190810190612243565b61064a565b005b34801561020057600080fd5b5061021b6004803603610216919081019061221a565b610754565b6040516102289190612f42565b60405180910390f35b34801561023d57600080fd5b506102586004803603610253919081019061234d565b610771565b005b34801561026657600080fd5b5061026f6107ee565b60405161027c9190612dd6565b60405180910390f35b34801561029157600080fd5b506102ac60048036036102a791908101906124b7565b610818565b005b3480156102ba57600080fd5b506102d560048036036102d091908101906123f8565b610897565b005b3480156102e357600080fd5b506102fe60048036036102f9919081019061226c565b610983565b005b34801561030c57600080fd5b50610315610a61565b005b34801561032357600080fd5b5061033e600480360361033991908101906126b8565b610a6c565b60405161034b9190612fbd565b60405180910390f35b34801561036057600080fd5b5061037b6004803603610376919081019061234d565b610c54565b005b34801561038957600080fd5b506103a4600480360361039f919081019061221a565b610cd1565b005b3480156103b257600080fd5b506103cd60048036036103c8919081019061258e565b610d25565b005b3480156103db57600080fd5b506103e4610e14565b005b3480156103f257600080fd5b506103fb610ee0565b6040516104089190612fdf565b60405180910390f35b34801561041d57600080fd5b50610438600480360361043391908101906123f8565b610f19565b005b34801561044657600080fd5b50610461600480360361045c919081019061226c565b611005565b005b34801561046f57600080fd5b5061048a6004803603610485919081019061221a565b6110e3565b6040516104979190612f42565b60405180910390f35b3480156104ac57600080fd5b506104c760048036036104c291908101906122c4565b611100565b005b3480156104d557600080fd5b506104f060048036036104eb919081019061221a565b6111e4565b005b3480156104fe57600080fd5b50610507611270565b005b34801561051557600080fd5b50610530600480360361052b9190810190612677565b61127b565b005b34801561053e57600080fd5b5061055960048036036105549190810190612677565b6112ff565b005b61057560048036036105709190810190612243565b611383565b005b34801561058357600080fd5b5061058c611496565b6040516105999190612fdf565b60405180910390f35b6105ab336110e3565b6105ea576040517f08c379a00000000000000000000000000000000000000000000000000000000081526004016105e190613081565b60405180910390fd5b6105f3816114cf565b50565b6105ff336110e3565b61063e576040517f08c379a000000000000000000000000000000000000000000000000000000000815260040161063590613081565b60405180910390fd5b61064781611529565b50565b61065333610754565b610692576040517f08c379a0000000000000000000000000000000000000000000000000000000008152600401610689906130e1565b60405180910390fd5b600073ffffffffffffffffffffffffffffffffffffffff168173ffffffffffffffffffffffffffffffffffffffff161415610702576040517f08c379a00000000000000000000000000000000000000000000000000000000081526004016106f990613021565b60405180910390fd5b61070a611270565b8073ffffffffffffffffffffffffffffffffffffffff166108fc349081150290604051600060405180830381858888f19350505050158015610750573d6000803e3d6000fd5b5050565b600061076a82600161158390919063ffffffff16565b9050919050565b61077a33610754565b6107b9576040517f08c379a00000000000000000000000000000000000000000000000000000000081526004016107b0906130e1565b60405180910390fd5b6107e884848484600360009054906101000a900473ffffffffffffffffffffffffffffffffffffffff16610f19565b50505050565b6000600360009054906101000a900473ffffffffffffffffffffffffffffffffffffffff16905090565b61082133610754565b610860576040517f08c379a0000000000000000000000000000000000000000000000000000000008152600401610857906130e1565b60405180910390fd5b6108908585858585600360009054906101000a900473ffffffffffffffffffffffffffffffffffffffff16610d25565b5050505050565b6108a033610754565b6108df576040517f08c379a00000000000000000000000000000000000000000000000000000000081526004016108d6906130e1565b60405180910390fd5b600260009054906101000a900473ffffffffffffffffffffffffffffffffffffffff1673ffffffffffffffffffffffffffffffffffffffff16638ad364f88686846040518463ffffffff1660e01b815260040161093e93929190612e6c565b600060405180830381600087803b15801561095857600080fd5b505af115801561096c573d6000803e3d6000fd5b5050505061097c8484848461164b565b5050505050565b61098c33610754565b6109cb576040517f08c379a00000000000000000000000000000000000000000000000000000000081526004016109c2906130e1565b60405180910390fd5b600260009054906101000a900473ffffffffffffffffffffffffffffffffffffffff1673ffffffffffffffffffffffffffffffffffffffff16634c0b0ed28484846040518463ffffffff1660e01b8152600401610a2a93929190612df1565b600060405180830381600087803b158015610a4457600080fd5b505af1158015610a58573d6000803e3d6000fd5b50505050505050565b610a6a3361181b565b565b606060008585604051610a80929190612d97565b604051809103902090506000610ada8286868080601f016020809104026020016040519081016040528093929190818152602001838380828437600081840152601f19601f82011690508083019250505050505050611875565b9050606087878080601f016020809104026020016040519081016040528093929190818152602001838380828437600081840152601f19601f8201169050808301925050505050505090506000610b308261197a565b9050600060603073ffffffffffffffffffffffffffffffffffffffff168b8b604051610b5d929190612d97565b6000604051808303816000865af19150503d8060008114610b9a576040519150601f19603f3d011682016040523d82523d6000602084013e610b9f565b606091505b5091509150600015158215151415610bbe576040513d806000833e8082fd5b827bffffffffffffffffffffffffffffffffffffffffffffffffffffffff19168573ffffffffffffffffffffffffffffffffffffffff163373ffffffffffffffffffffffffffffffffffffffff167f9490f91465d0d2c12728b9ad47d5f1dd2ac3ef39394796e54a48b94db0b3372589604051610c3b9190612f5d565b60405180910390a4809650505050505050949350505050565b610c5d33610754565b610c9c576040517f08c379a0000000000000000000000000000000000000000000000000000000008152600401610c93906130e1565b60405180910390fd5b610ccb84848484600360009054906101000a900473ffffffffffffffffffffffffffffffffffffffff16610897565b50505050565b610cda336110e3565b610d19576040517f08c379a0000000000000000000000000000000000000000000000000000000008152600401610d1090613081565b60405180910390fd5b610d2281611c8f565b50565b610d2e33610754565b610d6d576040517f08c379a0000000000000000000000000000000000000000000000000000000008152600401610d64906130e1565b60405180910390fd5b600260009054906101000a900473ffffffffffffffffffffffffffffffffffffffff1673ffffffffffffffffffffffffffffffffffffffff16637caf3ad8878784866040518563ffffffff1660e01b8152600401610dce9493929190612eaa565b600060405180830381600087803b158015610de857600080fd5b505af1158015610dfc573d6000803e3d6000fd5b50505050610e0c8585858461164b565b505050505050565b610e1d336110e3565b610e5c576040517f08c379a0000000000000000000000000000000000000000000000000000000008152600401610e5390613081565b60405180910390fd5b600260009054906101000a900473ffffffffffffffffffffffffffffffffffffffff1673ffffffffffffffffffffffffffffffffffffffff1663986502756040518163ffffffff1660e01b8152600401600060405180830381600087803b158015610ec657600080fd5b505af1158015610eda573d6000803e3d6000fd5b50505050565b6040518060400160405280601e81526020017f556e73746f707061626c652057686974656c6973746564204d696e746572000081525081565b610f2233610754565b610f61576040517f08c379a0000000000000000000000000000000000000000000000000000000008152600401610f58906130e1565b60405180910390fd5b600260009054906101000a900473ffffffffffffffffffffffffffffffffffffffff1673ffffffffffffffffffffffffffffffffffffffff1663c36c21258686846040518463ffffffff1660e01b8152600401610fc093929190612e6c565b600060405180830381600087803b158015610fda57600080fd5b505af1158015610fee573d6000803e3d6000fd5b50505050610ffe8484848461164b565b5050505050565b61100e33610754565b61104d576040517f08c379a0000000000000000000000000000000000000000000000000000000008152600401611044906130e1565b60405180910390fd5b600260009054906101000a900473ffffffffffffffffffffffffffffffffffffffff1673ffffffffffffffffffffffffffffffffffffffff1663b2da29798484846040518463ffffffff1660e01b81526004016110ac93929190612df1565b600060405180830381600087803b1580156110c657600080fd5b505af11580156110da573d6000803e3d6000fd5b50505050505050565b60006110f982600061158390919063ffffffff16565b9050919050565b61110933610754565b611148576040517f08c379a000000000000000000000000000000000000000000000000000000000815260040161113f906130e1565b60405180910390fd5b600260009054906101000a900473ffffffffffffffffffffffffffffffffffffffff1673ffffffffffffffffffffffffffffffffffffffff1663be362e2e86868686866040518663ffffffff1660e01b81526004016111ab959493929190612e23565b600060405180830381600087803b1580156111c557600080fd5b505af11580156111d9573d6000803e3d6000fd5b505050505050505050565b6111ed336110e3565b61122c576040517f08c379a000000000000000000000000000000000000000000000000000000000815260040161122390613081565b60405180910390fd5b80600360006101000a81548173ffffffffffffffffffffffffffffffffffffffff021916908373ffffffffffffffffffffffffffffffffffffffff16021790555050565b61127933611529565b565b611284336110e3565b6112c3576040517f08c379a00000000000000000000000000000000000000000000000000000000081526004016112ba90613081565b60405180910390fd5b60008090505b81518110156112fb576112ee8282815181106112e157fe5b60200260200101516114cf565b80806001019150506112c9565b5050565b611308336110e3565b611347576040517f08c379a000000000000000000000000000000000000000000000000000000000815260040161133e90613081565b60405180910390fd5b60008090505b815181101561137f5761137282828151811061136557fe5b6020026020010151611529565b808060010191505061134d565b5050565b61138c33610754565b6113cb576040517f08c379a00000000000000000000000000000000000000000000000000000000081526004016113c2906130e1565b60405180910390fd5b600073ffffffffffffffffffffffffffffffffffffffff168173ffffffffffffffffffffffffffffffffffffffff16141561143b576040517f08c379a000000000000000000000000000000000000000000000000000000000815260040161143290613021565b60405180910390fd5b611444816114cf565b61144c611270565b8073ffffffffffffffffffffffffffffffffffffffff166108fc349081150290604051600060405180830381858888f19350505050158015611492573d6000803e3d6000fd5b5050565b6040518060400160405280600581526020017f302e332e3000000000000000000000000000000000000000000000000000000081525081565b6114e3816001611ce990919063ffffffff16565b8073ffffffffffffffffffffffffffffffffffffffff167fee1504a83b6d4a361f4c1dc78ab59bfa30d6a3b6612c403e86bb01ef2984295f60405160405180910390a250565b61153d816001611d9190919063ffffffff16565b8073ffffffffffffffffffffffffffffffffffffffff167f270d9b30cf5b0793bbfd54c9d5b94aeb49462b8148399000265144a8722da6b660405160405180910390a250565b60008073ffffffffffffffffffffffffffffffffffffffff168273ffffffffffffffffffffffffffffffffffffffff1614156115f4576040517f08c379a00000000000000000000000000000000000000000000000000000000081526004016115eb90613061565b60405180910390fd5b8260000160008373ffffffffffffffffffffffffffffffffffffffff1673ffffffffffffffffffffffffffffffffffffffff16815260200190815260200160002060009054906101000a900460ff16905092915050565b60008351141561165a57611815565b8073ffffffffffffffffffffffffffffffffffffffff1663e837ae748484600460009054906101000a900473ffffffffffffffffffffffffffffffffffffffff1673ffffffffffffffffffffffffffffffffffffffff166368b62d32600460009054906101000a900473ffffffffffffffffffffffffffffffffffffffff1673ffffffffffffffffffffffffffffffffffffffff1663ebf0c7176040518163ffffffff1660e01b815260040160206040518083038186803b15801561171e57600080fd5b505afa158015611732573d6000803e3d6000fd5b505050506040513d601f19601f82011682018060405250611756919081019061272d565b8a6040518363ffffffff1660e01b8152600401611774929190613121565b60206040518083038186803b15801561178c57600080fd5b505afa1580156117a0573d6000803e3d6000fd5b505050506040513d601f19601f820116820180604052506117c4919081019061272d565b6040518463ffffffff1660e01b81526004016117e293929190612efd565b600060405180830381600087803b1580156117fc57600080fd5b505af1158015611810573d6000803e3d6000fd5b505050505b50505050565b61182f816000611d9190919063ffffffff16565b8073ffffffffffffffffffffffffffffffffffffffff167f0a8eb35e5ca14b3d6f28e4abf2f128dbab231a58b56e89beb5d636115001e16560405160405180910390a250565b60006118ba826118ac8530604051602001611891929190612d6b565b60405160208183030381529060405280519060200120611e38565b611e6890919063ffffffff16565b9050600073ffffffffffffffffffffffffffffffffffffffff168173ffffffffffffffffffffffffffffffffffffffff16141561192c576040517f08c379a0000000000000000000000000000000000000000000000000000000008152600401611923906130a1565b60405180910390fd5b61193581610754565b611974576040517f08c379a000000000000000000000000000000000000000000000000000000000815260040161196b90613101565b60405180910390fd5b92915050565b60008060200182015190506000634c0b0ed260e01b7bffffffffffffffffffffffffffffffffffffffffffffffffffffffff1916827bffffffffffffffffffffffffffffffffffffffffffffffffffffffff19161480611a1e5750633d7989fe60e01b7bffffffffffffffffffffffffffffffffffffffffffffffffffffffff1916827bffffffffffffffffffffffffffffffffffffffffffffffffffffffff1916145b80611a6d575063aceb476460e01b7bffffffffffffffffffffffffffffffffffffffffffffffffffffffff1916827bffffffffffffffffffffffffffffffffffffffffffffffffffffffff1916145b80611abc575063b2da297960e01b7bffffffffffffffffffffffffffffffffffffffffffffffffffffffff1916827bffffffffffffffffffffffffffffffffffffffffffffffffffffffff1916145b80611b0b575063be362e2e60e01b7bffffffffffffffffffffffffffffffffffffffffffffffffffffffff1916827bffffffffffffffffffffffffffffffffffffffffffffffffffffffff1916145b80611b5a57506361050ffd60e01b7bffffffffffffffffffffffffffffffffffffffffffffffffffffffff1916827bffffffffffffffffffffffffffffffffffffffffffffffffffffffff1916145b80611ba95750634b18abea60e01b7bffffffffffffffffffffffffffffffffffffffffffffffffffffffff1916827bffffffffffffffffffffffffffffffffffffffffffffffffffffffff1916145b80611bf85750634b44c01a60e01b7bffffffffffffffffffffffffffffffffffffffffffffffffffffffff1916827bffffffffffffffffffffffffffffffffffffffffffffffffffffffff1916145b80611c47575063898851f860e01b7bffffffffffffffffffffffffffffffffffffffffffffffffffffffff1916827bffffffffffffffffffffffffffffffffffffffffffffffffffffffff1916145b905080611c89576040517f08c379a0000000000000000000000000000000000000000000000000000000008152600401611c80906130c1565b60405180910390fd5b50919050565b611ca3816000611ce990919063ffffffff16565b8073ffffffffffffffffffffffffffffffffffffffff167f22380c05984257a1cb900161c713dd71d39e74820f1aea43bd3f1bdd2096129960405160405180910390a250565b611cf38282611583565b15611d33576040517f08c379a0000000000000000000000000000000000000000000000000000000008152600401611d2a90613001565b60405180910390fd5b60018260000160008373ffffffffffffffffffffffffffffffffffffffff1673ffffffffffffffffffffffffffffffffffffffff16815260200190815260200160002060006101000a81548160ff0219169083151502179055505050565b611d9b8282611583565b611dda576040517f08c379a0000000000000000000000000000000000000000000000000000000008152600401611dd190613041565b60405180910390fd5b60008260000160008373ffffffffffffffffffffffffffffffffffffffff1673ffffffffffffffffffffffffffffffffffffffff16815260200190815260200160002060006101000a81548160ff0219169083151502179055505050565b600081604051602001611e4b9190612db0565b604051602081830303815290604052805190602001209050919050565b60006041825114611e7c5760009050611f4e565b60008060006020850151925060408501519150606085015160001a90507f7fffffffffffffffffffffffffffffff5d576e7357a4501ddfe92f46681b20a08260001c1115611ed05760009350505050611f4e565b601b8160ff1614158015611ee85750601c8160ff1614155b15611ef95760009350505050611f4e565b60018682858560405160008152602001604052604051611f1c9493929190612f78565b6020604051602081039080840390855afa158015611f3e573d6000803e3d6000fd5b5050506020604051035193505050505b92915050565b600081359050611f63816133f4565b92915050565b600081359050611f788161340b565b92915050565b600082601f830112611f8f57600080fd5b8135611fa2611f9d8261317e565b613151565b91508181835260208401935060208101905083856020840282011115611fc757600080fd5b60005b83811015611ff75781611fdd8882611f54565b845260208401935060208301925050600181019050611fca565b5050505092915050565b600082601f83011261201257600080fd5b8135612025612020826131a6565b613151565b9150818183526020840193506020810190508360005b8381101561206b5781358601612051888261215d565b84526020840193506020830192505060018101905061203b565b5050505092915050565b60008083601f84011261208757600080fd5b8235905067ffffffffffffffff8111156120a057600080fd5b6020830191508360018202830111156120b857600080fd5b9250929050565b600082601f8301126120d057600080fd5b81356120e36120de826131ce565b613151565b915080825260208301602083018583830111156120ff57600080fd5b61210a838284613366565b50505092915050565b60008083601f84011261212557600080fd5b8235905067ffffffffffffffff81111561213e57600080fd5b60208301915083600182028301111561215657600080fd5b9250929050565b600082601f83011261216e57600080fd5b813561218161217c826131fa565b613151565b9150808252602083016020830185838301111561219d57600080fd5b6121a8838284613366565b50505092915050565b600082601f8301126121c257600080fd5b81356121d56121d082613226565b613151565b915080825260208301602083018583830111156121f157600080fd5b6121fc838284613366565b50505092915050565b60008151905061221481613422565b92915050565b60006020828403121561222c57600080fd5b600061223a84828501611f54565b91505092915050565b60006020828403121561225557600080fd5b600061226384828501611f69565b91505092915050565b60008060006040848603121561228157600080fd5b600061228f86828701611f54565b935050602084013567ffffffffffffffff8111156122ac57600080fd5b6122b886828701612113565b92509250509250925092565b6000806000806000606086880312156122dc57600080fd5b60006122ea88828901611f54565b955050602086013567ffffffffffffffff81111561230757600080fd5b61231388828901612113565b9450945050604086013567ffffffffffffffff81111561233257600080fd5b61233e88828901612075565b92509250509295509295909350565b6000806000806080858703121561236357600080fd5b600061237187828801611f54565b945050602085013567ffffffffffffffff81111561238e57600080fd5b61239a878288016121b1565b935050604085013567ffffffffffffffff8111156123b757600080fd5b6123c387828801612001565b925050606085013567ffffffffffffffff8111156123e057600080fd5b6123ec87828801612001565b91505092959194509250565b600080600080600060a0868803121561241057600080fd5b600061241e88828901611f54565b955050602086013567ffffffffffffffff81111561243b57600080fd5b612447888289016121b1565b945050604086013567ffffffffffffffff81111561246457600080fd5b61247088828901612001565b935050606086013567ffffffffffffffff81111561248d57600080fd5b61249988828901612001565b92505060806124aa88828901611f54565b9150509295509295909350565b600080600080600060a086880312156124cf57600080fd5b60006124dd88828901611f54565b955050602086013567ffffffffffffffff8111156124fa57600080fd5b612506888289016121b1565b945050604086013567ffffffffffffffff81111561252357600080fd5b61252f88828901612001565b935050606086013567ffffffffffffffff81111561254c57600080fd5b61255888828901612001565b925050608086013567ffffffffffffffff81111561257557600080fd5b612581888289016120bf565b9150509295509295909350565b60008060008060008060c087890312156125a757600080fd5b60006125b589828a01611f54565b965050602087013567ffffffffffffffff8111156125d257600080fd5b6125de89828a016121b1565b955050604087013567ffffffffffffffff8111156125fb57600080fd5b61260789828a01612001565b945050606087013567ffffffffffffffff81111561262457600080fd5b61263089828a01612001565b935050608087013567ffffffffffffffff81111561264d57600080fd5b61265989828a016120bf565b92505060a061266a89828a01611f54565b9150509295509295509295565b60006020828403121561268957600080fd5b600082013567ffffffffffffffff8111156126a357600080fd5b6126af84828501611f7e565b91505092915050565b600080600080604085870312156126ce57600080fd5b600085013567ffffffffffffffff8111156126e857600080fd5b6126f487828801612075565b9450945050602085013567ffffffffffffffff81111561271357600080fd5b61271f87828801612075565b925092505092959194509250565b60006020828403121561273f57600080fd5b600061274d84828501612205565b91505092915050565b6000612762838361292b565b905092915050565b612773816132f5565b82525050565b61278a612785826132f5565b6133a8565b82525050565b600061279b82613262565b6127a5818561329b565b9350836020820285016127b785613252565b8060005b858110156127f357848403895281516127d48582612756565b94506127df8361328e565b925060208a019950506001810190506127bb565b50829750879550505050505092915050565b61280e81613319565b82525050565b61281d81613325565b82525050565b61283461282f82613325565b6133ba565b82525050565b600061284683856132ac565b9350612853838584613366565b61285c836133d6565b840190509392505050565b600061287383856132bd565b9350612880838584613366565b82840190509392505050565b60006128978261326d565b6128a181856132ac565b93506128b1818560208601613375565b6128ba816133d6565b840191505092915050565b60006128d183856132d9565b93506128de838584613366565b6128e7836133d6565b840190509392505050565b60006128fd82613283565b61290781856132d9565b9350612917818560208601613375565b612920816133d6565b840191505092915050565b600061293682613278565b61294081856132c8565b9350612950818560208601613375565b612959816133d6565b840191505092915050565b600061296f82613278565b61297981856132d9565b9350612989818560208601613375565b612992816133d6565b840191505092915050565b60006129aa601f836132d9565b91507f526f6c65733a206163636f756e7420616c72656164792068617320726f6c65006000830152602082019050919050565b60006129ea601c836132ea565b91507f19457468657265756d205369676e6564204d6573736167653a0a3332000000006000830152601c82019050919050565b6000612a2a6024836132d9565b91507f57686974656c69737465644d696e7465723a2052454345495645525f49535f4560008301527f4d505459000000000000000000000000000000000000000000000000000000006020830152604082019050919050565b6000612a906021836132d9565b91507f526f6c65733a206163636f756e7420646f6573206e6f74206861766520726f6c60008301527f65000000000000000000000000000000000000000000000000000000000000006020830152604082019050919050565b6000612af66022836132d9565b91507f526f6c65733a206163636f756e7420697320746865207a65726f20616464726560008301527f73730000000000000000000000000000000000000000000000000000000000006020830152604082019050919050565b6000612b5c6040836132d9565b91507f57686974656c69737441646d696e526f6c653a2063616c6c657220646f65732060008301527f6e6f742068617665207468652057686974656c69737441646d696e20726f6c656020830152604082019050919050565b6000612bc26027836132d9565b91507f57686974656c69737465644d696e7465723a205349474e41545552455f49535f60008301527f494e56414c4944000000000000000000000000000000000000000000000000006020830152604082019050919050565b6000612c286023836132d9565b91507f57686974656c69737465644d696e7465723a20554e535550504f525445445f4360008301527f414c4c00000000000000000000000000000000000000000000000000000000006020830152604082019050919050565b6000612c8e603a836132d9565b91507f57686974656c6973746564526f6c653a2063616c6c657220646f6573206e6f7460008301527f2068617665207468652057686974656c697374656420726f6c650000000000006020830152604082019050919050565b6000612cf4602c836132d9565b91507f57686974656c69737465644d696e7465723a205349474e45525f49535f4e4f5460008301527f5f57484954454c495354454400000000000000000000000000000000000000006020830152604082019050919050565b612d568161334f565b82525050565b612d6581613359565b82525050565b6000612d778285612823565b602082019150612d878284612779565b6014820191508190509392505050565b6000612da4828486612867565b91508190509392505050565b6000612dbb826129dd565b9150612dc78284612823565b60208201915081905092915050565b6000602082019050612deb600083018461276a565b92915050565b6000604082019050612e06600083018661276a565b8181036020830152612e198184866128c5565b9050949350505050565b6000606082019050612e38600083018861276a565b8181036020830152612e4b8186886128c5565b90508181036040830152612e6081848661283a565b90509695505050505050565b6000606082019050612e81600083018661276a565b8181036020830152612e9381856128f2565b9050612ea2604083018461276a565b949350505050565b6000608082019050612ebf600083018761276a565b8181036020830152612ed181866128f2565b9050612ee0604083018561276a565b8181036060830152612ef2818461288c565b905095945050505050565b60006060820190508181036000830152612f178186612790565b90508181036020830152612f2b8185612790565b9050612f3a6040830184612d4d565b949350505050565b6000602082019050612f576000830184612805565b92915050565b6000602082019050612f726000830184612814565b92915050565b6000608082019050612f8d6000830187612814565b612f9a6020830186612d5c565b612fa76040830185612814565b612fb46060830184612814565b95945050505050565b60006020820190508181036000830152612fd7818461288c565b905092915050565b60006020820190508181036000830152612ff98184612964565b905092915050565b6000602082019050818103600083015261301a8161299d565b9050919050565b6000602082019050818103600083015261303a81612a1d565b9050919050565b6000602082019050818103600083015261305a81612a83565b9050919050565b6000602082019050818103600083015261307a81612ae9565b9050919050565b6000602082019050818103600083015261309a81612b4f565b9050919050565b600060208201905081810360008301526130ba81612bb5565b9050919050565b600060208201905081810360008301526130da81612c1b565b9050919050565b600060208201905081810360008301526130fa81612c81565b9050919050565b6000602082019050818103600083015261311a81612ce7565b9050919050565b60006040820190506131366000830185612d4d565b818103602083015261314881846128f2565b90509392505050565b6000604051905081810181811067ffffffffffffffff8211171561317457600080fd5b8060405250919050565b600067ffffffffffffffff82111561319557600080fd5b602082029050602081019050919050565b600067ffffffffffffffff8211156131bd57600080fd5b602082029050602081019050919050565b600067ffffffffffffffff8211156131e557600080fd5b601f19601f8301169050602081019050919050565b600067ffffffffffffffff82111561321157600080fd5b601f19601f8301169050602081019050919050565b600067ffffffffffffffff82111561323d57600080fd5b601f19601f8301169050602081019050919050565b6000819050602082019050919050565b600081519050919050565b600081519050919050565b600081519050919050565b600081519050919050565b6000602082019050919050565b600082825260208201905092915050565b600082825260208201905092915050565b600081905092915050565b600082825260208201905092915050565b600082825260208201905092915050565b600081905092915050565b60006133008261332f565b9050919050565b60006133128261332f565b9050919050565b60008115159050919050565b6000819050919050565b600073ffffffffffffffffffffffffffffffffffffffff82169050919050565b6000819050919050565b600060ff82169050919050565b82818337600083830152505050565b60005b83811015613393578082015181840152602081019050613378565b838111156133a2576000848401525b50505050565b60006133b3826133c4565b9050919050565b6000819050919050565b60006133cf826133e7565b9050919050565b6000601f19601f8301169050919050565b60008160601b9050919050565b6133fd816132f5565b811461340857600080fd5b50565b61341481613307565b811461341f57600080fd5b50565b61342b8161334f565b811461343657600080fd5b5056fea365627a7a72315820b0dbf2a072691ba2d351ae6c858fbcd53dea6d3a70996f0ab948bacb772b7e186c6578706572696d656e74616cf564736f6c634300050c0040",
  "source": "pragma solidity 0.5.12;\npragma experimental ABIEncoderV2;\n\nimport '@openzeppelin/contracts/cryptography/ECDSA.sol';\nimport \"./BulkWhitelistedRole.sol\";\nimport \"../controllers/IMintingController.sol\";\nimport \"../controllers/MintingController.sol\";\nimport \"../CNSRegistry.sol\";\nimport \"../Resolver.sol\";\n\n/**\n * @title WhitelistedMinter\n * @dev Defines the functions for distribution of Second Level Domains (SLD)s.\n */\ncontract WhitelistedMinter is IMintingController, BulkWhitelistedRole {\n    using ECDSA for bytes32;\n\n    event Relayed(address indexed sender, address indexed signer, bytes4 indexed funcSig, bytes32 dataHash);\n\n    string public constant NAME = 'Unstoppable Whitelisted Minter';\n    string public constant VERSION = '0.3.0';\n\n    MintingController internal _mintingController;\n    Resolver internal _resolver;\n    CNSRegistry internal _registry;\n\n    /*\n     * bytes4(keccak256('mintSLD(address,string)')) == 0x4c0b0ed2\n     */\n    bytes4 private constant _SIG_MINT = 0x4c0b0ed2;\n\n    /*\n     * bytes4(keccak256('mintSLDToDefaultResolver(address,string,string[],string[])')) == 0x3d7989fe\n     */\n    bytes4 private constant _SIG_MINT_DEF_RESOLVER = 0x3d7989fe;\n\n    /*\n     * bytes4(keccak256('mintSLDToResolver(address,string,string[],string[],address)')) == 0xaceb4764\n     */\n    bytes4 private constant _SIG_MINT_RESOLVER = 0xaceb4764;\n\n    /*\n     * bytes4(keccak256('safeMintSLD(address,string)')) == 0xb2da2979\n     */\n    bytes4 private constant _SIG_SAFE_MINT = 0xb2da2979;\n\n    /*\n     * bytes4(keccak256('safeMintSLD(address,string,bytes)')) == 0xbe362e2e\n     */\n    bytes4 private constant _SIG_SAFE_MINT_DATA = 0xbe362e2e;\n\n    /*\n     * bytes4(keccak256('safeMintSLDToDefaultResolver(address,string,string[],string[])')) == 0x61050ffd\n     */\n    bytes4 private constant _SIG_SAFE_MINT_DEF_RESOLVER = 0x61050ffd;\n\n    /*\n     * bytes4(keccak256('safeMintSLDToDefaultResolver(address,string,string[],string[],bytes)')) == 0x4b18abea\n     */\n    bytes4 private constant _SIG_SAFE_MINT_DEF_RESOLVER_DATA = 0x4b18abea;\n\n    /*\n     * bytes4(keccak256('safeMintSLDToResolver(address,string,string[],string[],address)')) == 0x4b44c01a\n     */\n    bytes4 private constant _SIG_SAFE_MINT_RESOLVER = 0x4b44c01a;\n\n    /*\n     * bytes4(keccak256('safeMintSLDToResolver(address,string,string[],string[],bytes,address)')) == 0x898851f8\n     */\n    bytes4 private constant _SIG_SAFE_MINT_RESOLVER_DATA = 0x898851f8;\n\n    constructor(MintingController mintingController) public {\n        _mintingController = mintingController;\n        _registry = CNSRegistry(mintingController.registry());\n        _addWhitelisted(address(this));\n    }\n\n    function renounceMinter() external onlyWhitelistAdmin {\n        _mintingController.renounceMinter();\n    }\n\n    /**\n     * Renounce whitelisted account with funds' forwarding\n     */\n    function closeWhitelisted(address payable receiver)\n        external\n        payable\n        onlyWhitelisted\n    {\n        require(receiver != address(0x0), \"WhitelistedMinter: RECEIVER_IS_EMPTY\");\n\n        renounceWhitelisted();\n        receiver.transfer(msg.value);\n    }\n\n    /**\n     * Replace whitelisted account by new account with funds' forwarding\n     */\n    function rotateWhitelisted(address payable receiver)\n        external\n        payable\n        onlyWhitelisted\n    {\n        require(receiver != address(0x0), \"WhitelistedMinter: RECEIVER_IS_EMPTY\");\n\n        _addWhitelisted(receiver);\n        renounceWhitelisted();\n        receiver.transfer(msg.value);\n    }\n\n    function mintSLD(address to, string calldata label)\n        external\n        onlyWhitelisted\n    {\n        _mintingController.mintSLD(to, label);\n    }\n\n    function safeMintSLD(address to, string calldata label)\n        external\n        onlyWhitelisted\n    {\n        _mintingController.safeMintSLD(to, label);\n    }\n\n    function safeMintSLD(\n        address to,\n        string calldata label,\n        bytes calldata _data\n    ) external onlyWhitelisted {\n        _mintingController.safeMintSLD(to, label, _data);\n    }\n\n    function mintSLDToDefaultResolver(\n        address to,\n        string memory label,\n        string[] memory keys,\n        string[] memory values\n    ) public onlyWhitelisted {\n        mintSLDToResolver(to, label, keys, values, address(_resolver));\n    }\n\n    function mintSLDToResolver(\n        address to,\n        string memory label,\n        string[] memory keys,\n        string[] memory values,\n        address resolver\n    ) public onlyWhitelisted {\n        _mintingController.mintSLDWithResolver(to, label, resolver);\n        preconfigureResolver(label, keys, values, resolver);\n    }\n\n    function safeMintSLDToDefaultResolver(\n        address to,\n        string memory label,\n        string[] memory keys,\n        string[] memory values\n    ) public onlyWhitelisted {\n        safeMintSLDToResolver(to, label, keys, values, address(_resolver));\n    }\n\n    function safeMintSLDToResolver(\n        address to,\n        string memory label,\n        string[] memory keys,\n        string[] memory values,\n        address resolver\n    ) public onlyWhitelisted {\n        _mintingController.safeMintSLDWithResolver(to, label, resolver);\n        preconfigureResolver(label, keys, values, resolver);\n    }\n\n    function safeMintSLDToDefaultResolver(\n        address to,\n        string memory label,\n        string[] memory keys,\n        string[] memory values,\n        bytes memory _data\n    ) public onlyWhitelisted {\n        safeMintSLDToResolver(to, label, keys, values, _data, address(_resolver));\n    }\n\n    function safeMintSLDToResolver(\n        address to,\n        string memory label,\n        string[] memory keys,\n        string[] memory values,\n        bytes memory _data,\n        address resolver\n    ) public onlyWhitelisted {\n        _mintingController.safeMintSLDWithResolver(to, label, resolver, _data);\n        preconfigureResolver(label, keys, values, resolver);\n    }\n\n    function setDefaultResolver(address resolver) external onlyWhitelistAdmin {\n        _resolver = Resolver(resolver);\n    }\n\n    function getDefaultResolver() external view returns (address) {\n        return address(_resolver);\n    }\n\n    /**\n     * Relay allows execute transaction on behalf of whitelisted minter.\n     * The function verify signature of call data parameter before execution.\n     * It allows anybody send transaction on-chain when minter has provided proper parameters.\n     * The function allows to relaying calls of fixed functions. The restriction defined in function `verifyCall`\n     */\n    function relay(bytes calldata data, bytes calldata signature) external returns(bytes memory) {\n        bytes32 dataHash = keccak256(data);\n        address signer = verifySigner(dataHash, signature);\n        bytes memory _data = data;\n        bytes4 funcSig = verifyCall(_data);\n\n        /* solium-disable-next-line security/no-low-level-calls */\n        (bool success, bytes memory result) = address(this).call(data);\n        if (success == false) {\n            /* solium-disable-next-line security/no-inline-assembly */\n            assembly {\n                let ptr := mload(0x40)\n                let size := returndatasize\n                returndatacopy(ptr, 0, size)\n                revert(ptr, size)\n            }\n        }\n\n        emit Relayed(msg.sender, signer, funcSig, dataHash);\n        return result;\n    }\n\n    function preconfigureResolver(\n        string memory label,\n        string[] memory keys,\n        string[] memory values,\n        address resolver\n    ) private {\n        if(keys.length == 0) {\n            return;\n        }\n\n        Resolver(resolver).preconfigure(keys, values, _registry.childIdOf(_registry.root(), label));\n    }\n\n    function verifySigner(bytes32 data, bytes memory signature) private view returns(address signer) {\n        signer = keccak256(abi.encodePacked(data, address(this)))\n            .toEthSignedMessageHash()\n            .recover(signature);\n        require(signer != address(0), 'WhitelistedMinter: SIGNATURE_IS_INVALID');\n        require(isWhitelisted(signer), 'WhitelistedMinter: SIGNER_IS_NOT_WHITELISTED');\n    }\n\n    function verifyCall(bytes memory data) private pure returns(bytes4 sig) {\n        /* solium-disable-next-line security/no-inline-assembly */\n        assembly {\n            sig := mload(add(data, add(0x20, 0)))\n        }\n\n        bool isSupported = sig == _SIG_MINT ||\n            sig == _SIG_MINT_DEF_RESOLVER ||\n            sig == _SIG_MINT_RESOLVER ||\n            sig == _SIG_SAFE_MINT ||\n            sig == _SIG_SAFE_MINT_DATA ||\n            sig == _SIG_SAFE_MINT_DEF_RESOLVER ||\n            sig == _SIG_SAFE_MINT_DEF_RESOLVER_DATA ||\n            sig == _SIG_SAFE_MINT_RESOLVER ||\n            sig == _SIG_SAFE_MINT_RESOLVER_DATA;\n\n        require(isSupported, 'WhitelistedMinter: UNSUPPORTED_CALL');\n    }\n}\n",
  "sourcePath": "/Users/aquila/Documents/GitHub/dot-crypto/contracts/util/WhitelistedMinter.sol",
  "compiler": {
    "name": "solc",
    "version": "0.5.12+commit.7709ece9.Emscripten.clang"
  },
  "schemaVersion": "3.3.4",
  "updatedAt": "2021-07-13T17:26:15.830Z",
  "devdoc": {
    "details": "Defines the functions for distribution of Second Level Domains (SLD)s.",
    "methods": {},
    "title": "WhitelistedMinter"
  },
  "userdoc": {
    "methods": {
      "closeWhitelisted(address)": {
        "notice": "Renounce whitelisted account with funds' forwarding"
      },
      "relay(bytes,bytes)": {
        "notice": "Relay allows execute transaction on behalf of whitelisted minter. The function verify signature of call data parameter before execution. It allows anybody send transaction on-chain when minter has provided proper parameters. The function allows to relaying calls of fixed functions. The restriction defined in function `verifyCall`"
      },
      "rotateWhitelisted(address)": {
        "notice": "Replace whitelisted account by new account with funds' forwarding"
      }
    }
  }
}