{
  "contractName": "WhitelistedMinter",
  "abi": [
    {
      "inputs": [
        {
          "internalType": "contract MintingController",
          "name": "mintingController",
          "type": "address"
        }
      ],
      "payable": false,
      "stateMutability": "nonpayable",
      "type": "constructor"
    },
    {
      "anonymous": false,
      "inputs": [
        {
          "indexed": true,
          "internalType": "address",
          "name": "account",
          "type": "address"
        }
      ],
      "name": "WhitelistAdminAdded",
      "type": "event"
    },
    {
      "anonymous": false,
      "inputs": [
        {
          "indexed": true,
          "internalType": "address",
          "name": "account",
          "type": "address"
        }
      ],
      "name": "WhitelistAdminRemoved",
      "type": "event"
    },
    {
      "anonymous": false,
      "inputs": [
        {
          "indexed": true,
          "internalType": "address",
          "name": "account",
          "type": "address"
        }
      ],
      "name": "WhitelistedAdded",
      "type": "event"
    },
    {
      "anonymous": false,
      "inputs": [
        {
          "indexed": true,
          "internalType": "address",
          "name": "account",
          "type": "address"
        }
      ],
      "name": "WhitelistedRemoved",
      "type": "event"
    },
    {
      "constant": false,
      "inputs": [
        {
          "internalType": "address",
          "name": "account",
          "type": "address"
        }
      ],
      "name": "addWhitelistAdmin",
      "outputs": [],
      "payable": false,
      "stateMutability": "nonpayable",
      "type": "function"
    },
    {
      "constant": false,
      "inputs": [
        {
          "internalType": "address",
          "name": "account",
          "type": "address"
        }
      ],
      "name": "addWhitelisted",
      "outputs": [],
      "payable": false,
      "stateMutability": "nonpayable",
      "type": "function"
    },
    {
      "constant": false,
      "inputs": [
        {
          "internalType": "address[]",
          "name": "accounts",
          "type": "address[]"
        }
      ],
      "name": "bulkAddWhitelisted",
      "outputs": [],
      "payable": false,
      "stateMutability": "nonpayable",
      "type": "function"
    },
    {
      "constant": false,
      "inputs": [
        {
          "internalType": "address[]",
          "name": "accounts",
          "type": "address[]"
        }
      ],
      "name": "bulkRemoveWhitelisted",
      "outputs": [],
      "payable": false,
      "stateMutability": "nonpayable",
      "type": "function"
    },
    {
      "constant": true,
      "inputs": [
        {
          "internalType": "address",
          "name": "account",
          "type": "address"
        }
      ],
      "name": "isWhitelistAdmin",
      "outputs": [
        {
          "internalType": "bool",
          "name": "",
          "type": "bool"
        }
      ],
      "payable": false,
      "stateMutability": "view",
      "type": "function"
    },
    {
      "constant": true,
      "inputs": [
        {
          "internalType": "address",
          "name": "account",
          "type": "address"
        }
      ],
      "name": "isWhitelisted",
      "outputs": [
        {
          "internalType": "bool",
          "name": "",
          "type": "bool"
        }
      ],
      "payable": false,
      "stateMutability": "view",
      "type": "function"
    },
    {
      "constant": false,
      "inputs": [
        {
          "internalType": "address",
          "name": "account",
          "type": "address"
        }
      ],
      "name": "removeWhitelisted",
      "outputs": [],
      "payable": false,
      "stateMutability": "nonpayable",
      "type": "function"
    },
    {
      "constant": false,
      "inputs": [],
      "name": "renounceWhitelistAdmin",
      "outputs": [],
      "payable": false,
      "stateMutability": "nonpayable",
      "type": "function"
    },
    {
      "constant": false,
      "inputs": [],
      "name": "renounceWhitelisted",
      "outputs": [],
      "payable": false,
      "stateMutability": "nonpayable",
      "type": "function"
    },
    {
      "constant": false,
      "inputs": [],
      "name": "renounceMinter",
      "outputs": [],
      "payable": false,
      "stateMutability": "nonpayable",
      "type": "function"
    },
    {
      "constant": false,
      "inputs": [
        {
          "internalType": "address",
          "name": "to",
          "type": "address"
        },
        {
          "internalType": "string",
          "name": "label",
          "type": "string"
        }
      ],
      "name": "mintSLD",
      "outputs": [],
      "payable": false,
      "stateMutability": "nonpayable",
      "type": "function"
    },
    {
      "constant": false,
      "inputs": [
        {
          "internalType": "address",
          "name": "to",
          "type": "address"
        },
        {
          "internalType": "string",
          "name": "label",
          "type": "string"
        }
      ],
      "name": "safeMintSLD",
      "outputs": [],
      "payable": false,
      "stateMutability": "nonpayable",
      "type": "function"
    },
    {
      "constant": false,
      "inputs": [
        {
          "internalType": "address",
          "name": "to",
          "type": "address"
        },
        {
          "internalType": "string",
          "name": "label",
          "type": "string"
        },
        {
          "internalType": "bytes",
          "name": "_data",
          "type": "bytes"
        }
      ],
      "name": "safeMintSLD",
      "outputs": [],
      "payable": false,
      "stateMutability": "nonpayable",
      "type": "function"
    },
    {
      "constant": false,
      "inputs": [
        {
          "internalType": "address",
          "name": "to",
          "type": "address"
        },
        {
          "internalType": "string",
          "name": "label",
          "type": "string"
        },
        {
          "internalType": "string[]",
          "name": "keys",
          "type": "string[]"
        },
        {
          "internalType": "string[]",
          "name": "values",
          "type": "string[]"
        }
      ],
      "name": "mintSLDToDefaultResolver",
      "outputs": [],
      "payable": false,
      "stateMutability": "nonpayable",
      "type": "function"
    },
    {
      "constant": false,
      "inputs": [
        {
          "internalType": "address",
          "name": "to",
          "type": "address"
        },
        {
          "internalType": "string",
          "name": "label",
          "type": "string"
        },
        {
          "internalType": "string[]",
          "name": "keys",
          "type": "string[]"
        },
        {
          "internalType": "string[]",
          "name": "values",
          "type": "string[]"
        },
        {
          "internalType": "bytes",
          "name": "_data",
          "type": "bytes"
        }
      ],
      "name": "safeMintSLDToDefaultResolver",
      "outputs": [],
      "payable": false,
      "stateMutability": "nonpayable",
      "type": "function"
    },
    {
      "constant": false,
      "inputs": [
        {
          "internalType": "address",
          "name": "to",
          "type": "address"
        },
        {
          "internalType": "string",
          "name": "label",
          "type": "string"
        },
        {
          "internalType": "string[]",
          "name": "keys",
          "type": "string[]"
        },
        {
          "internalType": "string[]",
          "name": "values",
          "type": "string[]"
        }
      ],
      "name": "safeMintSLDToDefaultResolver",
      "outputs": [],
      "payable": false,
      "stateMutability": "nonpayable",
      "type": "function"
    },
    {
      "constant": false,
      "inputs": [
        {
          "internalType": "address",
          "name": "resolver",
          "type": "address"
        }
      ],
      "name": "setDefaultResolver",
      "outputs": [],
      "payable": false,
      "stateMutability": "nonpayable",
      "type": "function"
    }
  ],
  "bytecode": "0x60806040523480156200001157600080fd5b506040516200284d3803806200284d83398181016040526200003791908101906200038b565b62000048336200015260201b60201c565b80600260006101000a81548173ffffffffffffffffffffffffffffffffffffffff021916908373ffffffffffffffffffffffffffffffffffffffff1602179055508073ffffffffffffffffffffffffffffffffffffffff16637b1039996040518163ffffffff1660e01b815260040160206040518083038186803b158015620000d057600080fd5b505afa158015620000e5573d6000803e3d6000fd5b505050506040513d601f19601f820116820180604052506200010b91908101906200035f565b600460006101000a81548173ffffffffffffffffffffffffffffffffffffffff021916908373ffffffffffffffffffffffffffffffffffffffff1602179055505062000532565b6200016d816000620001b360201b620013ac1790919060201c565b8073ffffffffffffffffffffffffffffffffffffffff167f22380c05984257a1cb900161c713dd71d39e74820f1aea43bd3f1bdd2096129960405160405180910390a250565b620001c582826200026660201b60201c565b1562000208576040517f08c379a0000000000000000000000000000000000000000000000000000000008152600401620001ff9062000461565b60405180910390fd5b60018260000160008373ffffffffffffffffffffffffffffffffffffffff1673ffffffffffffffffffffffffffffffffffffffff16815260200190815260200160002060006101000a81548160ff0219169083151502179055505050565b60008073ffffffffffffffffffffffffffffffffffffffff168273ffffffffffffffffffffffffffffffffffffffff161415620002da576040517f08c379a0000000000000000000000000000000000000000000000000000000008152600401620002d19062000483565b60405180910390fd5b8260000160008373ffffffffffffffffffffffffffffffffffffffff1673ffffffffffffffffffffffffffffffffffffffff16815260200190815260200160002060009054906101000a900460ff16905092915050565b6000815190506200034281620004fe565b92915050565b600081519050620003598162000518565b92915050565b6000602082840312156200037257600080fd5b6000620003828482850162000331565b91505092915050565b6000602082840312156200039e57600080fd5b6000620003ae8482850162000348565b91505092915050565b6000620003c6601f83620004a5565b91507f526f6c65733a206163636f756e7420616c72656164792068617320726f6c65006000830152602082019050919050565b600062000408602283620004a5565b91507f526f6c65733a206163636f756e7420697320746865207a65726f20616464726560008301527f73730000000000000000000000000000000000000000000000000000000000006020830152604082019050919050565b600060208201905081810360008301526200047c81620003b7565b9050919050565b600060208201905081810360008301526200049e81620003f9565b9050919050565b600082825260208201905092915050565b6000620004c382620004de565b9050919050565b6000620004d782620004b6565b9050919050565b600073ffffffffffffffffffffffffffffffffffffffff82169050919050565b6200050981620004b6565b81146200051557600080fd5b50565b6200052381620004ca565b81146200052f57600080fd5b50565b61230b80620005426000396000f3fe608060405234801561001057600080fd5b506004361061010b5760003560e01c80637362d9c8116100a2578063be362e2e11610071578063be362e2e14610264578063c66485b214610280578063d6cd94731461029c578063f6e491aa146102a6578063f8a6c3d6146102c25761010b565b80637362d9c8146101f2578063986502751461020e578063b2da297914610218578063bb5f747b146102345761010b565b80634b18abea116100de5780634b18abea146101945780634c0b0ed2146101b05780634c5a628c146101cc57806361050ffd146101d65761010b565b806310154bad14610110578063291d95491461012c5780633af32abf146101485780633d7989fe14610178575b600080fd5b61012a600480360361012591908101906117ac565b6102de565b005b610146600480360361014191908101906117ac565b610332565b005b610162600480360361015d91908101906117ac565b610386565b60405161016f9190611f86565b60405180910390f35b610192600480360361018d91908101906118b6565b6103a3565b005b6101ae60048036036101a99190810190611961565b610680565b005b6101ca60048036036101c591908101906117d5565b610960565b005b6101d4610a3e565b005b6101f060048036036101eb91908101906118b6565b610a49565b005b61020c600480360361020791908101906117ac565b610d26565b005b610216610d7a565b005b610232600480360361022d91908101906117d5565b610dfe565b005b61024e600480360361024991908101906117ac565b610edc565b60405161025b9190611f86565b60405180910390f35b61027e6004803603610279919081019061182d565b610ef9565b005b61029a600480360361029591908101906117ac565b610fdd565b005b6102a4611069565b005b6102c060048036036102bb9190810190611a38565b611074565b005b6102dc60048036036102d79190810190611a38565b6110f8565b005b6102e733610edc565b610326576040517f08c379a000000000000000000000000000000000000000000000000000000000815260040161031d90612001565b60405180910390fd5b61032f8161117c565b50565b61033b33610edc565b61037a576040517f08c379a000000000000000000000000000000000000000000000000000000000815260040161037190612001565b60405180910390fd5b610383816111d6565b50565b600061039c82600161123090919063ffffffff16565b9050919050565b6103ac33610386565b6103eb576040517f08c379a00000000000000000000000000000000000000000000000000000000081526004016103e290612021565b60405180910390fd5b600260009054906101000a900473ffffffffffffffffffffffffffffffffffffffff1673ffffffffffffffffffffffffffffffffffffffff1663c36c21258585600360009054906101000a900473ffffffffffffffffffffffffffffffffffffffff166040518463ffffffff1660e01b815260040161046c93929190611eb0565b600060405180830381600087803b15801561048657600080fd5b505af115801561049a573d6000803e3d6000fd5b50505050600360009054906101000a900473ffffffffffffffffffffffffffffffffffffffff1673ffffffffffffffffffffffffffffffffffffffff1663e837ae748383600460009054906101000a900473ffffffffffffffffffffffffffffffffffffffff1673ffffffffffffffffffffffffffffffffffffffff166368b62d32600460009054906101000a900473ffffffffffffffffffffffffffffffffffffffff1673ffffffffffffffffffffffffffffffffffffffff1663ebf0c7176040518163ffffffff1660e01b815260040160206040518083038186803b15801561058457600080fd5b505afa158015610598573d6000803e3d6000fd5b505050506040513d601f19601f820116820180604052506105bc9190810190611a79565b896040518363ffffffff1660e01b81526004016105da929190612041565b60206040518083038186803b1580156105f257600080fd5b505afa158015610606573d6000803e3d6000fd5b505050506040513d601f19601f8201168201806040525061062a9190810190611a79565b6040518463ffffffff1660e01b815260040161064893929190611f41565b600060405180830381600087803b15801561066257600080fd5b505af1158015610676573d6000803e3d6000fd5b5050505050505050565b61068933610386565b6106c8576040517f08c379a00000000000000000000000000000000000000000000000000000000081526004016106bf90612021565b60405180910390fd5b600260009054906101000a900473ffffffffffffffffffffffffffffffffffffffff1673ffffffffffffffffffffffffffffffffffffffff16637caf3ad88686600360009054906101000a900473ffffffffffffffffffffffffffffffffffffffff16856040518563ffffffff1660e01b815260040161074b9493929190611eee565b600060405180830381600087803b15801561076557600080fd5b505af1158015610779573d6000803e3d6000fd5b50505050600360009054906101000a900473ffffffffffffffffffffffffffffffffffffffff1673ffffffffffffffffffffffffffffffffffffffff1663e837ae748484600460009054906101000a900473ffffffffffffffffffffffffffffffffffffffff1673ffffffffffffffffffffffffffffffffffffffff166368b62d32600460009054906101000a900473ffffffffffffffffffffffffffffffffffffffff1673ffffffffffffffffffffffffffffffffffffffff1663ebf0c7176040518163ffffffff1660e01b815260040160206040518083038186803b15801561086357600080fd5b505afa158015610877573d6000803e3d6000fd5b505050506040513d601f19601f8201168201806040525061089b9190810190611a79565b8a6040518363ffffffff1660e01b81526004016108b9929190612041565b60206040518083038186803b1580156108d157600080fd5b505afa1580156108e5573d6000803e3d6000fd5b505050506040513d601f19601f820116820180604052506109099190810190611a79565b6040518463ffffffff1660e01b815260040161092793929190611f41565b600060405180830381600087803b15801561094157600080fd5b505af1158015610955573d6000803e3d6000fd5b505050505050505050565b61096933610386565b6109a8576040517f08c379a000000000000000000000000000000000000000000000000000000000815260040161099f90612021565b60405180910390fd5b600260009054906101000a900473ffffffffffffffffffffffffffffffffffffffff1673ffffffffffffffffffffffffffffffffffffffff16634c0b0ed28484846040518463ffffffff1660e01b8152600401610a0793929190611e35565b600060405180830381600087803b158015610a2157600080fd5b505af1158015610a35573d6000803e3d6000fd5b50505050505050565b610a47336112f8565b565b610a5233610386565b610a91576040517f08c379a0000000000000000000000000000000000000000000000000000000008152600401610a8890612021565b60405180910390fd5b600260009054906101000a900473ffffffffffffffffffffffffffffffffffffffff1673ffffffffffffffffffffffffffffffffffffffff16638ad364f88585600360009054906101000a900473ffffffffffffffffffffffffffffffffffffffff166040518463ffffffff1660e01b8152600401610b1293929190611eb0565b600060405180830381600087803b158015610b2c57600080fd5b505af1158015610b40573d6000803e3d6000fd5b50505050600360009054906101000a900473ffffffffffffffffffffffffffffffffffffffff1673ffffffffffffffffffffffffffffffffffffffff1663e837ae748383600460009054906101000a900473ffffffffffffffffffffffffffffffffffffffff1673ffffffffffffffffffffffffffffffffffffffff166368b62d32600460009054906101000a900473ffffffffffffffffffffffffffffffffffffffff1673ffffffffffffffffffffffffffffffffffffffff1663ebf0c7176040518163ffffffff1660e01b815260040160206040518083038186803b158015610c2a57600080fd5b505afa158015610c3e573d6000803e3d6000fd5b505050506040513d601f19601f82011682018060405250610c629190810190611a79565b896040518363ffffffff1660e01b8152600401610c80929190612041565b60206040518083038186803b158015610c9857600080fd5b505afa158015610cac573d6000803e3d6000fd5b505050506040513d601f19601f82011682018060405250610cd09190810190611a79565b6040518463ffffffff1660e01b8152600401610cee93929190611f41565b600060405180830381600087803b158015610d0857600080fd5b505af1158015610d1c573d6000803e3d6000fd5b5050505050505050565b610d2f33610edc565b610d6e576040517f08c379a0000000000000000000000000000000000000000000000000000000008152600401610d6590612001565b60405180910390fd5b610d7781611352565b50565b600260009054906101000a900473ffffffffffffffffffffffffffffffffffffffff1673ffffffffffffffffffffffffffffffffffffffff1663986502756040518163ffffffff1660e01b8152600401600060405180830381600087803b158015610de457600080fd5b505af1158015610df8573d6000803e3d6000fd5b50505050565b610e0733610386565b610e46576040517f08c379a0000000000000000000000000000000000000000000000000000000008152600401610e3d90612021565b60405180910390fd5b600260009054906101000a900473ffffffffffffffffffffffffffffffffffffffff1673ffffffffffffffffffffffffffffffffffffffff1663b2da29798484846040518463ffffffff1660e01b8152600401610ea593929190611e35565b600060405180830381600087803b158015610ebf57600080fd5b505af1158015610ed3573d6000803e3d6000fd5b50505050505050565b6000610ef282600061123090919063ffffffff16565b9050919050565b610f0233610386565b610f41576040517f08c379a0000000000000000000000000000000000000000000000000000000008152600401610f3890612021565b60405180910390fd5b600260009054906101000a900473ffffffffffffffffffffffffffffffffffffffff1673ffffffffffffffffffffffffffffffffffffffff1663be362e2e86868686866040518663ffffffff1660e01b8152600401610fa4959493929190611e67565b600060405180830381600087803b158015610fbe57600080fd5b505af1158015610fd2573d6000803e3d6000fd5b505050505050505050565b610fe633610edc565b611025576040517f08c379a000000000000000000000000000000000000000000000000000000000815260040161101c90612001565b60405180910390fd5b80600360006101000a81548173ffffffffffffffffffffffffffffffffffffffff021916908373ffffffffffffffffffffffffffffffffffffffff16021790555050565b611072336111d6565b565b61107d33610edc565b6110bc576040517f08c379a00000000000000000000000000000000000000000000000000000000081526004016110b390612001565b60405180910390fd5b60008090505b81518110156110f4576110e78282815181106110da57fe5b602002602001015161117c565b80806001019150506110c2565b5050565b61110133610edc565b611140576040517f08c379a000000000000000000000000000000000000000000000000000000000815260040161113790612001565b60405180910390fd5b60008090505b81518110156111785761116b82828151811061115e57fe5b60200260200101516111d6565b8080600101915050611146565b5050565b6111908160016113ac90919063ffffffff16565b8073ffffffffffffffffffffffffffffffffffffffff167fee1504a83b6d4a361f4c1dc78ab59bfa30d6a3b6612c403e86bb01ef2984295f60405160405180910390a250565b6111ea81600161145490919063ffffffff16565b8073ffffffffffffffffffffffffffffffffffffffff167f270d9b30cf5b0793bbfd54c9d5b94aeb49462b8148399000265144a8722da6b660405160405180910390a250565b60008073ffffffffffffffffffffffffffffffffffffffff168273ffffffffffffffffffffffffffffffffffffffff1614156112a1576040517f08c379a000000000000000000000000000000000000000000000000000000000815260040161129890611fe1565b60405180910390fd5b8260000160008373ffffffffffffffffffffffffffffffffffffffff1673ffffffffffffffffffffffffffffffffffffffff16815260200190815260200160002060009054906101000a900460ff16905092915050565b61130c81600061145490919063ffffffff16565b8073ffffffffffffffffffffffffffffffffffffffff167f0a8eb35e5ca14b3d6f28e4abf2f128dbab231a58b56e89beb5d636115001e16560405160405180910390a250565b6113668160006113ac90919063ffffffff16565b8073ffffffffffffffffffffffffffffffffffffffff167f22380c05984257a1cb900161c713dd71d39e74820f1aea43bd3f1bdd2096129960405160405180910390a250565b6113b68282611230565b156113f6576040517f08c379a00000000000000000000000000000000000000000000000000000000081526004016113ed90611fa1565b60405180910390fd5b60018260000160008373ffffffffffffffffffffffffffffffffffffffff1673ffffffffffffffffffffffffffffffffffffffff16815260200190815260200160002060006101000a81548160ff0219169083151502179055505050565b61145e8282611230565b61149d576040517f08c379a000000000000000000000000000000000000000000000000000000000815260040161149490611fc1565b60405180910390fd5b60008260000160008373ffffffffffffffffffffffffffffffffffffffff1673ffffffffffffffffffffffffffffffffffffffff16815260200190815260200160002060006101000a81548160ff0219169083151502179055505050565b60008135905061150a8161229a565b92915050565b600082601f83011261152157600080fd5b813561153461152f8261209e565b612071565b9150818183526020840193506020810190508385602084028201111561155957600080fd5b60005b83811015611589578161156f88826114fb565b84526020840193506020830192505060018101905061155c565b5050505092915050565b600082601f8301126115a457600080fd5b81356115b76115b2826120c6565b612071565b9150818183526020840193506020810190508360005b838110156115fd57813586016115e388826116ef565b8452602084019350602083019250506001810190506115cd565b5050505092915050565b60008083601f84011261161957600080fd5b8235905067ffffffffffffffff81111561163257600080fd5b60208301915083600182028301111561164a57600080fd5b9250929050565b600082601f83011261166257600080fd5b8135611675611670826120ee565b612071565b9150808252602083016020830185838301111561169157600080fd5b61169c838284612247565b50505092915050565b60008083601f8401126116b757600080fd5b8235905067ffffffffffffffff8111156116d057600080fd5b6020830191508360018202830111156116e857600080fd5b9250929050565b600082601f83011261170057600080fd5b813561171361170e8261211a565b612071565b9150808252602083016020830185838301111561172f57600080fd5b61173a838284612247565b50505092915050565b600082601f83011261175457600080fd5b813561176761176282612146565b612071565b9150808252602083016020830185838301111561178357600080fd5b61178e838284612247565b50505092915050565b6000815190506117a6816122b1565b92915050565b6000602082840312156117be57600080fd5b60006117cc848285016114fb565b91505092915050565b6000806000604084860312156117ea57600080fd5b60006117f8868287016114fb565b935050602084013567ffffffffffffffff81111561181557600080fd5b611821868287016116a5565b92509250509250925092565b60008060008060006060868803121561184557600080fd5b6000611853888289016114fb565b955050602086013567ffffffffffffffff81111561187057600080fd5b61187c888289016116a5565b9450945050604086013567ffffffffffffffff81111561189b57600080fd5b6118a788828901611607565b92509250509295509295909350565b600080600080608085870312156118cc57600080fd5b60006118da878288016114fb565b945050602085013567ffffffffffffffff8111156118f757600080fd5b61190387828801611743565b935050604085013567ffffffffffffffff81111561192057600080fd5b61192c87828801611593565b925050606085013567ffffffffffffffff81111561194957600080fd5b61195587828801611593565b91505092959194509250565b600080600080600060a0868803121561197957600080fd5b6000611987888289016114fb565b955050602086013567ffffffffffffffff8111156119a457600080fd5b6119b088828901611743565b945050604086013567ffffffffffffffff8111156119cd57600080fd5b6119d988828901611593565b935050606086013567ffffffffffffffff8111156119f657600080fd5b611a0288828901611593565b925050608086013567ffffffffffffffff811115611a1f57600080fd5b611a2b88828901611651565b9150509295509295909350565b600060208284031215611a4a57600080fd5b600082013567ffffffffffffffff811115611a6457600080fd5b611a7084828501611510565b91505092915050565b600060208284031215611a8b57600080fd5b6000611a9984828501611797565b91505092915050565b6000611aae8383611c15565b905092915050565b611abf816121ff565b82525050565b6000611ad082612182565b611ada81856121bb565b935083602082028501611aec85612172565b8060005b85811015611b285784840389528151611b098582611aa2565b9450611b14836121ae565b925060208a01995050600181019050611af0565b50829750879550505050505092915050565b611b4381612211565b82525050565b6000611b5583856121cc565b9350611b62838584612247565b611b6b83612289565b840190509392505050565b6000611b818261218d565b611b8b81856121cc565b9350611b9b818560208601612256565b611ba481612289565b840191505092915050565b6000611bbb83856121ee565b9350611bc8838584612247565b611bd183612289565b840190509392505050565b6000611be7826121a3565b611bf181856121ee565b9350611c01818560208601612256565b611c0a81612289565b840191505092915050565b6000611c2082612198565b611c2a81856121dd565b9350611c3a818560208601612256565b611c4381612289565b840191505092915050565b6000611c5b601f836121ee565b91507f526f6c65733a206163636f756e7420616c72656164792068617320726f6c65006000830152602082019050919050565b6000611c9b6021836121ee565b91507f526f6c65733a206163636f756e7420646f6573206e6f74206861766520726f6c60008301527f65000000000000000000000000000000000000000000000000000000000000006020830152604082019050919050565b6000611d016022836121ee565b91507f526f6c65733a206163636f756e7420697320746865207a65726f20616464726560008301527f73730000000000000000000000000000000000000000000000000000000000006020830152604082019050919050565b6000611d676040836121ee565b91507f57686974656c69737441646d696e526f6c653a2063616c6c657220646f65732060008301527f6e6f742068617665207468652057686974656c69737441646d696e20726f6c656020830152604082019050919050565b6000611dcd603a836121ee565b91507f57686974656c6973746564526f6c653a2063616c6c657220646f6573206e6f7460008301527f2068617665207468652057686974656c697374656420726f6c650000000000006020830152604082019050919050565b611e2f8161223d565b82525050565b6000604082019050611e4a6000830186611ab6565b8181036020830152611e5d818486611baf565b9050949350505050565b6000606082019050611e7c6000830188611ab6565b8181036020830152611e8f818688611baf565b90508181036040830152611ea4818486611b49565b90509695505050505050565b6000606082019050611ec56000830186611ab6565b8181036020830152611ed78185611bdc565b9050611ee66040830184611ab6565b949350505050565b6000608082019050611f036000830187611ab6565b8181036020830152611f158186611bdc565b9050611f246040830185611ab6565b8181036060830152611f368184611b76565b905095945050505050565b60006060820190508181036000830152611f5b8186611ac5565b90508181036020830152611f6f8185611ac5565b9050611f7e6040830184611e26565b949350505050565b6000602082019050611f9b6000830184611b3a565b92915050565b60006020820190508181036000830152611fba81611c4e565b9050919050565b60006020820190508181036000830152611fda81611c8e565b9050919050565b60006020820190508181036000830152611ffa81611cf4565b9050919050565b6000602082019050818103600083015261201a81611d5a565b9050919050565b6000602082019050818103600083015261203a81611dc0565b9050919050565b60006040820190506120566000830185611e26565b81810360208301526120688184611bdc565b90509392505050565b6000604051905081810181811067ffffffffffffffff8211171561209457600080fd5b8060405250919050565b600067ffffffffffffffff8211156120b557600080fd5b602082029050602081019050919050565b600067ffffffffffffffff8211156120dd57600080fd5b602082029050602081019050919050565b600067ffffffffffffffff82111561210557600080fd5b601f19601f8301169050602081019050919050565b600067ffffffffffffffff82111561213157600080fd5b601f19601f8301169050602081019050919050565b600067ffffffffffffffff82111561215d57600080fd5b601f19601f8301169050602081019050919050565b6000819050602082019050919050565b600081519050919050565b600081519050919050565b600081519050919050565b600081519050919050565b6000602082019050919050565b600082825260208201905092915050565b600082825260208201905092915050565b600082825260208201905092915050565b600082825260208201905092915050565b600061220a8261221d565b9050919050565b60008115159050919050565b600073ffffffffffffffffffffffffffffffffffffffff82169050919050565b6000819050919050565b82818337600083830152505050565b60005b83811015612274578082015181840152602081019050612259565b83811115612283576000848401525b50505050565b6000601f19601f8301169050919050565b6122a3816121ff565b81146122ae57600080fd5b50565b6122ba8161223d565b81146122c557600080fd5b5056fea365627a7a723158207fdf28efc201f9c82312752890430e3131c3f02494e7d1c5c3deb3f827da2bb86c6578706572696d656e74616cf564736f6c634300050c0040",
  "source": "pragma solidity 0.5.12;\npragma experimental ABIEncoderV2;\n\nimport \"./BulkWhitelistedRole.sol\";\nimport \"../controllers/IMintingController.sol\";\nimport \"../controllers/MintingController.sol\";\nimport \"../Registry.sol\";\nimport \"../Resolver.sol\";\n\n/**\n * @title WhitelistedMinter\n * @dev Defines the functions for distribution of Second Level Domains (SLD)s.\n */\ncontract WhitelistedMinter is IMintingController, BulkWhitelistedRole {\n\n    MintingController internal _mintingController;\n    Resolver internal _resolver;\n    Registry internal _registry;\n\n    constructor (MintingController mintingController) public {\n        _mintingController = mintingController;\n        _registry = Registry(mintingController.registry());\n    }\n\n    function renounceMinter() external {\n        _mintingController.renounceMinter();\n    }\n\n    function mintSLD(address to, string calldata label) external onlyWhitelisted {\n        _mintingController.mintSLD(to, label);\n    }\n\n    function safeMintSLD(address to, string calldata label) external onlyWhitelisted {\n        _mintingController.safeMintSLD(to, label);\n    }\n\n    function safeMintSLD(address to, string calldata label, bytes calldata _data) external onlyWhitelisted {\n        _mintingController.safeMintSLD(to, label, _data);\n    }\n\n    function mintSLDToDefaultResolver(address to, string memory label, string[] memory keys, string[] memory values) public onlyWhitelisted {\n        _mintingController.mintSLDWithResolver(to, label, address(_resolver));\n        _resolver.preconfigure(keys, values, _registry.childIdOf(_registry.root(), label));\n    }\n\n    function safeMintSLDToDefaultResolver(address to, string memory label, string[] memory keys, string[] memory values) public onlyWhitelisted {\n        _mintingController.safeMintSLDWithResolver(to, label, address(_resolver));\n        _resolver.preconfigure(keys, values, _registry.childIdOf(_registry.root(), label));\n    }\n\n    function safeMintSLDToDefaultResolver(address to, string memory label, string[] memory keys, string[] memory values, bytes memory _data) public onlyWhitelisted {\n        _mintingController.safeMintSLDWithResolver(to, label, address(_resolver), _data);\n        _resolver.preconfigure(keys, values, _registry.childIdOf(_registry.root(), label));\n    }\n\n    function setDefaultResolver(address resolver) external onlyWhitelistAdmin {\n        _resolver = Resolver(resolver);\n    }\n\n}\n",
  "sourcePath": "/Users/derain/Projects/un-dot-crypto/contracts/util/WhitelistedMinter.sol",
  "compiler": {
    "name": "solc",
    "version": "0.5.12+commit.7709ece9.Emscripten.clang"
  },
  "schemaVersion": "3.0.16",
  "updatedAt": "2020-05-21T10:43:06.683Z",
  "devdoc": {
    "details": "Defines the functions for distribution of Second Level Domains (SLD)s.",
    "methods": {},
    "title": "WhitelistedMinter"
  },
  "userdoc": {
    "methods": {}
  }
}